:0A18EB0000010202030304040505D6
:100C530090E008120F5400000000C203C200C20259
:100C6300C2011212A47E127F0090E044EEF0A3EFC3
:100C7300F090E04C7412F0A37412F090E0427412FE
:100C8300F0A3741CF090E04A7412F0A3744AF0903D
:100C9300E04E7412F0A37478F0EE54E07003020D8A
:100CA300E190E00CE4F0A37480F0A3EEF0A3EFF086
:100CB300C374A29FFF74129ECF2402CF3400FEE4BC
:100CC300FCFD90E004120F4890E000120F54000066
:100CD300000090E004120F3090E000120F3CC312AA
:100CE3000F1F503090E002E0FEA3E0FF90E00CE025
:100CF300FCA3E02FF582EC3EF58374CDF090E00089
:100D0300120F30E47B01FAF9F8120EC390E00012DF
:100D13000F4880BE90E000120F540000000090E0E6
:100D230004120F3090E000120F3CC3120F1F504704
:100D330090E002E0FEA3E0FF90E00EE0FCA3E02FD2
:100D4300F582EC3EF583E0FF90E002E0FCA3E0FDDA
:100D530090E00CE0FAA3E02DF582EA3CF583EFF096
:100D630090E000120F30E47B01FAF9F8120EC39001
:100D7300E000120F4880A790E00CE0FFA3E090E0B2
:100D830044CFF0A3EFF074002480FF741234FFFE0D
:100D9300C390E04DE09FF090E04CE09EF0C390E004
:100DA30047E09FF090E046E09EF0C390E049E09F6B
:100DB300F090E048E09EF0C390E043E09FF090E0C5
:100DC30042E09EF0C390E04BE09FF090E04AE09E4B
:100DD300F0C390E04FE09FF090E04EE09EF0D2E849
:100DE30043D82090E668E04409F090E65CE0443D97
:100DF300F0D2AFD20412165890E680E054F7F053C5
:100E03008EF890E600E054E7F0C2033001051209C2
:100E1300BCC20130032912192D5024C20312170D2D
:100E230020001690E682E030E704E020E1EF90E650
:100E330082E030E604E020E0E41216B612192F1225
:050E4300010080C72240
:1009BC0090E6B9E0120F970A95000B3E010BD3039A
:1009CC0009DF060A8F080A89090A7D0A0A830B00C7
:1009DC00000C3F1219314003020C4B90E6BBE02493
:1009EC00FE603414605724FD601A14603D240670B8
:1009FC007690E044E090E6B3F090E045E090E6B409
:100A0C00F0020C4B90E04CE090E6B3F090E04DE03F
:100A1C0090E6B4F0020C4B90E046E090E6B3F09018
:100A2C00E047E090E6B4F0020C4B90E048E090E632
:100A3C00B3F090E049E090E6B4F0020C4B90E6BACB
:100A4C00E0FF121687AA06A9077B01EA494B600D45
:100A5C00EE90E6B3F0EF90E6B4F0020C4B90E6A00B
:100A6C00E04401F0020C4B90E6A0E04401F0020CD3
:100A7C004B1218B8020C4B1218FF020C4B1218F543
:100A8C00020C4B1218A4020C4B1219334003020C2B
:100A9C004B90E6B8E0247F602B14603C240260038A
:100AAC00020B34A200E433FF25E0FFA202E4334F33
:100ABC0090E740F0E4A3F090E68AF090E68B7402A5
:100ACC00F0020C4BE490E740F0A3F090E68AF09033
:100ADC00E68B7402F0020C4B90E6BCE0547EFF7E79
:100AEC0000E0D3948040067C007D0180047C007D76
:100AFC0000EC4EFEED4F24EBF58274183EF583E4CA
:100B0C0093FF3395E0FEEF24A1FFEE34E68F82F5E0
:100B1C0083E0540190E740F0E4A3F090E68AF09073
:100B2C00E68B7402F0020C4B90E6A0E04401F0025C
:100B3C000C4B1219354003020C4B90E6B8E024FE26
:100B4C00601D24026003020C4B90E6BAE0B4010570
:100B5C00C200020C4B90E6A0E04401F0020C4B905A
:100B6C00E6BAE0705990E6BCE0547EFF7E00E0D31C
:100B7C00948040067C007D0180047C007D00EC4E5E
:100B8C00FEED4F24EBF58274183EF583E493FF33AE
:100B9C0095E0FEEF24A1FFEE34E68F82F583E0545E
:100BAC00FEF090E6BCE05480FF131313541FFFE0DB
:100BBC00540F2F90E683F0E04420F0020C4B90E6AB
:100BCC00A0E04401F08078121937507390E6B8E039
:100BDC0024FE60202402706790E6BAE0B40104D2CF
:100BEC0000805C90E6BAE06402605490E6A0E044B9
:100BFC0001F0804B90E6BCE0547EFF7E00E0D39485
:100C0C008040067C007D0180047C007D00EC4EFE63
:100C1C00ED4F24EBF58274183EF583E493FF339586
:100C2C00E0FEEF24A1FFEE34E68F82F583E0440171
:100C3C00F0800C1216E2500790E6A0E04401F09010
:070C4C00E6A0E04480F02265
:030033000210FBBD
:0410FB0053D8EF32A5
:03000B0002191BBC
:07191B004380015380FE32FE
:03001B00021922A5
:07192200758DFB758B32325D
:10179B0090E022EEF0A3EFF090E02274FFF5F01250
:0C17AB000EAD45F0600512172180ED2204
:1018370090E020EEF0A3EFF012179B90E020E0FE7F
:07184700A3E0FF12179B2232
:10162600E4FEFDEDC39F50050E1E0D80F6E4FDEDB4
:10163600C39F50050E1E0D80F6E4FDEDC39F5005B9
:101646000E1E0D80F6E4FDEDC39F50050E1E0D80A7
:02165600F6227A
:10173200E490E025F07F017E00121837E58030E268
:101742000690E02574C8F090E025E004F0E0C39430
:041752006440E222EB
:08191300C2C18FC130C1FD22E9
:1017B700C2AFC28C438E085389F0438902758AE011
:0C17C700758CE0C2B9D2A9D28CD2AF223E
:10177900C2AFC28E75C82475C052438E1053890FEB
:10178900438910758B32758DFBC2BBD2ABD28ED219
:02179900AF227D
:10187A005380F97F011216264380011216265380DF
:05188A00FE12162622EB
:1017D300E58054F94404F5807F0112162643800105
:0A17E3001216265380FE121626226D
:1017ED00E58054F94402F5807F01121626438001ED
:0A17FD001216265380FE1216262253
:10188F004380067F011216264380011216265380CD
:05189F00FE12162622D6
:1015350090E01DEFF043901053A0EF7F1E7E001248
:10154500183790E01DE0FFB401065390EF53A0EF6C
:10155500EF700643901053A0EFEFB40206439010CE
:1015650043A0107F147E001218377F0A7E001218E0
:0215750037221B
:1013E800AC05A907E4FB12187AE4FAEB25E0FBE563
:1013F8008030E306EB4401FB8004EB54FEFBE9304C
:10140800E70EEC30E70512188F80111217D3800C05
:10141800EC30E7051217ED800312187AE929F9EC88
:101428002CFC0AEAB408C412187A12187A7F7812C7
:051438001626AF03229F
:1018CC0053A0DCE4FF1215357F647E0012183743F9
:0318DC00A0202227
:1014E70053A0DD43A002E4FF1215355380F97F05B1
:1014F7007E00121837E490E01CF07F017E0012187E
:10150700374380017F017E001218375380FE90E039
:101517001CE004F0E0C394C840E07F057E00121889
:0E152700377F021215357F147E00121837220E
:041929001214E7228B
:10143D007D4C7F081213E87F017E00121837E4906F
:10144D00E01CF090E01CE0FFC36480948350357D78
:10145D000C1213E87F017E001218377D68E4FF122D
:10146D0013E87F017E001218377D6CE4FF1213E83C
:10147D0090E67CEFF07F017E0012183790E01CE0C3
:05148D0004F080BF2205
:1013260090E01CEEF0A3EFF0A3EDF0A3EBF07D4C04
:101336007F101213E890E01CE0FF7D1C1213E8A357
:10134600E0FF7D0C1213E890E01FE0FF7D3C1213D6
:10135600E87D74E4FF1213E87D7CE4FF1213E87F56
:10136600057E0012183790E01EE0FF7D2C1213E870
:101376007D64E4FF1213E87D6CE4FF1213E87F0539
:061386007E001218372260
:1011B80090E01CEEF0A3EFF07D4C7F021213E89054
:1011C800E01CE0FF7D1C1213E8A3E0FF7D0C121366
:1011D800E87D68E4FF1213E87D6CE4FF1213E890E1
:1011E800E02CEFF07D78E4FF1213E87D7CE4FF1239
:0811F80013E890E02BEFF02258
:1017560053A0FCE4FF1215357F327E001218377F46
:101766000A7E001218377F011215357F057E00129A
:03177600183722FF
:1012A40090E601E04440F090E61074A0F090E6115E
:1012B400F000000090E61274A2F000000090E61323
:1012C40074A0F000000090E61474E2F000000090B6
:1012D400E61574E0F000000090E6917480F00000E0
:1012E40000F000000090E695F0000000F043AF012C
:1012F400D20075B2F775807075B3F6F590E490E698
:1013040071F075B43F75A00175B540F5B090E67203
:10131400F0F5B6F5B17F05FE1218371217791219D8
:0213240009229C
:10010000E5AA30E0030209BBE5AA30E5030209BB1A
:100110007AF079007EF07F0074F0F59A7400F59B18
:100120007AF879007EF87F0074F8F59D7400F59EEA
:1001300090E690E0FF90E691E0240090E012F090CD
:10014000E67BE090E040F0E064016003020240637F
:10015000904090E678E04440F0E490E679F090E654
:1001600078E020E6F97F017E0012183790E678E00B
:100170004480F090E67974A6F090E678E030E0F9FB
:1001800090E67BE090E02DF090E678E030E0F990AA
:10019000E67BE090E679F090E678E030E0F990E6F2
:1001A00078E04480F090E67974A7F090E678E0304B
:1001B000E0F990E679E090E02DF090E678E030E02C
:1001C000F990E679E090E67CF090E678E030E0F9AE
:1001D00090E679E090E67CF090E678E030E0F99007
:1001E000E679E090E67CF090E678E030E0F990E6A1
:1001F00079E090E67CF090E678E030E0F990E679FE
:10020000E090E67CF090E678E030E0F990E679E086
:1002100090E67CF090E678E030E0F990E678E04413
:1002200020F090E679E090E67CF090E678E030E02F
:10023000F990E679E090E67CF090E678E04440F0D2
:1002400090E040E06402707463908090E678E0444F
:1002500080F090E67974A6F07F017E001218379046
:10026000E67BE090E012F07F017E0012183790E606
:100270007BE090E679F090E67BE090E012F0E4908D
:10028000E015F090E012E0FF90E015E0C39F5017FA
:100290007F017E0012183790E67BE090E679F090BF
:1002A000E015E004F080DC7F017E0012183790E654
:1002B00078E04440F07F077E0012183790E040E07D
:1002C000B4300D43B52053B0DF7F017E00121837E4
:1002D00090E040E0FFB4310643B02053B5DFEFB407
:1002E00050031217B790E040E0FFB45104C28CD223
:1002F000A9EF645760030203CB90E014F090E01480
:10030000E0FFC39408501990E67BE0FE742E2FF5B1
:1003100082E434E0F583EEF090E014E004F080DD58
:1003200090E678E04480F090E67974D2F07F017E28
:100330000012183790E6797408F07F017E001218D9
:1003400037E490E014F090E67BE090E679F07F01EE
:100350007E0012183790E014E004F0E0C3940E40E1
:10036000E590E678E04440F07F017E001218379077
:10037000E678E04480F090E67974D2F07F017E0068
:1003800012183790E6797440F07F017E001218371A
:10039000E490E014F090E014E0FFC39408501E7461
:1003A0002E2FF582E434E0F583E090E679F07F01CA
:1003B0007E0012183790E014E004F080D890E678C0
:1003C000E04440F07F017E0012183790E040E06486
:1003D00059600302053290E67CF090E67BE090E005
:1003E00012F090E67BE090E030F0E490E014F090C2
:1003F000E012E0FF90E014E0C39F40030204C3302A
:1004000099FDC29990E67BE090E02DF0E0FF90E04E
:1004100010E4F0A3EFF0E490E015F090E013F0901A
:10042000E011E0FF90E015E06FF090E010E0C31302
:10043000F0A3E013F090E013E004F0E0B408E090E3
:10044000E015E05401F0700543980880035398F7D5
:1004500090E02DE0F599E490E013F0E490E010F0E6
:10046000A3F090E015E004F090E010E475F00112C4
:100470000E9790E010E07004A3E0649670E490E0C2
:1004800013E004F0E0B40AD3E490E013F0E490E069
:1004900010F0A3F090E015E004F090E010E475F0A7
:1004A00001120E9790E010E07004A3E0643270E453
:1004B00090E013E004F0E0B405D390E014E004F021
:1004C0000203EFC29890E0137401F0E4A3F0E4900B
:1004D000E015F020983790E030E0FF90E015E0C3A1
:1004E0009F502AE490E010F0A3F0209818C390E009
:1004F00011E094FA90E010E094005009E475F001E6
:10050000120E9780E590E015E004F080C630981058
:10051000C29890E67CE599F090E013E004F0800644
:1005200090E014743FF090E014E004F0E0C3943FD6
:10053000409C90E040E0FFB403047E0180027E0016
:10054000EFB410047F0180027F00EF4EFF90E04087
:10055000E0FEB411047D0180027D00ED4FFFEEB49A
:1005600050047E0180027E00EE4FFF90E040E0B438
:1005700060047E0180027E00EE4F604690E01474BD
:1005800001F090E014E0FFC39410501990E67BE076
:10059000FE742E2FF582E434E0F583EEF090E01443
:1005A000E004F080DD90E02FE0FEA3E07C0024007A
:1005B000FFEC3E90E01AF0A3EFF090E040E090E610
:1005C0007CF090E040E0B4030612192912143D902B
:1005D000E040E0B4101B90E01AE0FEA3E0FF12112F
:1005E000B890E02CE090E67CF090E02BE090E67C88
:1005F000F090E040E0B4111390E01AE0FEA3E0FFB9
:1006000090E031E0FDA3E0FB12132690E040E0B45F
:10061000191F7D4C7F801213E87D64E4FF1213E8FC
:100620007D6CE4FF1213E87D4CE4FF1213E812170F
:100630003290E040E0641A70547D4C7F401213E821
:100640007D2CE4FF1213E87D64E4FF1213E87F0AB7
:100650007E001218377D6CE4FF1213E87F0A7E00DB
:100660001218377D4C7F401213E87D2C7FF0121357
:10067000E87D64E4FF1213E87F0A7E001218377DDC
:100680006CE4FF1213E87F0A7E0012183790E040F6
:10069000E0B41B1A7D4C7F041213E87D68E4FF125E
:1006A00013E87D6CE4FF1213E890E67CEFF090E035
:1006B00040E0641770267D4C7F201213E87D2CE407
:1006C000FF1213E87D64E4FF1213E87F0A7E001234
:1006D00018377D6CE4FF1213E812173290E040E007
:1006E000B4181A7D4C7F041213E87D68E4FF1213DE
:1006F000E87D6CE4FF1213E890E67CEFF090E040B8
:10070000E0B41C0312175690E040E0B41D03121829
:10071000CC90E040E0B42B057F0112153590E0400D
:10072000E0B42C0312192990E040E0B42D03121418
:10073000E790E040E0B42E0E4380017F05121626BC
:100740005380FE12162690E040E06458703A90E61E
:1007500078E04480F090E67974D2F07F017E001258
:10076000183790E6797409F07F017E00121837E49B
:1007700090E679F07F01FE12183790E678E0444069
:10078000F07F017E0012183790E040E06460600363
:1007900002092690E014F090E02FE0FF90E014E0D2
:1007A000C39F5041E490E010F0A3F090E033E07577
:1007B000F002A4FFC390E011E09F90E010E095F0FC
:1007C0005009E475F001120E9780E090E014E024E7
:1007D00035F582E434E0F583E0FF12191390E0145C
:1007E000E004F080B290E034E0D3940050030208BB
:1007F000EF90E031E0FFE4FCFDFEFBFA7901F81236
:100800000ED0C004C005C006C00790E030E0FFE491
:10081000FCFDFEFBFAF97801120ED0D003D002D015
:1008200001D000120EC3A804A905AA06AB0790E0E8
:1008300032E07F00FEE4FCFD120EC3E47B02FAF915
:10084000F8120ED090E016120F48E490E013F0C2B8
:10085000C090E01504F090E034E090E029F0E47FEF
:1008600001FEFDFC90E016120F3CD3120F1F4074E6
:1008700090E029E0FF90E015E0D39F506720C02969
:10088000E47F01FEFDFC90E016120F3CD3120F1F17
:10089000401790E016120F3074FFFBFAF9F8120EB1
:1008A000C390E016120F4880D4E47F01FEFDFC9057
:1008B000E016120F3CD3120F1F40A3C2C090E015E8
:1008C000E0242EF582E434E0F583E5C1F090E015F4
:1008D000E004F0E0D394014085A3120F5400009C83
:1008E0004002085E90E015E01490E014F08005E40A
:1008F00090E014F090E014E090E02EF0E490E0142A
:10090000F090E014E0FFC39410501B742E2FF5827A
:10091000E434E0F583E090E02DF090E67CF090E0A8
:1009200014E004F080DB90E040E0FFB45A0690E66B
:100930007BE0F590EFB4610690E67BE0429090E0BA
:1009400040E0B4620690E67BE0529090E040E0FF29
:10095000B4630690E67BE0F580EFB4640690E67C35
:10096000E590F090E040E0B4650D90E67BE0F5CDD9
:10097000F5CBE0F5CCF5CA90E040E0FFB466099015
:10098000E67C746FF0746BF0EFB4670690E67BE082
:1009900052B190E040E0B4680690E67BE042B1904E
:1009A000E690E090E698F000000090E691E090E696
:0C09B00099F000000090E6917480F022A5
:02192D00D322C3
:02192F00D322C1
:02193100D322BF
:0A18F50090E6BAE090E03EF0D32246
:1018A40090E03EE090E740F0E490E68AF090E68B2A
:0418B40004F0D32247
:0A18FF0090E6BAE090E024F0D32256
:1018B80090E024E090E740F0E490E68AF090E68B30
:0418C80004F0D32233
:02193300D322BD
:02193500D322BB
:02193700D322B9
:1016E20090E6B9E0242F601104701C90E604E0FF3C
:1016F2004480FF000000F0801090E604E0FF547F79
:0B170200FF000000F08002D322C32291
:10180700C0E0C083C082D2015391EF90E65D7401BE
:08181700F0D082D083D0E03252
:10184E00C0E0C083C0825391EF90E65D7404F0D087
:06185E0082D083D0E032CD
:10186400C0E0C083C0825391EF90E65D7402F0D073
:0618740082D083D0E032B7
:10149200C0E0C083C082C0D075D000C006C0079033
:1014A200E04AE0FEA3E0FF90E046EEF0A3EFF0F5A5
:1014B200828E83A37402F090E042E0FEA3E0FF90EC
:1014C200E048EEF0A3EFF0F5828E83A37407F053A9
:1014D20091EF90E65D7410F0D007D006D0D0D082A4
:0514E200D083D0E032D0
:10181F00C0E0C083C082D2035391EF90E65D74089D
:08182F00F0D082D083D0E0323A
:10138C00C0E0C083C082C0D075D000C006C007903A
:10139C00E680E030E73090E042E0FEA3E0FF90E032
:1013AC0046EEF0A3EFF0F5828E83A37402F090E08A
:1013BC004AE0FEA3E0FF90E048EEF0A3EFF0F582E8
:1013CC008E83A37407F05391EF90E65D7420F0D0F8
:0C13DC0007D006D0D0D082D083D0E03201
:0110FF0032BE
:01193900327B
:01193A00327A
:01193B003279
:01193C003278
:01193D003277
:01193E003276
:01193F003275
:011940003274
:011941003273
:011942003272
:011943003271
:011944003270
:01194500326F
:01194600326E
:01194700326D
:01194800326C
:01194900326B
:01194A00326A
:01194B003269
:01194C003268
:01194D003267
:01194E003266
:01194F003265
:011950003264
:011951003263
:011952003262
:011953003261
:011954003260
:01195500325F
:01195600325E
:01195700325D
:01195800325C
:01195900325B
:01195A00325A
:01195B003259
:101200001201000200000040B40423220000010289
:1012100000010A06000200000040010009022E0041
:1012200001010080320904000004FF0000000705EE
:101230000202000200070504020002000705860200
:101240000002000705880200020009022E000101C9
:101250000080320904000004FF00000007050202BC
:101260004000000705040240000007058602400018
:10127000000705880240000004030904100343002E
:10128000790070007200650073007300160345005A
:101290005A002D005500530042002000460058001F
:0412A0003200000018
:03004300021100A7
:0300530002110097
:10110000021807000218640002184E0002181F009F
:101110000214920002138C000210FF000219390021
:1011200002193A0002193B0002193C0002193D0065
:1011300002193E0002193F00021940000219410045
:101140000219420002193900021943000219440031
:101150000219450002194600021947000219480009
:10116000021949000219390002193900021939001F
:1011700002194A0002194B0002194C0002194D00D5
:1011800002194E0002194F000219500002195100B5
:101190000219520002195300021954000219550095
:1011A0000219560002195700021958000219590075
:0811B00002195A0002195B004C
:1016B60090E682E030E004E020E60B90E682E0303F
:1016C600E119E030E71590E680E04401F07F147EF2
:0C16D6000012183790E680E054FEF0226D
:10170D0090E682E044C0F090E681F043870100004E
:04171D0000000022A6
:1016580030040990E680E0440AF0800790E680E0D4
:101668004408F07FDC7E0512183790E65D74FFF0C1
:0F16780090E65FF05391EF90E680E054F7F02298
:101721007400F58690FDA57C05A3E582458370F9DB
:011731002295
:0A190900E490E055F0D2E9D2AF22DD
:1015EE00AD0790E678E020E6F9C2E990E678E044AF
:1015FE0080F0ED25E090E679F090E678E030E0F9C5
:10160E0090E678E04440F090E678E020E6F990E647
:08161E0078E030E1D6D2E922A8
:1015B400AC0790E678E020E6F990E055E0702990D9
:1015C400E678E04480F0AF04EF25E090E679F0900F
:1015D400E050EDF0AF03A9077B01A3120F8EE49056
:0A15E400E054F0A304F0D322C32268
:10157700AC0790E678E020E6F990E055E0702C9013
:10158700E678E04480F0AF04EF25E0440190E67987
:10159700F090E050EDF0AF03A9077B01A3120F8E87
:0D15A700E490E054F0A37403F0D322C322BB
:03004B00020FBDE4
:100FBD00C0E0C083C082C085C084C086758600C075
:100FCD00D075D000C000C001C002C003C00790E6BC
:100FDD0078E030E20990E0557406F00210DF90E6FB
:100FED0078E020E10E90E055E0640260067407F0B1
:100FFD000210DF90E055E024FE607614604424FE7C
:10100D0070030210CC24FC70030210DA2408600374
:10101D000210DF90E051120F8590E054E0FF04F0D4
:10102D008F82758300120E4890E679F090E050E0C3
:10103D00FF90E054E06F60030210DFA37405F0022F
:10104D0010DF90E679E0FF90E051120F8590E054AB
:10105D00E0F582758300EF120E7590E0557402F085
:10106D0090E050E06401706A90E678E04420F080F2
:10107D006190E050E024FEFF90E054E0B50707904A
:10108D00E678E04420F090E050E014FF90E054E06A
:10109D00B5070C90E678E04440F090E055E4F09010
:1010AD00E679E0FF90E051120F8590E054E0F58273
:1010BD00758300EF120E7590E054E004F0801390EC
:1010CD00E678E04440F090E055E4F0800590E0557E
:1010DD00E4F05391DFD007D003D002D001D000D07F
:0E10ED00D0D086D084D085D082D083D0E0329F
:02168700A907B1
:1016890090E04EE0FEA3E0FF8F828E83A3E0640327
:101699007017AD0119ED7001228F828E83E07C00F5
:0C16A9002FFDEC3EFEAF0580DFE4FEFFED
:0116B5002212
:030000000218DF04
:0C18DF00787FE4F6D8FD758120020C53E0
:100E4800BB010CE58229F582E5833AF583E022505F
:100E580006E92582F8E622BBFE06E92582F8E222A9
:0D0E6800E58229F582E5833AF583E49322C3
:100E7500F8BB010DE58229F582E5833AF583E8F0B3
:100E8500225006E92582C8F622BBFE05E92582C85F
:020E9500F22247
:100E9700C5F0F8A3E028F0C5F0F8E58215827002E6
:060EA7001583E038F02283
:100EAD00A3F8E0C5F025F0F0E582158270021583F8
:060EBD00E0C838F0E82255
:0D0EC300EF2BFFEE3AFEED39FDEC38FC227E
:100ED000E88FF0A4CC8BF0A42CFCE98EF0A42CFCC1
:100EE0008AF0EDA42CFCEA8EF0A4CDA8F08BF0A43F
:100EF0002DCC3825F0FDE98FF0A42CCD35F0FCEB9E
:100F00008EF0A4FEA9F0EB8FF0A4CFC5F02ECD3962
:0F0F1000FEE43CFCEAA42DCE35F0FDE43CFC22CF
:100F1F00EB9FF5F0EA9E42F0E99D42F0E89C45F028
:010F2F00229F
:0C0F3000E0FCA3E0FDA3E0FEA3E0FF2234
:0C0F3C00E0F8A3E0F9A3E0FAA3E0FB2238
:0C0F4800ECF0A3EDF0A3EEF0A3EFF0221C
:100F5400A8828583F0D083D082120F6B120F6B129C
:100F64000F6B120F6BE473E493A3C583C5F0C583C1
:100F7400C8C582C8F0A3C583C5F0C583C8C582C8E7
:010F8400224A
:090F8500E0FBA3E0FAA3E0F9226D
:090F8E00EBF0A3EAF0A3E9F02264
:100F9700D083D082F8E4937012740193700DA3A3E9
:100FA70093F8740193F5828883E4737402936860FD
:060FB700EFA3A3A380DFFD
:00000001FF
