:0A18000000010202030304040505C1
:100E030090E04612123A00000000C203C200C20280
:100E1300C20112126B7E137F0090E062EEF0A3EF2B
:100E2300F090E06A7413F0A37412F090E06074130E
:100E3300F0A3741CF090E0687413F0A3744AF0906C
:100E4300E06C7413F0A37478F0EE54E07003020FB7
:100E5300D190E04AE4F0A37480F0A3EEF0A3EFF0A6
:100E6300C374A29FFF74139ECF2402CF3400FEE409
:100E7300FCFD90E04212122E90E03E12123A000066
:100E8300000090E042E0FCA3E0FDA3E0FEA3E0FF4E
:100E930090E03EE0F8A3E0F9A3E0FAA3E0FBC3127D
:100EA300121D504490E03EE0A3E0A3E0FEA3E0FF68
:100EB30090E04AE0FCA3E02FF582EC3EF58374CD8D
:100EC300F090E03EE0FCA3E0FDA3E0FEA3E0FFE43E
:100ED300FAF9F8EF2401FFEA3EFEE93DFDE83CFCA8
:100EE30090E03E12122E809A90E03E12123A0000D9
:100EF300000090E042E0FCA3E0FDA3E0FEA3E0FFDE
:100F030090E03EE0F8A3E0F9A3E0FAA3E0FBC3120C
:100F1300121D505390E03EE0A3E0A3E0FEA3E0FFE8
:100F230090E04CE0FCA3E02FF582EC3EF583E0FD7E
:100F330090E04AE0FAA3E02FF582EA3EF583EDF074
:100F430090E03EE0FCA3E0FDA3E0FEA3E0FFE4FAB3
:100F5300F9F8EF2401FFEA3EFEE93DFDE83CFC9091
:100F6300E03E12122E808B90E04AE0FFA3E090E077
:100F730062CFF0A3EFF074002480FF741334FFFEFC
:100F8300C390E06BE09FF090E06AE09EF0C390E0D6
:100F930065E09FF090E064E09EF0C390E067E09F1F
:100FA300F090E066E09EF0C390E061E09FF090E097
:100FB30060E09EF0C390E069E09FF090E068E09EFF
:100FC300F0C390E06DE09FF090E06CE09EF0D2E81B
:100FD30043D82090E668E04409F090E65CE0443DA5
:100FE300F0D2AFD2041215A190E680E054F7F0538B
:100FF3008EF890E600E054E74410F0C20330010598
:10100300120B4EC20130032912182A5024C20312B4
:10101300168320001690E682E030E704E020E1EF3B
:1010230090E682E030E604E020E0E412162C121889
:071033002C12010080C7220E
:100B4E0090E6B9E07003020C45147003020CEE241B
:100B5E00FE7003020D8324FB7003020C3F1470031E
:100B6E00020C39147003020C2D147003020C332482
:100B7E00056003020DEF12182E4003020DFB90E6E6
:100B8E00BBE024FE603B14606224FD601F146046CF
:100B9E0024066003020C2390E062E0FCA3E0FDEC6F
:100BAE0090E6B3F0ED90E6B4F0020DFB90E06AE053
:100BBE00FCA3E0FDEC90E6B3F0ED90E6B4F0020D90
:100BCE00FB90E064E0FCA3E0FDEC90E6B3F0ED906A
:100BDE00E6B4F0020DFB90E066E0FCA3E0FDEC90C5
:100BEE00E6B3F0ED90E6B4F0020DFB90E6BAE0FF4E
:100BFE001215D0AA06A9077B01EA494B600DEE90AB
:100C0E00E6B3F0EF90E6B4F0020DFB90E6A0E04400
:100C1E0001F0020DFB90E6A0E04401F0020DFB1284
:100C2E0017B2020DFB121814020DFB12180A020D58
:100C3E00FB12179E020DFB1218304003020DFB90A3
:100C4E00E6B8E0247F602B14603C24026003020CA3
:100C5E00E4A200E433FF25E0FFA202E4334F90E765
:100C6E0040F0E4A3F090E68AF090E68B7402F00276
:100C7E000DFBE490E740F0A3F090E68AF090E68B4F
:100C8E007402F0020DFB90E6BCE0547EFF7E00E0A5
:100C9E00D3948040067C007D0180047C007D00ECB6
:100CAE004EFEED4F2400F58274183EF583E493FF5B
:100CBE003395E0FEEF24A1FFEE34E68F82F583E05C
:100CCE00540190E740F0E4A3F090E68AF090E68BB2
:100CDE007402F0020DFB90E6A0E04401F0020DFB61
:100CEE001218324003020DFB90E6B8E024FE601DA0
:100CFE0024026003020DFB90E6BAE0B40105C200C7
:100D0E00020DFB90E6A0E04401F0020DFB90E6BA66
:100D1E00E0705990E6BCE0547EFF7E00E0D39480F4
:100D2E0040067C007D0180047C007D00EC4EFEEDD3
:100D3E004F2400F58274183EF583E493FF3395E05B
:100D4E00FEEF24A1FFEE34E68F82F583E054FEF031
:100D5E0090E6BCE05480FF131313541FFFE0540FB2
:100D6E002F90E683F0E04420F0020DFB90E6A0E029
:100D7E004401F08078121834507390E6B8E024FEE7
:100D8E0060202402706790E6BAE0B40104D20080BD
:100D9E005C90E6BAE06402605490E6A0E04401F094
:100DAE00804B90E6BCE0547EFF7E00E0D394804002
:100DBE00067C007D0180047C007D00EC4EFEED4F34
:100DCE002400F58274183EF583E493FF3395E0FE1C
:100DDE00EF24A1FFEE34E68F82F583E04401F0802C
:100DEE000C121658500790E6A0E04401F090E6A0D1
:050DFE00E04480F0223A
:030033000218268A
:0418260053D8EF3272
:1016CC0090E05EEEF0A3EFF090E05E74FFF5F012A8
:0C16DC0011B845F0600512169780ED2251
:1017300090E05CEEF0A3EFF01216CC90E05CE0FEDF
:07174000A3E0FF1216CC220A
:08181E00C2C18FC130C1FD22DF
:1017C600AE071FEE600890E038E004F080F253B6F2
:0217D600FB22F4
:10174700EF1FAC0670011E4C600890E038E004F013
:0617570080EE53B6FB22F8
:0110FF0022CE
:0E17D80030060453B6FB2253B1FB43B6042285
:10153A00E4FF1217C6C2061217D87FA37E0012173D
:10154A0047D2061217D87F2E1217C6E5B15404FFE8
:10155A001313543F24FF920543B04053B0BF7F8416
:08156A007E00121747A20522C2
:1015FF00300515C2061217D87F021217C6D206126F
:10160F0017D87F191217C622C2061217D87F1812C1
:0D161F0017C6D2061217D87F041217C62274
:10157200C2061217D87F021217C653B6FB7F031298
:1015820017C6E5B15404FF1313543F24FF920543D9
:0F159200B04053B0BF7F1B7E00121747A2052247
:10178900AD07E4FBED1392051215FFEDC313FD0B35
:05179900EBB408F02292
:1016E800E4FDFBEDC313FD1215725004ED4480FDBB
:0816F8000BEBB408EEAF052274
:0E17E600D2051210FF12153A5002C322D32270
:10103A00AA07A20492051210FF12153A5002C322FF
:10104A007FCC1217897FA5121789AF02EFC43354D8
:10105A00E0FF121789E4FF121789E490E05BF012AF
:10106A0016E890E05BE02427F582E434E0F583EFAC
:10107A00F07F017E0012173090E05BE004F0E0C3DD
:10108A00942040DB7F057E001217307FFF121789FC
:10109A007F017E001217301216E890E009E4F0A3EF
:1010AA00EFF01216E8EFFE90E009E04EF0A3E0F050
:1010BA007F017E00121730E490E05BF01216E89090
:1010CA00E05BE02411F582E434E0F583EFF090E090
:1010DA005BE004F0E0C3941440E21216E890E025C5
:1010EA00E4F0A3EFF01216E8EFFE90E025E04EF0F0
:0510FA00A3E0F0D32289
:1014AF00AA07C2051210FF12153A5002C3227FCCB1
:1014BF001217897F0F121789AF02121789E4FF12D3
:1014CF001789E4FC74272CF582E434E0F583E0FF00
:1014DF001217890CECB408EC1216E890E027EFF025
:0A14EF001216E890E028EFF0D32277
:1016A80012153A5002C3227F33121789E4FA121630
:1016B800E874272AF582E434E0F583EFF00AEAB407
:0416C80008ECD32235
:1014000030042374042FF582E434E0F583E0FE9089
:10141000E05CE0F4FDEE5DFE74042FF582E434E060
:10142000F583EEF0801C74042FF582E434E0F5833C
:10143000C083C082E0FE90E05CE0FDEE4DD082D043
:1014400083F074042FF582E434E0F583E0FEE42FAA
:0A145000F582E43440F583EEF0224B
:1014F900E4FF90E029E0FEEFC39E503490E67BE0E4
:1015090090E00FF0E090E67CF0E4FE90E00FE0FD63
:1015190030E70543900280035390FD439001ED2588
:10152900E090E00FF05390FE0EEEB408DE0F80C29B
:01153900228F
:1012E200E5B15420FFC4135407FFA207E4336F6033
:0E12F2000790E67C7401F022E490E67CF02286
:10126B0090E601E04460F090E61074A0F090E61177
:10127B00F000000090E61274A2F000000090E6135C
:10128B0074A0F000000090E61474E2F000000090EF
:10129B00E61574E0F000000090E6917480F0000019
:1012AB0000F000000090E695F0000000F043AF0165
:1012BB00D200E490E670F0F5B275B363F59090E66A
:1012CB0071F0F5B4F5A075B54075B01090E672F0FD
:0712DB0075B6C075B1C02219
:10010000E5AA30E003020B4DE5AA30E503020B4DF2
:100110007AF079007EF07F0074F0F59A7400F59B18
:100120007AF879007EF87F0074F8F59D7400F59EEA
:1001300090E690E0FF90E691E0240090E050F0908F
:10014000E67BE090E03BF0E06401600302023D905A
:10015000E678E04440F0E490E679F090E678E0203C
:10016000E6F97F017E0012173090E678E04480F0D7
:1001700090E67974A6F090E678E030E0F990E67BBE
:10018000E090E00FF090E678E030E0F990E67BE078
:1001900090E679F090E678E030E0F990E678E04497
:1001A00080F090E67974A7F090E678E030E0F9907E
:1001B000E679E090E00FF090E678E030E0F990E644
:1001C00079E090E67CF090E678E030E0F990E6792E
:1001D000E090E67CF090E678E030E0F990E679E0B7
:1001E00090E67CF090E678E030E0F990E679E090F7
:1001F000E67CF090E678E030E0F990E679E090E691
:100200007CF090E678E030E0F990E679E090E67CEA
:10021000F090E678E030E0F990E678E04420F09065
:10022000E679E090E67CF090E678E030E0F990E660
:1002300079E090E67CF090E678E04440F090E03B96
:10024000E06402707190E678E04480F090E67974A2
:10025000A6F07F017E0012173090E67BE090E05020
:10026000F07F017E0012173090E67BE090E679F097
:1002700090E67BE090E050F0E490E053F090E050A6
:10028000E0FF90E053E0C39F50177F017E001217FC
:100290003090E67BE090E679F090E053E004F08067
:1002A000DC7F017E0012173090E678E04440F07F5A
:1002B000077E0012173090E03BE0B4300D43B520CC
:1002C00053B0DF7F017E0012173090E03BE0FFB4B7
:1002D000310643B02053B5DFEF645760030203B229
:1002E00090E052F090E052E0FFC39408501990E67D
:1002F0007BE0FE74272FF582E434E0F583EEF09086
:10030000E052E004F080DD90E678E04480F090E692
:100310007974D2F07F017E0012173090E67974086C
:10032000F07F017E00121730E490E052F090E67BFF
:10033000E090E679F07F017E0012173090E052E005
:1003400004F0E0C3940E40E590E678E04440F07F8E
:10035000017E0012173090E678E04480F090E67954
:1003600074D2F07F017E0012173090E6797440F06D
:100370007F017E00121730E490E052F090E052E0EE
:10038000FFC39408501E74272FF582E434E0F583F0
:10039000E090E679F07F017E0012173090E052E0A5
:1003A00004F080D890E678E04440F07F017E0012AF
:1003B000173090E03BE06459600302052D90E67C25
:1003C000F090E67BE090E050F090E67BE090E02952
:1003D000F0E490E052F090E050E0FF90E052E0C393
:1003E0009F40030204B93099FDC29990E67BE090EA
:1003F000E00FF0E0FF90E04EE4F0A3EFF0E490E0D7
:1004000053F090E051F090E04EE0FCA3E0FDFF904F
:10041000E053E06FF0ECC313FFED1390E04ECFF02C
:10042000A3EFF090E051E004F0E0B408D990E0537D
:10043000E05401F0700543980880035398F790E06A
:100440000FE0F599E490E051F0E490E04EF0A3F075
:1004500090E053E004F090E04FE004F0700690E08C
:100460004EE004F090E04EE07004A3E0649670E08B
:1004700090E051E004F0E0B40ACFE490E051F0E401
:1004800090E04EF0A3F090E053E004F090E04FE0F5
:1004900004F0700690E04EE004F090E04EE070044E
:1004A000A3E0643270E090E051E004F0E0B405CFE6
:1004B00090E052E004F00203D6C29890E05174013B
:1004C000F0E4A3F0E490E053F020983C90E029E0C1
:1004D000FF90E053E0C39F502FE490E04EF0A3F074
:1004E00020981DC390E04FE094FA90E04EE0940015
:1004F000500EA3E004F0700690E04EE004F080E0BF
:1005000090E053E004F080C1309810C29890E67CEF
:10051000E599F090E051E004F0800690E052743FDD
:10052000F090E052E004F0E0C3943F409790E03B4D
:10053000E06435705BD20490E05C74FFF0E4FF127D
:100540001400C20490E05C7401F0E4121400C204D0
:1005500090E05C7420F00F121400C204E490E05CA0
:10056000F00F121400C204E490E05CF00F121400CB
:100570007F647E001217301212E27F647E00121731
:100580003090E037E090E67CF07F647E0012173018
:1005900090E03BE0FFB4102190E67CF043B6047F8E
:1005A000647E0012173053B6FB7F647E0012173052
:1005B0001217E6E43390E67CF090E03BE0641160D3
:1005C000030206B990E05AF0E490E050F090E05059
:1005D000E0FFC39408501474272FF582E434E0F54B
:1005E00083E4F090E050E004F080E290E05AE00410
:1005F00075F008A4FF1214AF90E05AE004F0E0C3D5
:10060000940F40C47F027E0012173090E03BE090D0
:10061000E67CF0E490E050F090E050E0FFC39408F6
:10062000501990E67BE0FE74272FF582E434E0F564
:1006300083EEF090E050E004F080DDE4FF1214AFB0
:100640007F027E00121730C204E4FF12103AE490D9
:10065000E67CF090E009E0FEA3E090E67CF0EEF0AE
:1006600090E025E0FEA3E090E67CF0EEF0E490E080
:1006700050F090E050E0FFC39420501774272FF5FE
:1006800082E434E0F583E090E67CF090E050E00412
:10069000F080DFE490E050F090E050E0FFC394146D
:1006A000501774112FF582E434E0F583E090E67C76
:1006B000F090E050E004F080DF90E03BE0FFB41207
:1006C0002D90E67CF01216A8E490E050F090E050F7
:1006D000E0FFC39408501774272FF582E434E0F547
:1006E00083E090E67CF090E050E004F080DF90E062
:1006F0003BE064B0600302085890E67BE090E0289D
:10070000F090E67BE090E029F090E028E07045531F
:1007100090BF90E037F05390DF7F05FE1217304313
:100720009020E490E052F07F017E001216CCE5901C
:1007300030E4047F0180027F00BF010C90E052741E
:10074000FAF090E0377401F090E052E004F0E0C37A
:1007500094C840D390E67C7401F0F0F090E028E07B
:10076000600690E0377401F01214F990E028E0641C
:1007700002600302084090E037F090E052F07F0101
:100780007E00121730E59030E3047F0180027F0085
:10079000EF6401600302083190E05274FAF090E0D7
:1007A000377401F07F147E0012173053B0EF7FC80A
:1007B0007E0012173043B0107FC87E00121730E55C
:1007C0008E54F84407F58EC207E490E004F0A3F0DD
:1007D000A3F0A3F0A3F0D20490E05C74FFF0E4FF78
:1007E000121400C20490E05C7403F0E4121400C21E
:1007F0000490E05C7420F00F121400C204E490E056
:100800005CF00F121400C204E490E05CF00F1214CC
:1008100000C20490E05C7403F00F1214007F647E49
:1008200000121730D20490E05C7403F07F041214BD
:100830000090E052E004F0E0C394C8500302077E49
:100840007AF879007EF87F0074F8F59D7400F59EC3
:1008500090E037E090E67CF090E03BE0FFB460048D
:100860007E0180027E00EFB450047F0180027F0091
:10087000EF4E604690E0527401F090E052E0FFC30A
:100880009410501990E67BE0FE74272FF582E43433
:10089000E0F583EEF090E052E004F080DD90E02897
:1008A000E0FEA3E07C002400FFEC3E90E058F0A3C3
:1008B000EFF090E03BE090E67CF090E03BE064609D
:1008C0006003020AA190E052F090E028E0FF90E07F
:1008D00052E0C39F5046E490E04EF0A3F090E02C2D
:1008E000E075F002A4FFC390E04FE09F90E04EE07F
:1008F00095F0500EA3E004F0700690E04EE004F096
:1009000080DB90E052E0242EF582E434E0F583E0D1
:10091000FF12181E90E052E004F080AD90E02DE050
:10092000D394005003020A6A90E02AE0FFE4FCFD41
:10093000FEFBFA7901F81211CEC004C005C006C052
:100940000790E029E0FFE4FCFDFEFBFAF9780112D4
:1009500011CED003D002D001D000EF2BFFEE3AFE33
:10096000ED39FDEC38FCA804A905AA06AB0790E018
:100970002BE0FEE4FCFD2BFFEA3EFEED39FDEC38FA
:10098000FCE47B02FAF9F81211CE90E05412122E18
:10099000E490E051F0C2C090E05304F090E02DE00C
:1009A00090E00BF0E47F01FEFDFC90E054E0F8A342
:1009B000E0F9A3E0FAA3E0FBD312121D5003020AF0
:1009C0005F90E00BE0FF90E053E0D39F4003020A0A
:1009D0005F20C042E47F01FEFDFC90E054E0F8A3FC
:1009E000E0F9A3E0FAA3E0FBD312121D402890E047
:1009F00054E0FCA3E0FDA3E0FEA3E0FF74FFEF24BE
:100A0000FFFFEE34FFFEED34FFFDEC34FFFC90E021
:100A10005412122E80BBE47F01FEFDFC90E054E0F6
:100A2000F8A3E0F9A3E0FAA3E0FBD312121D5003F0
:100A30000209A4C2C090E053E02427F582E434E028
:100A4000F583E5C1F090E053E004F0E0D394015069
:100A5000030209A4A312123A00009C400209A490C8
:100A6000E053E01490E052F08005E490E052F09002
:100A7000E052E090E027F0E490E052F090E052E0A5
:100A8000FFC39410501B74272FF582E434E0F583E4
:100A9000E090E00FF090E67CF090E052E004F0800F
:100AA000DB90E03BE0B45A1AD20490E05C74FFF0B3
:100AB0007F03121400C20490E028E090E05CF01282
:100AC000140090E03BE0B4610FC20490E028E09095
:100AD000E05CF07F0312140090E03BE0B4620FD2C0
:100AE0000490E028E090E05CF07F0312140090E0B6
:100AF0003BE0B4631AD20490E05C74FFF07F021212
:100B00001400C20490E028E090E05CF01214009021
:100B1000E03BE0FFB4650D90E67BE0F5CDF5CBE082
:100B2000F5CCF5CAEFB4660990E67C746FF0746B8F
:100B3000F090E690E090E698F000000090E691E0FA
:0E0B400090E699F000000090E6917480F0229B
:02182A00D322C7
:02182C00D322C5
:02182E00D322C3
:0A180A0090E6BAE090E039F0D32236
:10179E0090E039E090E740F0E490E68AF090E68B36
:0417AE0004F0D3224E
:0A18140090E6BAE090E000F0D32265
:1017B20090E000E090E740F0E490E68AF090E68B5B
:0417C20004F0D3223A
:02183000D322C1
:02183200D322BF
:02183400D322BD
:1016580090E6B9E0242F601104701C90E604E0FFC6
:101668004480FF000000F0801090E604E0FF547F03
:0B167800FF000000F08002D322C3221C
:10170000C0E0C083C082D2015391EF90E65D7401C6
:08171000F0D082D083D0E0325A
:10175D00C0E0C083C0825391EF90E65D7404F0D079
:06176D0082D083D0E032BF
:10177300C0E0C083C0825391EF90E65D7402F0D065
:0617830082D083D0E032A9
:10145A00C0E0C083C082C0D075D000C006C007906B
:10146A00E068E0FEA3E0FF90E064EEF0A3EFF0F5A1
:10147A00828E83A37402F090E060E0FEA3E0FF9006
:10148A00E066EEF0A3EFF0F5828E83A37407F053C3
:10149A0091EF90E65D7410F0D007D006D0D0D082DC
:0514AA00D083D0E03208
:10171800C0E0C083C082D2035391EF90E65D7408A5
:08172800F0D082D083D0E03242
:1013A400C0E0C083C082C0D075D000C006C0079022
:1013B400E680E030E73090E060E0FEA3E0FF90E0FC
:1013C40064EEF0A3EFF0F5828E83A37402F090E054
:1013D40068E0FEA3E0FF90E066EEF0A3EFF0F58294
:1013E4008E83A37407F05391EF90E65D7420F0D0E0
:0C13F40007D006D0D0D082D083D0E032E9
:01183600327F
:01183700327E
:01183800327D
:01183900327C
:01183A00327B
:01183B00327A
:01183C003279
:01183D003278
:01183E003277
:01183F003276
:011840003275
:011841003274
:011842003273
:011843003272
:011844003271
:011845003270
:01184600326F
:01184700326E
:01184800326D
:01184900326C
:01184A00326B
:01184B00326A
:01184C003269
:01184D003268
:01184E003267
:01184F003266
:011850003265
:011851003264
:011852003263
:011853003262
:011854003261
:011855003260
:01185600325F
:01185700325E
:01185800325D
:01185900325C
:101300001201000200000040B40413860000010234
:1013100000010A06000200000040010009022E0040
:1013200001010080320904000004FF0000000705ED
:101330000202400000070504024000000705860283
:101340004000000705880240000009022E0001014C
:101350000080320904000004FF00000007050202BB
:101360004000000705040240000007058602400017
:10137000000705880240000004030904100343002D
:101380007900700072006500730073001603450059
:101390005A002D005500530042002000460058001E
:0413A0003200000017
:10162C0090E682E030E004E020E60B90E682E030C9
:10163C00E119E030E71590E680E04401F07F147E7C
:0C164C000012173090E680E054FEF022FF
:1016830090E682E044C0F090E681F04387010000D9
:041693000000002231
:1015A10030040990E680E0440AF0800790E680E08C
:1015B1004408F07FDC7E0512173090E65D74FFF081
:0F15C10090E65FF05391EF90E680E054F7F02250
:101697007400F58690FDA57C05A3E582458370F966
:0116A7002220
:0215D000A90769
:1015D20090E06CE0FEA3E0FF8F828E83A3E06403C1
:1015E2007017AD0119ED7001228F828E83E07C00AD
:0C15F2002FFDEC3EFEAF0580DFE4FEFFA5
:0115FE0022CA
:03004300021100A7
:0300530002110097
:10110000021700000217730002175D000217180093
:1011100002145A000213A400021836000218370005
:10112000021838000218390002183A0002183B0071
:1011300002183C0002183D0002183E0002183F0051
:10114000021840000218370002184100021842003D
:101150000218430002184400021845000218460015
:10116000021847000218370002183700021837002B
:10117000021848000218490002184A0002184B00E1
:1011800002184C0002184D0002184E0002184F00C1
:1011900002185000021851000218520002185300A1
:1011A0000218540002185500021856000218570081
:0811B000021858000218590052
:030000000217F4F0
:0C17F400787FE4F6D8FD758120020E031A
:1011B800A3F8E0C5F025F0F0E582158270021583EA
:0611C800E0C838F0E82247
:1011CE00E88FF0A4CC8BF0A42CFCE98EF0A42CFCC0
:1011DE008AF0EDA42CFCEA8EF0A4CDA8F08BF0A43E
:1011EE002DCC3825F0FDE98FF0A42CCD35F0FCEB9D
:1011FE008EF0A4FEA9F0EB8FF0A4CFC5F02ECD3962
:0F120E00FEE43CFCEAA42DCE35F0FDE43CFC22CE
:10121D00EB9FF5F0EA9E42F0E99D42F0E89C45F027
:01122D00229E
:0C122E00ECF0A3EDF0A3EEF0A3EFF02233
:10123A00A8828583F0D083D08212125112125112E1
:10124A001251121251E473E493A3C583C5F0C58306
:10125A00C8C582C8F0A3C583C5F0C583C8C582C8FE
:01126A002261
:00000001FF
