:1016C2001201000100000040470510101000010245
:1016D200000109022000010100A00009040000022B
:1016E200FF000000070582024000000705020240D9
:1016F2000000040309041A0341006E00630068003D
:101702006F007200200043006800690070007300DF
:101712001C0345005A002D005500530042002000D2
:0E172200440065007600690063006500000069
:081A6D004100010141000800E5
:10173000A907E4900066F0900004E0FEA3E0FBAA95
:10174000068B828A83A3E06402704A900066E0FF01
:1017500004F0EFB50105AF03AE02228B828A83A3AA
:10176000A3E0FFA3E0900067CFF0A3EFF090006745
:10177000E0FFA3E0FEEF6EFF900067F0A3E06FFFD5
:10178000F0900067E06FF0A3E02BFF900067E03A75
:09179000FAAB0780ACE4FEFF2275
:1018CA00A907900009E0FEA3E0FF8F828E83A3E0C0
:1018DA0064037017AD0119ED7001228F828E83E0C7
:0F18EA007C002FFDEC3EFEAF0580DFE4FEFF2209
:1019EB00907FD6E030E712E04401F07F147E0012C6
:0A19FB0019CF907FD6E054FEF022D1
:1019CF00900065EEF0A3EFF090006574FFF5F01254
:0C19DF00137945F0600512199F80ED227D
:101138009000531213FB00000000C203C200C20259
:10114800C20112157C7E167FC2900002EEF0A3EF5A
:10115800F0A37416F0A374D4F09000097416F0A3E9
:1011680074F4F0EE54E070030212B4900057E4F007
:10117800A37480F0A3EEF0A3EFF0C3742E9FFF7466
:10118800179ECF2402CF3400FEE4FCFD90004F12DE
:1011980013EF90004B1213FB0000000090004FE08B
:1011A800FCA3E0FDA3E0FEA3E0FF90004BE0F8A362
:1011B800E0F9A3E0FAA3E0FBC31213DE504090006D
:1011C8004DE0FEA3E0FF900057E0FCA3E02FF5827E
:1011D800EC3EF58374CDF090004BE0FCA3E0FDA35A
:1011E800E0FEA3E0FFE4FAF9F8EF2401FFEA3EFE8F
:1011F800E93DFDE83CFC90004B1213EF809E900007
:101208004B1213FB0000000090004FE0FCA3E0FD30
:10121800A3E0FEA3E0FF90004BE0F8A3E0F9A3E011
:10122800FAA3E0FBC31213DE504F90004DE0FEA37B
:10123800E0FF900059E0FCA3E02FF582EC3EF58337
:10124800E0FD900057E0FAA3E02FF582EA3EF5832F
:10125800EDF090004BE0FCA3E0FDA3E0FEA3E0FF6F
:10126800E4FAF9F8EF2401FFEA3EFEE93DFDE83C27
:10127800FC90004B1213EF808F900057E0FFA3E023
:10128800900002CFF0A3EFF074C22480FF741634EC
:10129800FFFEC3900005E09FF0900004E09EF0C3BD
:1012A80090000AE09FF0900009E09EF0D2E843D851
:1012B80020907F95E04440F0907FAFE04401F090AB
:1012C8007FAEE0441DF0D2AF300105120DEBC20134
:1012D80030031A1217FD5015C20312198F20000788
:1012E800907FD6E020E7F31219EB121A761201006C
:0312F80080D6227B
:100DEB00907FE9E07003020FD814700302105424B3
:100DFB00FE70030210D024FB7003020FD214700399
:100E0B00020FCC147003020FC0147003020FC62420
:100E1B00056003021124121A784003021130907FEF
:100E2B00EBE024FE601D14605724026003020FB632
:100E3B00900002E0907FD4F0900003E0907FD5F01B
:100E4B00021130907FEAE0FF121730AA06A9077B48
:100E5B000190005BEBF0A3EAF0A3E9F04A60179076
:100E6B00005BE0A3E0FAA3E0F9EA907FD4F0E9900D
:100E7B007FD5F0021130907FB4E04401F0021130C5
:100E8B00907FEAE0FF1218CAAA06A9077B0190001F
:100E9B005BEBF0A3EAF0A3E9F04A7003020FAC900E
:100EAB00005BE0FBA3E0FAA3E0F9900062EBF0A398
:100EBB00EAF0A3E9F01212FBFF900065F0907FEED1
:100ECB00E0FEEFD39E4005E0900065F0900065E0FA
:100EDB007003020F9E90005E1213FB000000009047
:100EEB000065E0FFC39440500280027F40E4FCFDAC
:100EFB00FE90005EE0F8A3E0F9A3E0FAA3E0FBC3E9
:100F0B001213DE504E900060E0FEA3E0FFA3E0A3BF
:100F1B00E0FAA3E02FF582EA3EF583E0FF90006153
:100F2B00E02400F582E4347FF583EFF090005EE07F
:100F3B00FCA3E0FDA3E0FEA3E0FFE4FAF9F8EF2445
:100F4B0001FFEA3EFEE93DFDE83CFC90005E12131A
:100F5B00EF808C900065E0FFC39440500280027FCD
:100F6B0040907FB5EFF0900065E0FFC394405004D4
:100F7B00AE0780027E40C3EF9E900065F090006349
:100F8B00E475F040121363907FB4E020E203020E8D
:100F9B00D780F4E4907FB5F0907FB47402F0021127
:100FAB0030907FB4E04401F0021130907FB4E04404
:100FBB0001F0021130121A3F021130121A590211AC
:100FCB0030121A4F021130121A2F021130121A7AE4
:100FDB004003021130907FE8E0247F6024146031DD
:100FEB002402705BA200E433FF25E0FFA202E4338E
:100FFB004F907F00F0E4A3F0907FB57402F00211E4
:10100B0030E4907F00F0A3F0907FB57402F00211F2
:10101B0030907FECE0F45480FFC4540FFFE0540792
:10102B002F25E024B4F582E4347FF583E05401905E
:10103B007F00F0E4A3F0907FB57402F002113090C2
:10104B007FB4E04401F0021130121A7C400302110C
:10105B0030907FE8E024FE601D2402600302113013
:10106B00907FEAE0B40105C200021130907FB4E03A
:10107B004401F0021130907FEAE07040907FECE089
:10108B00F45480FFC4540FFFE054072F25E024B421
:10109B00F582E4347FF583E4F0907FECE05480FF3D
:1010AB00131313541FFFE054072F907FD7F0E490D6
:1010BB000062F0907FD7E04420F08069907FB4E02D
:1010CB004401F08060121A7E505B907FE8E024FEB2
:1010DB0060182402704F907FEAE0B40104D20080C4
:1010EB0044907FB4E04401F0803B907FEAE07020B5
:1010FB00907FECE0F45480FFC4540FFFE054072FB3
:10110B0025E024B4F582E4347FF5837401F0801577
:10111B00907FB4E04401F0800C121A055007907FC9
:0D112B00B4E04401F0907FB4E04402F022F3
:1019B000AE075398F7E4FDEE30E003639808EEC3FA
:0F19C00013FE0DEDB408F0C2998F993099FD22F6
:10157C00E490005BF0D200121A63907FDE7404F0EA
:10158C00907FDFF0E4907FDDF0907FC9F0907FB228
:10159C007401F0A37400F0907FAFE04402F0E054CB
:1015AC00FBF0907F9C74FFF0E4907F93F0907F9B16
:1015BC00E054FB907F98F0907F9E7404F0907F9D98
:1015CC0074F4F0907F977480F0907F957440F09055
:1015DC007F9E747EF0907F987402F0907F95E0442B
:1015EC0003F075CDFF75CBFF75CCB275CAB275C85B
:1015FC00347598D2904000E4F004F0E4F0FF904091
:10160C0000E4F00FEFB401F6907F98E04404F09002
:10161C004000E4F0907F98E054DBF07F017E0012F4
:0A162C0019CF907F97E06404F022CC
:101A1B00907F9BE020E706E4907E00F022907E0012
:041A2B007401F02230
:10010000907FC8E030E103020DC1907FB8E030E19C
:1001100003020DC1907FC9E090005CF0907DC0E0CB
:10012000B43003121A1B907DC0E0645760030201D3
:10013000E9907FA5E04480F0907FA674D2F07F0123
:100140007E001219CF907FA67408F07F017E001206
:1001500019CFE490005EF090005EE0FFC3940E5073
:100160001E74C92FF582E4347DF583E0907FA6F0FC
:100170007F017E001219CF90005EE004F080D890DD
:100180007FA5E04440F07F017E001219CF907FA54B
:10019000E04480F0907FA674D2F07F017E001219B7
:1001A000CF907FA67440F07F017E001219CFE490BB
:1001B000005EF090005EE0FFC39408501E74C12FF3
:1001C000F582E4347DF583E0907FA6F07F017E0028
:1001D0001219CF90005EE004F080D8907FA5E04433
:1001E00040F07F017E001219CF907DC0E06458700E
:1001F0003A907FA5E04480F0907FA674D2F07F0112
:100200007E001219CF907FA67409F07F017E001244
:1002100019CFE4907FA6F07F01FE1219CF907FA541
:10022000E04440F07F017E001219CF907DC0E0B421
:10023000592C907F9AE054EF907F97F07F057E00D5
:100240001219CF907F9AE04416907F97F07F057E39
:10025000001219CF907F9AE054EF907F97F0907D35
:10026000C0E06460600302041B90005EF0907DC1FA
:10027000E0FF90005EE0FEC39F505774C72EF582EA
:10028000E4347DF583E0FF1219B0900008E0B4017A
:100290002230981F900001E0FF240BF582E4340027
:1002A000F583E599F0C298EFC3943C5006900001A5
:1002B000E004F0E490005FF0907DC5E0FF90005F07
:1002C000E0C39F5005E004F080EE90005EE004F093
:1002D000809B907DC6E0D394005003020416907D6D
:1002E000C3E0FFE4FCFDFEFBFA7901F812138FC0B6
:1002F00004C005C006C007907DC2E0FFE4FCFDFE1F
:10030000FBFAF9780112138FD003D002D001D0008C
:10031000EF2BFFEE3AFEED39FDEC38FCA804A90501
:10032000AA06AB07907DC4E0FEE4FCFD2BFFEA3E8D
:10033000FEED39FDEC38FC9000611213EFE4900003
:100340005DF0C29890006004F0E47F01FEFDFC9037
:100350000061E0F8A3E0F9A3E0FAA3E0FBD31213F5
:10036000DE500302040B907DC6E0FF900060E0D3F6
:100370009F400302040B907F97E06480F020984236
:10038000E47F01FEFDFC900061E0F8A3E0F9A3E04A
:10039000FAA3E0FBD31213DE4028900061E0FCA337
:1003A000E0FDA3E0FEA3E0FF74FFEF24FFFFEE34C7
:1003B000FFFEED34FFFDEC34FFFC9000611213EF03
:1003C00080BBE47F01FEFDFC900061E0F8A3E0F952
:1003D000A3E0FAA3E0FBD31213DE5003020349C2E9
:1003E00098900060E02400F582E4347EF583E5997E
:1003F000F0900060E004F0E0D39401500302034960
:10040000A31213FB000007D0020349900060E01420
:10041000907E00F08005E4907E00F0907DC0E06466
:1004200069600302067930980890000BE599F0C2E4
:1004300098E490005EF0907DC1E0FF90005EE0FEE9
:10044000C39F505074C72EF582E4347DF583E0FFDE
:100450001219B030981F900001E0FF240BF582E4E0
:100460003400F583E599F0C298EFC3943C500690B0
:100470000001E004F0E490005FF0907DC5E0FF90A3
:10048000005FE0C39F5005E004F080EE90005EE066
:1004900004F080A29000017401F0907DC6E0D39436
:1004A000005003020674907DC3E0FFE4FCFDFEFBF8
:1004B000FA7901F812138FC004C005C006C0079076
:1004C0007DC2E0FFE4FCFDFEFBFAF9780112138F18
:1004D000D003D002D001D000EF2BFFEE3AFEED3971
:1004E000FDEC38FCA804A905AA06AB07907DC4E082
:1004F000FEE4FCFD2BFFEA3EFEED39FDEC38FC90FE
:1005000000611213EFE490005DF0C2989000600467
:10051000F0E47F01FEFDFC900061E0F8A3E0F9A3A8
:10052000E0FAA3E0FBD31213DE5003020669907DCC
:10053000C6E0FF900060E0D39F4003020669907F11
:1005400097E06480F0209842E47F01FEFDFC90007B
:1005500061E0F8A3E0F9A3E0FAA3E0FBD31213DE15
:100560004028900061E0FCA3E0FDA3E0FEA3E0FFD3
:1005700074FFEF24FFFFEE34FFFEED34FFFDEC349B
:10058000FFFC9000611213EF80BBE47F01FEFDFCD5
:10059000900061E0F8A3E0F9A3E0FAA3E0FBD31236
:1005A00013DE500302062AC298900060E02400F592
:1005B00082E4347EF583E599F0900060E004F0E099
:1005C000D394015003020511907DC3E0FFE4FCFDCC
:1005D000FEFBFA7901F812138FC004C005C006C0F3
:1005E00007907DC2E0FFE4FCFDFEFBFAF978011202
:1005F000138FD003D002D001D000EF2BFFEE3AFED4
:10060000ED39FDEC38FCA804A905AA06AB07907DDE
:10061000C4E0FEE4FCFD2BFFEA3EFEED39FDEC38C4
:10062000FC9000611213EF020511900060E02400BD
:10063000F582E4347EF5837443F0900060E004F0CA
:10064000E02400F582E4347EF5837443F09000608A
:10065000E004F0E02400F582E4347EF5837443F096
:10066000900060E004F0020511900060E014907EBC
:1006700000F08005E4907E00F0907DC0E064706042
:100680000302076CC298907F9AE054EF907F97F036
:100690007F057E001219CF907F9AE04416907F97D5
:1006A000F07F647E001219CF907F9AE054EF907F24
:1006B00097F09000611213FB00000000900060743E
:1006C00001F0E47F207E4EFDFC900061E0F8A3E0A5
:1006D000F9A3E0FAA3E0FBC31213DE4003020763B1
:1006E000209842E47F207E4EFDFC900061E0F8A35C
:1006F000E0F9A3E0FAA3E0FBC31213DE5027900059
:1007000061E0FCA3E0FDA3E0FEA3E0FFE4FAF9F85A
:10071000EF2401FFEA3EFEE93DFDE83CFC9000616C
:100720001213EF80BBE47F207E4EFDFC900061E061
:10073000F8A3E0F9A3E0FAA3E0FBC31213DE5082B2
:10074000C298900060E02400F582E4347EF583E5F1
:1007500099F0900060E004F0A31213FB0000000089
:100760000206C2900060E014907E00F0907DC0E030
:1007700064566003020897907F9EE04402F0907FE9
:1007800098E04402F0907F95E054FDF0907F9AE06D
:100790004416907F97F07F327E001219CF907F9A97
:1007A000E054EF907F97F0E490005EF0907F98E047
:1007B0004402F090005EE004F0E0B408EFE4900042
:1007C0005EF0907F98E054FDF090005EE004F0E071
:1007D000B403EF907F98E054FDF0907F9AE04416C8
:1007E000907F97F07F327E001219CF907F9AE0546D
:1007F000EF907F97F07FD77E001219CF7FD17E00D8
:100800001219CF75CDFF75CBFF75CCB275CAB27515
:10081000C8347598D2907F95E04403F0E490005E70
:10082000F0907F95E04403F090005EE004F0E0B4C7
:100830000AEF7F571219B07F1D7E001219CF7F5724
:100840001219B07F1D7E001219CF7F571219B07F89
:100850001D7E001219CF7F571219B07F1D7E001226
:1008600019CF7F571219B07F1D7E001219CF7F5705
:100870001219B07F1D7E001219CF7F571219B07F59
:100880001D7E001219CF7F571219B07F1D7E0012F6
:1008900019CF7F571219B0907DC0E0B4591B907FDB
:1008A0009AE04416907F97F07F057E001219CF9052
:1008B0007F9AE054EF907F97F0907DC0E064E06015
:1008C000030209BB7F05FE1219CF907F9AE0441600
:1008D000907F97F07F057E001219CF907F9AE054A9
:1008E000EF907F97F0907F9AE054EF907F97F0E43D
:1008F00090005EF0907F9AE054EF907F97F0900028
:100900005EE004F0E0B464EC7F551219B07F8C7E99
:10091000001219CF7F551219B01219B01219B01266
:1009200019B01219B07F287E001219CF7F801219DA
:10093000B07F821219B0E4FF1219B0E41219B07F2F
:10094000081219B07F0A7E001219CF7F4B1219B01E
:100950007F491219B07F4C1219B01219B00F121939
:10096000B07F451219B0E4FF1219B0E41219B07F3C
:10097000647E001219CF7F647E001219CF7F647EDF
:10098000001219CF7F801219B07FE41219B0E4FF72
:100990001219B0E41219B0E41219B0E490005EF03C
:1009A0007F647E001219CF90005EE004F0E0C394F3
:1009B0002840ED907DFFE0907E3FF0907DC0E064A8
:1009C000DE6003020A9A907F9EE04402F0907F98D6
:1009D000E04402F0907F9AE04416907F97F07F32D7
:1009E0007E001219CF907F9AE054EF907F97F0909D
:1009F0007F95E054FDF0E490005EF0907DC2E0FF52
:100A000090005EE0C39F5012907F9AE054EF907F79
:100A100097F090005EE004F080E1907F98E054FD54
:100A2000F0E490005EF0907DC2E0FF90005EE0C3D5
:100A30009F5012907F9AE054EF907F97F090005E65
:100A4000E004F080E1907F9AE04416907F97F07F79
:100A5000327E001219CF907F9AE054EF907F97F08A
:100A60007FC87E001219CF7FC87E001219CF7FC8C1
:100A70007E001219CF75CDFF75CBFF75CCB275CA4C
:100A8000B275C8347598D2907F95E04403F07F9991
:100A90001219B07F8C7E001219CF907DC0E064DF08
:100AA0006003020B6D907F9EE04402F0907F98E01F
:100AB0004402F0907F9AE04416907F97F07F327E58
:100AC000001219CF907F9AE054EF907F97F0907FBB
:100AD00095E054FDF0E490005EF0907DC2E0FF9060
:100AE000005EE0C39F5012907F9AE054EF907F9792
:100AF000F090005EE004F080E1907F98E054FDF01B
:100B0000E490005EF0907DC2E0FF90005EE0C39F45
:100B10005012907F9AE054EF907F97F090005EE043
:100B200004F080E1907F9AE04416907F97F07F3246
:100B30007E001219CF907F9AE054EF907F97F07F5C
:100B4000C87E001219CF7FC87E001219CF7FC87EE1
:100B5000001219CF75CDFF75CBFF75CCB275CAB237
:100B600075C8347598D2907F95E04403F0907DC0AD
:100B7000E064E1704E907F9AE04416907F97F07F9A
:100B8000647E001219CF907F9AE054EF907F97F027
:100B9000E490005EF0907DC2E0FF90005EE0C39FB5
:100BA0005012907F9AE054EF907F97F090005EE0B3
:100BB00004F080E1907DC1E0FF1219B07F8C7E00CF
:100BC0001219CF907DC0E064E26003020C79907F3F
:100BD0009EE04402F0907F98E04402F0907F9AE01B
:100BE0004416907F97F07F327E001219CF907F9A43
:100BF000E054EF907F97F0907F95E054FDF0907F68
:100C000098E054FDF07F0F7E001219CF75CDFF756F
:100C1000CBFF75CCB275CAB275C8347598D2907FC7
:100C200095E04403F07FAA1219B07F1D7E001219CF
:100C3000CF7FAA1219B07F1D7E001219CF7FAA1292
:100C400019B07F1D7E001219CF7FAA1219B07F1D27
:100C50007E001219CF7FAA1219B07F1D7E001219D3
:100C6000CF7FAA1219B07F1D7E001219CF7FAA1262
:100C700019B07F1D7E001219CF907DC0E0B45A06D6
:100C8000A3E0907F97F0907DC0E0B4610CA3E0FFFB
:100C9000907F9AE04F907F97F0907DC0E0B4620C17
:100CA000A3E0FF907F9AE05F907F97F0907DC0E097
:100CB000B46306A3E0907F96F0907DC0E0B4640832
:100CC000907F9AE0907E00F0907DC0E0B46510A324
:100CD000E0F5CDF5CBA3E0F5CCF5CAA3E0F598900F
:100CE0007DC0E0B4670CA3E0FF907F9BE05F907F46
:100CF00098F0907DC0E0B4680CA3E0FF907F9BE08B
:100D00004F907F98F0907DC0E0B46908907F9BE0A1
:100D1000907E00F0907DC0E064F07039904000F06B
:100D200004F0E4F090005EF0907DC1E0FF90005E82
:100D3000E0C39F500D904000E4F090005EE004F0AE
:100D400080E6907F98E04404F0904000E4F0907FCB
:100D500098E054FBF0907DC0E0B4F118A3E0B4013A
:100D60000B9000017401F0E490000BF0907DC1E065
:100D7000900008F0907DC0E064F2703A900001E0CD
:100D80001490000BF09000017401F0E490005EF00C
:100D900090005EE0FF240BF582E43400F583E0FE72
:100DA00074002FF582E4347EF583EEF090005EE06F
:100DB00004F0E0B440DAE4907FC9F0907FB9744069
:100DC000F0900008E0B4012230981F900001E0FF8D
:100DD000240BF582E43400F583E599F0C298EFC363
:0B0DE000943C5006900001E004F0225B
:0217FD00D322F5
:021A7600D32279
:021A7800D32277
:0A1A4F00907FEAE0900006F0D32239
:101A2F00900006E0907F00F0907FB57401F0D32214
:0A1A5900907FEAE0900000F0D32235
:101A3F00900000E0907F00F0907FB57401F0D3220A
:021A7A00D32275
:021A7C00D32273
:021A7E00D32271
:101A0500907F97E06480F0907FB57401F0907FB48B
:061A1500E04402F0D322C0
:1017D600C0E0C083C082C085C084C086758600D242
:1017E600015391EF907FAB7401F0D086D084D08501
:0717F600D082D083D0E03265
:10192000C0E0C083C082C085C084C0867586005375
:1019300091EF907FAB7404F0D086D084D085D082B4
:05194000D083D0E0326D
:10194500C0E0C083C082C085C084C0867586005350
:1019550091EF907FAB7402F0D086D084D085D08291
:05196500D083D0E03248
:10196A00C0E0C083C082C085C084C086758600532B
:10197A0091EF907FAB7410F0D086D084D085D0825E
:05198A00D083D0E03223
:0117FF0032B7
:1018F900C0E0C083C082C085C084C086758600D21E
:10190900035391EF907FAB7408F0D086D084D085D3
:07191900D082D083D0E03240
:011A80003233
:011A81003232
:011A82003231
:011A83003230
:011A8400322F
:011A8500322E
:011A8600322D
:011A8700322C
:011A8800322B
:011A8900322A
:011A8A003229
:011A8B003228
:011A8C003227
:011A8D003226
:011A8E003225
:011A8F003224
:03004300021800A0
:101800000217D60002194500021920000218F9003B
:1018100002196A000217FF00021A8000021A8100F2
:10182000021A8200021A8300021A8400021A85003A
:10183000021A8600021A8700021A8800021A89001A
:10184000021A8A00021A8B00021A8C00021A8D00FA
:08185000021A8E00021A8F003B
:10198F00907FD6E04480F0438701000000000022E2
:10199F007400F58690FDA57C05A3E582458370F95B
:0119AF002215
:0A1A6300E490006EF0D2E9D2AF2249
:10189200AD07907FA5E020E6F9C2E9907FA5E0447C
:1018A20080F0ED25E0907FA6F0907FA5E030E0F992
:1018B200907FA5E04440F0907FA5E020E6F9907F7C
:0818C200A5E030E1D6D2E922D5
:10185800AC07907FA5E020E6F990006EE070299033
:101868007FA5E04480F0AF04EF25E0907FA6F090DC
:101878000069EDF0AF03A9077B01A3121435E490CA
:0A188800006DF0A304F0D322C32288
:10179900AC07907FA5E020E6F990006EE0702C90F0
:1017A9007FA5E04480F0AF04EF25E04401907FA6D7
:1017B900F0900069EDF0AF03A9077B01A31214357E
:0D17C900E490006DF0A37403F0D322C3225E
:03004B0002143E5E
:10143E00C0E0C083C082C085C084C086758600C0EF
:10144E00D075D000C000C001C002C003C007907F9D
:10145E00A5E030E20990006E7406F0021560907FF0
:10146E00A5E020E10E90006EE0640260067407F0C5
:10147E0002156090006EE024FE607614604424FE37
:10148E00700302154D24FC700302155B24086003E3
:10149E0002156090006A12142C90006DE0FF04F0AB
:1014AE008F82758300121314907FA6F0900069E06E
:1014BE00FF90006DE06F6003021560A37405F002EB
:1014CE001560907FA6E0FF90006A12142C90006DBC
:1014DE00E0F582758300EF12134190006E7402F0F6
:1014EE00900069E06401706A907FA5E04420F0806E
:1014FE0061900069E024FEFF90006DE0B507079053
:10150E007FA5E04420F0900069E014FF90006DE0AC
:10151E00B5070C907FA5E04440F090006EE4F0908B
:10152E007FA6E0FF90006A12142C90006DE0F58209
:10153E00758300EF12134190006DE004F08013905C
:10154E007FA5E04440F090006EE4F0800590006EC0
:10155E00E4F05391DFD007D003D002D001D000D0F9
:0E156E00D0D086D084D085D082D083D0E03219
:03000000021636AF
:0C163600787FE4F6D8FD75812002167D57
:1012FB00BB010689828A83E0225002E722BBFE02F1
:09130B00E32289828A83E4932223
:10131400BB010CE58229F582E5833AF583E022508E
:1013240006E92582F8E622BBFE06E92582F8E222D8
:0D133400E58229F582E5833AF583E49322F2
:10134100F8BB010DE58229F582E5833AF583E8F0E2
:10135100225006E92582C8F622BBFE05E92582C88E
:02136100F22276
:10136300C5F0F8A3E028F0C5F0F8E5821582700215
:061373001583E038F022B2
:10137900A3F8E0C5F025F0F0E58215827002158327
:06138900E0C838F0E82284
:10138F00E88FF0A4CC8BF0A42CFCE98EF0A42CFCFD
:10139F008AF0EDA42CFCEA8EF0A4CDA8F08BF0A47B
:1013AF002DCC3825F0FDE98FF0A42CCD35F0FCEBDA
:1013BF008EF0A4FEA9F0EB8FF0A4CFC5F02ECD399F
:0F13CF00FEE43CFCEAA42DCE35F0FDE43CFC220C
:1013DE00EB9FF5F0EA9E42F0E99D42F0E89C45F065
:0113EE0022DC
:0C13EF00ECF0A3EDF0A3EEF0A3EFF02271
:1013FB00A8828583F0D083D0821214121214121299
:10140B001412121412E473E493A3C583C5F0C583BD
:10141B00C8C582C8F0A3C583C5F0C583C8C582C83B
:01142B00229E
:09142C00E0FBA3E0FAA3E0F922C1
:09143500EBF0A3EAF0A3E9F022B8
:10164200021138E493A3F8E493A34003F68001F275
:1016520008DFF48029E493A3F85407240CC8C333A9
:10166200C4540F4420C8834004F456800146F6DF78
:10167200E4800B0102040810204080901A6DE47E81
:10168200019360BCA3FF543F30E509541FFEE4936D
:10169200A360010ECF54C025E060A840B8E493A334
:1016A200FAE493A3F8E493A3C8C582C8CAC583CA5F
:1016B200F0A3C8C582C8CAC583CADFE9DEE780BE17
:011A75000070
:00000001FF
