:101062009000E8EEF0A3EFF09000E874FFF5F012C4
:0C1072000F2D45F0600512105180ED229A
:101096009000E6EEF0A3EFF01210629000E6E0FE9C
:0710A600A3E0FF121062221B
:100A500043B040E4F5A0F5A0FEE4F5A00EEEB40A24
:100A6000F8E4FEEF30E05375A00275A00275A00215
:100A700075A00275A00275A00275A00275A002758E
:100A8000A00275A00275A00275A00275A00275A053
:100A90000275A00275A00275A00275A00275A002E1
:100AA00075A00275A00275A00275A00275A002755E
:100AB000A00275A00275A0028055E4F5A0F5A0F58E
:100AC000A0F5A0F5A0F5A0F5A0F5A0F5A0F5A0F57E
:100AD000A0F5A0F5A0F5A0F5A0F5A0F5A0F5A0F56E
:100AE000A0F5A0F5A0F5A0F5A0F5A0F5A0F5A0F55E
:100AF000A0F5A0F5A0F5A0F5A0F5A0F5A0F5A0F54E
:100B0000A0F5A0F5A0F5A0F5A0F5A0F5A0F5A0EF43
:100B1000C313FF0EEE64086003020A6375A002753A
:100B2000A00275A00275A00275A00275A00275A0B2
:100B30000275A00275A00275A00275A00275A00240
:100B400075A00275A00275A00275A00275A00275BD
:060B5000A00253B0BF2219
:10094700E4FB900004F0900000F043B0409000E614
:10095700EEF0A3EFF0900005E07003020A4F43B0FA
:1009670040E4FF900009E0FEEFC39E5035E590207C
:10097700E00674FFFCFD802AE4FCFDD39000E7E06D
:100987009D9000E6E09C4017E59020E00B74FFFC8B
:10099700FDE4900009F080070DBD00010C80DC0F1D
:1009A70080C19000097401F0EDF47002ECF470441A
:1009B70090000504F053B0BF43B040E4FF75A002B8
:1009C7000FEFB401F853B0BFE4FFE4FE75A0020EC9
:1009D700EEB408F8EBC313FB43B040E59030E006F4
:1009E700EB4480FB8004EB547FFB53B0BF0FEFB4A5
:1009F70008D88014E4900005F053B0BF43B04053CB
:100A0700B0BF43B04053B0BF900000E0B47E02E4F3
:100A1700F0900000E02456F582E43400F583EBF013
:100A2700900000E004F0E014FF900056E06F600CC7
:100A37009000E674A0F0A3E4F002095C9000E6E4FD
:090A4700F0A37460F002095C22C6
:100C0F0043B040E4FEE4F5A00EEEB405F8E4FEEFC9
:100C1F0030E02675A00275A00275A00275A00275BE
:100C2F00A00275A00275A00275A00275A00275A0A2
:100C3F000275A00275A0028029E4F5A0F5A0F5A029
:100C4F00F5A0F5A0F5A0F5A0F5A0F5A0F5A0F5A0ED
:100C5F00F5A0F5A0F5A0F5A0F5A0F5A0F5A0F5A0DD
:100C6F00F5A0EFC313FF0EEEB408A475A00275A094
:100C7F000275A00275A00275A00275A00275A002F0
:100C8F0075A00275A00275A00275A00253B0BF2215
:100B5600E4FC900004F0900000F043B0409000E602
:100B6600EEF0A3EFF0900005E07003020C0EE4FF38
:100B7600FED39000E7E09F9000E6E09E4012E590ED
:100B860020E00674FFFEFF80070FBF00010E80E124
:100B9600EFF47002EEF47038FF75A00275A00275CE
:100BA600A002900000E0B47E02E4F074019000E63A
:100BB600F0A3F0ECC313FC63B040E59030E006EC24
:100BC6004480FC8004EC547FFC0FEFB408CB801407
:100BD600E4900005F053B0BF43B04053B0BF43B0FC
:100BE6004053B0BFECB50508ED6005900004F02257
:100BF600900000E02456F582E43400F583ECF09092
:090C06000000E004F0020B6B2277
:10110100E59020E306E490003FF02290003F740157
:02111100F022CA
:100EA400E49000E3F090E600E054DFF090E601E027
:100EB4004440F090E61074A0F090E611F0000000B9
:100EC40090E61274A2F000000090E61374A0F00003
:100ED400000090E61474E2F000000090E61574E05F
:100EE400F000000090E6917480F0000000F0000033
:100EF4000090E695F0000000F043AF01D20075B217
:100F0400FE75807075B3F6F590E490E671F075B4F3
:100F14003F75A00175B54175B00190E672F0F5B664
:090F2400F5B17F0AFE12109622BD
:10010000E5AA30E00302046AE5AA30E50302046AC6
:100110007AF079007EF07F0074F0F59A7400F59B18
:100120007AF879007EF87F0074F8F59D7400F59EEA
:1001300090E690E0FF90E691E024009000E3F090DC
:10014000E67BE0900006F09000E47401F09000E49B
:10015000E0FFC39438501990E67BE0FE74062FF55B
:1001600082E43400F583EEF09000E4E004F080DDFA
:10017000E4900004F043B0409000E4F0900004E00C
:10018000FF30E00543B040800353B0BFEFC313908E
:100190000004F09000E4E004F0E0B408DF43B04075
:1001A000900006E0900004F043B040E49000E4F0DA
:1001B000900004E0FF30E00543B040800353B0BF3F
:1001C000EFC313900004F09000E4E004F0E0B40802
:1001D000DF43B040900006E06401702C7F0AFE12FD
:1001E0001096900007E0FF30E00543902080035315
:1001F00090DFEF30E10543901080035390EF7F6470
:100200007E0012109675A002121101900006E064A3
:10021000607078A3E0D39400404AE49000E4F0904A
:100220000007E0FD9000E4E0FFC39D5017740D2F20
:10023000F582E43400F583E0FF120A509000E4E018
:1002400004F080DBED14FF9000E4E0C39F5015E460
:10025000A3F090000BE0FF9000E5E0C39F5005E0A5
:1002600004F080EE90000CE0D39400401E90000556
:100270007401F0E4900000F090000AE07F00FE12AC
:100280000947900000E014900040F0900006E06400
:10029000617048A3E0900004F0E49000E4F0900066
:1002A000E4E0FF900007E075F020A42FF582E4352C
:1002B000F0F583E5822456F582E5833400F583E08A
:1002C000FE900004F074562FF582E43400F583EEBE
:1002D000F09000E4E004F0E0B420C3900006E06495
:1002E00080600302039D75A0024390105390DF7F4E
:1002F000C8FE12109675A0027FC87E001210967F6D
:10030000C87E001210964390207FC87E001210967F
:100310007FC87E001210967FC87E00121096539000
:10032000EF7FC87E0012109675A0027FC87E001273
:100330001096E4900004F090000904F0900005F09D
:10034000E4900000F053B0BF7DAAFF7EE0120B5690
:100350007F287E001210967F1E7E001210967F3B33
:10036000120C0F7F42120C0F7F41120C0F7F5312A1
:100370000C0F7F45120C0F9000097401F0900005DE
:10038000F0E4900000F053B0BF900004F07D55FF02
:100390007EE0120B56900004E0900040F0900006C2
:1003A000E06481707AA3E0D39400404AE49000E4D2
:1003B000F0900007E0FD9000E4E0FFC39D5017744B
:1003C0000D2FF582E43400F583E0FF120C0F90004E
:1003D000E4E004F080DBED14FF9000E4E0C39F5004
:1003E00015E4A3F090000BE0FF9000E5E0C39F5000
:1003F00005E004F080EE90000CE0D39400402090E3
:1004000000057401F0E4900000F090000AE07F0025
:10041000FEE4FD120B56900000E014900040F0E462
:100420009000E4F09000E4E0FFC39440501B743E61
:100430002FF582E43400F583E0900004F090E67C30
:10044000F09000E4E004F080DBE4900006F090E639
:1004500090E090E698F000000090E691E090E69938
:0B046000F000000090E6917480F02294
:02113D00D322BB
:02113F00D322B9
:02114100D322B7
:0A111F0090E6BAE09000D2F0D3226F
:1010D9009000D2E090E740F0E490E68AF090E68B49
:0410E90004F0D3221A
:0A11290090E6BAE0900001F0D32236
:1010ED00900001E090E740F0E490E68AF090E68B06
:0410FD0004F0D32206
:02114300D322B5
:02114500D322B3
:02114700D322B1
:1010120090E6B9E0242F601104701C90E604E0FF12
:101022004480FF000000F0801090E604E0FF547F4F
:0B103200FF000000F08002D322C32268
:100DE700C0E0C083C082D2015391EF90E65D7401E9
:080DF700F0D082D083D0E0327D
:1010AD00C0E0C083C0825391EF90E65D7404F0D030
:0610BD0082D083D0E03276
:1010C300C0E0C083C0825391EF90E65D7402F0D01C
:0610D30082D083D0E03260
:100F9100C0E0C083C082C0D075D000C006C0079039
:100FA10000F2E0FEA3E0FF9000EEEEF0A3EFF0F51B
:100FB100828E83A37402F09000EAE0FEA3E0FF902A
:100FC10000F0EEF0A3EFF0F5828E83A37407F053E7
:100FD10091EF90E65D7410F0D007D006D0D0D082AA
:050FE100D083D0E032D6
:10107E00C0E0C083C082D2035391EF90E65D740846
:08108E00F0D082D083D0E032E3
:100C9F00C0E0C083C082C0D075D000C006C007902E
:100CAF00E680E030E7309000EAE0FEA3E0FF90003E
:100CBF00EEEEF0A3EFF0F5828E83A37402F09000B6
:100CCF00F2E0FEA3E0FF9000F0EEF0A3EFF0F5826C
:100CDF008E83A37407F05391EF90E65D7420F0D0EC
:0C0CEF0007D006D0D0D082D083D0E032F5
:010CFF0032C2
:010DFF0032C1
:011149003273
:01114A003272
:01114B003271
:01114C003270
:01114D00326F
:01114E00326E
:01114F00326D
:01115000326C
:01115100326B
:01115200326A
:011153003269
:011154003268
:011155003267
:011156003266
:011157003265
:011158003264
:011159003263
:01115A003262
:01115B003261
:01115C003260
:01115D00325F
:01115E00325E
:01115F00325D
:01116000325C
:01116100325B
:01116200325A
:011163003259
:011164003258
:011165003257
:011166003256
:011167003255
:011168003254
:011169003253
:01116A003252
:0A1133000001020203030404050595
:100715009000DB120F6000000000C203C200C2029D
:10072500C201120EA47E0E7F009000ECEEF0A3EF46
:10073500F09000F4740EF0A37412F09000EA740EB9
:10074500F0A3741CF09000F2740EF0A3744AF090BC
:1007550000F6740EF0A37478F0EE54E0700302080E
:10076500E39000DFE4F0A37480F0A3EEF0A3EFF0D4
:10077500C374A29FFF740E9ECF2402CF3400FEE403
:10078500FCFD9000D7120F549000D3120F600000AB
:1007950000009000D7E0FCA3E0FDA3E0FEA3E0FF8E
:1007A5009000D3E0F8A3E0F9A3E0FAA3E0FBC312BD
:1007B5000F4350409000D5E0FEA3E0FF9000DFE03E
:1007C500FCA3E02FF582EC3EF58374CDF09000D3C9
:1007D500E0FCA3E0FDA3E0FEA3E0FFE4FAF9F8EFF7
:1007E5002401FFEA3EFEE93DFDE83CFC9000D31202
:1007F5000F54809E9000D3120F60000000009000FF
:10080500D7E0FCA3E0FDA3E0FEA3E0FF9000D3E06A
:10081500F8A3E0F9A3E0FAA3E0FBC3120F43505796
:100825009000D5E0FEA3E0FF9000E1E0FCA3E02FFF
:10083500F582EC3EF583E0FF9000D5E0FCA3E0FDFA
:100845009000DFE0FAA3E02DF582EA3CF583EFF0B6
:100855009000D3E0FCA3E0FDA3E0FEA3E0FFE4FAF3
:10086500F9F8EF2401FFEA3EFEE93DFDE83CFC9086
:1008750000D3120F5480879000DFE0FFA3E09000C3
:10088500ECCFF0A3EFF074002480FF740E34FFFE6C
:10089500C39000F5E09FF09000F4E09EF0C3900057
:1008A500EFE09FF09000EEE09EF0C39000F1E09F36
:1008B500F09000F0E09EF0C39000EBE09FF0900018
:1008C500EAE09EF0C39000F3E09FF09000F2E09E16
:1008D500F0C39000F7E09FF09000F6E09EF0D2E8BC
:1008E50043D82090E668E04409F090E65CE0443D9A
:1008F500F0D2AF90E680E054F7F0538EF890E60022
:10090500E054E74410F0C20330010512046BC20144
:1009150030032912113D5024C20312103D20001648
:1009250090E682E030E704E020E1EF90E682E030F7
:10093500E604E020E0E4120FE612113F1201008008
:02094500C722C7
:10046B0090E6B9E0700302055714700302060024EE
:10047B00FE700302069524FB7003020551147003F2
:10048B0002054B14700302053F147003020545244B
:10049B00056003020701121141400302070D90E6AC
:1004AB00BBE024FE603414605724FD601A14603DD9
:1004BB00240670769000ECE090E6B3F09000EDE04F
:1004CB0090E6B4F002070D9000F4E090E6B3F090E4
:1004DB0000F5E090E6B4F002070D9000EEE090E638
:1004EB00B3F09000EFE090E6B4F002070D9000F04F
:1004FB00E090E6B3F09000F1E090E6B4F002070D67
:10050B0090E6BAE0FF120DB8AA06A9077B01EA49EB
:10051B004B600DEE90E6B3F0EF90E6B4F002070DF2
:10052B0090E6A0E04401F002070D90E6A0E0440144
:10053B00F002070D1210ED02070D12112902070D23
:10054B0012111F02070D1210D902070D1211434091
:10055B000302070D90E6B8E0247F602B14603C2467
:10056B000260030205F6A200E433FF25E0FFA202BE
:10057B00E4334F90E740F0E4A3F090E68AF090E686
:10058B008B7402F002070DE490E740F0A3F090E6C5
:10059B008AF090E68B7402F002070D90E6BCE054F3
:1005AB007EFF7E00E0D3948040067C007D018004BA
:1005BB007C007D00EC4EFEED4F2433F58274113E32
:1005CB00F583E493FF3395E0FEEF24A1FFEE34E6D1
:1005DB008F82F583E0540190E740F0E4A3F090E6BE
:1005EB008AF090E68B7402F002070D90E6A0E044CF
:1005FB0001F002070D121145400302070D90E6B8FA
:10060B00E024FE601D2402600302070D90E6BAE0B1
:10061B00B40105C20002070D90E6A0E04401F00210
:10062B00070D90E6BAE0705990E6BCE0547EFF7E71
:10063B0000E0D3948040067C007D0180047C007D2B
:10064B0000EC4EFEED4F2433F58274113EF583E43E
:10065B0093FF3395E0FEEF24A1FFEE34E68F82F596
:10066B0083E054FEF090E6BCE05480FF1313135468
:10067B001FFFE0540F2F90E683F0E04420F00207B9
:10068B000D90E6A0E04401F0807812114750739072
:10069B00E6B8E024FE60202402706790E6BAE0B46E
:1006AB000104D200805C90E6BAE06402605490E6EC
:1006BB00A0E04401F0804B90E6BCE0547EFF7E004E
:1006CB00E0D3948040067C007D0180047C007D009B
:1006DB00EC4EFEED4F2433F58274113EF583E4931B
:1006EB00FF3395E0FEEF24A1FFEE34E68F82F58316
:1006FB00E04401F0800C121012500790E6A0E04489
:0A070B0001F090E6A0E04480F02227
:03003300020CFBC1
:040CFB0053D8EF32A9
:100E00001201000200000040B4042222000001028E
:100E100000010A06000200000040010009022E0045
:100E200001010080320904000004FF0000000705F2
:100E30000202000200070504020002000705860204
:100E40000002000705880200020009022E000101CD
:100E50000080320904000004FF00000007050202C0
:100E6000400000070504024000000705860240001C
:100E70000007058802400000040309041003430032
:100E8000790070007200650073007300160345005E
:100E90005A002D0055005300420020004600580023
:040EA000320000001C
:100FE60090E682E030E004E020E60B90E682E03016
:100FF600E119E030E71590E680E04401F07F147EC9
:0C1006000012109690E680E054FEF022EC
:10103D0090E682E044C0F090E681F0438701000025
:04104D00000000227D
:101051007400F58690FDA57C05A3E582458370F9B2
:01106100226C
:020DB800A90789
:100DBA009000F6E0FEA3E0FF8F828E83A3E0640337
:100DCA007017AD0119ED7001228F828E83E07C00CD
:0C0DDA002FFDEC3EFEAF0580DFE4FEFFC5
:010DE60022EA
:03004300020D00AB
:03005300020D009B
:100D0000020DE7000210C3000210AD0002107E00C9
:100D1000020F9100020C9F00020CFF00020DFF0069
:100D20000211490002114A0002114B0002114C004D
:100D300002114D0002114E0002114F00021150002D
:100D400002115100020DFF00021152000211530066
:100D500002115400021155000211560002115700F1
:100D600002115800020DFF00020DFF00020DFF00EE
:100D70000211590002115A0002115B0002115C00BD
:100D800002115D0002115E0002115F00021160009D
:100D9000021161000211620002116300021164007D
:100DA000021165000211660002116700021168005D
:080DB0000211690002116A0042
:03000000021113D7
:0C111300787FE4F6D8FD758120020715F6
:100F2D00A3F8E0C5F025F0F0E58215827002158377
:060F3D00E0C838F0E822D4
:100F4300EB9FF5F0EA9E42F0E99D42F0E89C45F004
:010F5300227B
:0C0F5400ECF0A3EDF0A3EEF0A3EFF02210
:100F6000A8828583F0D083D082120F77120F771278
:100F70000F77120F77E473E493A3C583C5F0C5839D
:100F8000C8C582C8F0A3C583C5F0C583C8C582C8DB
:010F9000223E
:00000001FF
