:0A0FF50000010202030304040505D5
:1009A90090E033120C9100000000C203C200C202A1
:1009B900C201120E387E107F0090E04BEEF0A3EFDB
:1009C900F090E0537410F0A37412F090E0497410A1
:1009D900F0A3741CF090E0517410F0A3744AF090E5
:1009E900E0557410F0A37478F0EE54E07003020B34
:1009F9003790E037E4F0A37480F0A3EEF0A3EFF0B2
:100A0900C374A29FFF74109ECF2402CF3400FEE46A
:100A1900FCFD90E02F120C8590E02B120C91000048
:100A2900000090E02F120C6D90E02B120C79C3128C
:100A39000C5C503090E02DE0FEA3E0FF90E037E041
:100A4900FCA3E02FF582EC3EF58374CDF090E02B0A
:100A5900120C6DE47B01FAF9F8120C0090E02B12EC
:100A69000C8580BE90E02B120C910000000090E0F4
:100A79002F120C6D90E02B120C79C3120C5C5047AD
:100A890090E02DE0FEA3E0FF90E039E0FCA3E02F29
:100A9900F582EC3EF583E0FF90E02DE0FCA3E0FD5C
:100AA90090E037E0FAA3E02DF582EA3CF583EFF018
:100AB90090E02B120C6DE47B01FAF9F8120C00900E
:100AC900E02B120C8580A790E037E0FFA3E090E0CF
:100AD9004BCFF0A3EFF074002480FF741034FFFEB5
:100AE900C390E054E09FF090E053E09EF0C390E0A3
:100AF9004EE09FF090E04DE09EF0C390E050E09F03
:100B0900F090E04FE09EF0C390E04AE09FF090E063
:100B190049E09EF0C390E052E09FF090E051E09EE2
:100B2900F0C390E056E09FF090E055E09EF0D2E8E7
:100B390043D82090E668E04409F090E65CE0443D43
:100B4900F0D2AF90E680E054F7F0538EF890E600CB
:100B5900E054E74410F0C203300105120712C20144
:100B6900300329120EFE5024C20312133520001639
:100B790090E682E030E704E020E1EF90E682E030A1
:100B8900E604E020E0E41212461213FE120100808E
:020B9900C72271
:1007120090E6B9E0120CD407EB0008940109290312
:1007220007350607E50807DF0907D30A07D90B00D3
:1007320000099512140040030209A190E6BBE024CF
:10074200FE603414605724FD601A14603D24067064
:100752007690E04BE090E6B3F090E04CE090E6B4A7
:10076200F00209A190E053E090E6B3F090E054E08B
:1007720090E6B4F00209A190E04DE090E6B3F0906B
:10078200E04EE090E6B4F00209A190E04FE090E67E
:10079200B3F090E050E090E6B4F00209A190E6BA1E
:1007A200E0FF121217AA06A9077B01EA494B600D66
:1007B200EE90E6B3F0EF90E6B4F00209A190E6A065
:1007C200E04401F00209A190E6A0E04401F0020930
:1007D200A11213C00209A11213EA0209A11213E025
:1007E2000209A11213AC0209A11214024003020968
:1007F200A190E6B8E0247F602B14603C24026003E1
:1008020002088AA200E433FF25E0FFA202E4334F8C
:1008120090E740F0E4A3F090E68AF090E68B740251
:10082200F00209A1E490E740F0A3F090E68AF0908C
:10083200E68B7402F00209A190E6BCE0547EFF7ED2
:1008420000E0D3948040067C007D0180047C007D22
:1008520000EC4EFEED4F24F5F582740F3EF583E475
:1008620093FF3395E0FEEF24A1FFEE34E68F82F58D
:1008720083E0540190E740F0E4A3F090E68AF09020
:10088200E68B7402F00209A190E6A0E04401F002B6
:1008920009A112140440030209A190E6B8E024FE63
:1008A200601D240260030209A190E6BAE0B40105CA
:1008B200C2000209A190E6A0E04401F00209A19061
:1008C200E6BAE0705990E6BCE0547EFF7E00E0D3C9
:1008D200948040067C007D0180047C007D00EC4E0B
:1008E200FEED4F24F5F582740F3EF583E493FF335A
:1008F20095E0FEEF24A1FFEE34E68F82F583E0540B
:10090200FEF090E6BCE05480FF131313541FFFE087
:10091200540F2F90E683F0E04420F00209A190E604
:10092200A0E04401F08078121406507390E6B8E01B
:1009320024FE60202402706790E6BAE0B40104D27B
:1009420000805C90E6BAE06402605490E6A0E04465
:1009520001F0804B90E6BCE0547EFF7E00E0D39431
:100962008040067C007D0180047C007D00EC4EFE10
:10097200ED4F24F5F582740F3EF583E493FF339532
:10098200E0FEEF24A1FFEE34E68F82F583E044011E
:10099200F0800C121272500790E6A0E04401F09031
:0709A200E6A0E04480F02212
:03003300020EFAC0
:040EFA0053D8EF32A8
:1013790090E047EEF0A3EFF090E04774FFF5F0122C
:0C1389000BEA45F0600512134980ED22CC
:1013950090E045EEF0A3EFF012137990E045E0FE02
:0713A500A3E0FF12137922FF
:1011E50090E045EEF0A3EFF0E4FFFEFDFCD390E0C8
:1011F50046E09DEC6480F890E045E06480984011FD
:101205000FBF00010EEF1F70011E0DBD00010C8008
:02121500DC22D9
:100E3800E490E03BF01213F490E601E04440F090B7
:100E4800E61074A0F090E611F000000090E612742D
:100E5800A2F000000090E61374A0F000000090E6F5
:100E68001474E2F000000090E61574E0F000000051
:100E780090E6917480F0000000F000000090E69584
:100E8800F0000000F043AF01D200E490E670F07586
:100E9800B2FC75B3F7F59090E671F075B43FF5A024
:100EA80090E672F075B6FFF5B175B5D075B0807F74
:100EB8000AFE12139575B09075CDFF75CBFF75CCF2
:100EC8006475CA6475C83475985275B2FC7F057E1E
:100ED800001213954390407F057E00121395E4F5A8
:100EE800807F05FE1213955390BF7F057E00121375
:020EF800952241
:10135A00AE075398F7E4FDEE30E003639808EEC356
:0F136A0013FE0DEDB408F0C2998F993099FD2252
:10010000E5AA30E003020711E5AA30E50302071172
:100110007AF079007EF07F0074F0F59A7400F59B18
:100120007AF879007EF87F0074F8F59D7400F59EEA
:1001300090E690E0FF90E691E0240090E03BF090A4
:10014000E67BE090E00FF0E0640670235390787F48
:1001500001FE1211E54390827F017E001211E553EA
:1001600090787F017E001211E543908143900490C6
:10017000E00FE0640770235390787F01FE1211E5D1
:100180004390827F017E001211E55390787F017EBB
:10019000001211E543908043900490E00FE0640862
:1001A00070235390787F01FE1211E54390827F0106
:1001B0007E001211E55390787F017E001211E54315
:1001C000900343900490E00FE0645760030202D173
:1001D00090E04404F090E044E0FFC3941050199084
:1001E000E67BE0FE740F2FF582E434E0F583EEF059
:1001F00090E044E004F080DD90E678E04480F09008
:10020000E67974D2F07F017E0012139590E679743E
:1002100008F07F017E00121395E490E044F090E036
:1002200044E0FFC39407501E74182FF582E434E0B5
:10023000F583E090E679F07F017E0012139590E05F
:1002400044E004F080D890E0447407F090E67BE04E
:1002500090E679F07F017E0012139590E044E0046F
:10026000F0E0C3940E40E590E678E04440F07F0172
:100270007E0012139590E678E04480F090E6797461
:10028000D2F07F017E0012139590E6797440F07FE2
:10029000017E00121395E490E044F090E044E0FF0A
:1002A000C39408501E74102FF582E434E0F583E007
:1002B00090E679F07F017E0012139590E044E0040F
:1002C000F080D890E678E04440F07F017E00121381
:1002D0009590E00FE06458703A90E678E04480F042
:1002E00090E67974D2F07F017E0012139590E67942
:1002F0007409F07F017E00121395E490E679F07F97
:1003000001FE12139590E678E04440F07F017E00F4
:1003100012139590E00FE0645960030204AA90E084
:100320003D04F090E03DE0FFC39407501990E67B58
:10033000E0FE740F2FF582E434E0F583EEF090E0F8
:100340003DE004F080DDE490E67CF090E03DF0904C
:10035000E010E0FF90E03DE0C39F503190E67BE08D
:10036000FF90E009E4F0A3EFF0E0FF12135AE490ED
:10037000E03EF090E014E0FF90E03EE0C39F5005C7
:10038000E004F080EE90E03DE004F080C27F027E69
:100390000012139590E015E0D394005003020495E9
:1003A00090E012E0FFE4FCFDFEFBFA7901F8120C8C
:1003B0000DC004C005C006C00790E011E0FFE4FCDA
:1003C000FDFEFBFAF97801120C0DD003D002D0012A
:1003D000D000120C00A804A905AA06AB0790E013F0
:1003E000E07F00FEE4FCFD120C0090E040120C8562
:1003F000E490E03CF0C29890E03F04F0E47F01FE1E
:10040000FDFC90E040120C79D3120C5C406C90E043
:1004100015E0FF90E03FE0D39F505F63B04020982D
:1004200029E47F01FEFDFC90E040120C79D3120C10
:100430005C401790E040120C6D74FFFBFAF9F81263
:100440000C0090E040120C8580D4E47F01FEFDFC9E
:1004500090E040120C79D3120C5C40A0C29890E658
:100460007CE599F090E03FE004F0E0D39401408C0B
:10047000A3120C91000000C880827AF879007EF8FF
:100480007F0074F8F59D7400F59E90E03FE01490B5
:10049000E67CF080157AF879007EF87F0074F8F534
:1004A0009D7400F59EE490E67CF090E00FE06460BF
:1004B00060030205CB90E03D04F090E03DE0FFC317
:1004C0009403501990E67BE0FE740F2FF582E4341C
:1004D000E0F583EEF090E03DE004F080DDE490E6AE
:1004E0007CF090E03DF090E010E0FF90E03DE0C354
:1004F0009F502B3099FDC29990E67BE0FF90E00978
:10050000E4F0A3EFF0E0F59990E03DE0C394014002
:1005100005E490E67CF090E03DE004F080C8E490D3
:10052000E03CF090E03FF063B040C29820983190FA
:10053000E011E0FF90E03FE0C39F5024E490E03EF4
:10054000F020981490E03EE0C394FF500BE004F0DC
:1005500090E044E004F080E990E03FE004F080CCDB
:1005600063B0403098657AF879007EF87F0074F8BF
:10057000F59D7400F59EC29890E67CE599F0E490B4
:10058000E03EF090E03EE0C394FF503F209814908E
:10059000E03EE0C394FF500BE004F090E044E00440
:1005A000F080E93098DD7AF879007EF87F0074F801
:1005B000F59D7400F59EC29890E67CE599F090E078
:1005C0003CE004F0E490E03EF080B890E00FE0FF03
:1005D000B45A1090E67BE0FD90E009E4F0A3EDF062
:1005E000E0F590EF6461707990E67BE0FF90E009C0
:1005F000E4F0A3EFF0E030E55F75B0807F0A7E00A5
:1006000012139575B09075B2FC7F057E001213959C
:100610004390407F057E00121395E4F5807F05FE30
:100620001213955390BF7F057E0012139575B2FC8F
:100630007F057E001213954390407F057E001213C4
:10064000957580207F057E001213955390BF7F051E
:100650007E0012139575800843908090E00AE04276
:100660009090E00FE06462704190E67BE0FF90E0E4
:1006700009E4F0A3EFF0E020E52A75B2FC7F057EE7
:10068000001213954390407F057E00121395E4F508
:10069000807F05FE1213955390BF7F057E001213D5
:1006A0009575800890E00AE0529090E00FE0FFB46A
:1006B000630690E67BE0F580EFB4640690E67CE5A7
:1006C00090F090E00FE06465702B90E67BE0FF9087
:1006D000E009E4F0A3EFF0E0FFF5CD8FCB90E67BEF
:1006E000E0FF90E009E4F0A3EFF0E0F40425E0F48B
:1006F00004F5CCF5CA90E690E090E698F000000092
:1007000090E691E090E699F000000090E691748008
:02071000F022D5
:020EFE00D322FD
:0213FE00D322F8
:02140000D322F5
:0A13E00090E6BAE090E021F0D3227D
:1013AC0090E021E090E740F0E490E68AF090E68B44
:0413BC0004F0D32244
:0A13EA0090E6BAE090E000F0D32294
:1013C00090E000E090E740F0E490E68AF090E68B51
:0413D00004F0D32230
:02140200D322F3
:02140400D322F1
:02140600D322EF
:1012720090E6B9E0242F601104701C90E604E0FFB0
:101282004480FF000000F0801090E604E0FF547FED
:0B129200FF000000F08002D322C32206
:10129D00C0E0C083C082C085C084C086758600D280
:1012AD00015391EF90E65D7401F0D086D084D08526
:0712BD00D082D083D0E032A3
:1012EB00C0E0C083C082C085C084C08675860053B1
:1012FB0091EF90E65D7404F0D086D084D085D082D7
:05130B00D083D0E032A8
:10131000C0E0C083C082C085C084C086758600538B
:1013200091EF90E65D7402F0D086D084D085D082B3
:05133000D083D0E03283
:10110F00C0E0C083C082C085C084C086758600C021
:10111F00D075D000C006C00790E051E0FEA3E0FFFD
:10112F0090E04DEEF0A3EFF0F5828E83A37402F002
:10113F0090E049E0FEA3E0FF90E04FEEF0A3EFF068
:10114F00F5828E83A37407F05391EF90E65D7410D0
:10115F00F0D007D006D0D0D086D084D085D082D022
:04116F0083D0E03217
:1012C400C0E0C083C082C085C084C086758600D259
:1012D400035391EF90E65D7408F0D086D084D085F6
:0712E400D082D083D0E0327C
:1010A400C0E0C083C082C085C084C086758600C08D
:1010B400D075D000C006C00790E680E030E73090DD
:1010C400E049E0FEA3E0FF90E04DEEF0A3EFF0F581
:1010D400828E83A37402F090E051E0FEA3E0FF90BF
:1010E400E04FEEF0A3EFF0F5828E83A37407F05384
:1010F40091EF90E65D7420F0D007D006D0D0D08672
:0B110400D084D085D082D083D0E032B0
:010FFF0032BF
:0114080032B1
:0114090032B0
:01140A0032AF
:01140B0032AE
:01140C0032AD
:01140D0032AC
:01140E0032AB
:01140F0032AA
:0114100032A9
:0114110032A8
:0114120032A7
:0114130032A6
:0114140032A5
:0114150032A4
:0114160032A3
:0114170032A2
:0114180032A1
:0114190032A0
:01141A00329F
:01141B00329E
:01141C00329D
:01141D00329C
:01141E00329B
:01141F00329A
:011420003299
:011421003298
:011422003297
:011423003296
:011424003295
:011425003294
:011426003293
:011427003292
:011428003291
:011429003290
:01142A00328F
:03004300020F00A9
:03005300020F0099
:100F000002129D00021310000212EB000212C40034
:100F100002110F000210A400020FFF0002140800CB
:100F20000214090002140A0002140B0002140C003F
:100F300002140D0002140E0002140F00021410001F
:100F4000021411000214080002141200021413000B
:100F500002141400021415000214160002141700E3
:100F600002141800021408000214080002140800F9
:100F70000214190002141A0002141B0002141C00AF
:100F800002141D0002141E0002141F00021420008F
:100F9000021421000214220002142300021424006F
:100FA000021425000214260002142700021428004F
:080FB0000214290002142A00BA
:1012460090E682E030E004E020E60B90E682E030B3
:10125600E119E030E71590E680E04401F07F147E66
:0C1266000012139590E680E054FEF02288
:1013350090E682E044C0F090E681F043870100002A
:041345000000002282
:101349007400F58690FDA57C05A3E582458370F9B7
:011359002271
:0A13F400E490E05CF0D2E9D2AF22F1
:1011AD00AD0790E678E020E6F9C2E990E678E044F4
:1011BD0080F0ED25E090E679F090E678E030E0F90A
:1011CD0090E678E04440F090E678E020E6F990E68D
:0811DD0078E030E1D6D2E922EE
:10117300AC0790E678E020E6F990E05CE070299017
:10118300E678E04480F0AF04EF25E090E679F09054
:10119300E057EDF0AF03A9077B01A3120CCBE4905A
:0A11A300E05BF0A304F0D322C322A6
:100FB800AC0790E678E020E6F990E05CE0702C90D1
:100FC800E678E04480F0AF04EF25E0440190E6794C
:100FD800F090E057EDF0AF03A9077B01A3120CCB0B
:0D0FE800E490E05BF0A37403F0D322C32279
:03004B00020CFAAA
:100CFA00C0E0C083C082C085C084C086758600C03B
:100D0A00D075D000C000C001C002C003C00790E681
:100D1A0078E030E20990E05C7406F0020E1C90E67E
:100D2A0078E020E10E90E05CE0640260067407F06F
:100D3A00020E1C90E05CE024FE607614604424FEFF
:100D4A007003020E0924FC7003020E1724086003C4
:100D5A00020E1C90E058120CC290E05BE0FF04F017
:100D6A008F82758300120B9B90E679F090E057E032
:100D7A00FF90E05BE06F6003020E1CA37405F002B3
:100D8A000E1C90E679E0FF90E058120CC290E05BEE
:100D9A00E0F582758300EF120BC890E05C7402F0F4
:100DAA0090E057E06401706A90E678E04420F080B1
:100DBA006190E057E024FEFF90E05BE0B507079002
:100DCA00E678E04420F090E057E014FF90E05BE022
:100DDA00B5070C90E678E04440F090E05CE4F090CF
:100DEA00E679E0FF90E058120CC290E05BE0F582F1
:100DFA00758300EF120BC890E05BE004F08013905B
:100E0A00E678E04440F090E05CE4F0800590E05C35
:100E1A00E4F05391DFD007D003D002D001D000D044
:0E0E2A00D0D086D084D085D082D083D0E03264
:02121700A90725
:1012190090E055E0FEA3E0FF8F828E83A3E0640394
:101229007017AD0119ED7001228F828E83E07C0069
:0C1239002FFDEC3EFEAF0580DFE4FEFF61
:011245002286
:101000001201000200000040B4042222000001028C
:1010100000010A06000200000040010009022E0043
:1010200001010080320904000004FF0000000705F0
:101030000202000200070504020002000705860202
:101040000002000705880200020009022E000101CB
:101050000080320904000004FF00000007050202BE
:10106000400000070504024000000705860240001A
:101070000007058802400000040309041003430030
:10108000790070007200650073007300160345005C
:101090005A002D0055005300420020004600580021
:0410A000320000001A
:030000000213D414
:0C13D400787FE4F6D8FD7581200209A99D
:100B9B00BB010CE58229F582E5833AF583E022500F
:100BAB0006E92582F8E622BBFE06E92582F8E22259
:0D0BBB00E58229F582E5833AF583E4932273
:100BC800F8BB010DE58229F582E5833AF583E8F063
:100BD800225006E92582C8F622BBFE05E92582C80F
:020BE800F222F7
:100BEA00A3F8E0C5F025F0F0E582158270021583BE
:060BFA00E0C838F0E8221B
:0D0C0000EF2BFFEE3AFEED39FDEC38FC2243
:100C0D00E88FF0A4CC8BF0A42CFCE98EF0A42CFC86
:100C1D008AF0EDA42CFCEA8EF0A4CDA8F08BF0A404
:100C2D002DCC3825F0FDE98FF0A42CCD35F0FCEB63
:100C3D008EF0A4FEA9F0EB8FF0A4CFC5F02ECD3928
:0F0C4D00FEE43CFCEAA42DCE35F0FDE43CFC2295
:100C5C00EB9FF5F0EA9E42F0E99D42F0E89C45F0EE
:010C6C002265
:0C0C6D00E0FCA3E0FDA3E0FEA3E0FF22FA
:0C0C7900E0F8A3E0F9A3E0FAA3E0FB22FE
:0C0C8500ECF0A3EDF0A3EEF0A3EFF022E2
:100C9100A8828583F0D083D082120CA8120CA812EE
:100CA1000CA8120CA8E473E493A3C583C5F0C58313
:100CB100C8C582C8F0A3C583C5F0C583C8C582C8AD
:010CC1002210
:090CC200E0FBA3E0FAA3E0F92233
:090CCB00EBF0A3EAF0A3E9F0222A
:100CD400D083D082F8E4937012740193700DA3A3AF
:100CE40093F8740193F5828883E4737402936860C3
:060CF400EFA3A3A380DFC3
:00000001FF
