:0A17060000010202030304040505BC
:1003970090E087120BDD00000000C203C200C2021A
:1003A700C201120C467E127F0090E0A2EEF0A3EF8E
:1003B700F090E0AA7412F0A37412F090E0A0741207
:1003C700F0A3741CF090E0A87412F0A3744AF090A4
:1003D700E0AC7412F0A37478F0EE54E070030205F9
:1003E7002590E08BE4F0A37480F0A3EEF0A3EFF088
:1003F700C374A29FFF74129ECF2402CF3400FEE481
:10040700FCFD90E083120BD190E07F120BDD000022
:10041700000090E083120BB990E07F120BC5C31266
:100427000BA8503090E081E0FEA3E0FF90E08BE066
:10043700FCA3E02FF582EC3EF58374CDF090E07FCE
:10044700120BB9E47B01FAF9F8120B9B90E07F12CB
:100457000BD180BE90E07F120BDD0000000090E022
:1004670083120BB990E07F120BC5C3120BA850473C
:1004770090E081E0FEA3E0FF90E08DE0FCA3E02F99
:10048700F582EC3EF583E0FF90E081E0FCA3E0FD20
:1004970090E08BE0FAA3E02DF582EA3CF583EFF0DC
:1004A70090E07F120BB9E47B01FAF9F8120B9B90ED
:1004B700E07F120BD180A790E08BE0FFA3E090E0F4
:1004C700A2CFF0A3EFF074002480FF741234FFFE74
:1004D700C390E0ABE09FF090E0AAE09EF0C390E00D
:1004E700A5E09FF090E0A4E09EF0C390E0A7E09F16
:1004F700F090E0A6E09EF0C390E0A1E09FF090E0CE
:10050700A0E09EF0C390E0A9E09FF090E0A8E09EF5
:10051700F0C390E0ADE09FF090E0ACE09EF0D2E851
:1005270043D82090E668E04409F090E65CE0443D5B
:10053700F0D2AF90E680E054F7F0538EF890E600E3
:10054700E054E74410F0C203300105120100C20174
:100557003003291217245024C2031215C62000168F
:1005670090E682E030E704E020E1EF90E682E030B9
:10057700E604E020E0E412156F12172612058980C1
:02058700C72289
:1001000090E6B9E0120C2001D90002820103170326
:1001100001230601D30801CD0901C10A01C70B0063
:10012000000383121728400302038F90E6BBE024EC
:10013000FE603414605724FD601A14603D2406707C
:100140007690E0A2E090E6B3F090E0A3E090E6B411
:10015000F002038F90E0AAE090E6B3F090E0ABE00D
:1001600090E6B4F002038F90E0A4E090E6B3F09044
:10017000E0A5E090E6B4F002038F90E0A6E090E600
:10018000B3F090E0A7E090E6B4F002038F90E6BAF7
:10019000E0FF121540AA06A9077B01EA494B600D52
:1001A000EE90E6B3F0EF90E6B4F002038F90E6A095
:1001B000E04401F002038F90E6A0E04401F0020366
:1001C0008F1216E302038F12171A02038F121710F1
:1001D00002038F1216CF02038F12172A4003020365
:1001E0008F90E6B8E0247F602B14603C240260030B
:1001F000020278A200E433FF25E0FFA202E4334FBD
:1002000090E740F0E4A3F090E68AF090E68B740269
:10021000F002038FE490E740F0A3F090E68AF090BC
:10022000E68B7402F002038F90E6BCE0547EFF7E02
:1002300000E0D3948040067C007D0180047C007D3A
:1002400000EC4EFEED4F2406F58274173EF583E474
:1002500093FF3395E0FEEF24A1FFEE34E68F82F5A5
:1002600083E0540190E740F0E4A3F090E68AF09038
:10027000E68B7402F002038F90E6A0E04401F002E6
:10028000038F12172C400302038F90E6B8E024FE80
:10029000601D2402600302038F90E6BAE0B40105FA
:1002A000C20002038F90E6A0E04401F002038F90A9
:1002B000E6BAE0705990E6BCE0547EFF7E00E0D3E1
:1002C000948040067C007D0180047C007D00EC4E23
:1002D000FEED4F2406F58274173EF583E493FF3359
:1002E00095E0FEEF24A1FFEE34E68F82F583E05423
:1002F000FEF090E6BCE05480FF131313541FFFE0A0
:10030000540F2F90E683F0E04420F002038F90E634
:10031000A0E04401F0807812172E507390E6B8E008
:1003200024FE60202402706790E6BAE0B40104D293
:1003300000805C90E6BAE06402605490E6A0E0447D
:1003400001F0804B90E6BCE0547EFF7E00E0D39449
:100350008040067C007D0180047C007D00EC4EFE28
:10036000ED4F2406F58274173EF583E493FF339531
:10037000E0FEEF24A1FFEE34E68F82F583E0440136
:10038000F0800C12159B500790E6A0E04401F0901D
:07039000E6A0E04480F0222A
:030033000211FBBC
:0411FB0053D8EF32A4
:101200001201000200000040B4042222000001028A
:1012100000010A06000200000040010009022E0041
:1012200001010080320904000004FF0000000705EE
:101230000202000200070504020002000705860200
:101240000002000705880200020009022E000101C9
:101250000080320904000004FF00000007050202BC
:101260004000000705040240000007058602400018
:10127000000705880240000004030904100343002E
:10128000790070007200650073007300160345005A
:101290005A002D005500530042002000460058001F
:0412A0003200000018
:03004300021000A8
:0300530002100098
:10100000021646000216B9000216A30002165E0080
:101010000214B80002145C00020FFF000211FF006E
:101020000217300002173100021732000217330096
:101030000217340002173500021736000217370076
:10104000021738000211FF000217390002173A0098
:1010500002173B0002173C0002173D0002173E003A
:1010600002173F000211FF000211FF000211FF00F2
:101070000217400002174100021742000217430006
:1010800002174400021745000217460002174700E6
:10109000021748000217490002174A0002174B00C6
:1010A00002174C0002174D0002174E0002174F00A6
:0810B000021750000217510065
:10115E0041E0590241E05F0C41E0350441E00C40B2
:10116E0041E00B8045E0200F0000003445E0250FE4
:10117E000000002C45E030FFFFFFFF9445E02BFF01
:10118E00FFFFFFD445E053EF000000B445E05A0FD7
:10119E008000003445E00672CF80000045E06172A9
:1011AE00C888000045E04C70E008580045E03670F5
:1011BE00E808580045E00072C088000045E07A70EB
:1011CE00D000000045E075F0D000000045E00D2392
:1011DE008023800045E066600000000445E06B005F
:0C11EE000000008045E0700000000004DC
:10162A0090E094EEF0A3EFF090E09474FFF5F012DE
:0C163A000B2245F060051215DA80ED224D
:1016760090E092EEF0A3EFF012162A90E092E0FED0
:07168600A3E0FF12162A2267
:10168D00E4F5A0F5A0F5A0F5A0F5A0F5A0F5A0F561
:06169D00A0F5A0F5A0225B
:1013980075A002E4F5A075A00175A00175A00175FE
:1013A800A00175A00175A00175A00175A00175A027
:1013B80001F5A0EF7007F5A0F5A075A002EFB40243
:1013C8000975A001E4F5A075A002EFB40409E4F5DD
:1013D800A075A00175A002EFB40C09E4F5A075A0F2
:1013E8000175A00375A002EFB40403E4F5A075A08D
:0213F8000322CE
:1015EB007F02121398E4F5A075A00175A001F5A078
:1015FB00F5A0F5A075A00275A00275A003FF12134C
:02160B00982223
:1010B800E4F5A075A00175A00112168D12168DE435
:1010C800F5A0F5A0F5A075A00175A00175A00175A2
:1010D800A00175A00112168D12168D12168DE4F559
:1010E800A075A00175A001F5A0F5A0F5A0F5A07563
:1010F800A001F5A0F5A0F5A0F5A0F5A0F5A0F5A034
:1011080075A001F5A075A001F5A0F5A075A001F5E1
:10111800A075A001F5A075A001F5A075A00175A0A6
:1011280001F5A075A001F5A0F5A075A001F5A075C1
:10113800A001F5A075A001F5A075A00175A001F5A5
:10114800A075A001F5A0F5A0F5A0F5A075A0027501
:06115800A00275A00322B5
:1013FA00AC0775A002E4F5A0F5A090E052E0FB7AF4
:10140A0000EB1BAE0270011A4E600575A00180F157
:10141A00EC30E00575A0018003E4F5A0EC30E105AD
:10142A0075A0018003E4F5A0EC30E20575A0018007
:10143A0003E4F5A0EC30E30575A003800375A00270
:10144A0075A002AF051DEF6005E4F5A080F575A053
:02145A0002226C
:10133000E4F5A0F5A090E051E0FFAE071FEE6005D8
:1013400075A00180F5E4F5A075A00175A00175A058
:1013500001F5A0F5A0F5A0F5A075A00175A001F517
:10136000A075A001F5A0F5A0F5A0F5A0F5A0F5A049
:10137000F5A0F5A0F5A0F5A0F5A0F5A0F5A0F5A0C5
:10138000F5A0F5A0F5A0F5A0F5A0F5A075A0027553
:08139000A002F5A075A00222E5
:100D500090E09CEDF0E4F5A0F5A090E051E0FFAE4E
:100D6000071FEE600575A00180F5E490E09EF0900D
:100D7000E09CE0FF90E09EE0FEC39F4003020E1F58
:100D8000EE5407705EEE131313541FF58275830043
:100D9000120AF590E09FF090E09FE0704690E09E90
:100DA000E0240AFFE433FE90E09CE0FDC3EF9D7475
:100DB00080F86E98502DE4F5A0F5A0F5A0F5A0F50B
:100DC000A0F5A0F5A0F5A090E09EE02408F0E0FFDB
:100DD000131313541FF582758300120AF590E09FD8
:100DE000F080B490E09CE014FF90E09EE06F600F14
:100DF000A3E030E70575A0018014E4F5A0800F9012
:100E0000E09FE030E70575A003800375A00290E045
:100E10009FE0FF25E0F090E09EE004F0020D6F906F
:100E2000E09EE014F075A00290E09DE0FF14F0EF6A
:0B0E30006005E4F5A080F175A002222F
:100E3B0090E09CEDF0E4F5A0F5A090E051E0FFAE62
:100E4B00071FEE600575A00180F5E4FE90E09CE0C5
:100E5B00FDEEC39D4003020EE3EE5407701DEE132F
:100E6B001313541FFD2412F582E434E0F583E4F0F0
:100E7B008D82F583120AF590E09EF0EE1313135456
:100E8B001FFD2412F582E434E0F583E0FC25E0F04D
:100E9B0074122DF582E434E0F583E0FDE590540106
:100EAB00FCED4CF090E09CE0146E601190E09EE045
:100EBB0030E70575A0018014E4F5A0800F90E09E4B
:100ECB00E030E70575A003800375A00290E09EE07B
:100EDB00FD25E0F00E020E571E90E09CE05407FD3E
:100EEB00C374089DFFEFD394004017EE13131354F4
:100EFB001F2412F582E434E0F583E0FD25E0F01FBA
:100F0B0080E375A00290E09DE0FF14F0EF6005E434
:080F1B00F5A080F175A002228F
:100FDA0075A00275A00275A00275A00275A002751F
:100FEA00A00275A00275A00275A00275A002E4F520
:050FFA00A075A0022219
:10150D0075A00275A00275A00275A00275A00275E6
:10151D00A00275A00275A00275A00275A00275A0AB
:10152D000275A00275A00275A002E4F5A075A002D7
:03153D00F5A022F4
:100F23004390107F647E001216765390EF7F017E0C
:100F330000121676120FDA90E059E0FFE4FD121367
:100F4300FA7B017AE0790C90E09D7401F07D041244
:100F53000D5090E05FE0FFE4FD1213FA90E05FE0D4
:100F6300FFE4FD1213FA7B017AE0796690E09D7449
:100F730001F07D26120D507AE0796B90E09D7401AB
:100F8300F07D26120D5090E09D7401F07D26120E27
:100F93003B90E091E004F0E0B4FA03D38001C34056
:100FA300047F0180027F0090E012E020E7047E01CD
:100FB30080027E00EE5F6003020F3090E05FE0FF8F
:100FC300E4FD1213FA7B017AE0797090E09D7401DD
:070FD300F07D26120D5022F3
:1007750090E091120C1790E059E0FFE4FD1213FA96
:100785007B017AE0790B90E09D7401F07D04120DF8
:100795005090E05FE0FFE4FD1213FA7B017AE07907
:1007A5000690E09D7401F07D21120D501213301258
:1007B5001330E490E01FF090E01EF090E01DF09003
:1007C500E01CF090E01BF090E091120C0E120B383B
:1007D500FFE5F0C313FEEF13FFEE547FFEEF5480E9
:1007E500FF90E01BE04EF0A3E04FF0900001120BEC
:1007F50063FFE5F0C313FEEF13FFEE547FFEEF54E6
:1008050080FF90E01CE04EF0A3E04FF09000021254
:100815000B63FFE5F0C313FEEF13FFEE547FFEEF0E
:100825005480FF90E01DE04EF0A3E04FF0900003F0
:10083500120B63FFE5F0C313FEEF13FFEE547FFECB
:10084500EF5480FF90E01EE04EF0A3E04FF07B01F7
:100855007AE0791B90E09D7401F07D21120D501214
:1008650013307AE0796190E09D7401F07D21120DDD
:1008750050121330121330E490E01FF090E01EF098
:1008850090E01DF090E01CF090E01BF07AE0791B01
:1008950090E09D04F07D21120D501213307AE0791D
:1008A5006190E09D7401F07D21120D5012133012FC
:1008B5001330E490E01FF090E01EF090E01DF09002
:1008C500E01CF090E01BF090E094120C0E120B3837
:1008D500FFE5F0C313FEEF13FFEE547FFEEF5480E8
:1008E500FF90E01DE04EF0A3E04FF0900001120BE9
:1008F50063FFE5F0C313FEEF13FFEE547FFEEF54E5
:1009050080FF90E01EE04EF0A3E04FF07B017AE01F
:10091500791B90E09D7401F07D21120D501213306A
:100925001213301213307AE0797590E09D7401F05E
:100935007D21120D507AE0794C90E09D7401F07D97
:1009450021120D5090E035E0FF7D011213FA90E081
:090955005FE0FFE4FD1213FA2239
:10095E0090E094120C17E490E097F0A3F090E05919
:10096E00E0FFE4FD1213FA7B017AE0790B90E09D33
:10097E007401F07D04120D5090E05FE0FFE4FD1273
:10098E0013FA7B017AE0790690E09D7401F07D21E7
:10099E00120D50121330121330E490E01FF090E05D
:1009AE001EF090E01DF090E01CF090E01BF090E047
:1009BE0094120C0E120B38FFE5F0C313FEEF13FF6B
:1009CE00EE547FFEEF5480FF90E01BE04EF0A3E06C
:1009DE004FF0900001120B63FFE5F0C313FEEF130F
:1009EE00FFEE547FFEEF5480FF90E01CE04EF0A32C
:1009FE00E04FF0900002120B63FFE5F0C313FEEF21
:100A0E0013FFEE547FFEEF5480FF90E01DE04EF09A
:100A1E00A3E04FF0900003120B63FFE5F0C313FE4B
:100A2E00EF13FFEE547FFEEF5480FF90E01EE04E7A
:100A3E00F0A3E04FF07B017AE0791B90E09D74010A
:100A4E00F07D21120D501213301213301213307A22
:100A5E00E0797590E09D7401F07D21120D507AE0E1
:100A6E00793690E09D7401F07D21120D5090E035A5
:100A7E00E0FF7D011213FA90E05FE0FFE4FD121338
:100A8E00FA7B017AE0790090E09D7401F07D2112ED
:100A9E000D501213301213307AE0797A90E09D7473
:100AAE0001F07D21120E3B90E015E025E090E01460
:100ABE00E033FE90E097E04EFEA3E0FF90E097EE6D
:100ACE00F0FCA3EFF0FDAD0790E015E0FEA3E0789B
:100ADE0007CEC313CE13D8F9FFECFEED4FFF90E017
:070AEE0097EEF0A3EFF022E8
:0F16F70090E0937402F012095E90E093EFF022FE
:10160D0012150DE4FF90E67CE590F0E4F5A00FEFE8
:0D161D00B440F275A00275A00275A0022273
:100C4600E490E08FF090E052F090E051F090E600F2
:100C5600E054E7F0E054DFF090E601E04440F09025
:100C6600E61074A0F090E611F000000090E6127411
:100C7600A2F000000090E61374A0F000000090E6D9
:100C86001474E2F000000090E61574E0F000000035
:100C960090E6917480F0000000F000000090E69568
:100CA600F0000000F043AF01D200E490E670F0F5EA
:100CB600B275B3F7F59090E671F075B4FFF5A075CF
:100CC600B5D075B0807F0AFE12167675B090E490A6
:100CD600E672F075B6FFF5B175985290E608E044F5
:100CE60001F090E600E04420F075B2FC7F057E003E
:100CF6001216764390407F057E00121676E4F58044
:100D06007F05FE1216765390BF7F057E001216767B
:100D1600E4F5B275B2FC7F05FE1216764390407F6D
:100D2600057E001216767580247F057E00121676E3
:100D36005390BF7F057E0012167675B2FCE4F580EF
:0A0D46007F01FE12167675B3F62247
:10058900E5AA30E003020774E5AA30E5030207741F
:100599007AF079007EF07F0074F0F59A7400F59B8B
:1005A9007AF879007EF87F0074F8F59D7400F59E5D
:1005B90090E690E0FF90E691E0240090E08FF0E46F
:1005C900A3F090E090E0FFC3940A501990E67BE015
:1005D900FE743B2FF582E434E0F583EEF090E09071
:1005E900E004F080DD90E03BE0B40103120F2390BA
:1005F900E03BE0B40203120FDA90E03BE0B40913E8
:100609007B017AE0793C90E094120C177AE0793E0C
:1006190012077590E03BE0B410137B017AE0793E54
:1006290012095EAC06EC90E047F0A3EFF090E03BD6
:10063900E0B411127B017AE0793E1216F790E0904E
:10064900EFF090E047F090E03BE0B412061215EBB2
:100659001210B890E03BE0FFB46104A3E04290EFD0
:10066900B4620690E03CE0529090E03BE0B464064E
:1006790090E67CE590F090E03BE0FFB4400DA3E00C
:10068900B401057580808003E4F580EFB44103125D
:10069900160D90E03BE064EE600302072A53B0EFC9
:1006A9007F0AFE12167643B01075B2FC7F057E00F4
:1006B9001216764390407F057E00121676E4F58087
:1006C9007F05FE1216765390BF7F057E00121676BF
:1006D900E4F5B275B2FC7F05FE1216764390407FB1
:1006E900057E0012167690E03CE0F5807F057E00DD
:1006F9001216765390BF7F057E0012167675B2FCEE
:10070900E4F58090E03DE0B4010BE490E052F09014
:10071900E051F0800C90E0527408F090E0517401BF
:10072900F090E03BE090E045F0E490E090F090E05C
:1007390090E0FFC39407501774452FF582E434E025
:10074900F583E090E67CF090E090E004F080DF90A3
:10075900E690E090E698F000000090E691E090E6DF
:0C07690099F000000090E6917480F022EE
:02172400D322CE
:02172600D322CC
:02172800D322CA
:0A17100090E6BAE090E060F0D3220A
:1016CF0090E060E090E740F0E490E68AF090E68BDF
:0416DF0004F0D3221E
:0A171A0090E6BAE090E005F0D3225B
:1016E30090E005E090E740F0E490E68AF090E68B26
:0416F30004F0D3220A
:02172A00D322C8
:02172C00D322C6
:02172E00D322C4
:10159B0090E6B9E0242F601104701C90E604E0FF84
:1015AB004480FF000000F0801090E604E0FF547FC1
:0B15BB00FF000000F08002D322C322DA
:10164600C0E0C083C082D2015391EF90E65D740181
:08165600F0D082D083D0E03215
:1016A300C0E0C083C0825391EF90E65D7404F0D034
:0616B30082D083D0E0327A
:1016B900C0E0C083C0825391EF90E65D7402F0D020
:0616C90082D083D0E03264
:1014B800C0E0C083C082C0D075D000C006C007900D
:1014C800E0A8E0FEA3E0FF90E0A4EEF0A3EFF0F5C3
:1014D800828E83A37402F090E0A0E0FEA3E0FF9068
:1014E800E0A6EEF0A3EFF0F5828E83A37407F05325
:1014F80091EF90E65D7410F0D007D006D0D0D0827E
:05150800D083D0E032A9
:10165E00C0E0C083C082D2035391EF90E65D740860
:08166E00F0D082D083D0E032FD
:10145C00C0E0C083C082C0D075D000C006C0079069
:10146C00E680E030E73090E0A0E0FEA3E0FF90E003
:10147C00A4EEF0A3EFF0F5828E83A37402F090E05B
:10148C00A8E0FEA3E0FF90E0A6EEF0A3EFF0F5825B
:10149C008E83A37407F05391EF90E65D7420F0D027
:0C14AC0007D006D0D0D082D083D0E03230
:010FFF0032BF
:0111FF0032BD
:011730003286
:011731003285
:011732003284
:011733003283
:011734003282
:011735003281
:011736003280
:01173700327F
:01173800327E
:01173900327D
:01173A00327C
:01173B00327B
:01173C00327A
:01173D003279
:01173E003278
:01173F003277
:011740003276
:011741003275
:011742003274
:011743003273
:011744003272
:011745003271
:011746003270
:01174700326F
:01174800326E
:01174900326D
:01174A00326C
:01174B00326B
:01174C00326A
:01174D003269
:01174E003268
:01174F003267
:011750003266
:011751003265
:10156F0090E682E030E004E020E60B90E682E03087
:10157F00E119E030E71590E680E04401F07F147E3A
:0C158F000012167690E680E054FEF02278
:1015C60090E682E044C0F090E681F0438701000097
:0415D60000000022EF
:1015DA007400F58690FDA57C05A3E582458370F924
:0115EA0022DE
:02154000A907F9
:1015420090E0ACE0FEA3E0FF8F828E83A3E0640311
:101552007017AD0119ED7001228F828E83E07C003D
:0C1562002FFDEC3EFEAF0580DFE4FEFF35
:01156E00225A
:030000000212A445
:0C12A400787FE4F6D8FD7581200212EB83
:100AF500BB010CE58229F582E5833AF583E02250B6
:100B050006E92582F8E622BBFE06E92582F8E222FF
:0D0B1500E58229F582E5833AF583E4932219
:100B2200A3F8E0C5F025F0F0E58215827002158386
:060B3200E0C838F0E822E3
:100B3800BB010A89828A83E0F5F0A3E02250068788
:100B4800F009E71922BBFE07E3F5F009E31922894A
:0B0B5800828A83E493F5F0740193227D
:100B6300BB0110E58229F582E5833AF583E0F5F0D0
:100B7300A3E0225009E92582F886F008E622BBFEAD
:100B83000AE92582F8E2F5F008E222E5832AF583F3
:080B9300E993F5F0A3E99322B8
:0D0B9B00EF2BFFEE3AFEED39FDEC38FC22A9
:100BA800EB9FF5F0EA9E42F0E99D42F0E89C45F0A3
:010BB800221A
:0C0BB900E0FCA3E0FDA3E0FEA3E0FF22AF
:0C0BC500E0F8A3E0F9A3E0FAA3E0FB22B3
:0C0BD100ECF0A3EDF0A3EEF0A3EFF02297
:100BDD00A8828583F0D083D082120BF4120BF4120D
:100BED000BF4120BF4E473E493A3C583C5F0C58332
:100BFD00C8C582C8F0A3C583C5F0C583C8C582C862
:010C0D0022C4
:090C0E00E0FBA3E0FAA3E0F922E7
:090C1700EBF0A3EAF0A3E9F022DE
:100C2000D083D082F8E4937012740193700DA3A363
:100C300093F8740193F5828883E473740293686077
:060C4000EFA3A3A380DF77
:1012B000020397E493A3F8E493A34003F68001F2BA
:1012C00008DFF48029E493A3F85407240CC8C3333F
:1012D000C4540F4420C8834004F456800146F6DF0E
:1012E000E4800B010204081020408090115EE47E2F
:1012F000019360BCA3FF543F30E509541FFEE49303
:10130000A360010ECF54C025E060A840B8E493A3C9
:10131000FAE493A3F8E493A3C8C582C8CAC583CAF4
:10132000F0A3C8C582C8CAC583CADFE9DEE780BEAC
:0111FA0000F4
:00000001FF
