:0A1A1A0000010202030304040505A5
:100CBF0090E008120FBD00000000C203C200C20284
:100CCF00C2011211647E147F0090E047EEF0A3EF93
:100CDF00F090E04F7414F0A37412F090E045741488
:100CEF00F0A3741CF090E04D7414F0A3744AF090CC
:100CFF00E0517414F0A37478F0EE54E07003020E18
:100D0F004D90E00CE4F0A37480F0A3EEF0A3EFF0AD
:100D1F00C374A29FFF74149ECF2402CF3400FEE44D
:100D2F00FCFD90E004120FB190E000120FBD000027
:100D3F00000090E004120F9990E000120FA5C3126B
:100D4F000F88503090E002E0FEA3E0FF90E00CE04F
:100D5F00FCA3E02FF582EC3EF58374CDF090E0001C
:100D6F00120F99E47B01FAF9F8120F2C90E00012A0
:100D7F000FB180BE90E000120FBD0000000090E0A8
:100D8F0004120F9990E000120FA5C3120F8850475D
:100D9F0090E002E0FEA3E0FF90E00EE0FCA3E02F66
:100DAF00F582EC3EF583E0FF90E002E0FCA3E0FD6E
:100DBF0090E00CE0FAA3E02DF582EA3CF583EFF02A
:100DCF0090E000120F99E47B01FAF9F8120F2C90C2
:100DDF00E000120FB180A790E00CE0FFA3E090E0DD
:100DEF0047CFF0A3EFF074002480FF741434FFFE9C
:100DFF00C390E050E09FF090E04FE09EF0C390E092
:100E0F004AE09FF090E049E09EF0C390E04CE09FF5
:100E1F00F090E04BE09EF0C390E046E09FF090E052
:100E2F0045E09EF0C390E04EE09FF090E04DE09ED5
:100E3F00F0C390E052E09FF090E051E09EF0D2E8D6
:100E4F0043D82090E668E04409F090E65CE0443D2A
:100E5F00F0D2AF90E680E054F7F0538EF890E600B2
:100E6F00E054E74410F0C203300105120A28C20112
:100E7F00300329121A525024C2031218922000165E
:100E8F0090E682E030E704E020E1EF90E682E03088
:100E9F00E604E020E0E412183B121A54120100801D
:020EAF00C72258
:100A280090E6B9E01210000B01000BAA010C3F037D
:100A38000A4B060AFB080AF5090AE90A0AEF0B003D
:100A4800000CAB121A564003020CB790E6BBE02428
:100A5800FE603414605724FD601A14603D2406704B
:100A68007690E047E090E6B3F090E048E090E6B496
:100A7800F0020CB790E04FE090E6B3F090E050E061
:100A880090E6B4F0020CB790E049E090E6B3F0903D
:100A9800E04AE090E6B4F0020CB790E04BE090E654
:100AA800B3F090E04CE090E6B4F0020CB790E6BAF0
:100AB800E0FF12180CAA06A9077B01EA494B600D52
:100AC800EE90E6B3F0EF90E6B4F0020CB790E6A033
:100AD800E04401F0020CB790E6A0E04401F0020CFB
:100AE800B71219E7020CB7121A2E020CB7121A2401
:100AF800020CB71219D3020CB7121A584003020C91
:100B0800B790E6B8E0247F602B14603C24026003B1
:100B1800020BA0A200E433FF25E0FFA202E4334F5A
:100B280090E740F0E4A3F090E68AF090E68B740238
:100B3800F0020CB7E490E740F0A3F090E68AF0905A
:100B4800E68B7402F0020CB790E6BCE0547EFF7EA0
:100B580000E0D3948040067C007D0180047C007D09
:100B680000EC4EFEED4F241AF582741A3EF583E42C
:100B780093FF3395E0FEEF24A1FFEE34E68F82F574
:100B880083E0540190E740F0E4A3F090E68AF09007
:100B9800E68B7402F0020CB790E6A0E04401F00284
:100BA8000CB7121A5A4003020CB790E6B8E024FEBC
:100BB800601D24026003020CB790E6BAE0B4010598
:100BC800C200020CB790E6A0E04401F0020CB79016
:100BD800E6BAE0705990E6BCE0547EFF7E00E0D3B0
:100BE800948040067C007D0180047C007D00EC4EF2
:100BF800FEED4F241AF582741A3EF583E493FF3311
:100C080095E0FEEF24A1FFEE34E68F82F583E054F1
:100C1800FEF090E6BCE05480FF131313541FFFE06E
:100C2800540F2F90E683F0E04420F0020CB790E6D2
:100C3800A0E04401F08078121A5C507390E6B8E0A6
:100C480024FE60202402706790E6BAE0B40104D262
:100C580000805C90E6BAE06402605490E6A0E0444C
:100C680001F0804B90E6BCE0547EFF7E00E0D39418
:100C78008040067C007D0180047C007D00EC4EFEF7
:100C8800ED4F241AF582741A3EF583E493FF3395E9
:100C9800E0FEEF24A1FFEE34E68F82F583E0440105
:100CA800F0800C121867500790E6A0E04401F0901D
:070CB800E6A0E04480F022F9
:03003300021A4A64
:041A4A0053D8EF324C
:1018FE0090E023EEF0A3EFF090E02374FFF5F012EA
:0C190E000F1645F060051218A680ED22AF
:1019660090E021EEF0A3EFF01218FE90E021E0FEE9
:07197600A3E0FF1218FE229E
:1017DA00E4FEFDEDC39F50050E1E0D80F6E4FDEDFF
:1017EA00C39F50050E1E0D80F6E4FDEDC39F500504
:1017FA000E1E0D80F6E4FDEDC39F50050E1E0D80F2
:02180A00F622C4
:1018B700E490E026F07F017E00121966E58030E2B1
:1018C7000690E02674C8F090E026E004F0E0C394A8
:0418D7006440E22265
:081A4200C2C18FC130C1FD22B9
:1019A9005380F97F011217DA4380011217DA538045
:0519B900FE1217DA2206
:10191A00E58054F94404F5807F011217DA43800107
:0A192A001217DA5380FE1217DA22BA
:10193400E58054F94402F5807F011217DA438001EF
:0A1944001217DA5380FE1217DA22A0
:1019BE004380067F011217DA4380011217DA538033
:0519CE00FE1217DA22F1
:1016A10090E01EEFF043B41043901053A0EF7F1E63
:1016B1007E0012196690E01EE0FFB401065390EF20
:1016C10053A0EFEF700643901053A0EFEFB4020662
:1016D10043901043A0107F147E001219667F0A7E8A
:0516E100001219662251
:10150000AC05A907E4FB1219A9E4FAEB25E0FBE519
:101510008030E306EB4401FB8004EB54FEFBE93032
:10152000E70EEC30E7051219BE801112191A800C73
:10153000EC30E70512193480031219A9E929F9ECF6
:101540002CFC0AEAB408C41219A91219A97F78124E
:0515500017DAAF0322D1
:1019FB0053A0DCE4FF1216A17F647E00121966432C
:031A0B00A02022F6
:1016530053A0DD43A002E4FF1216A15380F97F05D6
:101663007E00121966E490E01DF07F017E001219DE
:10167300664380017F017E001219665380FE90E06D
:101683001DE004F0E0C394C840E07F057E0012191A
:0E169300667F021216A17F147E0012196622D5
:041A4E0012165322F7
:101555007D4C7F081215007F017E00121966E4900C
:10156500E01DF090E01DE0FFC36480948350357D5D
:101575000C1215007F017E001219667D68E4FF12CA
:1015850015007F017E001219667D6CE4FF121500BF
:1015950090E67CEFF07F017E0012196690E01DE079
:0515A50004F080BF22EC
:1012210090E01DEEF0A3EFF0A3EDF0A3EBF07D4C09
:101231007F1012150090E01DE0FF7D1C121500A328
:10124100E0FF7D0C12150090E020E0FF7D3C1215BF
:10125100007D74E4FF1215007D7CE4FF1215007F10
:10126100057E0012196690E01FE0FF7D2C1215002B
:101271007D64E4FF1215007D6CE4FF1215007F050B
:061281007E001219662236
:1013B80090E01DEEF0A3EFF07D4C7F021215009037
:1013C800E01DE0FF7D1C121500A3E0FF7D0C121547
:1013D800007D68E4FF1215007D6CE4FF1215009093
:1013E800E02DEFF07D78E4FF1215007D7CE4FF121C
:0813F800150090E02CEFF0223B
:1018DB0053A0FCE4FF1216A17F327E001219667F23
:1018EB000A7E001219667F011216A17F057E001277
:0318FB0019662249
:1012870090E01DEFF0E4F5B07F0AFE12196675B025
:101297001075B2FCE490E01EF07F057E001219661F
:1012A7004390407F057E0012196690E01EE0B4016E
:1012B7000890E01DE0F5808003E4F5807F057E005F
:1012C7001219665390BF7F057E0012196690E01EC3
:1012D700E004F0E0C3940240C0758008E4F5A02262
:1016E600E490E044F053B43F43B6807F0AFE1219FB
:1016F6006643B1807F0A7E00121966E5A030E707CF
:1017060090E044E06401F07F0A7E0012196653B14E
:101716007F7F0A7E00121966E5A020E70790E04465
:05172600E06401F02267
:1015FF0090E044E0601C53B0BFE5A030E70B90E0F3
:10160F002FE0640190E67CF02290E02FE090E67CE2
:10161F00F02243B040E5B130E61690E02FE0FE64D3
:10162F000190E67CF0EE600453B17F2243B180223B
:10163F0090E02FE0FF90E67CF0EF600443B1802252
:04164F0053B17F22F2
:1011640090E601E04440F090E61074A0F090E6119F
:10117400F000000090E61274A2F000000090E61364
:1011840074A0F000000090E61474E2F000000090F7
:10119400E61574E0F000000090E6917480F0000021
:1011A40000F000000090E695F0000000F043AF016D
:1011B400D200E490E670F075B2FC75B3F47590104B
:1011C40090E671F075B4FFF5A075B550F5B090E6F2
:1011D40072F075B6BFF5B17F0AFE12196675B010CC
:1011E4007F0A7E00121966758B97758D9775C834C2
:1011F40075884075892075C052121A387F647E0044
:101204001219667F041212877F647E00121966E445
:0D12140090E02FF01216E6E4FF1212872280
:10010000E5AA30E003020A27E5AA30E503020A2740
:100110007AF079007EF07F0074F0F59A7400F59B18
:100120007AF879007EF87F0074F8F59D7400F59EEA
:1001300090E690E0FF90E691E0240090E012F090CD
:10014000E67BE090E042F0E06435702CF5B47F048B
:100150001212877F647E001219661215FF7F647E7B
:100160000012196690E044E090E67CF07F647E0027
:10017000121966E4FF12128790E042E06401600306
:1001800002027463904090E678E04440F0E490E628
:1001900079F090E678E020E6F97F017E001219669A
:1001A00090E678E04480F090E67974A6F090E678E6
:1001B000E030E0F990E67BE090E02EF090E678E029
:1001C00030E0F990E67BE090E679F090E678E03078
:1001D000E0F990E678E04480F090E67974A7F0903A
:1001E000E678E030E0F990E679E090E02EF090E6F5
:1001F00078E030E0F990E679E090E67CF090E678FF
:10020000E030E0F990E679E090E67CF090E678E086
:1002100030E0F990E679E090E67CF090E678E03026
:10022000E0F990E679E090E67CF090E678E030E066
:10023000F990E679E090E67CF090E678E030E0F93D
:1002400090E679E090E67CF090E678E030E0F99096
:10025000E678E04420F090E679E090E67CF090E6E5
:1002600078E030E0F990E679E090E67CF090E6788E
:10027000E04440F090E042E064027074639080904B
:10028000E678E04480F090E67974A6F07F017E0085
:1002900012196690E67BE090E012F07F017E00127A
:1002A000196690E67BE090E679F090E67BE090E0DE
:1002B00012F0E490E015F090E012E0FF90E015E01D
:1002C000C39F50177F017E0012196690E67BE09075
:1002D000E679F090E015E004F080DC7F017E00120A
:1002E000196690E678E04440F07F077E00121966B8
:1002F00090E042E0B4300D43B52053B0DF7F017E83
:100300000012196690E042E0FFB4310643B020537A
:10031000B5DFEF645760030203EC90E014F090E067
:1003200014E0FFC39408501990E67BE0FE74302F70
:10033000F582E434E0F583EEF090E014E004F08020
:10034000DD90E678E04480F090E67974D2F07F01A9
:100350007E0012196690E6797408F07F017E001223
:100360001966E490E014F090E67BE090E679F07F87
:10037000017E0012196690E014E004F0E0C3940ED0
:1003800040E590E678E04440F07F017E0012196677
:1003900090E678E04480F090E67974D2F07F017EB8
:1003A0000012196690E6797440F07F017E00121900
:1003B00066E490E014F090E014E0FFC39408501E4F
:1003C00074302FF582E434E0F583E090E679F07F35
:1003D000017E0012196690E014E004F080D890E6E7
:1003E00078E04440F07F017E0012196690E042E020
:1003F0006459600302055390E67CF090E67BE09040
:10040000E012F090E67BE090E032F0E490E014F04F
:1004100090E012E0FF90E014E0C39F40030204E488
:100420003099FDC29990E67BE090E02EF0E0FF90DD
:10043000E010E4F0A3EFF0E490E015F090E013F0AA
:1004400090E011E0FF90E015E06FF090E010E0C365
:1004500013F0A3E013F090E013E004F0E0B408E040
:1004600090E015E05401F07005439808800353981C
:10047000F790E02EE0F599E490E013F0E490E010BE
:10048000F0A3F090E015E004F090E010E475F001C6
:10049000120F0090E010E07004A3E0649670E49006
:1004A000E013E004F0E0B40AD3E490E013F0E49049
:1004B000E010F0A3F090E015E004F090E010E47597
:1004C000F001120F0090E010E07004A3E0643270BD
:1004D000E490E013E004F0E0B405D390E014E0040D
:1004E000F0020410C29890E0137401F0E4A3F0E469
:1004F00090E015F020983790E032E0FF90E015E0B2
:10050000C39F502AE490E010F0A3F0209818C39005
:10051000E011E094FA90E010E094005009E475F0E6
:1005200001120F0080E590E015E004F080C63098DD
:1005300010C29890E67CE599F090E013E004F0801A
:100540000690E014743FF090E014E004F0E0C394EF
:100550003F409C90E042E0FFB403047E0180027EB5
:1005600000EFB410047F0180027F00EF4EFF90E0A7
:1005700042E0FEB411047D0180027D00ED4FFFEEEC
:10058000B450047E0180027E00EE4FFF90E042E016
:10059000B460047E0180027E00EE4F604690E0145D
:1005A0007401F090E014E0FFC39410501990E67BC2
:1005B000E0FE74302FF582E434E0F583EEF090E055
:1005C00014E004F080DD90E031E0FEA3E07C002444
:1005D00000FFEC3E90E01AF0A3EFF090E042E090D4
:1005E000E67CF090E042E0B4030E7F301212877593
:1005F000B207121A4E12155590E042E0B4101B904B
:10060000E01AE0FEA3E0FF1213B890E02DE090E6C0
:100610007CF090E02CE090E67CF090E042E0B411B9
:100620001390E01AE0FEA3E0FF90E033E0FDA3E0CA
:10063000FB12122190E042E0B4191F7D4C7F801222
:1006400015007D64E4FF1215007D6CE4FF121500B7
:100650007D4CE4FF1215001218B790E042E0641AD6
:1006600070547D4C7F401215007D2CE4FF12150064
:100670007D64E4FF1215007F0A7E001219667D6C0E
:10068000E4FF1215007F0A7E001219667D4C7F4040
:100690001215007D2C7FF01215007D64E4FF121509
:1006A000007F0A7E001219667D6CE4FF1215007F40
:1006B0000A7E0012196690E042E0B41B1A7D4C7F5E
:1006C000041215007D68E4FF1215007D6CE4FF1232
:1006D000150090E67CEFF090E042E0641770267D14
:1006E0004C7F201215007D2CE4FF1215007D64E480
:1006F000FF1215007F0A7E001219667D6CE4FF125E
:1007000015001218B790E042E0B4181A7D4C7F042F
:100710001215007D68E4FF1215007D6CE4FF1215D0
:100720000090E67CEFF090E042E0B41C031218DB8E
:1007300090E042E0B41D031219FB90E042E0B42BBC
:10074000057F011216A190E042E0B42C03121A4E6C
:1007500090E042E0B42D0312165390E042E0B42E34
:100760000E4380017F051217DA5380FE1217DA90CC
:10077000E042E06450703BF5B47F34121287E4909D
:10078000E01CF090E014F090E01CE02404F0E0F5B0
:10079000807F017E0012196690E67CE5A0F090E073
:1007A00014E004F0E0C3940740DDE4FF121287E494
:1007B000F5B490E042E06458703A90E678E0448006
:1007C000F090E67974D2F07F017E0012196690E60F
:1007D000797409F07F017E00121966E490E679F0E1
:1007E0007F01FE12196690E678E04440F07F017EBA
:1007F0000012196690E042E0646060030209929082
:10080000E014F090E031E0FF90E014E0C39F50412D
:10081000E490E010F0A3F090E035E075F002A4FF62
:10082000C390E011E09F90E010E095F05009E4756E
:10083000F001120F0080E090E014E02437F582E42C
:1008400034E0F583E0FF121A4290E014E004F080F7
:10085000B290E036E0D39400500302095B90E0339D
:10086000E0FFE4FCFDFEFBFA7901F8120F39C00449
:10087000C005C006C00790E032E0FFE4FCFDFEFBCF
:10088000FAF97801120F39D003D002D001D000124A
:100890000F2CA804A905AA06AB0790E034E07F005E
:1008A000FEE4FCFD120F2CE47B02FAF9F8120F397A
:1008B00090E016120FB1E490E013F0C2C090E01582
:1008C00004F090E036E090E02AF0E47F01FEFDFCC9
:1008D00090E016120FA5D3120F88407490E02AE022
:1008E000FF90E015E0D39F506720C029E47F01FE10
:1008F000FDFC90E016120FA5D3120F88401790E070
:1009000016120F9974FFFBFAF9F8120F2C90E016EB
:10091000120FB180D4E47F01FEFDFC90E016120FAF
:10092000A5D3120F8840A3C2C090E015E02430F593
:1009300082E434E0F583E5C1F090E015E004F0E0F6
:10094000D394014085A3120FBD00009C400208CA49
:1009500090E015E01490E014F08005E490E014F0CD
:1009600090E014E090E030F0E490E014F090E014B7
:10097000E0FFC39410501B74302FF582E434E0F58F
:1009800083E090E02EF090E67CF090E014E004F03C
:1009900080DB90E042E0FFB45A0690E67BE0F59001
:1009A000EFB4610690E67BE0429090E042E0B462F2
:1009B0000690E67BE0529090E042E0FFB463069040
:1009C000E67BE0F580EFB4640690E67CE590F0907D
:1009D000E042E0B4650D90E67BE0F5CDF5CBE0F5C7
:1009E000CCF5CA90E042E0FFB4660990E67C746FF3
:1009F000F0746BF0EFB4670690E67BE052B190E0E4
:100A000042E0B4680690E67BE042B190E690E09068
:100A1000E698F000000090E691E090E699F0000082
:080A20000090E6917480F022C1
:021A5200D3229D
:021A5400D3229B
:021A5600D32299
:0A1A240090E6BAE090E040F0D32213
:1019D30090E040E090E740F0E490E68AF090E68BF8
:0419E30004F0D32217
:0A1A2E0090E6BAE090E025F0D32224
:1019E70090E025E090E740F0E490E68AF090E68BFF
:0419F70004F0D32203
:021A5800D32297
:021A5A00D32295
:021A5C00D32293
:1018670090E6B9E0242F601104701C90E604E0FFB5
:101877004480FF000000F0801090E604E0FF547FF2
:0B188700FF000000F08002D322C3220B
:1012E700C0E0C083C082D2015391EF90E65D7401E4
:0812F700F0D082D083D0E03278
:10197D00C0E0C083C0825391EF90E65D7404F0D057
:06198D0082D083D0E0329D
:10199300C0E0C083C0825391EF90E65D7402F0D043
:0619A30082D083D0E03287
:1015AA00C0E0C083C082C0D075D000C006C007901A
:1015BA00E04DE0FEA3E0FF90E049EEF0A3EFF0F586
:1015CA00828E83A37402F090E045E0FEA3E0FF90D0
:1015DA00E04BEEF0A3EFF0F5828E83A37407F0538D
:1015EA0091EF90E65D7410F0D007D006D0D0D0828B
:0515FA00D083D0E032B7
:10194E00C0E0C083C082D2035391EF90E65D74086D
:08195E00F0D082D083D0E0320A
:1014A400C0E0C083C082C0D075D000C006C0079021
:1014B400E680E030E73090E045E0FEA3E0FF90E016
:1014C40049EEF0A3EFF0F5828E83A37402F090E06E
:1014D4004DE0FEA3E0FF90E04BEEF0A3EFF0F582C9
:1014E4008E83A37407F05391EF90E65D7420F0D0DF
:0C14F40007D006D0D0D082D083D0E032E8
:0112FF0032BC
:011A5E003255
:011A5F003254
:011A60003253
:011A61003252
:011A62003251
:011A63003250
:011A6400324F
:011A6500324E
:011A6600324D
:011A6700324C
:011A6800324B
:011A6900324A
:011A6A003249
:011A6B003248
:011A6C003247
:011A6D003246
:011A6E003245
:011A6F003244
:011A70003243
:011A71003242
:011A72003241
:011A73003240
:011A7400323F
:011A7500323E
:011A7600323D
:011A7700323C
:011A7800323B
:011A7900323A
:011A7A003239
:011A7B003238
:011A7C003237
:011A7D003236
:011A7E003235
:011A7F003234
:011A80003233
:101400001201000200000040B40422220000010288
:1014100000010A06000200000040010009022E003F
:1014200001010080320904000004FF0000000705EC
:1014300002020002000705040200020007058602FE
:101440000002000705880200020009022E000101C7
:101450000080320904000004FF00000007050202BA
:101460004000000705040240000007058602400016
:10147000000705880240000004030904100343002C
:101480007900700072006500730073001603450058
:101490005A002D005500530042002000460058001D
:0414A0003200000016
:03004300021300A5
:0300530002130095
:101300000212E7000219930002197D0002194E0033
:101310000215AA000214A4000212FF00021A5E00C5
:10132000021A5F00021A6000021A6100021A6200CB
:10133000021A6300021A6400021A6500021A6600AB
:10134000021A6700021A5E00021A6800021A690097
:10135000021A6A00021A6B00021A6C00021A6D006F
:10136000021A6E00021A5E00021A5E00021A5E0085
:10137000021A6F00021A7000021A7100021A72003B
:10138000021A7300021A7400021A7500021A76001B
:10139000021A7700021A7800021A7900021A7A00FB
:1013A000021A7B00021A7C00021A7D00021A7E00DB
:0813B000021A7F00021A8000FE
:10183B0090E682E030E004E020E60B90E682E030B8
:10184B00E119E030E71590E680E04401F07F147E6B
:0C185B000012196690E680E054FEF022B6
:1018920090E682E044C0F090E681F04387010000C8
:0418A2000000002220
:1018A6007400F58690FDA57C05A3E582458370F955
:0118B600220F
:0A1A3800E490E058F0D2E9D2AF22AA
:1017A200AD0790E678E020E6F9C2E990E678E044F9
:1017B20080F0ED25E090E679F090E678E030E0F90F
:1017C20090E678E04440F090E678E020E6F990E692
:0817D20078E030E1D6D2E922F3
:10176800AC0790E678E020E6F990E058E070299020
:10177800E678E04480F0AF04EF25E090E679F09059
:10178800E053EDF0AF03A9077B01A3120FF7E49034
:0A179800E057F0A304F0D322C322AF
:10172B00AC0790E678E020E6F990E058E0702C905A
:10173B00E678E04480F0AF04EF25E0440190E679D1
:10174B00F090E053EDF0AF03A9077B01A3120FF765
:0D175B00E490E057F0A37403F0D322C32202
:03004B000210267A
:10102600C0E0C083C082C085C084C086758600C00B
:10103600D075D000C000C001C002C003C00790E652
:1010460078E030E20990E0587406F002114890E624
:1010560078E020E10E90E058E0640260067407F044
:1010660002114890E058E024FE607614604424FEA5
:10107600700302113524FC70030211432408600337
:1010860002114890E054120FEE90E057E0FF04F092
:101096008F82758300120EB190E679F090E053E0EE
:1010A600FF90E057E06F6003021148A37405F00259
:1010B600114890E679E0FF90E054120FEE90E05769
:1010C600E0F582758300EF120EDE90E0587402F0B0
:1010D60090E053E06401706A90E678E04420F08086
:1010E6006190E053E024FEFF90E057E0B5070790DB
:1010F600E678E04420F090E053E014FF90E057E0FB
:10110600B5070C90E678E04440F090E058E4F090A3
:10111600E679E0FF90E054120FEE90E057E0F5829A
:10112600758300EF120EDE90E057E004F080139016
:10113600E678E04440F090E058E4F0800590E0580E
:10114600E4F05391DFD007D003D002D001D000D015
:0E115600D0D086D084D085D082D083D0E03235
:02180C00A9072A
:10180E0090E051E0FEA3E0FF8F828E83A3E064039D
:10181E007017AD0119ED7001228F828E83E07C006E
:0C182E002FFDEC3EFEAF0580DFE4FEFF66
:01183A00228B
:03000000021A0ED3
:0C1A0E00787FE4F6D8FD758120020CBF43
:100EB100BB010CE58229F582E5833AF583E02250F6
:100EC10006E92582F8E622BBFE06E92582F8E22240
:0D0ED100E58229F582E5833AF583E493225A
:100EDE00F8BB010DE58229F582E5833AF583E8F04A
:100EEE00225006E92582C8F622BBFE05E92582C8F6
:020EFE00F222DE
:100F0000C5F0F8A3E028F0C5F0F8E582158270027C
:060F10001583E038F02219
:100F1600A3F8E0C5F025F0F0E5821582700215838E
:060F2600E0C838F0E822EB
:0D0F2C00EF2BFFEE3AFEED39FDEC38FC2214
:100F3900E88FF0A4CC8BF0A42CFCE98EF0A42CFC57
:100F49008AF0EDA42CFCEA8EF0A4CDA8F08BF0A4D5
:100F59002DCC3825F0FDE98FF0A42CCD35F0FCEB34
:100F69008EF0A4FEA9F0EB8FF0A4CFC5F02ECD39F9
:0F0F7900FEE43CFCEAA42DCE35F0FDE43CFC2266
:100F8800EB9FF5F0EA9E42F0E99D42F0E89C45F0BF
:010F98002236
:0C0F9900E0FCA3E0FDA3E0FEA3E0FF22CB
:0C0FA500E0F8A3E0F9A3E0FAA3E0FB22CF
:0C0FB100ECF0A3EDF0A3EEF0A3EFF022B3
:100FBD00A8828583F0D083D082120FD4120FD41261
:100FCD000FD4120FD4E473E493A3C583C5F0C58386
:100FDD00C8C582C8F0A3C583C5F0C583C8C582C87E
:010FED0022E1
:090FEE00E0FBA3E0FAA3E0F92204
:090FF700EBF0A3EAF0A3E9F022FB
:10100000D083D082F8E4937012740193700DA3A37F
:1010100093F8740193F5828883E473740293686093
:06102000EFA3A3A380DF93
:00000001FF
