:0A1A5D000001020203030404050562
:100E2F0090E0511211B600000000C203C200C202CE
:100E3F00C2011211E77E167F0090E06AEEF0A3EF79
:100E4F00F090E0727416F0A37412F090E0687416CC
:100E5F00F0A3741CF090E0707416F0A3744AF09035
:100E6F00E0747416F0A37478F0EE54E07003020F80
:100E7F00FD90E055E4F0A37480F0A3EEF0A3EFF043
:100E8F00C374A29FFF74169ECF2402CF3400FEE4DA
:100E9F00FCFD90E04D1211AA90E0491211B600002E
:100EAF00000090E04DE0FCA3E0FDA3E0FEA3E0FF17
:100EBF0090E049E0F8A3E0F9A3E0FAA3E0FBC31246
:100ECF001199504490E049E0A3E0A3E0FEA3E0FFB6
:100EDF0090E055E0FCA3E02FF582EC3EF58374CD56
:100EEF00F090E049E0FCA3E0FDA3E0FEA3E0FFE407
:100EFF00FAF9F8EF2401FFEA3EFEE93DFDE83CFC7C
:100F0F0090E0491211AA809A90E0491211B60000A0
:100F1F00000090E04DE0FCA3E0FDA3E0FEA3E0FFA6
:100F2F0090E049E0F8A3E0F9A3E0FAA3E0FBC312D5
:100F3F001199505390E049E0A3E0A3E0FEA3E0FF36
:100F4F0090E057E0FCA3E02FF582EC3EF583E0FD47
:100F5F0090E055E0FAA3E02FF582EA3EF583EDF03D
:100F6F0090E049E0FCA3E0FDA3E0FEA3E0FFE4FA7C
:100F7F00F9F8EF2401FFEA3EFEE93DFDE83CFC9065
:100F8F00E0491211AA808B90E055E0FFA3E090E0BA
:100F9F006ACFF0A3EFF074002480FF741634FFFEC5
:100FAF00C390E073E09FF090E072E09EF0C390E09A
:100FBF006DE09FF090E06CE09EF0C390E06FE09FDB
:100FCF00F090E06EE09EF0C390E069E09FF090E05B
:100FDF0068E09EF0C390E071E09FF090E070E09EBB
:100FEF00F0C390E075E09FF090E074E09EF0D2E8DF
:100FFF0043D82090E668E04409F090E65CE0443D79
:10100F00F0D2AF90E680E054F7F0E58E54F8440745
:10101F00F58E90E600E054E74410F0C2033001056E
:10102F00120B7AC2013003291214FE5024C203128C
:10103F00194120001690E682E030E704E020E1EF4E
:10104F0090E682E030E604E020E0E41218C0121AC5
:07105F007F12010080C7228F
:100B7A0090E6B9E07003020C71147003020D1A2496
:100B8A00FE7003020DAF24FB7003020C6B1470039A
:100B9A00020C65147003020C59147003020C5F24D2
:100BAA00056003020E1B121A814003020E2790E60B
:100BBA00BBE024FE603B14606224FD601F146046A3
:100BCA0024066003020C4F90E06AE0FCA3E0FDEC0F
:100BDA0090E6B3F0ED90E6B4F0020E2790E072E0F2
:100BEA00FCA3E0FDEC90E6B3F0ED90E6B4F0020E63
:100BFA002790E06CE0FCA3E0FDEC90E6B3F0ED900A
:100C0A00E6B4F0020E2790E06EE0FCA3E0FDEC9063
:100C1A00E6B3F0ED90E6B4F0020E2790E6BAE0FFF4
:100C2A00121891AA06A9077B01EA494B600DEE90BA
:100C3A00E6B3F0EF90E6B4F0020E2790E6A0E044A7
:100C4A0001F0020E2790E6A0E04401F0020E2712FE
:100C5A001A2B020E27121A71020E27121A67020E97
:100C6A0027121A17020E27121A834003020E279020
:100C7A00E6B8E0247F602B14603C24026003020D76
:100C8A0010A200E433FF25E0FFA202E4334F90E70D
:100C9A0040F0E4A3F090E68AF090E68B7402F0024A
:100CAA000E27E490E740F0A3F090E68AF090E68BF6
:100CBA007402F0020E2790E6BCE0547EFF7E00E04C
:100CCA00D3948040067C007D0180047C007D00EC8A
:100CDA004EFEED4F245DF582741A3EF583E493FFD0
:100CEA003395E0FEEF24A1FFEE34E68F82F583E030
:100CFA00540190E740F0E4A3F090E68AF090E68B86
:100D0A007402F0020E2790E6A0E04401F0020E27DA
:100D1A00121A854003020E2790E6B8E024FE601DF1
:100D2A0024026003020E2790E6BAE0B40105C2006D
:100D3A00020E2790E6A0E04401F0020E2790E6BAE0
:100D4A00E0705990E6BCE0547EFF7E00E0D39480C8
:100D5A0040067C007D0180047C007D00EC4EFEEDA7
:100D6A004F245DF582741A3EF583E493FF3395E0D0
:100D7A00FEEF24A1FFEE34E68F82F583E054FEF005
:100D8A0090E6BCE05480FF131313541FFFE0540F86
:100D9A002F90E683F0E04420F0020E2790E6A0E0D0
:100DAA004401F08078121A87507390E6B8E024FE66
:100DBA0060202402706790E6BAE0B40104D2008091
:100DCA005C90E6BAE06402605490E6A0E04401F068
:100DDA00804B90E6BCE0547EFF7E00E0D3948040D6
:100DEA00067C007D0180047C007D00EC4EFEED4F08
:100DFA00245DF582741A3EF583E493FF3395E0FE91
:100E0A00EF24A1FFEE34E68F82F583E04401F080FF
:100E1A000C1218EC500790E6A0E04401F090E6A00E
:050E2A00E04480F0220D
:03003300021A7B33
:041A7B0053D8EF321B
:030023000217E6DB
:1017E600C0E0C083C082C0D075D000C00730983B2F
:1017F60043B04053B0BFC29890E045E0FFC3942089
:10180600502390E048E064016015740E2FF582E4E1
:1018160034E0F583E599F090E045E004F080069029
:10182600E0407401F043B04053B0BFD007D0D0D0F1
:0618360082D083D0E032F5
:101A3F0041E0000041E0450041E0480141E0400045
:10198A0090E066EEF0A3EFF090E06674FFF5F012D7
:0C199A00106645F0600512195580ED2222
:1019D60090E064EEF0A3EFF012198A90E064E0FE66
:0719E600A3E0FF12198A22A1
:10178C0030072374062FF582E434E0F583E0FE90F5
:10179C00E065E0F4FDEE5DFE74062FF582E434E0C6
:1017AC00F583EEF0801C74062FF582E434E0F583AB
:1017BC00C083C082E0FE90E065E0FDEE4DD082D0AB
:1017CC0083F074062FF582E434E0F583E0FEE42F19
:0A17DC00F582E43480F583EEF0227C
:10191700AE0790E000E070055398F78003439808FE
:10192700E4FDEE30E003639808EEC313FE0DEDB45B
:0A19370008F0C2998F993099FD2243
:0D1A500090E064EFF0C299F5993099FD2205
:1015B80090E064EEF0A3EFF0E4FFFEFDFCD390E0D2
:1015C80065E09DEC6480F890E064E06480984011E8
:1015D8000FBF00010EEF1F70011E0DBD00010C8032
:0215E800DC2203
:1019660090E02FE06401600ED20790E0657420F0ED
:101976007F0212178C22C20790E0657420F07F0266
:0419860012178C2286
:10131E0043B04090E041E0B4010875B68053907F31
:10132E00800675B6C043908053B13F7F057E001294
:10133E0015B843B0087F027E001215B890E044E065
:10134E00FF90E042E0FCA3E0F5828C83EFF053B017
:10135E00F790E044E0FF90E042E0FCA3E0F5828CE1
:10136E0083EFF090E044E0FF90E042E0FCA3E0F574
:10137E00828C83EFF090E044E0FF90E042E0FCA32B
:10138E00E0F5828C83EFF090E044E0FF90E042E0E5
:10139E00FCA3E0F5828C83EFF090E044E0FF90E058
:1013AE0042E0FCA3E0F5828C83EFF090E044E0FF96
:1013BE0090E042E0FCA3E0F5828C83EFF090E044F5
:1013CE00E0FF90E042E0FCA3E0F5828C83EFF0902A
:1013DE00E044E0FF90E042E0FCA3E0F5828C83EF76
:1013EE00F090E044E0FF90E042E0FCA3E0F5828C58
:1013FE0083EFF090E044E0FF90E042E0FCA3E0F5E4
:10140E00828C83EFF07F057E001215B843B1C0D2F7
:10141E000790E0657460F0E4FF12178C75B6805388
:03142E00B0BF222A
:1014310043B04090E041E0B4010875B68053907F1D
:10144100800675B6C043908053B13F7F027E001283
:1014510015B843B0087F027E001215B890E041E054
:1014610064017070A3E0FEA3E0FFF5828E83E0903B
:10147100E00DF053B0F78F828E83E090E00DF09095
:10148100E042E0FEA3E0FFF5828E83E090E00DF004
:101491008F828E83E090E00DF0E090E67CF090E0AA
:1014A10042E0FEA3E0FFF5828E83E090E00DF08F35
:1014B100828E83E090E00DF090E042E0FEA3E0FF39
:1014C100F5828E83E090E00DF08F828E83E090E0D4
:1014D1000DF0801890E042E0FEA3E0F5828E83E0FB
:1014E10090E00DF053B0F7E090E67CF07F027E00D3
:0D14F1001215B875B68043B1C053B0BF22CC
:101A0300908000E030E20790E67C7401F022E490DD
:041A1300E67CF0225B
:1011E70090E601E04460F090E61074A0F090E611FC
:1011F700F000000090E61274A2F000000090E613E1
:1012070074A0F000000090E61474E2F00000009073
:10121700E61574E0F000000090E6917480F000009D
:1012270000F000000090E695F0000000F043AF01E9
:10123700D200E490E670F0F5B275B3807590109027
:10124700E671F0F5B4F5A075B55875B01053B0EF69
:101257007FC8FE1219D643B0107FC87E001219D678
:10126700E490E672F075B68075B1C075985290E655
:1012770008E04401F0C204E490E006F0A3F0A3F014
:10128700A3F0A3F0D20790E06574FFF0E4FF121714
:101297008CC20790E0657408F0E412178CC207E46B
:1012A70090E065F00F12178CC207E490E065F00F2D
:1012B70012178CC207E490E065F00F12178CC20773
:1012C70090E0657403F00F12178C7FC87E00121927
:1012D700D6D20790E0657403F07F0412178CC2071B
:1012E70090E0657420F0E4FF12178CD20790E06558
:1012F7007420F0E412178CC2ACC2BCE490E045F055
:10130700C206C20590E04104F075B68053907F2273
:0713170075B6C0439080226F
:10010000E5AA30E003020B79E5AA30E503020B799A
:100110007AF079007EF07F0074F0F59A7400F59B18
:100120007AF879007EF87F0074F8F59D7400F59EEA
:1001300090E690E0FF90E691E0240090E059F09086
:10014000E67BE090E02EF0E0FF90E67CF090E05A55
:1001500074FFF0EF6401703E7F3CFE1219D690E60A
:100160007BE090E00DF090E009E054CFF090E00DDE
:10017000E0FD30E00790E009E04420F0ED30E107D9
:1001800090E009E04410F090E009E0908003F07FF7
:10019000647E001219D6121A0390E02EE0640270F9
:1001A0004F90E67BE090E05BF090E67BE090E00A29
:1001B000F0E02400FEE4348090E042F0A3CEF09022
:1001C000E67BE090E044F0D20790E0657470F0E4E4
:1001D000FF12178CC20790E0657460F0E412178C70
:1001E00012131ED20790E0657460F0E4FF12178CC2
:1001F00090E02EE06403704790E67BE090E05BF0D7
:1002000090E67BE090E00AF0E02400FEE434809089
:10021000E042F0A3CEF0D20790E0657470F0E4FF06
:1002200012178CC20790E0657470F0E412178C12FC
:100230001431D20790E0657470F0E4FF12178C90CF
:10024000E02EE064047040D20790E0657470F0E442
:10025000FF12178CC20790E0657460F0E412178CEF
:10026000C20790E0657470F0E412178CD20790E03A
:10027000657470F0E412178C90E041E0B40105530E
:10028000907F800343908090E02EE064056003023D
:10029000040090E678E04480F090E67974D2F07F34
:1002A000017E001219D690E6797408F07F017E0075
:1002B0001219D690E679745AF07F017E001219D691
:1002C00090E6797404F07F017E001219D6E490E67E
:1002D00079F07F01FE1219D6E490E679F07F01FEF5
:1002E0001219D690E6797464F07F017E001219D657
:1002F00090E6797406F07F017E001219D690E679B7
:100300007408F07F017E001219D690E6797488F0A7
:100310007F017E001219D690E6797480F07F017E0D
:10032000001219D690E67974E9F07F017E00121967
:10033000D690E6797420F07F017E001219D6E49001
:10034000E679F07F01FE1219D6E490E679F07F019C
:10035000FE1219D6E490E679F07F01FE1219D690CC
:10036000E678E04440F07F017E001219D690E678EE
:10037000E04480F090E67974D2F07F017E0012199B
:10038000D690E6797440F07F017E001219D690E68F
:100390007974CCF07F017E001219D690E67974B69C
:1003A000F07F017E001219D690E6797417F07F0174
:1003B0007E001219D6E490E679F07F01FE1219D67C
:1003C000E490E679F07F01FE1219D690E679748008
:1003D000F07F017E001219D690E679746FF07F01EC
:1003E0007E001219D690E6797404F07F017E001227
:1003F00019D690E678E04440F07F017E001219D6CD
:1004000090E02EE06406703F90E67BE090E02FF0F5
:10041000D20790E0657470F0E4FF12178CC2079069
:10042000E0657460F0E412178CD20790E065747098
:10043000F0E412178C121966C20790E0657450F050
:10044000E4FF12178CC20690E02EE06407703F9024
:10045000E67BE090E02FF0D20790E0657470F0E466
:10046000FF12178CC20790E0657460F0E412178CDD
:10047000D20790E0657470F0E412178C121966C20E
:100480000790E0657440F0E4FF12178CC20690E01C
:100490002EE06408703F90E67BE090E02FF0D207FA
:1004A00090E0657470F0E4FF12178CC20790E0656D
:1004B0007460F0E412178CD20790E0657470F0E479
:1004C00012178C121966C20790E0657430F0E4FFD1
:1004D00012178CD20690E02EE0FFB409047E018052
:1004E000027E00EFB40A047F0180027F00EF4E70AD
:1004F00003020579908000E030E07790E67C740399
:10050000F090E67BE090E00DF0E0606D90E02EE092
:10051000640A7027200524D2057F3B121A507F44BD
:10052000121A507F4C121A507F44121A507F301208
:100530001A50121A50121A50121A5090E02EE064FB
:1005400009703690E00DE090E063F0E490E05EF03A
:1005500090E063E0FF90E05EE0C39F501C90E67B7C
:10056000E090E00DF0E0FF121A5090E05EE004F041
:1005700080DEE490E67CF0C20590E02EE0640B6043
:1005800003020623D20790E0657470F0E4FF1217AF
:100590008C90E05E7401F090E05EE0FFC394045044
:1005A0001990E67BE0FE742E2FF582E434E0F583AB
:1005B000EEF090E05EE004F080DD90E67BE090E01D
:1005C00041F090E02FE0FEE42400FFEE3480FEA333
:1005D000E07C002FFFEC3E90E042F0A3EFF0E490CF
:1005E000E05EF090E031E0FF90E05EE0C39F5033CA
:1005F000C20790E0657410F0E4FF12178C121431FA
:10060000D20790E0657410F0E4FF12178C90E0437D
:10061000E02402F090E042E03400F090E05EE0047C
:10062000F080C090E02EE0640C60030206B27F030D
:10063000FE1219D6D20790E0657470F0E4FF12172D
:100640008C90E05E7401F090E05EE0FFC394045093
:100650001990E67BE0FE742E2FF582E434E0F583FA
:10066000EEF090E05EE004F080DD90E67BE090E06C
:1006700044F090E02FE0FEE42400FFEE3480FEA37F
:10068000E07C002FFFEC3E90E042F0A3EFF0C207C9
:1006900090E0657410F0E4FF12178C12131E7F02B5
:1006A0007E001219D6D20790E0657410F0E4FF12B4
:1006B000178C90E02EE0B40D21D20790E06574FF16
:1006C000F0E4FF12178C7F057E001219D6C2079046
:1006D000E0657406F0E4FF12178C90E02EE0645998
:1006E0007035D20790E0657410F07F0312178C7F8D
:1006F000057E001219D6C20790E0657410F07F03E2
:1007000012178C7F057E001219D6D20790E065740F
:1007100010F07F0312178C90E02EE06460600302FB
:1007200009DF90E06304F090E063E0FFC3940850B9
:100730001990E67BE0FE742E2FF582E434E0F58319
:10074000EEF090E063E004F080DD90E035E090E0D2
:100750005AF090E02FE0D394005003020882C2AF19
:10076000E490E063F090E02FE0FF90E063E0C39F4F
:10077000400302087090E67BE090E00DF0E0FF128D
:1007800019173099FDC29990E02FE014FF90E063B3
:10079000E0C39F4003020867E490E047F090E03335
:1007A000E0FF90E047E0C39F5005E004F080EEE4F6
:1007B00090E047F090E033E0FF90E047E0C39F50C7
:1007C00005E004F080EEE490E047F090E033E0FFD5
:1007D00090E047E0C39F5005E004F080EEE490E035
:1007E00047F090E033E0FF90E047E0C39F5005E022
:1007F00004F080EEE490E047F090E033E0FF90E01A
:1008000047E0C39F5005E004F080EEE490E047F03D
:1008100090E033E0FF90E047E0C39F5005E004F034
:1008200080EEE490E047F090E033E0FF90E047E0B6
:10083000C39F5005E004F080EEE490E047F090E0C4
:1008400033E0FF90E047E0C39F5005E004F080EE06
:10085000E490E047F090E033E0FF90E047E0C39F92
:100860005005E004F080EE90E063E004F0020765DC
:10087000E490E045F03006067F01FE1219D6C298DA
:10088000D2AF90E034E0D3940050030209CA90E064
:1008900031E0FFE4FCFDFEFBFA7901F812107CC0A8
:1008A00004C005C006C00790E030E0FFE4FCFDFE98
:1008B000FBFAF9780112107CD003D002D001D000ED
:1008C000EF2BFFEE3AFEED39FDEC38FCA804A9054C
:1008D000AA06AB0790E032E0FEE4FCFD2BFFEA3E07
:1008E000FEED39FDEC38FC90E05F1211AA90E05F5C
:1008F000E0FCA3E0FDA3E0FEA3E0FFE47B08FAF93F
:10090000F812110790E05F1211AAE490E05CF0A3E6
:1009100004F090E048F0E4F0E47F01FEFDFC90E09C
:100920005FE0F8A3E0F9A3E0FAA3E0FBD31211998A
:10093000403490E034E0FF90E045E09F502890E0A4
:100940005FE0FCA3E0FDA3E0FEA3E0FF74FFEF2463
:10095000FFFFEE34FFFEED34FFFDEC34FFFC90E0D2
:100960005F1211AA80B243B040E4FF90E045E0FE80
:10097000EFC39E5018740E2FF582E434E0F583E047
:1009800090E67CF090E05DE004F00F80DE90E040C7
:10099000E0B40113E599F0E090E67CF090E05DE0D2
:1009A00004F0E490E040F053B0BFE490E045F07A0A
:1009B000F879007EF87F0074F8F59D7400F59E903C
:1009C000E05DE01490E67CF080157AF879007EF81E
:1009D0007F0074F8F59D7400F59EE490E67CF0903D
:1009E000E02EE0FD645A703190E67BE090E00DF07F
:1009F00090E009E054CFF090E00DE0FE30E5079084
:100A0000E009E04420F0EE30E40790E009E0441013
:100A1000F090E009E0908003F0ED6461702790E6CB
:100A20007BE090E00DF0E0FD30E50790E009E04468
:100A300020F0ED30E40790E009E04410F090E00988
:100A4000E0908003F090E02EE06462702790E67BF7
:100A5000E090E00DF0E0FD20E50790E009E054DFD4
:100A6000F0ED20E40790E009E054EFF090E009E0B9
:100A7000908003F090E02EE0FFB467047E018002D6
:100A80007E00EFB465047F0180027F00EF4E604E70
:100A9000E490E608F075C83490E67BE090E00DF055
:100AA000E0FFF5CD8FCB90E67BE090E00DF090E09D
:100AB0002EE0B4650E90E00DE0F40425E0F404F5BA
:100AC000CCF5CA90E02EE0B4670990E00DE0FFF5A8
:100AD000CC8FCA90E67BE090E00DF0E0F59890E0D6
:100AE0002EE0FF6466702E90E608F075C83690E63A
:100AF0007BE090E00DF0E0FEF5CD8ECB90E67BE064
:100B000090E00DF0E0FEF5CC8ECA90E67BE090E040
:100B10000DF0E0F598EFB4680D90E67BE090E00D05
:100B2000F0E090E000F090E02EE0B4900EC2AF90C4
:100B3000E67BE024FF92ACC2BCD2AF90E02EE0FD99
:100B4000B4B00790E600E054E7F0EDB4B10990E6E8
:100B500000E054E74410F090E05AE0601690E69010
:100B6000E090E698F000000090E691E090E699F0C1
:0A0B700000000090E6917480F0226E
:0214FE00D322F7
:021A7F00D32270
:021A8100D3226E
:0A1A670090E6BAE090E046F0D322CA
:101A170090E046E090E740F0E490E68AF090E68BAD
:041A270004F0D322D2
:0A1A710090E6BAE090E001F0D32205
:101A2B0090E001E090E740F0E490E68AF090E68BDE
:041A3B0004F0D322BE
:021A8300D3226C
:021A8500D3226A
:021A8700D32268
:1018EC0090E6B9E0242F601104701C90E604E0FF30
:1018FC004480FF000000F0801090E604E0FF547F6D
:0B190C00FF000000F08002D322C32285
:1019A600C0E0C083C082D2015391EF90E65D74011E
:0819B600F0D082D083D0E032B2
:1015EA00C0E0C083C0825391EF90E65D7404F0D0EE
:0615FA0082D083D0E03234
:1019ED00C0E0C083C0825391EF90E65D7402F0D0E9
:0619FD0082D083D0E0322D
:10183C00C0E0C083C082C0D075D000C006C0079085
:10184C00E070E0FEA3E0FF90E06CEEF0A3EFF0F5AB
:10185C00828E83A37402F090E068E0FEA3E0FF9018
:10186C00E06EEEF0A3EFF0F5828E83A37407F053D5
:10187C0091EF90E65D7410F0D007D006D0D0D082F6
:05188C00D083D0E03222
:1019BE00C0E0C083C082D2035391EF90E65D7408FD
:0819CE00F0D082D083D0E0329A
:10173000C0E0C083C082C0D075D000C006C0079092
:10174000E680E030E73090E068E0FEA3E0FF90E064
:101750006CEEF0A3EFF0F5828E83A37402F090E0BC
:1017600070E0FEA3E0FF90E06EEEF0A3EFF0F582F4
:101770008E83A37407F05391EF90E65D7420F0D050
:0C17800007D006D0D0D082D083D0E03259
:011A8900322A
:011A8A003229
:011A8B003228
:011A8C003227
:011A8D003226
:011A8E003225
:011A8F003224
:011A90003223
:011A91003222
:011A92003221
:011A93003220
:011A9400321F
:011A9500321E
:011A9600321D
:011A9700321C
:011A9800321B
:011A9900321A
:011A9A003219
:011A9B003218
:011A9C003217
:011A9D003216
:011A9E003215
:011A9F003214
:011AA0003213
:011AA1003212
:011AA2003211
:011AA3003210
:011AA400320F
:011AA500320E
:011AA600320D
:011AA700320C
:011AA800320B
:011AA900320A
:011AAA003209
:011AAB003208
:011AAC003207
:101600001201000200000040B40432320000010266
:1016100000010A06000200000040010009022E003D
:1016200001010080320904000004FF0000000705EA
:1016300002020002000705040200020007058602FC
:101640000002000705880200020009022E000101C5
:101650000080320904000004FF00000007050202B8
:101660004000000705040240000007058602400014
:10167000000705880240000004030904100343002A
:101680007900700072006500730073001603450056
:101690005A002D005500530042002000460058001B
:0416A0003200000014
:1018C00090E682E030E004E020E60B90E682E03033
:1018D000E119E030E71590E680E04401F07F147EE6
:0C18E000001219D690E680E054FEF022C1
:1019410090E682E044C0F090E681F0438701000018
:041951000000002270
:101955007400F58690FDA57C05A3E582458370F9A5
:01196500225F
:02189100A907A5
:1018930090E074E0FEA3E0FF8F828E83A3E06403F5
:1018A3007017AD0119ED7001228F828E83E07C00E9
:0C18B3002FFDEC3EFEAF0580DFE4FEFFE1
:0118BF002206
:03004300021500A3
:0300530002150093
:101500000219A6000219ED000215EA000219BE0038
:1015100002183C0002173000021A8900021A8A00E1
:10152000021A8B00021A8C00021A8D00021A8E0019
:10153000021A8F00021A9000021A9100021A9200F9
:10154000021A9300021A8A00021A9400021A9500E5
:10155000021A9600021A9700021A9800021A9900BD
:10156000021A9A00021A8A00021A8A00021A8A00D3
:10157000021A9B00021A9C00021A9D00021A9E0089
:10158000021A9F00021AA000021AA100021AA20069
:10159000021AA300021AA400021AA500021AA60049
:1015A000021AA700021AA800021AA900021AAA0029
:0815B000021AAB00021AAC00A4
:030000000216A441
:0C16A400787FE4F6D8FD7581200216EB7B
:10106600A3F8E0C5F025F0F0E5821582700215833D
:06107600E0C838F0E8229A
:10107C00E88FF0A4CC8BF0A42CFCE98EF0A42CFC13
:10108C008AF0EDA42CFCEA8EF0A4CDA8F08BF0A491
:10109C002DCC3825F0FDE98FF0A42CCD35F0FCEBF0
:1010AC008EF0A4FEA9F0EB8FF0A4CFC5F02ECD39B5
:0F10BC00FEE43CFCEAA42DCE35F0FDE43CFC2222
:1010CB0075F008758200EF2FFFEE33FECD33CDCCDC
:1010DB0033CCC58233C5829BED9AEC99E58298405F
:1010EB000CF582EE9BFEED9AFDEC99FC0FD5F0D63C
:1010FB00E4CEFBE4CDFAE4CCF9A88222B800C1B966
:10110B000059BA002DEC8BF084CFCECDFCE5F0CBA3
:10111B00F97818EF2FFFEE33FEED33FDEC33FCEBDC
:10112B0033FB10D703994004EB99FB0FD8E5E4F997
:10113B00FA227818EF2FFFEE33FEED33FDEC33FC84
:10114B00C933C910D7059BE99A4007EC9BFCE99A78
:10115B00F90FD8E0E4C9FAE4CCFB2275F010EF2FBD
:10116B00FFEE33FEED33FDCC33CCC833C810D707BD
:10117B009BEC9AE899400AED9BFDEC9AFCE899F8F8
:0E118B000FD5F0DAE4CDFBE4CCFAE4C8F9228B
:10119900EB9FF5F0EA9E42F0E99D42F0E89C45F0AC
:0111A9002223
:0C11AA00ECF0A3EDF0A3EEF0A3EFF022B8
:1011B600A8828583F0D083D0821211CD1211CD1270
:1011C60011CD1211CDE473E493A3C583C5F0C58395
:1011D600C8C582C8F0A3C583C5F0C583C8C582C883
:0111E60022E6
:1016B000020E2FE493A3F8E493A34003F68001F213
:1016C00008DFF48029E493A3F85407240CC8C3333B
:1016D000C4540F4420C8834004F456800146F6DF0A
:1016E000E4800B0102040810204080901A3FE47E41
:1016F000019360BCA3FF543F30E509541FFEE493FF
:10170000A360010ECF54C025E060A840B8E493A3C5
:10171000FAE493A3F8E493A3C8C582C8CAC583CAF0
:10172000F0A3C8C582C8CAC583CADFE9DEE780BEA8
:011A4F000096
:00000001FF
