:0A188600000102020303040405053B
:100E030090E05A12123A00000000C203C200C2026C
:100E1300C20112126B7E137F0090E076EEF0A3EF17
:100E2300F090E07E7413F0A37412F090E0747413E6
:100E3300F0A3741CF090E07C7413F0A3744AF09058
:100E4300E0807413F0A37478F0EE54E07003020FA3
:100E5300D190E05EE4F0A37480F0A3EEF0A3EFF092
:100E6300C374A29FFF74139ECF2402CF3400FEE409
:100E7300FCFD90E05612122E90E05212123A00003E
:100E8300000090E056E0FCA3E0FDA3E0FEA3E0FF3A
:100E930090E052E0F8A3E0F9A3E0FAA3E0FBC31269
:100EA300121D504490E052E0A3E0A3E0FEA3E0FF54
:100EB30090E05EE0FCA3E02FF582EC3EF58374CD79
:100EC300F090E052E0FCA3E0FDA3E0FEA3E0FFE42A
:100ED300FAF9F8EF2401FFEA3EFEE93DFDE83CFCA8
:100EE30090E05212122E809A90E05212123A0000B1
:100EF300000090E056E0FCA3E0FDA3E0FEA3E0FFCA
:100F030090E052E0F8A3E0F9A3E0FAA3E0FBC312F8
:100F1300121D505390E052E0A3E0A3E0FEA3E0FFD4
:100F230090E060E0FCA3E02FF582EC3EF583E0FD6A
:100F330090E05EE0FAA3E02FF582EA3EF583EDF060
:100F430090E052E0FCA3E0FDA3E0FEA3E0FFE4FA9F
:100F5300F9F8EF2401FFEA3EFEE93DFDE83CFC9091
:100F6300E05212122E808B90E05EE0FFA3E090E04F
:100F730076CFF0A3EFF074002480FF741334FFFEE8
:100F8300C390E07FE09FF090E07EE09EF0C390E0AE
:100F930079E09FF090E078E09EF0C390E07BE09FE3
:100FA300F090E07AE09EF0C390E075E09FF090E06F
:100FB30074E09EF0C390E07DE09FF090E07CE09EC3
:100FC300F0C390E081E09FF090E080E09EF0D2E8F3
:100FD30043D82090E668E04409F090E65CE0443DA5
:100FE300F0D2AFD20412164F90E680E054F7F053DC
:100FF3008EF890E600E054E74410F0C20330010598
:10100300120B4EC2013003291218B05024C203122E
:10101300170420001690E682E030E704E020E1EFB9
:1010230090E682E030E604E020E0E41216AD121808
:07103300B212010080C72288
:100B4E0090E6B9E07003020C45147003020CEE241B
:100B5E00FE7003020D8324FB7003020C3F1470031E
:100B6E00020C39147003020C2D147003020C332482
:100B7E00056003020DEF1218B44003020DFB90E660
:100B8E00BBE024FE603B14606224FD601F146046CF
:100B9E0024066003020C2390E076E0FCA3E0FDEC5B
:100BAE0090E6B3F0ED90E6B4F0020DFB90E07EE03F
:100BBE00FCA3E0FDEC90E6B3F0ED90E6B4F0020D90
:100BCE00FB90E078E0FCA3E0FDEC90E6B3F0ED9056
:100BDE00E6B4F0020DFB90E07AE0FCA3E0FDEC90B1
:100BEE00E6B3F0ED90E6B4F0020DFB90E6BAE0FF4E
:100BFE0012167EAA06A9077B01EA494B600DEE90FC
:100C0E00E6B3F0EF90E6B4F0020DFB90E6A0E04400
:100C1E0001F0020DFB90E6A0E04401F0020DFB1284
:100C2E001833020DFB12189A020DFB121890020DCA
:100C3E00FB12181F020DFB1218B64003020DFB909B
:100C4E00E6B8E0247F602B14603C24026003020CA3
:100C5E00E4A200E433FF25E0FFA202E4334F90E765
:100C6E0040F0E4A3F090E68AF090E68B7402F00276
:100C7E000DFBE490E740F0A3F090E68AF090E68B4F
:100C8E007402F0020DFB90E6BCE0547EFF7E00E0A5
:100C9E00D3948040067C007D0180047C007D00ECB6
:100CAE004EFEED4F2486F58274183EF583E493FFD5
:100CBE003395E0FEEF24A1FFEE34E68F82F583E05C
:100CCE00540190E740F0E4A3F090E68AF090E68BB2
:100CDE007402F0020DFB90E6A0E04401F0020DFB61
:100CEE001218B84003020DFB90E6B8E024FE601D1A
:100CFE0024026003020DFB90E6BAE0B40105C200C7
:100D0E00020DFB90E6A0E04401F0020DFB90E6BA66
:100D1E00E0705990E6BCE0547EFF7E00E0D39480F4
:100D2E0040067C007D0180047C007D00EC4EFEEDD3
:100D3E004F2486F58274183EF583E493FF3395E0D5
:100D4E00FEEF24A1FFEE34E68F82F583E054FEF031
:100D5E0090E6BCE05480FF131313541FFFE0540FB2
:100D6E002F90E683F0E04420F0020DFB90E6A0E029
:100D7E004401F080781218BA507390E6B8E024FE61
:100D8E0060202402706790E6BAE0B40104D20080BD
:100D9E005C90E6BAE06402605490E6A0E04401F094
:100DAE00804B90E6BCE0547EFF7E00E0D394804002
:100DBE00067C007D0180047C007D00EC4EFEED4F34
:100DCE002486F58274183EF583E493FF3395E0FE96
:100DDE00EF24A1FFEE34E68F82F583E04401F0802C
:100DEE000C1216D9500790E6A0E04401F090E6A050
:050DFE00E04480F0223A
:030033000218AC04
:0418AC0053D8EF32EC
:10174D0090E072EEF0A3EFF090E07274FFF5F012FE
:0C175D0011B845F0600512171880ED224D
:1017B10090E070EEF0A3EFF012174D90E070E0FEB4
:0717C100A3E0FF12174D2207
:0818A400C2C18FC130C1FD2259
:10185A00AE071FEE600890E03AE004F080F253B65B
:02186A00FB225F
:1017C800EF1FAC0670011E4C600890E03AE004F090
:0617D80080EE53B6FB2277
:1014AF0090E038E4F0A304F090E03BE4F0A374196B
:1014BF00F0A3E4F0A37418F090E040E4F0A37404F8
:1014CF00F090E043E4F0A37402F0A3E4F0A3741BE4
:1014DF00F0E4A3F0A3F090E04AF0A3749FF0A3E42C
:0D14EF00F0A3741CF0A3E4F0A37484F022B9
:0E186C0030060453B6FB2253B1FB43B60422F0
:1014FC0090E047E0A3E0FF12185AC20612186C9055
:10150C00E04AE0FEA3E0FF1217C8D20612186C9056
:10151C00E04CE0A3E0FF12185AE5B15404FF13139A
:10152C00543F24FF920543B04053B0BF90E04EE0CF
:0A153C00FEA3E0FF1217C8A205226B
:1015900030051FC20612186C90E038E0A3E0FF127D
:1015A000185AD20612186C90E03BE0A3E0FF121824
:1015B0005A22C20612186C90E03DE0A3E0FF121818
:1015C0005AD20612186C90E040E0A3E0FF12185ABD
:0115D00022F8
:10161200C20612186C90E038E0A3E0FF12185A5389
:10162200B6FB90E043E0A3E0FF12185AE5B1540480
:10163200FF1313543F24FF920543B04053B0BF90B1
:0D164200E045E0FEA3E0FF1217C8A205225C
:10180A00AD07E4FBED139205121590EDC313FD0B22
:05181A00EBB408F02210
:10176900E4FDFBEDC313FD1216125004ED4480FD98
:081779000BEBB408EEAF0522F2
:10184700D2051214AF1214FC5002C322C20512149F
:03185700AFD322EA
:10103A00AA07A20492051214AF1214FC5002C3228A
:10104A007FCC12180A7FA512180AAF02EFC43354D4
:10105A00E0FF12180AE4FF12180AE490E06FF01297
:10106A00176990E06FE02427F582E434E0F583EF16
:10107A00F07F017E001217B190E06FE004F0E0C348
:10108A00942040DB7F057E001217B17FFF12180AF9
:10109A007F017E001217B112176990E009E4F0A3EC
:1010AA00EFF0121769EFFE90E009E04EF0A3E0F0CE
:1010BA007F017E001217B1E490E06FF01217699079
:1010CA00E06FE02411F582E434E0F583EFF090E07C
:1010DA006FE004F0E0C3941440E212176990E0252F
:1010EA00E4F0A3EFF0121769EFFE90E025E04EF06E
:0510FA00A3E0F0D32289
:10154600AA07C2051214AF1214FC5002C3227FCCA4
:1015560012180A7F0F12180AAF0212180AE4FF12B5
:10156600180AE4FC74272CF582E434E0F583E0FFE6
:1015760012180A0CECB408EC12176990E027EFF089
:0A15860012176990E028EFF0D3225D
:101729001214FC5002C3227F3312180AE4FA12176A
:101739006974272AF582E434E0F583EFF00AEAB404
:0417490008ECD322B3
:1014000030042374042FF582E434E0F583E0FE9089
:10141000E070E0F4FDEE5DFE74042FF582E434E04C
:10142000F583EEF0801C74042FF582E434E0F5833C
:10143000C083C082E0FE90E070E0FDEE4DD082D02F
:1014400083F074042FF582E434E0F583E0FEE42FAA
:0A145000F582E43440F583EEF0224B
:1015D100E4FF90E029E0FEEFC39E503490E67BE00B
:1015E10090E00FF0E090E67CF0E4FE90E00FE0FD8B
:1015F10030E70543900280035390FD439001ED25B0
:10160100E090E00FF05390FE0EEEB408DE0F80C2C2
:0116110022B6
:1012E200E5B15420FFC4135407FFA207E4336F6033
:0E12F2000790E67C7401F022E490E67CF02286
:10126B0090E601E04460F090E61074A0F090E61177
:10127B00F000000090E61274A2F000000090E6135C
:10128B0074A0F000000090E61474E2F000000090EF
:10129B00E61574E0F000000090E6917480F0000019
:1012AB0000F000000090E695F0000000F043AF0165
:1012BB00D200E490E670F0F5B275B363F59090E66A
:1012CB0071F0F5B4F5A075B54075B01090E672F0FD
:0712DB0075B6C075B1C02219
:10010000E5AA30E003020B4DE5AA30E503020B4DF2
:100110007AF079007EF07F0074F0F59A7400F59B18
:100120007AF879007EF87F0074F8F59D7400F59EEA
:1001300090E690E0FF90E691E0240090E064F0907B
:10014000E67BE090E049F0E06401600302023D904C
:10015000E678E04440F0E490E679F090E678E0203C
:10016000E6F97F017E001217B190E678E04480F056
:1001700090E67974A6F090E678E030E0F990E67BBE
:10018000E090E00FF090E678E030E0F990E67BE078
:1001900090E679F090E678E030E0F990E678E04497
:1001A00080F090E67974A7F090E678E030E0F9907E
:1001B000E679E090E00FF090E678E030E0F990E644
:1001C00079E090E67CF090E678E030E0F990E6792E
:1001D000E090E67CF090E678E030E0F990E679E0B7
:1001E00090E67CF090E678E030E0F990E679E090F7
:1001F000E67CF090E678E030E0F990E679E090E691
:100200007CF090E678E030E0F990E679E090E67CEA
:10021000F090E678E030E0F990E678E04420F09065
:10022000E679E090E67CF090E678E030E0F990E660
:1002300079E090E67CF090E678E04440F090E04988
:10024000E06402707190E678E04480F090E67974A2
:10025000A6F07F017E001217B190E67BE090E0648B
:10026000F07F017E001217B190E67BE090E679F016
:1002700090E67BE090E064F0E490E067F090E0646A
:10028000E0FF90E067E0C39F50177F017E001217E8
:10029000B190E67BE090E679F090E067E004F080D2
:1002A000DC7F017E001217B190E678E04440F07FD9
:1002B000077E001217B190E049E0B4300D43B5203D
:1002C00053B0DF7F017E001217B190E049E0FFB428
:1002D000310643B02053B5DFEF645760030203B229
:1002E00090E066F090E066E0FFC39408501990E655
:1002F0007BE0FE74272FF582E434E0F583EEF09086
:10030000E066E004F080DD90E678E04480F090E67E
:100310007974D2F07F017E001217B190E6797408EB
:10032000F07F017E001217B1E490E066F090E67B6A
:10033000E090E679F07F017E001217B190E066E070
:1003400004F0E0C3940E40E590E678E04440F07F8E
:10035000017E001217B190E678E04480F090E679D3
:1003600074D2F07F017E001217B190E6797440F0EC
:100370007F017E001217B1E490E066F090E066E045
:10038000FFC39408501E74272FF582E434E0F583F0
:10039000E090E679F07F017E001217B190E066E010
:1003A00004F080D890E678E04440F07F017E0012AF
:1003B00017B190E049E06459600302052D90E67C96
:1003C000F090E67BE090E064F090E67BE090E0293E
:1003D000F0E490E066F090E064E0FF90E066E0C357
:1003E0009F40030204B93099FDC29990E67BE090EA
:1003F000E00FF0E0FF90E062E4F0A3EFF0E490E0C3
:1004000067F090E065F090E062E0FCA3E0FDFF9013
:10041000E067E06FF0ECC313FFED1390E062CFF004
:10042000A3EFF090E065E004F0E0B408D990E06755
:10043000E05401F0700543980880035398F790E06A
:100440000FE0F599E490E065F0E490E062F0A3F04D
:1004500090E067E004F090E063E004F0700690E064
:1004600062E004F090E062E07004A3E0649670E063
:1004700090E065E004F0E0B40ACFE490E065F0E4D9
:1004800090E062F0A3F090E067E004F090E063E0B9
:1004900004F0700690E062E004F090E062E0700426
:1004A000A3E0643270E090E065E004F0E0B405CFD2
:1004B00090E066E004F00203D6C29890E065740113
:1004C000F0E4A3F0E490E067F020983C90E029E0AD
:1004D000FF90E067E0C39F502FE490E062F0A3F04C
:1004E00020981DC390E063E094FA90E062E09400ED
:1004F000500EA3E004F0700690E062E004F080E0AB
:1005000090E067E004F080C1309810C29890E67CDB
:10051000E599F090E065E004F0800690E066743FB5
:10052000F090E066E004F0E0C3943F409790E0492B
:10053000E06435705BD20490E07074FFF0E4FF1269
:100540001400C20490E0707401F0E4121400C204BC
:1005500090E0707420F00F121400C204E490E07078
:10056000F00F121400C204E490E070F00F121400B7
:100570007F647E001217B11212E27F647E001217B0
:10058000B190E037E090E67CF07F647E001217B116
:1005900090E049E0FFB4102190E67CF043B6047F80
:1005A000647E001217B153B6FB7F647E001217B150
:1005B000121847E43390E67CF090E049E064116063
:1005C000030206B990E06EF0E490E064F090E0641D
:1005D000E0FFC39408501474272FF582E434E0F54B
:1005E00083E4F090E064E004F080E290E06EE004E8
:1005F00075F008A4FF12154690E06EE004F0E0C329
:10060000940F40C47F027E001217B190E049E09041
:10061000E67CF0E490E064F090E064E0FFC39408CE
:10062000501990E67BE0FE74272FF582E434E0F564
:1006300083EEF090E064E004F080DDE4FF12154604
:100640007F027E001217B1C204E4FF12103AE49058
:10065000E67CF090E009E0FEA3E090E67CF0EEF0AE
:1006600090E025E0FEA3E090E67CF0EEF0E490E080
:1006700064F090E064E0FFC39420501774272FF5D6
:1006800082E434E0F583E090E67CF090E064E004FE
:10069000F080DFE490E064F090E064E0FFC3941445
:1006A000501774112FF582E434E0F583E090E67C76
:1006B000F090E064E004F080DF90E049E0FFB412E5
:1006C0002D90E67CF0121729E490E064F090E0644D
:1006D000E0FFC39408501774272FF582E434E0F547
:1006E00083E090E67CF090E064E004F080DF90E04E
:1006F00049E064B0600302085890E67BE090E0288F
:10070000F090E67BE090E029F090E028E07045531F
:1007100090BF90E037F05390DF7F05FE1217B14392
:100720009020E490E066F07F017E0012174DE59086
:1007300030E4047F0180027F00BF010C90E066740A
:10074000FAF090E0377401F090E066E004F0E0C366
:1007500094C840D390E67C7401F0F0F090E028E07B
:10076000600690E0377401F01215D190E028E06443
:1007700002600302084090E037F090E066F07F01ED
:100780007E001217B1E59030E3047F0180027F0004
:10079000EF6401600302083190E06674FAF090E0C3
:1007A000377401F07F147E001217B153B0EF7FC889
:1007B0007E001217B143B0107FC87E001217B1E55A
:1007C0008E54F84407F58EC207E490E004F0A3F0DD
:1007D000A3F0A3F0A3F0D20490E07074FFF0E4FF64
:1007E000121400C20490E0707403F0E4121400C20A
:1007F0000490E0707420F00F121400C204E490E042
:1008000070F00F121400C204E490E070F00F1214A4
:1008100000C20490E0707403F00F1214007F647E35
:10082000001217B1D20490E0707403F07F04121428
:100830000090E066E004F0E0C394C8500302077E35
:100840007AF879007EF87F0074F8F59D7400F59EC3
:1008500090E037E090E67CF090E049E0FFB460047F
:100860007E0180027E00EFB450047F0180027F0091
:10087000EF4E604690E0667401F090E066E0FFC3E2
:100880009410501990E67BE0FE74272FF582E43433
:10089000E0F583EEF090E066E004F080DD90E02883
:1008A000E0FEA3E07C002400FFEC3E90E06CF0A3AF
:1008B000EFF090E049E090E67CF090E049E0646081
:1008C0006003020AA190E066F090E028E0FF90E06B
:1008D00066E0C39F5046E490E062F0A3F090E02C05
:1008E000E075F002A4FFC390E063E09F90E062E057
:1008F00095F0500EA3E004F0700690E062E004F082
:1009000080DB90E066E0242EF582E434E0F583E0BD
:10091000FF1218A490E066E004F080AD90E02DE0B6
:10092000D394005003020A6A90E02AE0FFE4FCFD41
:10093000FEFBFA7901F81211CEC004C005C006C052
:100940000790E029E0FFE4FCFDFEFBFAF9780112D4
:1009500011CED003D002D001D000EF2BFFEE3AFE33
:10096000ED39FDEC38FCA804A905AA06AB0790E018
:100970002BE0FEE4FCFD2BFFEA3EFEED39FDEC38FA
:10098000FCE47B02FAF9F81211CE90E06812122E04
:10099000E490E065F0C2C090E06704F090E02DE0E4
:1009A00090E00BF0E47F01FEFDFC90E068E0F8A32E
:1009B000E0F9A3E0FAA3E0FBD312121D5003020AF0
:1009C0005F90E00BE0FF90E067E0D39F4003020AF6
:1009D0005F20C042E47F01FEFDFC90E068E0F8A3E8
:1009E000E0F9A3E0FAA3E0FBD312121D402890E047
:1009F00068E0FCA3E0FDA3E0FEA3E0FF74FFEF24AA
:100A0000FFFFEE34FFFEED34FFFDEC34FFFC90E021
:100A10006812122E80BBE47F01FEFDFC90E068E0CE
:100A2000F8A3E0F9A3E0FAA3E0FBD312121D5003F0
:100A30000209A4C2C090E067E02427F582E434E014
:100A4000F583E5C1F090E067E004F0E0D394015055
:100A5000030209A4A312123A00009C400209A490C8
:100A6000E067E01490E066F08005E490E066F090C6
:100A7000E066E090E027F0E490E066F090E066E069
:100A8000FFC39410501B74272FF582E434E0F583E4
:100A9000E090E00FF090E67CF090E066E004F080FB
:100AA000DB90E049E0B45A1AD20490E07074FFF091
:100AB0007F03121400C20490E028E090E070F0126E
:100AC000140090E049E0B4610FC20490E028E09087
:100AD000E070F07F0312140090E049E0B4620FD29E
:100AE0000490E028E090E070F07F0312140090E0A2
:100AF00049E0B4631AD20490E07074FFF07F0212F0
:100B00001400C20490E028E090E070F0121400900D
:100B1000E049E0FFB4650D90E67BE0F5CDF5CBE074
:100B2000F5CCF5CAEFB4660990E67C746FF0746B8F
:100B3000F090E690E090E698F000000090E691E0FA
:0E0B400090E699F000000090E6917480F0229B
:0218B000D32241
:0218B200D3223F
:0218B400D3223D
:0A18900090E6BAE090E03FF0D322AA
:10181F0090E03FE090E740F0E490E68AF090E68BAE
:04182F0004F0D322CC
:0A189A0090E6BAE090E000F0D322DF
:1018330090E000E090E740F0E490E68AF090E68BD9
:0418430004F0D322B8
:0218B600D3223B
:0218B800D32239
:0218BA00D32237
:1016D90090E6B9E0242F601104701C90E604E0FF45
:1016E9004480FF000000F0801090E604E0FF547F82
:0B16F900FF000000F08002D322C3229B
:10178100C0E0C083C082D2015391EF90E65D740145
:08179100F0D082D083D0E032D9
:1017DE00C0E0C083C0825391EF90E65D7404F0D0F8
:0617EE0082D083D0E0323E
:1017F400C0E0C083C0825391EF90E65D7402F0D0E4
:0618040082D083D0E03227
:10145A00C0E0C083C082C0D075D000C006C007906B
:10146A00E07CE0FEA3E0FF90E078EEF0A3EFF0F579
:10147A00828E83A37402F090E074E0FEA3E0FF90F2
:10148A00E07AEEF0A3EFF0F5828E83A37407F053AF
:10149A0091EF90E65D7410F0D007D006D0D0D082DC
:0514AA00D083D0E03208
:10179900C0E0C083C082D2035391EF90E65D740824
:0817A900F0D082D083D0E032C1
:1013A400C0E0C083C082C0D075D000C006C0079022
:1013B400E680E030E73090E074E0FEA3E0FF90E0E8
:1013C40078EEF0A3EFF0F5828E83A37402F090E040
:1013D4007CE0FEA3E0FF90E07AEEF0A3EFF0F5826C
:1013E4008E83A37407F05391EF90E65D7420F0D0E0
:0C13F40007D006D0D0D082D083D0E032E9
:0110FF0032BE
:0118BC0032F9
:0118BD0032F8
:0118BE0032F7
:0118BF0032F6
:0118C00032F5
:0118C10032F4
:0118C20032F3
:0118C30032F2
:0118C40032F1
:0118C50032F0
:0118C60032EF
:0118C70032EE
:0118C80032ED
:0118C90032EC
:0118CA0032EB
:0118CB0032EA
:0118CC0032E9
:0118CD0032E8
:0118CE0032E7
:0118CF0032E6
:0118D00032E5
:0118D10032E4
:0118D20032E3
:0118D30032E2
:0118D40032E1
:0118D50032E0
:0118D60032DF
:0118D70032DE
:0118D80032DD
:0118D90032DC
:0118DA0032DB
:0118DB0032DA
:0118DC0032D9
:0118DD0032D8
:0118DE0032D7
:101300001201000200000040B40432320000010269
:1013100000010A06000200000040010009022E0040
:1013200001010080320904000004FF0000000705ED
:101330000202400000070504024000000705860283
:101340004000000705880240000009022E0001014C
:101350000080320904000004FF00000007050202BB
:101360004000000705040240000007058602400017
:10137000000705880240000004030904100343002D
:101380007900700072006500730073001603450059
:101390005A002D005500530042002000460058001E
:0413A0003200000017
:03004300021100A7
:0300530002110097
:10110000021781000217F4000217DE00021799008F
:1011100002145A000213A4000210FF000218BC00BF
:101120000218BD000218BE000218BF000218C0005D
:101130000218C1000218C2000218C3000218C4003D
:101140000218C5000218BC000218C6000218C70029
:101150000218C8000218C9000218CA000218CB0001
:101160000218CC000218BC000218BC000218BC0017
:101170000218CD000218CE000218CF000218D000CD
:101180000218D1000218D2000218D3000218D400AD
:101190000218D5000218D6000218D7000218D8008D
:1011A0000218D9000218DA000218DB000218DC006D
:0811B0000218DD000218DE0048
:1016AD0090E682E030E004E020E60B90E682E03048
:1016BD00E119E030E71590E680E04401F07F147EFB
:0C16CD00001217B190E680E054FEF022FD
:1017040090E682E044C0F090E681F0438701000057
:0417140000000022AF
:10164F0030040990E680E0440AF0800790E680E0DD
:10165F004408F07FDC7E051217B190E65D74FFF051
:0F166F0090E65FF05391EF90E680E054F7F022A1
:101718007400F58690FDA57C05A3E582458370F9E4
:01172800229E
:02167E00A907BA
:1016800090E080E0FEA3E0FF8F828E83A3E06403FE
:101690007017AD0119ED7001228F828E83E07C00FE
:0C16A0002FFDEC3EFEAF0580DFE4FEFFF6
:0116AC00221B
:0300000002187A69
:0C187A00787FE4F6D8FD758120020E0393
:1011B800A3F8E0C5F025F0F0E582158270021583EA
:0611C800E0C838F0E82247
:1011CE00E88FF0A4CC8BF0A42CFCE98EF0A42CFCC0
:1011DE008AF0EDA42CFCEA8EF0A4CDA8F08BF0A43E
:1011EE002DCC3825F0FDE98FF0A42CCD35F0FCEB9D
:1011FE008EF0A4FEA9F0EB8FF0A4CFC5F02ECD3962
:0F120E00FEE43CFCEAA42DCE35F0FDE43CFC22CE
:10121D00EB9FF5F0EA9E42F0E99D42F0E89C45F027
:01122D00229E
:0C122E00ECF0A3EDF0A3EEF0A3EFF02233
:10123A00A8828583F0D083D08212125112125112E1
:10124A001251121251E473E493A3C583C5F0C58306
:10125A00C8C582C8F0A3C583C5F0C583C8C582C8FE
:01126A002261
:00000001FF
