:1010DE00120100010000004047053121010001020C
:1010EE00000109022000010100A000090400000215
:1010FE00FF000000070582024000000705020240C3
:10110E000000040309041A0341006E006300680026
:10111E006F007200200043006800690070007300C9
:10112E001C0345005A002D005500530042002000BC
:0E113E00440065007600690063006500000053
:03004300021200A6
:101200000212E60002132C00021316000212FE0066
:10121000021342000213C1000213C2000213C300F2
:101220000213C4000213C5000213C6000213C70054
:101230000213C8000213C9000213CA000213CB0034
:101240000213CC000213CD000213CE000213CF0014
:081250000213D0000213D100CB
:100FF700A907E49000F2F09000D2E0FEA3E0FBAA7C
:10100700068B828A83A3E0640270589000F2E0FFA7
:1010170004F0EFB50105AF03AE02228B828A83A3EA
:10102700A3E0FFA3E09000F3CFF0A3EFF09000F36D
:10103700E0FFA3E0FEEF6E9000F3F0A3E0FF900067
:10104700F3E0FEEF6EA3F09000F3E0FFA3E0FEEF06
:101057006E9000F3F0A3E02BFF9000F3E03AFAABB9
:0710670007809EE4FEFF225A
:1011B000A9079000D5E0FEA3E0FF8F828E83A3E015
:1011C00064037017AD0119ED7001228F828E83E0E8
:0F11D0007C002FFDEC3EFEAF0580DFE4FEFF222A
:1012CC00907FD6E030E712E04401F07F147E0012EC
:0A12DC0012B0907FD6E054FEF0221D
:1012B0009000EAEEF0A3EFF09000EA74FFF5F01270
:0C12C0000F9345F060051211EF80ED2245
:100939009000DF120FC600000000C203C200C2020D
:10094900C20112106E7E107FDE9000D0EEF0A3EF90
:10095900F0A37410F0A374F0F09000D57411F0A313
:100969007410F0EE54E07003020ABD9000E3E4F065
:10097900A37480F0A3EEF0A3EFF0C3744A9FFF7451
:10098900119ECF2402CF3400FEE4FCFD9000DB125F
:100999000FBA9000D7120FC6000000009000DBE0EC
:1009A900FCA3E0FDA3E0FEA3E0FF9000D7E0F8A3DD
:1009B900E0F9A3E0FAA3E0FBC3120FA950449000A9
:1009C900D7E0A3E0A3E0FEA3E0FF9000E3E0FCA3EF
:1009D900E02FF582EC3EF58374CDF09000D7E0FC72
:1009E900A3E0FDA3E0FEA3E0FFE4FAF9F8EF240198
:1009F900FFEA3EFEE93DFDE83CFC9000D7120FBA44
:100A0900809A9000D7120FC6000000009000DBE02A
:100A1900FCA3E0FDA3E0FEA3E0FF9000D7E0F8A36C
:100A2900E0F9A3E0FAA3E0FBC3120FA95053900029
:100A3900D7E0A3E0A3E0FEA3E0FF9000E5E0FCA37C
:100A4900E02FF582EC3EF583E0FD9000E3E0FAA3A8
:100A5900E02FF582EA3EF583EDF09000D7E0FCA3A4
:100A6900E0FDA3E0FEA3E0FFE4FAF9F8EF2401FFBB
:100A7900EA3EFEE93DFDE83CFC9000D7120FBA8042
:100A89008B9000E3E0FFA3E09000D0CFF0A3EFF05C
:100A990074DE2480FF741034FFFEC39000D3E09FFE
:100AA900F09000D2E09EF0C39000D6E09FF0900055
:100AB900D5E09EF0D2E843D820907F95E04440F0FD
:100AC900907FAFE04401F0907FAEE0441DF0D2AFDB
:100AD9003001051205DEC20130031A1213AC50159C
:100AE900C2031211DF200007907FD6E020E7F3123E
:0B0AF90012CC1213B512010080D622AF
:1005DE00907FE9E070030207D914700302085524D6
:1005EE00FE70030208D124FB70030207D3147003BC
:1005FE000207CD1470030207C11470030207C7244B
:10060E000560030209251213B74003020931907FDA
:10061E00EBE024FE601F14605A240260030207B749
:10062E009000D0E0FCA3E0FDEC907FD4F0ED907F45
:10063E00D5F0020931907FEAE0FF120FF7AA06A962
:10064E00077B019000E7EBF0A3EAF0A3E9F04A4B39
:10065E0060179000E7E0A3E0FAA3E0F9EA907FD4F8
:10066E00F0E9907FD5F0020931907FB4E04401F0BB
:10067E00020931907FEAE0FF1211B0AA06A9077BAA
:10068E00019000E7EBF0A3EAF0A3E9F04A4B700308
:10069E000207AD9000E7E0FBA3E0FAA3E0F99000BB
:1006AE00EEEBF0A3EAF0A3E9F0120F64FF9000F175
:1006BE00F0907FEEE0FEEFD39E4005E09000F1F06B
:1006CE009000F1E0700302079F9000EA120FC6003F
:1006DE000000009000F1E0FFC39440500280027FC2
:1006EE0040E4FCFDFE9000EAE0F8A3E0F9A3E0FA96
:1006FE00A3E0FBC3120FA950589000EAE0A3E0A3B9
:10070E00E0FEA3E0FFA3E0A3E0FAA3E02FF582EA68
:10071E003EF583E0FB9000EAE0A3E0A3E0A3E02433
:10072E0000F582E4347FF583EBF09000EAE0FCA361
:10073E00E0FDA3E0FEA3E0FFE4FAF9F8EF2401FFE9
:10074E00EA3EFEE93DFDE83CFC9000EA120FBA805D
:10075E00829000F1E0FFC39440500280027F4090EF
:10076E007FB5EFF09000F1E0FFC394405004AE0768
:10077E0080027E40C3EF9E9000F1F09000EFE47592
:10078E00F040120F7D907FB4E020E2030206CE808F
:10079E00F4E4907FB5F0907FB47402F002093190CA
:1007AE007FB4E04401F0020931907FB4E04401F0DF
:1007BE0002093112137C0209311213A202093112FD
:1007CE00139802093112136C0209311213B9400346
:1007DE00020931907FE8E0247F6024146031240206
:1007EE00705BA200E433FF25E0FFA202E4334F90DA
:1007FE007F00F0E4A3F0907FB57402F0020931E4BB
:10080E00907F00F0A3F0907FB57402F00209319052
:10081E007FECE0F45480FFC4540FFFE054072F2503
:10082E00E024B4F582E4347FF583E05401907F0038
:10083E00F0E4A3F0907FB57402F0020931907FB41A
:10084E00E04401F00209311213BB4003020931905A
:10085E007FE8E024FE601D24026003020931907FD0
:10086E00EAE0B40105C200020931907FB4E0440110
:10087E00F0020931907FEAE07040907FECE0F45492
:10088E0080FFC4540FFFE054072F25E024B4F582F7
:10089E00E4347FF583E4F0907FECE05480FF131393
:1008AE0013541FFFE054072F907FD7F0E49000EE13
:1008BE00F0907FD7E04420F08069907FB4E044014F
:1008CE00F080601213BD505B907FE8E024FE60184C
:1008DE002402704F907FEAE0B40104D2008044906D
:1008EE007FB4E04401F0803B907FEAE07020907F7F
:1008FE00ECE0F45480FFC4540FFFE054072F25E0C2
:10090E0024B4F582E4347FF5837401F08015907F72
:10091E00B4E04401F0800C1213BF5007907FB4E096
:0B092E004401F0907FB4E04402F0228E
:10125800907F9AE04440907F97F0E4FD904000E44E
:10126800F00DEDB430F6E4FDEF30E00FE4FE904011
:10127800007402F00EEEB42BF5800CE4FE904000F2
:10128800E4F00EEEB42FF6EFC313FF0DEDB408D85B
:10129800E4FE9040007402F00EEEB42DF5907F9AB3
:0812A800E054BF907F97F02293
:100B04009000EAEEF0A3EFF0A905E4FA900000F0FB
:100B1400907F9AE04440907F97F0900003E0700348
:100B2400020C2CE4FDFC9000EAE0FEA3E0D39DEE71
:100B34009C4014907F9AE020E00674FFFCFD80073F
:100B44000DBD00010C80DFEDF47002ECF4704BFB82
:100B54009040007402F00BEBB414F5E4FEE4FB9057
:100B640040007402F00BEBB428F5EAC313FA907F4B
:100B74009AE04440907F97F0907F9AE030E006EA54
:100B84004480FA8004EA547FFA907F9AE054BF903C
:100B94007F97F00EEEB408C58037E4900003F09020
:100BA4007F9AE054BF907F97F0907F9AE044409002
:100BB4007F97F0907F9AE054BF907F97F0907F9A50
:100BC400E04440907F97F0907F9AE054BF907F97E5
:100BD400F0900000E0B47E02E4F09000EAE4F0A3B8
:100BE40074FFF0EAB50108E96005900002F022E420
:100BF400FB9040007402F00BEBB41EF5907F9AE07A
:100C04004440907F97F0907F9AE054BF907F97F094
:100C1400900000E02454F582E43400F583EAF09077
:090C24000000E004F0020B1E22A6
:100C2D009000F5EEF0A3EFF0A905E4FA900000F0C6
:100C3D00907F9AE04440907F97F0900003E070031E
:100C4D00020D55E4FDFC9000F5E0FEA3E0D39DEE12
:100C5D009C4014907F9AE020E00674FFFCFD800715
:100C6D000DBD00010C80DFEDF47002ECF4704BFB58
:100C7D009040007402F00BEBB414F5E4FEE4FB902D
:100C8D0040007402F00BEBB428F5EAC313FA907F21
:100C9D009AE04440907F97F0907F9AE030E006EA2A
:100CAD004480FA8004EA547FFA907F9AE054BF9012
:100CBD007F97F00EEEB408C58037E4900003F090F6
:100CCD007F9AE054BF907F97F0907F9AE0444090D8
:100CDD007F97F0907F9AE054BF907F97F0907F9A26
:100CED00E04440907F97F0907F9AE054BF907F97BB
:100CFD00F0900000E0B47C02E4F09000F5E4F0A385
:100D0D0074FFF0EAB50108E96005900002F022E4F5
:100D1D00FB9040007402F00BEBB41EF5907F9AE04F
:100D2D004440907F97F0907F9AE054BF907F97F06A
:100D3D00900000E02454F582E43400F583EAF0904D
:090D4D000000E004F0020C472252
:10114C00907F9AE04440907F97F0E4FD904000E45B
:10115C00F00DEDB407F6E4FDEF30E00FE4FE904047
:10116C00007402F00EEEB406F58011E4FE9040001F
:10117C00E4F00EEEB406F6904000E4F0EFC313FF7B
:10118C000DEDB408D3E4FE9040007402F00EEEB402
:10119C0004F59040007402F0F0907F9AE054BF90F8
:0411AC007F97F02217
:100D56009000EAEEF0A3EFF0AA05E4FB900000F0A5
:100D6600900003E07003020E5CE4FFFE9000EAE0F0
:100D7600FCA3E0D39FEC9E4014907F9AE020E0060F
:100D860074FFFEFF80070FBF00010E80DFEFF470D7
:100D960002EEF47054FF9040007402F00FB507F6AF
:100DA600E4FEE4FF9040007402F00FB507F69040B1
:100DB600007402F0F0F0F0F0F0EBC313FB907F9AB2
:100DC600E04440907F97F0907F9AE030E006EB4455
:100DD60080FB8004EB547FFB907F9AE054BF907FAA
:100DE60097F00EEEB408BB8037E4900003F0907FD6
:100DF6009AE054BF907F97F0907F9AE04440907FAE
:100E060097F0907F9AE054BF907F97F0907F9AE09A
:100E16004440907F97F0907F9AE054BF907F97F080
:100E2600900000E0B47C02E4F09000EAE4F0A374E1
:100E3600FFF0EBB50208EA6005900002F022900090
:100E460000E02454F582E43400F583EBF0900000D2
:070E5600E004F0020D66222A
:100E5D009000EAEEF0A3EFF0AA05E4FB900000F09D
:100E6D00900003E07003020F63E4FFFE9000EAE0E0
:100E7D00FCA3E0D39FEC9E4014907F9AE020E00607
:100E8D0074FFFEFF80070FBF00010E80DFEFF470CF
:100E9D0002EEF47054FF9040007402F00FB507F6A7
:100EAD00E4FEE4FF9040007402F00FB507F69040A9
:100EBD00007402F0F0F0F0F0F0EBC313FB907F9AAA
:100ECD00E04440907F97F0907F9AE030E006EB444D
:100EDD0080FB8004EB547FFB907F9AE054BF907FA2
:100EED0097F00EEEB408BB8037E4900003F0907FCE
:100EFD009AE054BF907F97F0907F9AE04440907FA6
:100F0D0097F0907F9AE054BF907F97F0907F9AE092
:100F1D004440907F97F0907F9AE054BF907F97F078
:100F2D00900000E0B47E02E4F09000EAE4F0A374D7
:100F3D00FFF0EBB50208EA6005900002F022900088
:100F4D0000E02454F582E43400F583EBF0900000CA
:070F5D00E004F0020E6D221A
:10135800907F9AE030E30790003D7401F022E4901A
:04136800003DF02232
:10106E00907FDE7404F0907FDFF0E4907FDDF090EF
:10107E007FC9F0907FB27401F0A37400F0907FAF3F
:10108E00E04402F0E054FBF0E4907F93F0907F9CFC
:10109E0074FFF0907F9D74F4F0907F977480F0E46D
:1010AE00907F94F0907F95F0907F9E7476F0907F75
:1010BE00987402F0907F9AE054DF907F97F0907FC3
:1010CE009AE04410907F97F07FC87E001212B022F3
:10010000907FC8E030E1030205DD907FB8E030E188
:10011000030205DD907FC9E09000E7F0E4907F9551
:10012000F0907F9E7476F0907F987402F0E49000D7
:1001300002F0907F9AE04440907F97F0E49000E8CE
:10014000F0900002E0FD30E00C907F9AE044409097
:100150007F97F0800A907F9AE054BF907F97F0EDF0
:10016000C313900002F09000E8E004F0E0B408D17E
:10017000907F9AE04440907F97F0907DC0E090009F
:1001800002F0907F9AE04440907F97F0E49000E87E
:10019000F0900002E0FD30E00C907F9AE044409047
:1001A0007F97F0800A907F9AE054BF907F97F0EDA0
:1001B000C313900002F09000E8E004F0E0B408D12E
:1001C000907F9AE04440907F97F0907DC0E064017A
:1001D0007040A3E0900002F0907DC1E030E00C9010
:1001E0007F9AE04420907F97F0800A907F9AE054B5
:1001F000DF907F97F0907DC1E030E10C907F9AE036
:100200004410907F97F0800A907F9AE054EF907F9F
:1002100097F0121358907DC0E0646060030202C939
:10022000A3E0D39400404DE49000E8F0907DC1E05D
:10023000FF9000E8E0FEC39F501774C72EF582E4DC
:10024000347DF583E0FF12114C9000E8E004F0806B
:10025000DB907DC1E014FF9000E8E0C39F5015E4FF
:10026000A3F0907DC5E0FF9000E9E0C39F5005E05A
:1002700004F080EE907DC6E0D39400404C900003E3
:100280007401F0E4900000F0907DC4E07F00FEE493
:10029000FD120D56900000E0B40125907F9AE044D5
:1002A00040907F97F0907F9AE054BF907F97F090B6
:1002B00000037401F0907DC4E07F00FEE4120D564F
:1002C000900000E01490003EF0907DC0E06461700A
:1002D000429000E8F09000E8E0FF907DC1E075F00A
:1002E00020A42FF582E435F0F583E5822454F582CD
:1002F000E5833400F583E0900002F0E0FE74542FB3
:10030000F582E43400F583EEF09000E8E004F0E0DC
:10031000B420C2907DC0E06465600302039BA3E04B
:10032000D39400404DE49000E8F0907DC1E0FF9050
:1003300000E8E0FEC39F501774C72EF582E4347DB9
:10034000F583E0FF1212589000E8E004F080DB90A3
:100350007DC1E014FF9000E8E0C39F5015E4A3F0D6
:10036000907DC5E0FF9000E9E0C39F5005E004F0F8
:1003700080EE907DC6E0D39400402090000374018D
:10038000F0E4900000F0907DC4E07F00FEE4FD12F8
:100390000B04900000E01490003EF0907DC0E0B4AB
:1003A0007F047F0180027F00907DC0E0B480047EE6
:1003B0000180027E00EE4F7003020513904000742E
:1003C00002F0907F9AE054DF907F97F0907F9AE060
:1003D0004410907F97F07FC87E001212B0904000CA
:1003E0007402F07FC87E001212B07FC87E00121225
:1003F000B0907F9AE04420907F97F07FC87E0012F3
:1004000012B07FC87E001212B07FC87E001212B0F8
:10041000907F9AE054EF907F97F07FC87E00121291
:10042000B09040007402F07FC87E001212B07FC806
:100430007E001212B0E4900002F090000704F090E9
:100440000003F0E4900000F0907F9AE054BF907FAA
:1004500097F07DAA7F007EE0120B047F467E00129B
:1004600012B07F3B1212587F421212587F41121273
:10047000587F531212587F4512125890000774018A
:10048000F0900003F0E4900000F0907F9AE054BFF9
:10049000907F97F0E4900002F07D55FF7EE0120B14
:1004A00004900002E090003EF07F0A7E001212B03D
:1004B000907DC0E0B480057F55121258907DC0E059
:1004C000B47F057F65121258E4FF121258E4FF1240
:1004D00012587F01121258E4FF121258E4FF121250
:1004E000587FE1121258E4FF121258907F9AE0549C
:1004F000BF907F97F0907F9AE04440907F97F09074
:100500007F9AE054BF907F97F0907F9AE0444090AC
:100510007F97F0907DC0E06481600302059BA3E0BB
:10052000D39400404DE49000E8F0907DC1E0FF904E
:1005300000E8E0FEC39F501774C72EF582E4347DB7
:10054000F583E0FF12114C9000E8E004F080DB90AE
:100550007DC1E014FF9000E8E0C39F5015E4A3F0D4
:10056000907DC5E0FF9000E9E0C39F5005E004F0F6
:1005700080EE907DC6E0D39400402090000374018B
:10058000F0E4900000F0907DC4E07F00FEE4FD12F6
:100590000E5D900000E01490003EF0E49000E8F062
:1005A0009000E8E0FF243CF582E43400F583E0FEAF
:1005B000900002F074002FF582E4347EF583EEF0B3
:1005C0009000E8E004F0E0B440D6E4907FC9F090F9
:0E05D0007DC0E064566006907FB97440F02252
:0913AC00907FAFE04408F0D32269
:0213B500D32241
:0213B700D3223F
:0A139800907FEAE09000D4F0D32229
:10136C009000D4E0907F00F0907FB57401F0D32210
:0A13A200907FEAE0900001F0D322F2
:10137C00900001E0907F00F0907FB57401F0D322D3
:0213B900D3223D
:0213BB00D3223B
:0213BD00D32239
:0213BF00D32237
:1012E600C0E0C083C082D2015391EF907FAB7401FE
:0812F600F0D082D083D0E03279
:10131600C0E0C083C0825391EF907FAB7404F0D0DD
:0613260082D083D0E0320A
:10132C00C0E0C083C0825391EF907FAB7402F0D0C9
:06133C0082D083D0E032F4
:10134200C0E0C083C0825391EF907FAB7410F0D0A5
:0613520082D083D0E032DE
:0113C10032F9
:1012FE00C0E0C083C082D2035391EF907FAB7408DD
:08130E00F0D082D083D0E03260
:0113C20032F8
:0113C30032F7
:0113C40032F6
:0113C50032F5
:0113C60032F4
:0113C70032F3
:0113C80032F2
:0113C90032F1
:0113CA0032F0
:0113CB0032EF
:0113CC0032EE
:0113CD0032ED
:0113CE0032EC
:0113CF0032EB
:0113D00032EA
:0113D10032E9
:1011DF00907FD6E04480F04387010000000000229A
:1011EF007400F58690FDA57C05A3E582458370F913
:0111FF0022CD
:0300000002138C5C
:0C138C00787FE4F6D8FD75812002093955
:100F6400BB010689828A83E0225002E722BBFE028B
:090F7400E32289828A83E49322BE
:100F7D00C5F0F8A3E028F0C5F0F8E58215827002FF
:060F8D001583E038F0229C
:100F9300A3F8E0C5F025F0F0E58215827002158311
:060FA300E0C838F0E8226E
:100FA900EB9FF5F0EA9E42F0E99D42F0E89C45F09E
:010FB9002215
:0C0FBA00ECF0A3EDF0A3EEF0A3EFF022AA
:100FC600A8828583F0D083D082120FDD120FDD1246
:100FD6000FDD120FDDE473E493A3C583C5F0C5836B
:100FE600C8C582C8F0A3C583C5F0C583C8C582C875
:010FF60022D8
:00000001FF
