:10106B001201000100000040470531211000010270
:10107B00000109022000010100A000090400000288
:10108B00FF00000007058202400000070502024036
:10109B000000040309041A0341006E00630068009A
:1010AB006F0072002000430068006900700073003D
:1010BB001C0345005A002D00550053004200200030
:0E10CB004400650076006900630065000000C7
:03004300021100A7
:101100000210D9000212CF000212AA0002128300BC
:101110000212F40002142F000214300002143100F5
:101120000214320002143300021434000214350099
:101130000214360002143700021438000214390079
:1011400002143A0002143B0002143C0002143D0059
:0811500002143E0002143F00EE
:1013B9009000337427F0A37410F03099FDC2998F0F
:0213C900992267
:0E13EB003098FDC298900027E599F0E0FF22AF
:100FF400A907E490001BF0900024E0FEA3E0FBAA04
:10100400068B828A83A3E06402705890001BE0FF81
:1010140004F0EFB50105AF03AE02228B828A83A3ED
:10102400A3E0FFA3E090001CCFF0A3EFF090001C1E
:10103400E0FFA3E0FEEF6E90001CF0A3E0FF900041
:101044001CE0FEEF6EA3F090001CE0FFA3E0FEEFB7
:101054006E90001CF0A3E02BFF90001CE03AFAAB6A
:0710640007809EE4FEFF225D
:10125400A907900028E0FEA3E0FF8F828E83A3E01D
:1012640064037017AD0119ED7001228F828E83E043
:0F1274007C002FFDEC3EFEAF0580DFE4FEFF2285
:10137500907FD6E030E712E04401F07F147E001242
:0A1385001359907FD6E054FEF022C9
:1013590090001FEEF0A3EFF090001F74FFF5F0125C
:0C1369000D3E45F0600512132980ED22B6
:100AF500900008120DC000000000C203C200C2022F
:100B0500C201120F417E107F6B900022EEF0A3EF21
:100B1500F0A37410F0A3747DF09000287410F0A376
:100B2500749DF0EE54E07003020C7990000CE4F033
:100B3500A37480F0A3EEF0A3EFF0C374D79FFF7406
:100B4500109ECF2402CF3400FEE4FCFD9000041279
:100B55000DB4900000120DC000000000900004E0EC
:100B6500FCA3E0FDA3E0FEA3E0FF900000E0F8A3F6
:100B7500E0F9A3E0FAA3E0FBC3120DA350409000F7
:100B850002E0FEA3E0FF90000CE0FCA3E02FF5825D
:100B9500EC3EF58374CDF0900000E0FCA3E0FDA3EE
:100BA500E0FEA3E0FFE4FAF9F8EF2401FFEA3EFED8
:100BB500E93DFDE83CFC900000120DB4809E9000DC
:100BC50000120DC000000000900004E0FCA3E0FD51
:100BD500A3E0FEA3E0FF900000E0F8A3E0F9A3E0A6
:100BE500FAA3E0FBC3120DA35057900002E0FEA349
:100BF500E0FF90000EE0FCA3E02FF582EC3EF583CC
:100C0500E0FF900002E0FCA3E0FD90000CE0FAA3F9
:100C1500E02DF582EA3CF583EFF0900000E0FCA3BF
:100C2500E0FDA3E0FEA3E0FFE4FAF9F8EF2401FFFD
:100C3500EA3EFEE93DFDE83CFC900000120DB48063
:100C45008790000CE0FFA3E0900022CFF0A3EFF027
:100C5500746B2480FF741034FFFEC3900025E09F61
:100C6500F0900024E09EF0C3900029E09FF09000F2
:100C750028E09EF0D2E843D820907F95E04440F0EC
:100C8500907FAFE04401F0907FAEE0441DF0D2AF1D
:100C95003001051207A6C20130031A12142350159C
:100CA500C203121319200007907FD6E020E7F31244
:0B0CB500137512142512010080D622D6
:1007A600907FE9E07003020995147003020A112490
:1007B600FE7003020A8D24FB700302098F14700376
:1007C60002098914700302097D1470030209832447
:1007D600056003020AE11214274003020AED907F26
:1007E600EBE024FE601D14605824026003020973C6
:1007F600900022E0907FD4F0900023E0907FD5F027
:10080600020AED907FEAE0FF120FF4AA06A9077B21
:1008160001900010EBF0A3EAF0A3E9F04A4B601751
:10082600900010E0A3E0FAA3E0F9EA907FD4F0E9A3
:10083600907FD5F0020AED907FB4E04401F0020A01
:10084600ED907FEAE0FF121254AA06A9077B0190F9
:100856000010EBF0A3EAF0A3E9F04A4B700302099B
:1008660069900010E0FBA3E0FAA3E0F9900017EB13
:10087600F0A3EAF0A3E9F0120CC0FF90001AF09082
:100886007FEEE0FEEFD39E4005E090001AF0900068
:100896001AE0700302095B900013120DC0000000FD
:1008A6000090001AE0FFC39440500280027F40E4AB
:1008B600FCFDFE900013E0F8A3E0F9A3E0FAA3E044
:1008C600FBC3120DA3504E900015E0FEA3E0FFA35C
:1008D600E0A3E0FAA3E02FF582EA3EF583E0FF907D
:1008E6000016E02400F582E4347FF583EFF09000F3
:1008F60013E0FCA3E0FDA3E0FEA3E0FFE4FAF9F8B1
:10090600EF2401FFEA3EFEE93DFDE83CFC900013C2
:10091600120DB4808C90001AE0FFC3944050028000
:10092600027F40907FB5EFF090001AE0FFC394403D
:100936005004AE0780027E40C3EF9E90001AF090EE
:100946000018E475F040120D28907FB4E020E20311
:1009560002089480F4E4907FB5F0907FB47402F0BE
:10096600020AED907FB4E04401F0020AED907FB4F4
:10097600E04401F0020AED1213DB020AED12140F35
:10098600020AED121405020AED1213CB020AED1249
:1009960014294003020AED907FE8E0247F602414C6
:1009A60060312402705BA200E433FF25E0FFA2025F
:1009B600E4334F907F00F0E4A3F0907FB57402F02B
:1009C600020AEDE4907F00F0A3F0907FB57402F088
:1009D600020AED907FECE0F45480FFC4540FFFE070
:1009E60054072F25E024B4F582E4347FF583E054E0
:1009F60001907F00F0E4A3F0907FB57402F0020A44
:100A0600ED907FB4E04401F0020AED12142B40038E
:100A1600020AED907FE8E024FE601D2402600302D6
:100A26000AED907FEAE0B40105C200020AED907F6C
:100A3600B4E04401F0020AED907FEAE07040907F56
:100A4600ECE0F45480FFC4540FFFE054072F25E078
:100A560024B4F582E4347FF583E4F0907FECE0542F
:100A660080FF131313541FFFE054072F907FD7F016
:100A7600E4900017F0907FD7E04420F08069907FE3
:100A8600B4E04401F0806012142D505B907FE8E0E2
:100A960024FE60182402704F907FEAE0B40104D26D
:100AA600008044907FB4E04401F0803B907FEAE010
:100AB6007020907FECE0F45480FFC4540FFFE054A4
:100AC600072F25E024B4F582E4347FF5837401F022
:100AD6008015907FB4E04401F0800C12138F50070C
:0F0AE600907FB4E04401F0907FB4E04402F0222E
:10115800900030EDF0A3EBF0AD07907FA5E0448060
:10116800F0EF25E0907FA6F07F017E0012135990E2
:101178000030E0907FA6F07F017E001213599000A6
:1011880031E0907FA6F07F017E00121359907FA571
:0D119800E04440F07F017E00121359D32285
:10133A00AE075398F7E4FDEE30E003639808EEC376
:0F134A0013FE0DEDB408F0C2998F993099FD2272
:100F4100E4900010F0D200121419907FDE7404F0C6
:100F5100907FDFF0E4907FDDF0907FC9F0907FB269
:100F61007401F0A37400F0907FAFE04402F0E0540C
:100F7100FBF0907F9C74FFF0E4907F93F0907F9B57
:100F8100E054FB907F98F0907F9E7404F0907F9DD9
:100F910074F4F0907F977480F0907F957440F09096
:100FA1007F9E747EF0907F987402F0907F95E0446C
:100FB10003F075CDFF75CBFF75CCB275CAB275C89C
:100FC100347598D2904000E4F004F0E4F0FF9040D2
:100FD10000E4F00FEFB401F6907F98E04404F09044
:100FE1004000E4F0907F98E054DBF07F017E001236
:030FF1001359226F
:1013A500907F9BE020E707907E007401F022E49097
:0413B5007E00F022A4
:10010000907FC8E030E1030207A5907FB8E030E1BE
:10011000030207A5907FC9E0900011F0907DC0E038
:10012000B4300B1213A5907DFFE0907E3FF0907DE0
:10013000C0E0645760030201F9907FA5E04480F0BD
:10014000907FA674D2F07F017E00121359907FA693
:100150007408F07F017E00121359E4900013F090B0
:100160000013E0FFC3940E501E74C92FF582E434CF
:100170007DF583E0907FA6F07F017E0012135990F9
:100180000013E004F080D8907FA5E04440F07F01A8
:100190007E00121359907FA5E04480F0907FA674F2
:1001A000D2F07F017E00121359907FA67440F07F39
:1001B000017E00121359E4900013F0900013E0FF49
:1001C000C39408501E74C12FF582E4347DF583E09A
:1001D000907FA6F07F017E00121359900013E00477
:1001E000F080D8907FA5E04440F07F017E0012139C
:1001F00059907DFFE0907E3FF0907DC0E0645870A4
:1002000042907FA5E04480F0907FA674D2F07F01F9
:100210007E00121359907FA67409F07F017E0012B0
:100220001359E4907FA6F07F01FE121359907FA529
:10023000E04440F07F017E00121359907DFFE09072
:100240007E3FF0907DC0E064597034907F9AE05416
:10025000EF907F97F07F057E00121359907F9AE010
:100260004416907F97F07F057E00121359907F9A75
:10027000E054EF907F97F0907DFFE0907E3FF0900C
:100280007DC0E06460600302040D900013F0907D77
:10029000C1E0FF900013E0FEC39F502674C72EF507
:1002A00082E4347DF583E0FF12133AE4FF907DC5CC
:1002B000E0FEEFC39E50030F80F3900013E004F0C4
:1002C00080CC907DC6E0D394005003020408907D5A
:1002D000C3E0FFE4FCFDFEFBFA7901F8120D54C007
:1002E00004C005C006C007907DC2E0FFE4FCFDFE2F
:1002F000FBFAF97801120D54D003D002D001D000DE
:10030000EF2BFFEE3AFEED39FDEC38FCA804A90511
:10031000AA06AB07907DC4E0FEE4FCFD2BFFEA3E9D
:10032000FEED39FDEC38FC900016120DB4E490009F
:1003300012F0C29890001404F0E47F01FEFDFC90DE
:100340000016E0F8A3E0F9A3E0FAA3E0FBD3120D56
:10035000A350030203FD907DC6E0FF900014E0D39C
:100360009F40030203FD907F97E06480F020984255
:10037000E47F01FEFDFC900016E0F8A3E0F9A3E0A5
:10038000FAA3E0FBD3120DA34028900016E0FCA3D3
:10039000E0FDA3E0FEA3E0FF74FFEF24FFFFEE34D7
:1003A000FFFEED34FFFDEC34FFFC900016120DB49F
:1003B00080BBE47F01FEFDFC900016E0F8A3E0F9AD
:1003C000A3E0FAA3E0FBD3120DA35003020339C24A
:1003D00098900014E02400F582E4347EF583E599DA
:1003E000F0900014E004F0E0D394015003020339CC
:1003F000900016120DC0000007D0020339900014BF
:10040000E014907E00F08005E4907E00F0907DC0C6
:10041000E06470600302050AC298907F9AE054EF8E
:10042000907F97F07F057E00121359907F9AE044E9
:1004300016907F97F07F057E00121359907F9AE007
:1004400054EF907F97F0900016120DC0000000004E
:100450009000147401F0E47F207E4EFDFC900016A5
:10046000E0F8A3E0F9A3E0FAA3E0FBC3120DA34078
:10047000030204F9209842E47F207E4EFDFC9000A8
:1004800016E0F8A3E0F9A3E0FAA3E0FBC3120DA382
:100490005027900016E0FCA3E0FDA3E0FEA3E0FFE0
:1004A000E4FAF9F8EF2401FFEA3EFEE93DFDE83CFD
:1004B000FC900016120DB480BBE47F207E4EFDFC44
:1004C000900016E0F8A3E0F9A3E0FAA3E0FBC31262
:1004D0000DA35082C298900014E02400F582E43409
:1004E0007EF583E599F0900014E004F09000161278
:1004F0000DC000000000020456900014E014907E2D
:1005000000F0907DFFE0907E3FF0907DC0E0B45918
:1005100023907F9AE04416907F97F07F057E00122B
:100520001359907F9AE054EF907F97F0907DFFE011
:10053000907E3FF0907DC0E064E060030206367F6D
:1005400005FE121359907F9AE04416907F97F07F32
:10055000057E00121359907F9AE054EF907F97F038
:10056000907F9AE054EF907F97F0E4900013F09022
:100570007F9AE054EF907F97F0900013E004F0E052
:10058000B464EC7F5512133A7F8C7E001213597FAE
:100590005512133A12133A12133A12133A12133A2B
:1005A0007F287E001213597F8012133A7F82121324
:1005B0003AE4FF12133AE412133A7F0812133A7F17
:1005C0000A7E001213597F4B12133A7F4912133AD5
:1005D0007F4C12133A12133A0F12133A7F4512133B
:1005E0003AE4FF12133AE412133A7F647E001213C6
:1005F000597F647E001213597F647E001213597F65
:100600008012133A7FE412133AE4FF12133AE41211
:10061000133AE412133AE4900013F07F647E001260
:100620001359900013E004F0E0C3942840ED907D4E
:10063000FFE0907E3FF0907DC0E064E17059907FD4
:100640009AE04416907F97F07F647E0012135990D1
:100650007F9AE054EF907F97F07F647E00121359E9
:10066000907F9AE054EF907F97F0E4900013F09021
:100670007F9AE054EF907F97F0900013E004F0E051
:10068000B464EC7F5512133A7F8C7E00121359909C
:100690007DFFE0907E3FF0907DC0E0B45A06A3E07D
:1006A000907F97F0907DC0E0B4610CA3E0FF907F55
:1006B0009AE04F907F97F0907DC0E0B4620CA3E089
:1006C000FF907F9AE05F907F97F0907DC0E0B463E9
:1006D00006A3E0907F96F0907DC0E0B46410907F18
:1006E0009AE0907E00F0907DFFE0907E3FF0907D5C
:1006F000C0E0B46510A3E0F5CDF5CBA3E0F5CCF5F3
:10070000CAA3E0F598907DC0E0B4670CA3E0FF9029
:100710007F9BE05F907F98F0907DC0E0B4680CA371
:10072000E0FF907F9BE04F907F98F0907DC0E0B419
:100730006910907F9BE0907E00F0907DFFE0907EBE
:100740003FF0907DC0E0B4FF08907DFFE0907E3FD9
:10075000F0907DC0E064F07039904000F004F0E467
:10076000F0900013F0907DC1E0FF900013E0C39F74
:10077000500D904000E4F0900013E004F080E6900B
:100780007F98E04404F0904000E4F0907F98E054BB
:10079000FBF0907DFFE0907E3FF0E4907FC9F09009
:0607A0007FB97440F02255
:02142300D322D2
:02142500D322D0
:02142700D322CE
:0A140500907FEAE0900026F0D32269
:1013CB00900026E0907F00F0907FB57401F0D3225F
:0A140F00907FEAE0900021F0D32264
:1013DB00900021E0907F00F0907FB57401F0D32254
:02142900D322CC
:02142B00D322CA
:02142D00D322C8
:10138F00907F97E06480F0907FB57401F0907FB408
:06139F00E04402F0D3223D
:1010D900C0E0C083C082C085C084C086758600D246
:1010E900015391EF907FAB7401F0D086D084D08505
:0710F900D082D083D0E03269
:1012AA00C0E0C083C082C085C084C08675860053F2
:1012BA0091EF907FAB7404F0D086D084D085D08231
:0512CA00D083D0E032EA
:1012CF00C0E0C083C082C085C084C08675860053CD
:1012DF0091EF907FAB7402F0D086D084D085D0820E
:0512EF00D083D0E032C5
:1012F400C0E0C083C082C085C084C08675860053A8
:1013040091EF907FAB7410F0D086D084D085D082DA
:05131400D083D0E0329F
:01142F00328A
:10128300C0E0C083C082C085C084C086758600D29A
:10129300035391EF907FAB7408F0D086D084D08550
:0712A300D082D083D0E032BD
:011430003289
:011431003288
:011432003287
:011433003286
:011434003285
:011435003284
:011436003283
:011437003282
:011438003281
:011439003280
:01143A00327F
:01143B00327E
:01143C00327D
:01143D00327C
:01143E00327B
:01143F00327A
:10131900907FD6E04480F04387010000000000225E
:101329007400F58690FDA57C05A3E582458370F9D7
:011339002291
:0A141900E490002FF0D2E9D2AF22D8
:10121C00AD07907FA5E020E6F9C2E9907FA5E044F8
:10122C0080F0ED25E0907FA6F0907FA5E030E0F90E
:10123C00907FA5E04440F0907FA5E020E6F9907FF8
:08124C00A5E030E1D6D2E92251
:1011E200AC07907FA5E020E6F990002FE0702990EF
:1011F2007FA5E04480F0AF04EF25E0907FA6F09059
:10120200002AEDF0AF03A9077B01A3120DFAE490C7
:0A121200002EF0A304F0D322C32243
:1011A500AC07907FA5E020E6F990002FE0702C9029
:1011B5007FA5E04480F0AF04EF25E04401907FA6D1
:1011C500F090002AEDF0AF03A9077B01A3120DFAF9
:0D11D500E490002EF0A37403F0D322C32297
:03004B00020E039F
:100E0300C0E0C083C082C085C084C086758600C030
:100E1300D075D000C000C001C002C003C007907FDE
:100E2300A5E030E20990002F7406F0020F25907FB1
:100E3300A5E020E10E90002FE0640260067407F045
:100E4300020F2590002FE024FE607614604424FEF8
:100E53007003020F1224FC7003020F2024086003A6
:100E6300020F2590002B120DF190002EE0FF04F0ED
:100E73008F82758300120CD9907FA6F090002AE030
:100E8300FF90002EE06F6003020F25A37405F002AC
:100E93000F25907FA6E0FF90002B120DF190002EFE
:100EA300E0F582758300EF120D0690002F7402F0B7
:100EB30090002AE06401706A907FA5E04420F080EE
:100EC3006190002AE024FEFF90002EE0B507079012
:100ED3007FA5E04420F090002AE014FF90002EE06C
:100EE300B5070C907FA5E04440F090002FE4F0900C
:100EF3007FA6E0FF90002B120DF190002EE0F5820B
:100F0300758300EF120D0690002EE004F08013901D
:100F13007FA5E04440F090002FE4F0800590002F7F
:100F2300E4F05391DFD007D003D002D001D000D03A
:0E0F3300D0D086D084D085D082D083D0E0325A
:030000000213F9EF
:0C13F900787FE4F6D8FD758120020AF52B
:100CC000BB010689828A83E0225002E722BBFE0232
:090CD000E32289828A83E4932265
:100CD900BB010CE58229F582E5833AF583E02250D0
:100CE90006E92582F8E622BBFE06E92582F8E2221A
:0D0CF900E58229F582E5833AF583E4932234
:100D0600F8BB010DE58229F582E5833AF583E8F023
:100D1600225006E92582C8F622BBFE05E92582C8CF
:020D2600F222B7
:100D2800C5F0F8A3E028F0C5F0F8E5821582700256
:060D38001583E038F022F3
:100D3E00A3F8E0C5F025F0F0E58215827002158368
:060D4E00E0C838F0E822C5
:100D5400E88FF0A4CC8BF0A42CFCE98EF0A42CFC3E
:100D64008AF0EDA42CFCEA8EF0A4CDA8F08BF0A4BC
:100D74002DCC3825F0FDE98FF0A42CCD35F0FCEB1B
:100D84008EF0A4FEA9F0EB8FF0A4CFC5F02ECD39E0
:0F0D9400FEE43CFCEAA42DCE35F0FDE43CFC224D
:100DA300EB9FF5F0EA9E42F0E99D42F0E89C45F0A6
:010DB300221D
:0C0DB400ECF0A3EDF0A3EEF0A3EFF022B2
:100DC000A8828583F0D083D082120DD7120DD7125E
:100DD0000DD7120DD7E473E493A3C583C5F0C58383
:100DE000C8C582C8F0A3C583C5F0C583C8C582C87D
:010DF00022E0
:090DF100E0FBA3E0FAA3E0F92203
:090DFA00EBF0A3EAF0A3E9F022FA
:00000001FF
