:100D360012010001000000404705312110000102A8
:100D4600000109022000010100A0000904000002C0
:100D5600FF0000000705820240000007050202406E
:100D66000000040309041A0341006E0063006800D2
:100D76006F00720020004300680069007000730075
:100D86001C0345005A002D00550053004200200068
:0E0D96004400650076006900630065000000FF
:03004300020F00A9
:100F0000020ED40002100B00020FE600020FBF0019
:100F100002103000020EFF0002112600021127000D
:100F2000021128000211290002112A0002112B00CF
:100F300002112C0002112D0002112E0002112F00AF
:100F4000021130000211310002113200021133008F
:080F500002113400021135000A
:100CBF00A907E490001BF0900021E0FEA3E0FBAA3F
:100CCF00068B828A83A3E06402705890001BE0FFBA
:100CDF0004F0EFB50105AF03AE02228B828A83A326
:100CEF00A3E0FFA3E090001CCFF0A3EFF090001C57
:100CFF00E0FFA3E0FEEF6E90001CF0A3E0FF90007A
:100D0F001CE0FEEF6EA3F090001CE0FFA3E0FEEFEF
:100D1F006E90001CF0A3E02BFF90001CE03AFAABA2
:070D2F0007809EE4FEFF2295
:100F9000A907900024E0FEA3E0FF8F828E83A3E0E8
:100FA00064037017AD0119ED7001228F828E83E00A
:0F0FB0007C002FFDEC3EFEAF0580DFE4FEFF224C
:1010B100907FD6E030E712E04401F07F147E001209
:0A10C1001095907FD6E054FEF02257
:1010950090001BEEF0A3EFF090001B74FFF5F0122B
:0C10A5000ABC45F0600512106580ED22C9
:10087000900008120B3E00000000C203C200C2023A
:10088000C201120DA47E0D7F3690001FEEF0A3EF83
:10089000F0A3740DF0A37448F0900024740DF0A33D
:1008A0007468F0EE54E070030209F490000CE4F078
:1008B000A37480F0A3EEF0A3EFF0C374A29FFF74C3
:1008C0000D9ECF2402CF3400FEE4FCFD9000041204
:1008D0000B32900000120B3E00000000900004E07C
:1008E000FCA3E0FDA3E0FEA3E0FF900000E0F8A37E
:1008F000E0F9A3E0FAA3E0FBC3120B215040900003
:1009000002E0FEA3E0FF90000CE0FCA3E02FF582E4
:10091000EC3EF58374CDF0900000E0FCA3E0FDA375
:10092000E0FEA3E0FFE4FAF9F8EF2401FFEA3EFE5F
:10093000E93DFDE83CFC900000120B32809E9000E7
:1009400000120B3E00000000900004E0FCA3E0FD5C
:10095000A3E0FEA3E0FF900000E0F8A3E0F9A3E02D
:10096000FAA3E0FBC3120B215057900002E0FEA354
:10097000E0FF90000EE0FCA3E02FF582EC3EF58353
:10098000E0FF900002E0FCA3E0FD90000CE0FAA381
:10099000E02DF582EA3CF583EFF0900000E0FCA347
:1009A000E0FDA3E0FEA3E0FFE4FAF9F8EF2401FF85
:1009B000EA3EFEE93DFDE83CFC900000120B32806F
:1009C0008790000CE0FFA3E090001FCFF0A3EFF0B2
:1009D00074362480FF740D34FFFEC3900022E09F24
:1009E000F0900021E09EF0C3900025E09FF0900081
:1009F00024E09EF0D2E843D820907F95E044C0F0F8
:100A0000907FAFE04401F0907FAEE0441DF0D2AFA4
:100A1000538EF8300105120521C20130031A12115C
:100A2000155015C203121055200007907FD6E02004
:0E0A3000E7F31210B1120EFB12010080D62265
:10052100907FE9E0700302071014700302078C2426
:10053100FE700302080824FB700302070A1470030B
:100541000207041470030206F81470030206FE2465
:1005510005600302085C120EFD4003020868907FEB
:10056100EBE024FE601D146058240260030206EED5
:1005710090001FE0907FD4F0900020E0907FD5F0B4
:10058100020868907FEAE0FF120CBFAA06A9077B68
:1005910001900010EBF0A3EAF0A3E9F04A4B6017D9
:1005A100900010E0A3E0FAA3E0F9EA907FD4F0E92B
:1005B100907FD5F0020868907FB4E04401F0020812
:1005C10068907FEAE0FF120F90AA06A9077B0190CD
:1005D1000010EBF0A3EAF0A3E9F04A4B7003020626
:1005E100E4900010E0FBA3E0FAA3E0F9900017EB20
:1005F100F0A3EAF0A3E9F0120A3EFF90001AF0908E
:100601007FEEE0FEEFD39E4005E090001AF09000EF
:100611001AE070030206D6900013120B3E00000090
:100621000090001AE0FFC39440500280027F40E432
:10063100FCFDFE900013E0F8A3E0F9A3E0FAA3E0CB
:10064100FBC3120B21504E900015E0FEA3E0FFA367
:10065100E0A3E0FAA3E02FF582EA3EF583E0FF9004
:100661000016E02400F582E4347FF583EFF090007A
:1006710013E0FCA3E0FDA3E0FEA3E0FFE4FAF9F838
:10068100EF2401FFEA3EFEE93DFDE83CFC9000134A
:10069100120B32808C90001AE0FFC394405002800C
:1006A100027F40907FB5EFF090001AE0FFC39440C5
:1006B1005004AE0780027E40C3EF9E90001AF09076
:1006C1000018E475F040120AA6907FB4E020E2031E
:1006D10002060F80F4E4907FB5F0907FB47402F0CD
:1006E100020868907FB4E04401F0020868907FB48A
:1006F100E04401F00208681210DB020868121101DF
:100701000208681210F70208681210CB020868127A
:10071100111E4003020868907FE8E0247F602414E2
:1007210060312402705BA200E433FF25E0FFA202E6
:10073100E4334F907F00F0E4A3F0907FB57402F0B2
:10074100020868E4907F00F0A3F0907FB57402F096
:10075100020868907FECE0F45480FFC4540FFFE07E
:1007610054072F25E024B4F582E4347FF583E05467
:1007710001907F00F0E4A3F0907FB57402F00208CD
:1007810068907FB4E04401F0020868121120400330
:10079100020868907FE8E024FE601D2402600302E5
:1007A1000868907FEAE0B40105C200020868907F02
:1007B100B4E04401F0020868907FEAE07040907F65
:1007C100ECE0F45480FFC4540FFFE054072F25E000
:1007D10024B4F582E4347FF583E4F0907FECE054B7
:1007E10080FF131313541FFFE054072F907FD7F09E
:1007F100E4900017F0907FD7E04420F08069907F6B
:10080100B4E04401F08060121122505B907FE8E077
:1008110024FE60182402704F907FEAE0B40104D2F4
:10082100008044907FB4E04401F0803B907FEAE097
:100831007020907FECE0F45480FFC4540FFFE0542B
:10084100072F25E024B4F582E4347FF5837401F0A9
:100851008015907FB4E04401F0800C121124500700
:0F086100907FB4E04401F0907FB4E04402F022B5
:100E100090002CEDF0A3EBF0AD07907FA5E04480AF
:100E2000F0EF25E0907FA6F07F017E0012109590F4
:100E3000002CE0907FA6F07F017E001210959000BC
:100E40002DE0907FA6F07F017E00121095907FA587
:0D0E5000E04440F07F017E00121095D32297
:100DA400E4900010F012110B907FDE7404F0907F39
:100DB400DFF0E4907FDDF0907FC9F0907FB27401A2
:100DC400F0A37400F0907FAFE04402F0E054FBF035
:100DD400907F9C74FFF0E4907F93F0907F9E740466
:100DE400F0E4907F98F0907F9D74F4F0907F977476
:100DF40080F0907F95E04403F075CDFF75CBFF75CF
:0C0E0400CCD975CAD975C8347598522233
:10107600AE075398F7E4FDEE30E003639808EEC33D
:0F10860013FE0DEDB408F0C2998F993099FD2239
:10010000907FC8E030E103020520907FB8E030E145
:1001100003020520907FC9E0900011F0907DC0E0BF
:10012000645760030201DF907FA5E04480F0907F78
:10013000A674D2F07F017E00121095907FA67408FD
:10014000F07F017E00121095E4900013F0900013F0
:10015000E0FFC3940E501E74C92FF582E4347DF580
:1001600083E0907FA6F07F017E001210959000132F
:10017000E004F080D8907FA5E04440F07F017E004D
:10018000121095907FA5E04480F0907FA674D2F085
:100190007F017E00121095907FA67440F07F017E53
:1001A00000121095E4900013F0900013E0FFC39448
:1001B00008501E74C12FF582E4347DF583E0907FF2
:1001C000A6F07F017E00121095900013E004F080ED
:1001D000D8907FA5E04440F07F017E0012109590FA
:1001E0007DC0E06458703A907FA5E04480F0907F35
:1001F000A674D2F07F017E00121095907FA674093C
:10020000F07F017E00121095E4907FA6F07F01FE42
:10021000121095907FA5E04440F07F017E001210FF
:1002200095907DC0E0645960030203BC900013F018
:10023000907DC1E0FF900013E0FEC39F502E74C775
:100240002EF582E4347DF583E0FF121076E4900011
:1002500014F0907DC5E0FF900014E0C39F5005E0CE
:1002600004F080EE900013E004F080C47F027E0072
:10027000121095907DC6E0D3940050030203B7900E
:100280007DC3E0FFE4FCFDFEFBFA7901F8120AD21F
:10029000C004C005C006C007907DC2E0FFE4FCFDBD
:1002A000FEFBFAF97801120AD2D003D002D001D0B5
:1002B00000EF2BFFEE3AFEED39FDEC38FCA804A967
:1002C00005AA06AB07907DC4E0FEE4FCFD2BFFEA27
:1002D0003EFEED39FDEC38FC900016120B32E49036
:1002E0000012F0C29890001504F0E47F01FEFDFCBE
:1002F000900016E0F8A3E0F9A3E0FAA3E0FBD31224
:100300000B2150030203AC907DC6E0FF900015E086
:10031000D39F40030203AC907F97E06480F0209865
:1003200042E47F01FEFDFC900016E0F8A3E0F9A393
:10033000E0FAA3E0FBD3120B214028900016E0FC6A
:10034000A3E0FDA3E0FEA3E0FF74FFEF24FFFFEEB8
:1003500034FFFEED34FFFDEC34FFFC900016120B71
:100360003280BBE47F01FEFDFC900016E0F8A3E0C4
:10037000F9A3E0FAA3E0FBD3120B2150030202EA37
:10038000C298900015E02400F582E4347EF583E500
:1003900099F0900015E004F0E0D3940150030202BC
:1003A000EAA3120B3E000000C80202EA900015E02A
:1003B00014907E00F08005E4907E00F0907DC0E017
:1003C000646060030204AB907F97E06440F0E490C7
:1003D0007E00F0900013F0907DC1E0FF900013E0EC
:1003E000C39F502A3099FDC299900013E0FF24C3A7
:1003F000F582E4347DF583E0F59974002FF582E40D
:10040000347EF583E4F0900013E004F080C9E490BA
:100410000012F0900015F0907F97E06480F0C29891
:1004200020982B907DC2E0FF900015E0C39F501EE6
:10043000E4900014F020980E900014E0C394FA5059
:1004400005E004F080EF900015E004F080D2907F8A
:1004500097E06480F0309853C298900012E0240036
:10046000F582E4347EF583E599F0E4900014F09091
:100470000014E0C394FA503320980E900014E0C3A7
:1004800094FA5005E004F080EF3098E3C2989000B1
:1004900012E02400F582E4347EF583E599F09000C3
:1004A00012E004F0E4900014F080C4907DC0E0B449
:1004B0005A06A3E0907F97F0907DC0E0B4610CA352
:1004C000E0FF907F9AE04F907F97F0907DC0E0B47E
:1004D000620CA3E0FF907F9AE05F907F97F0907DA1
:1004E000C0E0B46306A3E0907F96F0907DC0E0B4D6
:1004F0006408907F9AE0907E00F0907DC0E0B46543
:100500000CA3E0F5CDF5CBA3E0F5CCF5CA907DFFCB
:10051000E0907E3FF0E4907FC9F0907FB97440F0A6
:0105200022B8
:09111500907FAFE04408F0D32202
:020EFB00D32200
:020EFD00D322FE
:0A10F700907FEAE0900023F0D3227E
:1010CB00900023E0907F00F0907FB57401F0D32265
:0A110100907FEAE090001EF0D32278
:1010DB0090001EE0907F00F0907FB57401F0D3225A
:02111E00D322DA
:02112000D322D8
:02112200D322D6
:02112400D322D4
:100ED400C0E0C083C082C085C084C086758600D24D
:100EE400015391EF907FAB7401F0D086D084D0850C
:070EF400D082D083D0E03270
:100FE600C0E0C083C082C085C084C08675860053B9
:100FF60091EF907FAB7404F0D086D084D085D082F8
:05100600D083D0E032B0
:10100B00C0E0C083C082C085C084C0867586005393
:10101B0091EF907FAB7402F0D086D084D085D082D4
:05102B00D083D0E0328B
:10103000C0E0C083C082C085C084C086758600536E
:1010400091EF907FAB7410F0D086D084D085D082A1
:05105000D083D0E03266
:010EFF0032C0
:100FBF00C0E0C083C082C085C084C086758600D261
:100FCF00035391EF907FAB7408F0D086D084D08517
:070FDF00D082D083D0E03284
:011126003296
:011127003295
:011128003294
:011129003293
:01112A003292
:01112B003291
:01112C003290
:01112D00328F
:01112E00328E
:01112F00328D
:01113000328C
:01113100328B
:01113200328A
:011133003289
:011134003288
:011135003287
:10105500907FD6E04480F043870100000000002225
:101065007400F58690FDA57C05A3E582458370F99E
:011075002258
:0A110B00E490002BF0D2E9D2AF22ED
:100F5800AD07907FA5E020E6F9C2E9907FA5E044BF
:100F680080F0ED25E0907FA6F0907FA5E030E0F9D5
:100F7800907FA5E04440F0907FA5E020E6F9907FBF
:080F8800A5E030E1D6D2E92218
:100E9A00AC07907FA5E020E6F990002BE07029903E
:100EAA007FA5E04480F0AF04EF25E0907FA6F090A4
:100EBA000026EDF0AF03A9077B01A3120B78E4909B
:0A0ECA00002AF0A304F0D322C32293
:100E5D00AC07907FA5E020E6F990002BE0702C9078
:100E6D007FA5E04480F0AF04EF25E04401907FA61C
:100E7D00F0900026EDF0AF03A9077B01A3120B78CC
:0D0E8D00E490002AF0A37403F0D322C322E6
:03004B00020B8124
:100B8100C0E0C083C082C085C084C086758600C0B5
:100B9100D075D000C000C001C002C003C007907F63
:100BA100A5E030E20990002B7406F0020CA3907FBF
:100BB100A5E020E10E90002BE0640260067407F0CE
:100BC100020CA390002BE024FE607614604424FE06
:100BD1007003020C9024FC7003020C9E2408600335
:100BE100020CA3900027120B6F90002AE0FF04F083
:100BF1008F82758300120A57907FA6F0900026E03D
:100C0100FF90002AE06F6003020CA3A37405F002B9
:100C11000CA3907FA6E0FF900027120B6F90002A93
:100C2100E0F582758300EF120A8490002B7402F0C4
:100C3100900026E06401706A907FA5E04420F08076
:100C410061900026E024FEFF90002AE0B50707909E
:100C51007FA5E04420F0900026E014FF90002AE0F8
:100C6100B5070C907FA5E04440F090002BE4F09094
:100C71007FA6E0FF900027120B6F90002AE0F5821B
:100C8100758300EF120A8490002AE004F08013902B
:100C91007FA5E04440F090002BE4F0800590002B0C
:100CA100E4F05391DFD007D003D002D001D000D0BF
:0E0CB100D0D086D084D085D082D083D0E032DF
:030000000210EB00
:0C10EB00787FE4F6D8FD758120020870C3
:100A3E00BB010689828A83E0225002E722BBFE02B6
:090A4E00E32289828A83E49322E9
:100A5700BB010CE58229F582E5833AF583E0225054
:100A670006E92582F8E622BBFE06E92582F8E2229E
:0D0A7700E58229F582E5833AF583E49322B8
:100A8400F8BB010DE58229F582E5833AF583E8F0A8
:100A9400225006E92582C8F622BBFE05E92582C854
:020AA400F2223C
:100AA600C5F0F8A3E028F0C5F0F8E58215827002DB
:060AB6001583E038F02278
:100ABC00A3F8E0C5F025F0F0E582158270021583ED
:060ACC00E0C838F0E8224A
:100AD200E88FF0A4CC8BF0A42CFCE98EF0A42CFCC3
:100AE2008AF0EDA42CFCEA8EF0A4CDA8F08BF0A441
:100AF2002DCC3825F0FDE98FF0A42CCD35F0FCEBA0
:100B02008EF0A4FEA9F0EB8FF0A4CFC5F02ECD3964
:0F0B1200FEE43CFCEAA42DCE35F0FDE43CFC22D1
:100B2100EB9FF5F0EA9E42F0E99D42F0E89C45F02A
:010B310022A1
:0C0B3200ECF0A3EDF0A3EEF0A3EFF02236
:100B3E00A8828583F0D083D082120B55120B5512EA
:100B4E000B55120B55E473E493A3C583C5F0C5830F
:100B5E00C8C582C8F0A3C583C5F0C583C8C582C801
:010B6E002264
:090B6F00E0FBA3E0FAA3E0F92287
:090B7800EBF0A3EAF0A3E9F0227E
:00000001FF
