:100EDD001201000100000040470531211000010200
:100EED00000109022000010100A000090400000218
:100EFD00FF000000070582024000000705020240C6
:100F0D000000040309041A0341006E006300680029
:100F1D006F007200200043006800690070007300CC
:100F2D001C0345005A002D005500530042002000BF
:0E0F3D00440065007600690063006500000056
:100E6600A907E490001BF0900029E0FEA3E0FBAA8E
:100E7600068B828A83A3E06402705890001BE0FF11
:100E860004F0EFB50105AF03AE02228B828A83A37D
:100E9600A3E0FFA3E090001CCFF0A3EFF090001CAE
:100EA600E0FFA3E0FEEF6E90001CF0A3E0FF9000D1
:100EB6001CE0FEEF6EA3F090001CE0FFA3E0FEEF47
:100EC6006E90001CF0A3E02BFF90001CE03AFAABFA
:070ED60007809EE4FEFF22ED
:10120700A90790002DE0FEA3E0FF8F828E83A3E065
:1012170064037017AD0119ED7001228F828E83E090
:0F1227007C002FFDEC3EFEAF0580DFE4FEFF22D2
:10137400907FD6E030E712E04401F07F147E001243
:0A1384001358907FD6E054FEF022CB
:1013580090001DEEF0A3EFF090001D74FFF5F01261
:0C1368000CF945F0600512134780ED22DF
:10096A00900008120D4200000000C203C200C20239
:10097A00C201120D857E0E7FDD900027EEF0A3EFF7
:10098A00F0A3740EF0A374EFF090002D740FF0A38F
:10099A00740FF0EE54E07003020AEE90000CE4F0DB
:1009AA00A37480F0A3EEF0A3EFF0C374499FFF7421
:1009BA000F9ECF2402CF3400FEE4FCFD9000041207
:1009CA000D36900000120D4200000000900004E075
:1009DA00FCA3E0FDA3E0FEA3E0FF900000E0F8A383
:1009EA00E0F9A3E0FAA3E0FBC3120D255040900002
:1009FA0002E0FEA3E0FF90000CE0FCA3E02FF582EA
:100A0A00EC3EF58374CDF0900000E0FCA3E0FDA37A
:100A1A00E0FEA3E0FFE4FAF9F8EF2401FFEA3EFE64
:100A2A00E93DFDE83CFC900000120D36809E9000E6
:100A3A0000120D4200000000900004E0FCA3E0FD5B
:100A4A00A3E0FEA3E0FF900000E0F8A3E0F9A3E032
:100A5A00FAA3E0FBC3120D255057900002E0FEA353
:100A6A00E0FF90000EE0FCA3E02FF582EC3EF58358
:100A7A00E0FF900002E0FCA3E0FD90000CE0FAA386
:100A8A00E02DF582EA3CF583EFF0900000E0FCA34C
:100A9A00E0FDA3E0FEA3E0FFE4FAF9F8EF2401FF8A
:100AAA00EA3EFEE93DFDE83CFC900000120D36806E
:100ABA008790000CE0FFA3E0900027CFF0A3EFF0AF
:100ACA0074DD2480FF740E34FFFEC390002AE09F79
:100ADA00F0900029E09EF0C390002EE09FF0900075
:100AEA002DE09EF0D2E843D820907F95E044C0F0F4
:100AFA00907FAFE04401F0907FAEE0441DF0D2AFAA
:100B0A00D204120FAE538EF830010512061BC20131
:100B1A0030031A1213D85015C203121337200007D4
:100B2A00907FD6E020E7F31213741210FB12010033
:030B3A0080D62240
:10061B00907FE9E0700302080A1470030208862435
:10062B00FE700302090224FB70030208041470031A
:10063B000207FE1470030207F21470030207F8247A
:10064B000560030209561210FD4003020962907FF8
:10065B00EBE024FE601D146058240260030207E8DF
:10066B00900027E0907FD4F0900028E0907FD5F0A9
:10067B00020962907FEAE0FF120E66AA06A9077BC9
:10068B0001900010EBF0A3EAF0A3E9F04A4B6017DE
:10069B00900010E0A3E0FAA3E0F9EA907FD4F0E930
:1006AB00907FD5F0020962907FB4E04401F002091B
:1006BB0062907FEAE0FF121207AA06A9077B01905E
:1006CB000010EBF0A3EAF0A3E9F04A4B700302072A
:1006DB00DE900010E0FBA3E0FAA3E0F9900017EB2B
:1006EB00F0A3EAF0A3E9F0120C7BFF90001AF09054
:1006FB007FEEE0FEEFD39E4005E090001AF09000F5
:10070B001AE070030207D0900013120D4200000094
:10071B000090001AE0FFC39440500280027F40E437
:10072B00FCFDFE900013E0F8A3E0F9A3E0FAA3E0D0
:10073B00FBC3120D25504E900015E0FEA3E0FFA366
:10074B00E0A3E0FAA3E02FF582EA3EF583E0FF9009
:10075B000016E02400F582E4347FF583EFF090007F
:10076B0013E0FCA3E0FDA3E0FEA3E0FFE4FAF9F83D
:10077B00EF2401FFEA3EFEE93DFDE83CFC9000134F
:10078B00120D36808C90001AE0FFC394405002800B
:10079B00027F40907FB5EFF090001AE0FFC39440CA
:1007AB005004AE0780027E40C3EF9E90001AF0907B
:1007BB000018E475F040120CE3907FB4E020E203E4
:1007CB0002070980F4E4907FB5F0907FB47402F0D7
:1007DB00020962907FB4E04401F0020962907FB499
:1007EB00E04401F002096212139E0209621213C463
:1007FB000209621213BA02096212138E0209621203
:10080B0013E14003020962907FE8E0247F60241427
:10081B0060312402705BA200E433FF25E0FFA202EB
:10082B00E4334F907F00F0E4A3F0907FB57402F0B7
:10083B00020962E4907F00F0A3F0907FB57402F0A0
:10084B00020962907FECE0F45480FFC4540FFFE088
:10085B0054072F25E024B4F582E4347FF583E0546C
:10086B0001907F00F0E4A3F0907FB57402F00209D1
:10087B0062907FB4E04401F00209621213E340037B
:10088B00020962907FE8E024FE601D2402600302EF
:10089B000962907FEAE0B40105C200020962907F11
:1008AB00B4E04401F0020962907FEAE07040907F6F
:1008BB00ECE0F45480FFC4540FFFE054072F25E005
:1008CB0024B4F582E4347FF583E4F0907FECE054BC
:1008DB0080FF131313541FFFE054072F907FD7F0A3
:1008EB00E4900017F0907FD7E04420F08069907F70
:1008FB00B4E04401F080601213E5505B907FE8E0B8
:10090B0024FE60182402704F907FEAE0B40104D2F9
:10091B00008044907FB4E04401F0803B907FEAE09C
:10092B007020907FECE0F45480FFC4540FFFE05430
:10093B00072F25E024B4F582E4347FF5837401F0AE
:10094B008015907FB4E04401F0800C1213E7500740
:0F095B00907FB4E04401F0907FB4E04402F022BA
:1010630090003BEDF0A3EBF0AD07907FA5E044804B
:10107300F0EF25E0907FA6F07F017E0012135890D9
:10108300003BE0907FA6F07F017E00121358900092
:101093003CE0907FA6F07F017E00121358907FA55D
:0D10A300E04440F07F017E00121358D3227C
:100D8500E4900010F0907FDE7404F0907FDFF0E4D3
:100D9500907FDDF0907FC9F0907FB27401F0A3746D
:100DA50000F0907FAFE04402F0E054FBF0907F9CB0
:100DB50074FFF0907F9D74F4F0907F977480F0E459
:100DC500907F93F0907F9E7404F0907F9BE054FB9E
:100DD500907F98F0907F9E7420F0907F98F09040DF
:100DE50000E4F004F0E4F0900010F0904000E4F02E
:100DF500900010E004F0E0B410F1907F98E0440416
:100E0500F0904000E4F0907F98E054DBF07F017EA5
:100E150000121358E4900010F0907F97E04440F0E2
:100E25007F0C7E00121358907F97E04480F07F0C72
:100E35007E00121358907F97E054BFF07F0C7E0020
:100E4500121358907F97E0547FF07F0C7E001213A9
:100E550058900010E004F0E0C3940A40BC1213CE91
:010E6500226A
:10010000907F9AE06480907F97F0907FC8E030E124
:100110000302061A907FB8E030E10302061AE49069
:100120000013F0900013E0FFC394405019907DC07D
:10013000E0FE74002FF582E4347EF583EEF090004B
:1001400013E004F080DD907DC0E0FFE4FCFDFE7B69
:10015000117A117901F8C3120D0F7045907F9AE062
:100160006440907F97F0907FA5E05410FFC4540F37
:100170004453900026F0E013E43390002CF0907D7F
:10018000C1E0FF7E007A7F79007E7F7F00AB077D34
:1001900008E4FFFE120F4B907F9AE06440907F9737
:1001A000F0907DC0E06401600302029C907F9AE0C1
:1001B0006440907F97F0907FA5E04440F0E4907F0A
:1001C000A6F0907FA5E020E6F9907FA5E04480F0BE
:1001D000907FA674A6F0907FA5E030E0F9907DC1F5
:1001E000E0907FA6F0907FA5E030E0F9907FA5E059
:1001F0004440F0907FA5E020E6F9907FA5E04480A0
:10020000F0907FA674A7F0907FA5E030E0F9907F92
:10021000A6E0907E00F0907FA5E030E0F9907FA608
:10022000E0907E00F0907FA5E030E0F9907FA6E0BE
:10023000907E01F0907FA5E030E0F9907FA6E090FD
:100240007E02F0907FA5E030E0F9907FA6E0907EFE
:1002500003F0907FA5E030E0F9907FA6E0907E0467
:10026000F0907FA5E030E0F9907FA6E0907E05F069
:10027000907FA5E030E0F9907FA5E04420F0907FEA
:10028000A6E0907E06F0907FA5E030E0F9907FA692
:10029000E0907E07F0907FA5E04440F0907DC0E0C4
:1002A00064027067907F9AE06480907F97F0907FFF
:1002B000A5E04480F0907FA674A6F07F0A7E00122D
:1002C0001358907DC1E0907FA6F0E4900015F09067
:1002D0007DC2E0FF900015E0C39F50217F0A7E00A1
:1002E000121358900015E024C3F582E4347DF583A1
:1002F000E0907FA6F0900015E004F080D27F0A7EA7
:1003000000121358907FA5E04440F0907DC0E0B407
:100310000324A3E0FF7E00A3E02408FDEFA8050866
:100320008005C333CE33CED8F9FF907DC3E0FD7A8C
:100330007E7B00120F4B907DC0E064576003020388
:10034000F9907FA5E04480F0907FA674D2F07F0101
:100350007E00121358907FA67408F07F017E001271
:100360001358E4900013F0900013E0FFC3940E5074
:100370001E74C92FF582E4347DF583E0907FA6F0EA
:100380007F017E00121358900013E004F080D89093
:100390007FA5E04440F07F017E00121358907FA5B6
:1003A000E04480F0907FA674D2F07F017E001213AB
:1003B00058907FA67440F07F017E00121358E4909D
:1003C0000013F0900013E0FFC39408501E74C12F77
:1003D000F582E4347DF583E0907FA6F07F017E0016
:1003E000121358900013E004F080D8907FA5E044E9
:1003F00040F07F017E00121358907DC0E064596088
:1004000003020548907E00F0900013F0907DC1E05B
:10041000FF900013E0C39F40030204D33099FDC254
:1004200099900013E024C3F582E4347DF583E090D5
:100430000014F0E4A3F0900012F0900015E0FF909B
:100440000014E0FEEF6EA3F0900012E004F0E0B4C0
:1004500008E8900015E05401F07005439808800307
:100460005398F7900013E024C3F582E4347DF583BC
:10047000E0F599E4900012F0E4900014F09000157B
:10048000E004F0900014E004F0E0B496F090001264
:10049000E004F0E0B40AE1E4900012F0E49000140B
:1004A000F0900015E004F0900014E004F0E0B432A5
:1004B000F0900012E004F0E0B405E1900013E024B5
:1004C000C3F582E4347DF583E4F0900013E004F09A
:1004D00002040CC2989000127401F0E4A3F0E490BE
:1004E0000015F020982B907DC2E0FF900015E0C32E
:1004F0009F501EE4900014F020980E900014E0C36A
:1005000094FA5005E004F080EF900015E004F080CC
:10051000D230981AC298900012E02400F582E43498
:100520007EF583E599F0900012E004F0800E9000D3
:1005300012E0907E00F0900013743FF0900013E002
:1005400004F0E0C3943F4096907DC0E0B45A06A307
:10055000E0907F97F0907DC0E0B4610CA3E0FF9045
:100560007F9AE04F907F97F0907DC0E0B4620CA33B
:10057000E0FF907F9AE05F907F97F0907DC0E0B4BD
:100580006306A3E0907F96F0907DC0E0B46408908D
:100590007F9AE0907E00F0907DC0E0B4650CA3E00F
:1005A000F5CDF5CBA3E0F5CCF5CA907DC0E0B466FF
:1005B0000A907E00746FF0A3746BF0907DC0E0B47D
:1005C000670CA3E0FF907F9BE05F907F98F0907DA9
:1005D000C0E0B4680CA3E0FF907F9BE04F907F9851
:1005E000F0907DC0E0B45B27907F97E06440F0908E
:1005F0007F9BE0907E05F0907F9BE0907E00F090E6
:100600007F9BE0907E01F0907F9BE0907E02F0E483
:0B061000907FC9F0907FB97440F02289
:0913D800907FAFE04408F0D3223D
:0210FB00D322FE
:0210FD00D322FC
:0A13BA00907FEAE090002BF0D322B0
:10138E0090002BE0907F00F0907FB57401F0D32297
:0A13C400907FEAE0900025F0D322AC
:10139E00900025E0907F00F0907FB57401F0D3228D
:0213E100D32215
:0213E300D32213
:0213E500D32211
:0213E700D3220F
:10123600C0E0C083C082C085C084C086758600D2E7
:10124600015391EF907FAB7401F0D086D084D085A6
:07125600D082D083D0E0320A
:10128400C0E0C083C082C085C084C0867586005318
:1012940091EF907FAB7404F0D086D084D085D08257
:0512A400D083D0E03210
:1012A900C0E0C083C082C085C084C08675860053F3
:1012B90091EF907FAB7402F0D086D084D085D08234
:0512C900D083D0E032EB
:1012CE00C0E0C083C082C085C084C08675860053CE
:1012DE0091EF907FAB7410F0D086D084D085D08201
:0512EE00D083D0E032C6
:0110FF0032BE
:10125D00C0E0C083C082C085C084C086758600D2C0
:10126D00035391EF907FAB7408F0D086D084D08576
:07127D00D082D083D0E032E3
:0113E90032D1
:0113EA0032D0
:0113EB0032CF
:0113EC0032CE
:0113ED0032CD
:0113EE0032CC
:0113EF0032CB
:0113F00032CA
:0113F10032C9
:0113F20032C8
:0113F30032C7
:0113F40032C6
:0113F50032C5
:0113F60032C4
:0113F70032C3
:0113F80032C2
:10100E00AB07AA06E4FC90002CE06011EAFF7E001C
:10101E000CEE243EF582E43400F583EFF0EBAE04E3
:10102E000C743E2EF582E43400F583EBF0AE040C26
:10103E00743E2EF582E43400F583EDF0900026E048
:10104E00FFAE04AD067A007B3E121315900026E02B
:05105E00FF1211CF227A
:1010B00090002FEEF0A3EFF0A3EDF0A3EAF0A3EB86
:1010C000F0E4A3F0900031E0FF900034E0FDC39F16
:1010D000502890002FE475F001120CF9AFF0FE904B
:1010E0000032E0FAA3E02DF582E43AF583E0FD1248
:0B10F000100E900034E004F080CA22D3
:100F4B0090001DEEF0A3EFF0A3EDF0A3EAF0A3EBFE
:100F5B00F0E4FDA3F090002CE0601490001DE0FF86
:100F6B007E000DEE2423F582E43400F583EFF09040
:100F7B00001EE0FFAE050D74232EF582E43400F560
:100F8B0083EFF0900026E0FF7A007B23121315907D
:100F9B000026E0FF90001FE0FDA3E0FAA3E0FB12A8
:030FAB0012F3221C
:03004300021100A7
:10110000021236000212A9000212840002125D00CF
:101110000212CE000210FF000213E9000213EA00DF
:101120000213EB000213EC000213ED000213EE00B9
:101130000213EF000213F0000213F1000213F20099
:101140000213F3000213F4000213F5000213F60079
:081150000213F7000213F8007E
:10133700907FD6E04480F043870100000000002240
:070FAE00907FD6E04408F03B
:050FB500E4900010F0C3
:070FBA00907FD6E054FBF02C
:050FC100E4900010F0B7
:100FC600907FD6E04408F0300404E04402F07FDC71
:100FD6007E05121358907F92E030E3077FDC7E0592
:100FE600121358907FAB74FFF0907FA9F0907FAA00
:0B0FF600F05391EF907FD6E054F7F02D
:05100100E4900010F076
:08100600907FD6E04404F022C3
:101347007400F58690FDA57C05A3E582458370F9B9
:011357002273
:0A13CE00E490003AF0D2E9D2AF2219
:1011CF00AD07907FA5E020E6F9C2E9907FA5E04446
:1011DF0080F0ED25E0907FA6F0907FA5E030E0F95C
:1011EF00907FA5E04440F0907FA5E020E6F9907F46
:0811FF00A5E030E1D6D2E9229F
:10119500AC07907FA5E020E6F990003AE070299031
:1011A5007FA5E04480F0AF04EF25E0907FA6F090A6
:1011B5000035EDF0AF03A9077B01A3120D7CE49088
:0A11C5000039F0A304F0D322C32286
:10115800AC07907FA5E020E6F990003AE0702C906B
:101168007FA5E04480F0AF04EF25E04401907FA61E
:10117800F0900035EDF0AF03A9077B01A3120D7CB9
:0D118800E4900039F0A37403F0D322C322D9
:03004B00020B3D68
:100B3D00C0E0C083C082C085C084C086758600C0F9
:100B4D00D075D000C000C001C002C003C007907FA7
:100B5D00A5E030E20990003A7406F0020C5F907F38
:100B6D00A5E020E10E90003AE0640260067407F003
:100B7D00020C5F90003AE024FE607614604424FE7F
:100B8D007003020C4C24FC7003020C5A2408600301
:100B9D00020C5F900036120D73900039E0FF04F0E7
:100BAD008F82758300120C94907FA6F0900035E033
:100BBD00FF900039E06F6003020C5FA37405F00233
:100BCD000C5F907FA6E0FF900036120D73900039F8
:100BDD00E0F582758300EF120CC190003A7402F0BB
:100BED00900035E06401706A907FA5E04420F080AC
:100BFD0061900035E024FEFF900039E0B5070790C5
:100C0D007FA5E04420F0900035E014FF900039E01E
:100C1D00B5070C907FA5E04440F090003AE4F090C9
:100C2D007FA6E0FF900036120D73900039E0F5823B
:100C3D00758300EF120CC1900039E004F080139021
:100C4D007FA5E04440F090003AE4F0800590003A32
:100C5D00E4F05391DFD007D003D002D001D000D003
:0E0C6D00D0D086D084D085D082D083D0E03223
:1012F30012115890003AE024FA6010146006240793
:1013030070F1D322E490003AF0D322E490003AF053
:02131300D322E3
:1013150012119590003AE024FA6010146006240733
:1013250070F1D322E490003AF0D322E490003AF031
:02133500D322C1
:030000000213AE3A
:0C13AE00787FE4F6D8FD75812002096A02
:100C7B00BB010689828A83E0225002E722BBFE0277
:090C8B00E32289828A83E49322AA
:100C9400BB010CE58229F582E5833AF583E0225015
:100CA40006E92582F8E622BBFE06E92582F8E2225F
:0D0CB400E58229F582E5833AF583E4932279
:100CC100F8BB010DE58229F582E5833AF583E8F069
:100CD100225006E92582C8F622BBFE05E92582C815
:020CE100F222FD
:100CE300C5F0F8A3E028F0C5F0F8E582158270029C
:060CF3001583E038F02239
:100CF900A3F8E0C5F025F0F0E582158270021583AE
:060D0900E0C838F0E8220A
:100D0F00EB9FF5F0EA9E42F0E99D42F0EC6480C85B
:060D1F0064809845F022FB
:100D2500EB9FF5F0EA9E42F0E99D42F0E89C45F024
:010D3500229B
:0C0D3600ECF0A3EDF0A3EEF0A3EFF02230
:100D4200A8828583F0D083D082120D59120D5912D8
:100D52000D59120D59E473E493A3C583C5F0C583FD
:100D6200C8C582C8F0A3C583C5F0C583C8C582C8FB
:010D7200225E
:090D7300E0FBA3E0FAA3E0F92281
:090D7C00EBF0A3EAF0A3E9F02278
:00000001FF
