:100E57001201000100000040470531211000010286
:100E6700000109022000010100A00009040000029E
:100E7700FF0000000705820240000007050202404C
:100E87000000040309041A0341006E0063006800B0
:100E97006F00720020004300680069007000730053
:100EA7001C0345005A002D00550053004200200046
:0E0EB7004400650076006900630065000000DD
:100EC500A907E490001BF0900029E0FEA3E0FBAA2F
:100ED500068B828A83A3E06402704A90001BE0FFC0
:100EE50004F0EFB50105AF03AE02228B828A83A31E
:100EF500A3E0FFA3E090001CCFF0A3EFF090001C4F
:100F0500E0FFA3E0FEEF6EFF90001CF0A3E06FFF93
:100F1500F090001CE06FF0A3E02BFF90001CE03A7E
:090F2500FAAB0780ACE4FEFF22E8
:10119F00A90790002DE0FEA3E0FF8F828E83A3E0CE
:1011AF0064037017AD0119ED7001228F828E83E0F9
:0F11BF007C002FFDEC3EFEAF0580DFE4FEFF223B
:100FE600907FD6E030E712E04401F07F147E0012D5
:0A0FF60012F0907FD6E054FEF022C6
:1012F00090001DEEF0A3EFF090001D74FFF5F012CA
:0C1300000CEA45F060051212DF80ED22BF
:10096800900008120D3300000000C203C200C2024A
:10097800C201120D767E0E7F57900027EEF0A3EF8E
:10098800F0A3740EF0A37469F090002D740EF0A318
:100998007489F0EE54E07003020AE490000CE4F06D
:1009A800A37480F0A3EEF0A3EFF0C374C39FFF74A9
:1009B8000E9ECF2402CF3400FEE4FCFD900004120A
:1009C8000D27900000120D3300000000900004E095
:1009D800FCA3E0FDA3E0FEA3E0FF900000E0F8A385
:1009E800E0F9A3E0FAA3E0FBC3120D165040900013
:1009F80002E0FEA3E0FF90000CE0FCA3E02FF582EC
:100A0800EC3EF58374CDF0900000E0FCA3E0FDA37C
:100A1800E0FEA3E0FFE4FAF9F8EF2401FFEA3EFE66
:100A2800E93DFDE83CFC900000120D27809E9000F7
:100A380000120D3300000000900004E0FCA3E0FD6C
:100A4800A3E0FEA3E0FF900000E0F8A3E0F9A3E034
:100A5800FAA3E0FBC3120D16504F900002E0FEA36C
:100A6800E0FF90000EE0FCA3E02FF582EC3EF5835A
:100A7800E0FD90000CE0FAA3E02FF582EA3EF58352
:100A8800EDF0900000E0FCA3E0FDA3E0FEA3E0FF92
:100A9800E4FAF9F8EF2401FFEA3EFEE93DFDE83CFF
:100AA800FC900000120D27808F90000CE0FFA3E05F
:100AB800900027CFF0A3EFF074572480FF740E3412
:100AC800FFFEC390002AE09FF0900029E09EF0C34B
:100AD80090002EE09FF090002DE09EF0D2E843D8E1
:100AE80020907F95E044C0F0907FAFE04401F09003
:100AF8007FAEE0441DF0D2AF538EF83001051206E8
:100B08001BC20130031A1213565015C2031212CF1A
:100B1800200007907FD6E020E7F3120FE612135F5C
:060B280012010080D6223C
:10061B00907FE9E070030208081470030208842439
:10062B00FE700302090024FB70030208021470031E
:10063B000207FC1470030207F01470030207F62480
:10064B000560030209541213614003020960907F95
:10065B00EBE024FE601D146057240260030207E6E2
:10066B00900027E0907FD4F0900028E0907FD5F0A9
:10067B00020960907FEAE0FF120EC5AA06A9077B6C
:10068B0001900010EBF0A3EAF0A3E9F04A60179099
:10069B000010E0A3E0FAA3E0F9EA907FD4F0E99030
:1006AB007FD5F0020960907FB4E04401F00209604D
:1006BB00907FEAE0FF12119FAA06A9077B01900029
:1006CB0010EBF0A3EAF0A3E9F04A70030207DC9009
:1006DB000010E0FBA3E0FAA3E0F9900017EBF0A306
:1006EB00EAF0A3E9F0120C6CFF90001AF0907FEE89
:1006FB00E0FEEFD39E4005E090001AF090001AE068
:10070B0070030207CE900013120D3300000000900F
:10071B00001AE0FFC39440500280027F40E4FCFDCE
:10072B00FE900013E0F8A3E0F9A3E0FAA3E0FBC30B
:10073B00120D16504E900015E0FEA3E0FFA3E0A3B0
:10074B00E0FAA3E02FF582EA3EF583E0FF90001676
:10075B00E02400F582E4347FF583EFF0900013E0A2
:10076B00FCA3E0FDA3E0FEA3E0FFE4FAF9F8EF241D
:10077B0001FFEA3EFEE93DFDE83CFC900013120D43
:10078B0027808C90001AE0FFC39440500280027FB8
:10079B0040907FB5EFF090001AE0FFC394405004F7
:1007AB00AE0780027E40C3EF9E90001AF0900018B7
:1007BB00E475F040120CD4907FB4E020E203020702
:1007CB000780F4E4907FB5F0907FB47402F00209D7
:1007DB0060907FB4E04401F0020960907FB4E04484
:1007EB0001F002096012131C020960121342020984
:1007FB006012133802096012130C020960121363A2
:10080B004003020960907FE8E0247F60241460318C
:10081B002402705BA200E433FF25E0FFA202E43365
:10082B004F907F00F0E4A3F0907FB57402F00209C3
:10083B0060E4907F00F0A3F0907FB57402F00209A2
:10084B0060907FECE0F45480FFC4540FFFE054073A
:10085B002F25E024B4F582E4347FF583E054019036
:10086B007F00F0E4A3F0907FB57402F00209609072
:10087B007FB4E04401F002096012136540030209E2
:10088B0060907FE8E024FE601D2402600302096093
:10089B00907FEAE0B40105C200020960907FB4E0EA
:1008AB004401F0020960907FEAE07040907FECE039
:1008BB00F45480FFC4540FFFE054072F25E024B4F9
:1008CB00F582E4347FF583E4F0907FECE05480FF15
:1008DB00131313541FFFE054072F907FD7F0E490AE
:1008EB000017F0907FD7E04420F08069907FB4E050
:1008FB004401F08060121367505B907FE8E024FEA8
:10090B0060182402704F907FEAE0B40104D200809B
:10091B0044907FB4E04401F0803B907FEAE070208C
:10092B00907FECE0F45480FFC4540FFFE054072F8A
:10093B0025E024B4F582E4347FF5837401F080154F
:10094B00907FB4E04401F0800C1213695007907F44
:0D095B00B4E04401F0907FB4E04402F022CB
:1010580090003BEDF0A3EBF0AD07907FA5E0448056
:10106800F0EF25E0907FA6F07F017E001212F0904D
:10107800003BE0907FA6F07F017E001212F0900006
:101088003CE0907FA6F07F017E001212F0907FA5D1
:0D109800E04440F07F017E001212F0D322F0
:100D7600E4900010F0907FDE7404F0907FDFF0E4E2
:100D8600907FDDF0907FC9F0907FB27401F0A3747C
:100D960000F0907FAFE04402F0E054FBF0907F9CBF
:100DA60074FFF0907F9D74F4F0907F977480F0E468
:100DB600907F93F0907F9E7404F0907F9BE054FBAD
:100DC600907F98F0907F9E7420F0907F98F09040EE
:100DD60000E4F004F0E4F0900010F0904000E4F03D
:100DE600900010E004F0E0B410F1907F98E0440425
:100DF600F0904000E4F0907F98E054DBF07F017EB5
:100E0600001212F0E4900010F0907F97E04440F05A
:100E16007F0C7E001212F0907F97E04480F07F0CEA
:100E26007E001212F0907F97E054BFF07F0C7E0098
:100E36001212F0907F97E0547FF07F0C7E00121222
:100E4600F0900010E004F0E0C3940A40BC12134C8A
:010E56002279
:10010000907F9AE06480907F97F0907FC8E030E124
:100110000302061A907FB8E030E10302061AE49069
:100120000013F0900013E0FFC394405019907DC07D
:10013000E0FE74002FF582E4347EF583EEF090004B
:1001400013E004F080DD907DC0E0FFE4FCFDFE7B69
:10015000117A117901F8C3120D007045907F9AE071
:100160006440907F97F0907FA5E05410FFC4540F37
:100170004453900026F0E013E43390002CF0907D7F
:10018000C1E0FF7E007A7F79007E7F7F00AB077D34
:1001900008E4FFFE120F2E907F9AE06440907F9754
:1001A000F0907DC0E06401600302029C907F9AE0C1
:1001B0006440907F97F0907FA5E04440F0E4907F0A
:1001C000A6F0907FA5E020E6F9907FA5E04480F0BE
:1001D000907FA674A6F0907FA5E030E0F9907DC1F5
:1001E000E0907FA6F0907FA5E030E0F9907FA5E059
:1001F0004440F0907FA5E020E6F9907FA5E04480A0
:10020000F0907FA674A7F0907FA5E030E0F9907F92
:10021000A6E0907E00F0907FA5E030E0F9907FA608
:10022000E0907E00F0907FA5E030E0F9907FA6E0BE
:10023000907E01F0907FA5E030E0F9907FA6E090FD
:100240007E02F0907FA5E030E0F9907FA6E0907EFE
:1002500003F0907FA5E030E0F9907FA6E0907E0467
:10026000F0907FA5E030E0F9907FA6E0907E05F069
:10027000907FA5E030E0F9907FA5E04420F0907FEA
:10028000A6E0907E06F0907FA5E030E0F9907FA692
:10029000E0907E07F0907FA5E04440F0907DC0E0C4
:1002A00064027067907F9AE06480907F97F0907FFF
:1002B000A5E04480F0907FA674A6F07F0A7E00122D
:1002C00012F0907DC1E0907FA6F0E4900015F090D0
:1002D0007DC2E0FF900015E0C39F50217F0A7E00A1
:1002E0001212F0900015E024C3F582E4347DF5830A
:1002F000E0907FA6F0900015E004F080D27F0A7EA7
:10030000001212F0907FA5E04440F0907DC0E0B470
:100310000324A3E0FF7E00A3E02408FDEFA8050866
:100320008005C333CE33CED8F9FF907DC3E0FD7A8C
:100330007E7B00120F2E907DC0E0645760030203A5
:10034000F9907FA5E04480F0907FA674D2F07F0101
:100350007E001212F0907FA67408F07F017E0012DA
:1003600012F0E4900013F0900013E0FFC3940E50DD
:100370001E74C92FF582E4347DF583E0907FA6F0EA
:100380007F017E001212F0900013E004F080D890FC
:100390007FA5E04440F07F017E001212F0907FA51F
:1003A000E04480F0907FA674D2F07F017E001212AC
:1003B000F0907FA67440F07F017E001212F0E4906E
:1003C0000013F0900013E0FFC39408501E74C12F77
:1003D000F582E4347DF583E0907FA6F07F017E0016
:1003E0001212F0900013E004F080D8907FA5E04452
:1003F00040F07F017E001212F0907DC0E0645960F1
:1004000003020548907E00F0900013F0907DC1E05B
:10041000FF900013E0C39F40030204D33099FDC254
:1004200099900013E024C3F582E4347DF583E090D5
:100430000014F0E4A3F0900012F0900015E0FF909B
:100440000014E0FEEF6EA3F0900012E004F0E0B4C0
:1004500008E8900015E05401F07005439808800307
:100460005398F7900013E024C3F582E4347DF583BC
:10047000E0F599E4900012F0E4900014F09000157B
:10048000E004F0900014E004F0E0B496F090001264
:10049000E004F0E0B40AE1E4900012F0E49000140B
:1004A000F0900015E004F0900014E004F0E0B432A5
:1004B000F0900012E004F0E0B405E1900013E024B5
:1004C000C3F582E4347DF583E4F0900013E004F09A
:1004D00002040CC2989000127401F0E4A3F0E490BE
:1004E0000015F020982B907DC2E0FF900015E0C32E
:1004F0009F501EE4900014F020980E900014E0C36A
:1005000094FA5005E004F080EF900015E004F080CC
:10051000D230981AC298900012E02400F582E43498
:100520007EF583E599F0900012E004F0800E9000D3
:1005300012E0907E00F0900013743FF0900013E002
:1005400004F0E0C3943F4096907DC0E0B45A06A307
:10055000E0907F97F0907DC0E0B4610CA3E0FF9045
:100560007F9AE04F907F97F0907DC0E0B4620CA33B
:10057000E0FF907F9AE05F907F97F0907DC0E0B4BD
:100580006306A3E0907F96F0907DC0E0B46408908D
:100590007F9AE0907E00F0907DC0E0B4650CA3E00F
:1005A000F5CDF5CBA3E0F5CCF5CA907DC0E0B466FF
:1005B0000A907E00746FF0A3746BF0907DC0E0B47D
:1005C000670CA3E0FF907F9BE05F907F98F0907DA9
:1005D000C0E0B4680CA3E0FF907F9BE04F907F9851
:1005E000F0907DC0E0B45B27907F97E06440F0908E
:1005F0007F9BE0907E05F0907F9BE0907E00F090E6
:100600007F9BE0907E01F0907F9BE0907E02F0E483
:0B061000907FC9F0907FB97440F02289
:09135600907FAFE04408F0D322BF
:02135F00D32297
:02136100D32295
:0A133800907FEAE090002BF0D32232
:10130C0090002BE0907F00F0907FB57401F0D32219
:0A134200907FEAE0900025F0D3222E
:10131C00900025E0907F00F0907FB57401F0D3220F
:02136300D32293
:02136500D32291
:02136700D3228F
:02136900D3228D
:1011CE00C0E0C083C082C085C084C086758600D250
:1011DE00015391EF907FAB7401F0D086D084D0850F
:0711EE00D082D083D0E03273
:10121C00C0E0C083C082C085C084C0867586005380
:10122C0091EF907FAB7404F0D086D084D085D082BF
:05123C00D083D0E03278
:10124100C0E0C083C082C085C084C086758600535B
:1012510091EF907FAB7402F0D086D084D085D0829C
:05126100D083D0E03253
:10126600C0E0C083C082C085C084C0867586005336
:1012760091EF907FAB7410F0D086D084D085D08269
:05128600D083D0E0322E
:01136B00324F
:1011F500C0E0C083C082C085C084C086758600D229
:10120500035391EF907FAB7408F0D086D084D085DE
:07121500D082D083D0E0324B
:01136C00324E
:01136D00324D
:01136E00324C
:01136F00324B
:01137000324A
:011371003249
:011372003248
:011373003247
:011374003246
:011375003245
:011376003244
:011377003243
:011378003242
:011379003241
:01137A003240
:01137B00323F
:100F9100AB07AA06E4FC90002CE06011EAFF7E009A
:100FA1000CEE243EF582E43400F583EFF0EBAE0461
:100FB1000C743E2EF582E43400F583EBF0AE040CA4
:100FC100743E2EF582E43400F583EDF0900026E0C6
:100FD100FFAE04AD067A007B3E1212AD900026E012
:050FE100FF1211672260
:1010A50090002FEEF0A3EFF0A3EDF0A3EAF0A3EB91
:1010B500F0E4A3F0900031E0FF900034E0FDC39F21
:1010C500502890002FE475F001120CEAAFF0FE9065
:1010D5000032E0FAA3E02DF582E43AF583E0FD1253
:0B10E5000F91900034E004F080CA225C
:100F2E0090001DEEF0A3EFF0A3EDF0A3EAF0A3EB1B
:100F3E00F0E4FDA3F090002CE0601490001DE0FFA3
:100F4E007E000DEE2423F582E43400F583EFF0905D
:100F5E00001EE0FFAE050D74232EF582E43400F57D
:100F6E0083EFF0900026E0FF7A007B231212AD9003
:100F7E000026E0FF90001FE0FDA3E0FAA3E0FB12C5
:030F8E00128B22A1
:03004300021000A8
:101000000211CE000212410002121C000211F50072
:101010000212660002136B0002136C0002136D00D3
:1010200002136E0002136F000213700002137100AE
:10103000021372000213730002137400021375008E
:10104000021376000213770002137800021379006E
:0810500002137A0002137B0079
:1012CF00907FD6E04480F0438701000000000022A9
:1012DF007400F58690FDA57C05A3E582458370F922
:0112EF0022DC
:0A134C00E490003AF0D2E9D2AF229B
:10116700AD07907FA5E020E6F9C2E9907FA5E044AE
:1011770080F0ED25E0907FA6F0907FA5E030E0F9C4
:10118700907FA5E04440F0907FA5E020E6F9907FAE
:08119700A5E030E1D6D2E92207
:10112D00AC07907FA5E020E6F990003AE070299099
:10113D007FA5E04480F0AF04EF25E0907FA6F0900E
:10114D000035EDF0AF03A9077B01A3120D6DE490FF
:0A115D000039F0A304F0D322C322EE
:1010F000AC07907FA5E020E6F990003AE0702C90D4
:101100007FA5E04480F0AF04EF25E04401907FA686
:10111000F0900035EDF0AF03A9077B01A3120D6D30
:0D112000E4900039F0A37403F0D322C32241
:03004B00020B2E77
:100B2E00C0E0C083C082C085C084C086758600C008
:100B3E00D075D000C000C001C002C003C007907FB6
:100B4E00A5E030E20990003A7406F0020C50907F56
:100B5E00A5E020E10E90003AE0640260067407F012
:100B6E00020C5090003AE024FE607614604424FE9D
:100B7E007003020C3D24FC7003020C4B240860032E
:100B8E00020C50900036120D64900039E0FF04F014
:100B9E008F82758300120C85907FA6F0900035E051
:100BAE00FF900039E06F6003020C50A37405F00251
:100BBE000C50907FA6E0FF900036120D6490003925
:100BCE00E0F582758300EF120CB290003A7402F0D9
:100BDE00900035E06401706A907FA5E04420F080BB
:100BEE0061900035E024FEFF900039E0B5070790D4
:100BFE007FA5E04420F0900035E014FF900039E02E
:100C0E00B5070C907FA5E04440F090003AE4F090D8
:100C1E007FA6E0FF900036120D64900039E0F58259
:100C2E00758300EF120CB2900039E004F08013903F
:100C3E007FA5E04440F090003AE4F0800590003A41
:100C4E00E4F05391DFD007D003D002D001D000D012
:0E0C5E00D0D086D084D085D082D083D0E03232
:10128B001210F090003AE024FA6010146006240764
:10129B0070F1D322E490003AF0D322E490003AF0BC
:0212AB00D3224C
:1012AD0012112D90003AE024FA6010146006240704
:1012BD0070F1D322E490003AF0D322E490003AF09A
:0212CD00D3222A
:0300000002132CBC
:0C132C00787FE4F6D8FD75812002096886
:100C6C00BB010689828A83E0225002E722BBFE0286
:090C7C00E32289828A83E49322B9
:100C8500BB010CE58229F582E5833AF583E0225024
:100C950006E92582F8E622BBFE06E92582F8E2226E
:0D0CA500E58229F582E5833AF583E4932288
:100CB200F8BB010DE58229F582E5833AF583E8F078
:100CC200225006E92582C8F622BBFE05E92582C824
:020CD200F2220C
:100CD400C5F0F8A3E028F0C5F0F8E58215827002AB
:060CE4001583E038F02248
:100CEA00A3F8E0C5F025F0F0E582158270021583BD
:060CFA00E0C838F0E8221A
:100D0000EB9FF5F0EA9E42F0E99D42F0EC6480C86A
:060D100064809845F0220A
:100D1600EB9FF5F0EA9E42F0E99D42F0E89C45F033
:010D260022AA
:0C0D2700ECF0A3EDF0A3EEF0A3EFF0223F
:100D3300A8828583F0D083D082120D4A120D4A1205
:100D43000D4A120D4AE473E493A3C583C5F0C5832A
:100D5300C8C582C8F0A3C583C5F0C583C8C582C80A
:010D6300226D
:090D6400E0FBA3E0FAA3E0F92290
:090D6D00EBF0A3EAF0A3E9F02287
:00000001FF
