:100FA5001201000100000040470531211000010237
:100FB500000109022000010100A00009040000024F
:100FC500FF000000070582024000000705020240FD
:100FD5000000040309041A0341006E006300680061
:100FE5006F00720020004300680069007000730004
:100FF5001C0345005A002D005500530042002000F7
:0E10050044006500760069006300650000008D
:03004300021100A7
:101100000210D70002120B000211E6000211BF000C
:1011100002123000021335000213360002133700AA
:10112000021338000213390002133A0002133B0085
:1011300002133C0002133D0002133E0002133F0065
:101140000213400002134100021342000213430045
:081150000213440002134500E4
:100F2E00A907E490001BF0900024E0FEA3E0FBAACA
:100F3E00068B828A83A3E06402705890001BE0FF48
:100F4E0004F0EFB50105AF03AE02228B828A83A3B4
:100F5E00A3E0FFA3E090001CCFF0A3EFF090001CE5
:100F6E00E0FFA3E0FEEF6E90001CF0A3E0FF900008
:100F7E001CE0FEEF6EA3F090001CE0FFA3E0FEEF7E
:100F8E006E90001CF0A3E02BFF90001CE03AFAAB31
:070F9E0007809EE4FEFF2224
:10119000A907900027E0FEA3E0FF8F828E83A3E0E3
:1011A00064037017AD0119ED7001228F828E83E008
:0F11B0007C002FFDEC3EFEAF0580DFE4FEFF224A
:1012B100907FD6E030E712E04401F07F147E001207
:0A12C1001295907FD6E054FEF02253
:1012950090001FEEF0A3EFF090001F74FFF5F01221
:0C12A5000D2B45F0600512126580ED2253
:100AE200900008120DAD00000000C203C200C20255
:100AF200C2011208967E0F7FA5900022EEF0A3EFAE
:100B0200F0A3740FF0A374B7F0900027740FF0A352
:100B120074D7F0EE54E07003020C6690000CE4F01F
:100B2200A37480F0A3EEF0A3EFF0C374119FFF74DF
:100B3200109ECF2402CF3400FEE4FCFD900004128C
:100B42000DA1900000120DAD00000000900004E025
:100B5200FCA3E0FDA3E0FEA3E0FF900000E0F8A309
:100B6200E0F9A3E0FAA3E0FBC3120D90504090001D
:100B720002E0FEA3E0FF90000CE0FCA3E02FF58270
:100B8200EC3EF58374CDF0900000E0FCA3E0FDA301
:100B9200E0FEA3E0FFE4FAF9F8EF2401FFEA3EFEEB
:100BA200E93DFDE83CFC900000120DA1809E900002
:100BB20000120DAD00000000900004E0FCA3E0FD77
:100BC200A3E0FEA3E0FF900000E0F8A3E0F9A3E0B9
:100BD200FAA3E0FBC3120D905057900002E0FEA36F
:100BE200E0FF90000EE0FCA3E02FF582EC3EF583DF
:100BF200E0FF900002E0FCA3E0FD90000CE0FAA30D
:100C0200E02DF582EA3CF583EFF0900000E0FCA3D2
:100C1200E0FDA3E0FEA3E0FFE4FAF9F8EF2401FF10
:100C2200EA3EFEE93DFDE83CFC900000120DA18089
:100C32008790000CE0FFA3E0900022CFF0A3EFF03A
:100C420074A52480FF740F34FFFEC3900025E09F3B
:100C5200F0900024E09EF0C3900028E09FF0900006
:100C620027E09EF0D2E843D820907F95E044C0F080
:100C7200907FAFE04401F0907FAEE0441DF0D2AF30
:100C8200300105120547C20130031A1210FE501539
:100C9200C203121255200007907FD6E020E7F3121C
:0B0CA20012B112132B12010080D622A9
:10054700907FE9E070030207361470030207B224B4
:10055700FE700302082E24FB700302073014700399
:1005670002072A14700302071E14700302072424CB
:1005770005600302088212132D400302088E907F44
:10058700EBE024FE601D1460582402600302071488
:10059700900022E0907FD4F0900023E0907FD5F088
:1005A70002088E907FEAE0FF120F2EAA06A9077BAA
:1005B70001900010EBF0A3EAF0A3E9F04A4B6017B3
:1005C700900010E0A3E0FAA3E0F9EA907FD4F0E905
:1005D700907FD5F002088E907FB4E04401F00208C6
:1005E7008E907FEAE0FF121190AA06A9077B01907F
:1005F7000010EBF0A3EAF0A3E9F04A4B70030207FF
:100607000A900010E0FBA3E0FAA3E0F9900017EBD3
:10061700F0A3EAF0A3E9F0120CADFF90001AF090F6
:100627007FEEE0FEEFD39E4005E090001AF09000C9
:100637001AE070030206FC900013120DAD000000D3
:100647000090001AE0FFC39440500280027F40E40C
:10065700FCFDFE900013E0F8A3E0F9A3E0FAA3E0A5
:10066700FBC3120D90504E900015E0FEA3E0FFA3D0
:10067700E0A3E0FAA3E02FF582EA3EF583E0FF90DE
:100687000016E02400F582E4347FF583EFF0900054
:1006970013E0FCA3E0FDA3E0FEA3E0FFE4FAF9F812
:1006A700EF2401FFEA3EFEE93DFDE83CFC90001324
:1006B700120DA1808C90001AE0FFC3944050028075
:1006C700027F40907FB5EFF090001AE0FFC394409F
:1006D7005004AE0780027E40C3EF9E90001AF09050
:1006E7000018E475F040120D15907FB4E020E20386
:1006F70002063580F4E4907FB5F0907FB47402F081
:1007070002088E907FB4E04401F002088E907FB417
:10071700E04401F002088E1212F102088E1213173C
:1007270002088E12130D02088E1212E102088E12B1
:10073700132F400302088E907FE8E0247F60241483
:1007470060312402705BA200E433FF25E0FFA202C0
:10075700E4334F907F00F0E4A3F0907FB57402F08C
:1007670002088EE4907F00F0A3F0907FB57402F04A
:1007770002088E907FECE0F45480FFC4540FFFE032
:1007870054072F25E024B4F582E4347FF583E05441
:1007970001907F00F0E4A3F0907FB57402F00208A7
:1007A7008E907FB4E04401F002088E1213314003AB
:1007B70002088E907FE8E024FE601D240260030299
:1007C700088E907FEAE0B40105C20002088E907F90
:1007D700B4E04401F002088E907FEAE07040907F19
:1007E700ECE0F45480FFC4540FFFE054072F25E0DA
:1007F70024B4F582E4347FF583E4F0907FECE05491
:1008070080FF131313541FFFE054072F907FD7F077
:10081700E4900017F0907FD7E04420F08069907F44
:10082700B4E04401F08060121333505B907FE8E03E
:1008370024FE60182402704F907FEAE0B40104D2CE
:10084700008044907FB4E04401F0803B907FEAE071
:100857007020907FECE0F45480FFC4540FFFE05405
:10086700072F25E024B4F582E4347FF5837401F083
:100877008015907FB4E04401F0800C1212CB500732
:0F088700907FB4E04401F0907FB4E04402F0228F
:1010130090002FEDF0A3EBF0AD07907FA5E04480A7
:10102300F0EF25E0907FA6F07F017E0012129590ED
:10103300002FE0907FA6F07F017E001212959000B2
:1010430030E0907FA6F07F017E00121295907FA57D
:0D105300E04440F07F017E00121295D32290
:10127600AE075398F7E4FDEE30E003639808EEC33B
:0F12860013FE0DEDB408F0C2998F993099FD2237
:10089600E4900010F0D200121321907FDE7404F071
:1008A600907FDFF0E4907FDDF0907FC9F0907FB21B
:1008B6007401F0A37400F0907FAFE04402F0E054BE
:1008C600FBF0907F9C74FFF0E4907F93F0907F9B09
:1008D600E054FB907F98F0907F9E7404F0907F9D8B
:1008E60074F4F0907F9E7420F0907F98F0907F973C
:1008F6007480F0907F94E04401F0907F957440F00E
:10090600E04403F075CDFF75CBFF75CCFF75CAFFCC
:1009160075C83675985243C836439852E04403F07A
:10092600907F94E04401F075CDFF75CBFF75CCFF49
:1009360075CAFF907F9E747EF0907F987422F09027
:100946004000E4F004F0E4F0FF904000E4F00FEF24
:10095600B40BF6907F98E04404F0904000E4F090E9
:100966007F98E054DBF07F017E00121295907FA500
:10097600E04480F0907FA674D2F07F017E001212D0
:1009860095907FA67408F07F017E00121295907FE5
:10099600A6745AF07F017E00121295907FA6740409
:1009A600F07F017E00121295E4907FA6F07F01FE93
:1009B600121295E4907FA6F07F01FE121295907FA9
:1009C600A67464F07F017E00121295907FA67406CD
:1009D600F07F017E00121295907FA67408F07F01C9
:1009E6007E00121295907FA67488F07F017E001219
:1009F6001295907FA67480F07F017E00121295906A
:100A06007FA674E9F07F017E00121295907FA6748E
:100A160020F07F017E00121295E4907FA6F07F0100
:100A2600FE121295E4907FA6F07F01FE121295E465
:100A3600907FA6F07F01FE121295907FA5E04440BC
:100A4600F07F017E00121295907FA5E04480F09021
:100A56007FA674D2F07F017E00121295907FA67455
:100A660040F07F017E00121295907FA674CCF07F35
:100A7600017E00121295907FA674B6F07F017E006B
:100A8600121295907FA67417F07F017E00121295C0
:100A9600E4907FA6F07F01FE121295E4907FA6F007
:100AA6007F01FE121295907FA67480F07F017E0072
:100AB600121295907FA6746FF07F017E0012129538
:100AC600907FA67404F07F017E00121295907FA598
:0C0AD600E04440F07F017E0012129522E7
:10010000907FC8E030E103020546907FB8E030E11F
:1001100003020546907FC9E0900011F0907DC0E099
:10012000645760030201DF907FA5E04480F0907F78
:10013000A674D2F07F017E00121295907FA67408FB
:10014000F07F017E00121295E4900013F0900013EE
:10015000E0FFC3940E501E74C92FF582E4347DF580
:1001600083E0907FA6F07F017E001212959000132D
:10017000E004F080D8907FA5E04440F07F017E004D
:10018000121295907FA5E04480F0907FA674D2F083
:100190007F017E00121295907FA67440F07F017E51
:1001A00000121295E4900013F0900013E0FFC39446
:1001B00008501E74C12FF582E4347DF583E0907FF2
:1001C000A6F07F017E00121295900013E004F080EB
:1001D000D8907FA5E04440F07F017E0012129590F8
:1001E0007DC0E06458703A907FA5E04480F0907F35
:1001F000A674D2F07F017E00121295907FA674093A
:10020000F07F017E00121295E4907FA6F07F01FE40
:10021000121295907FA5E04440F07F017E001212FB
:1002200095907DC0E0B4592C907F9AE054EF907F78
:1002300097F07F057E00121295907F9AE044169009
:100240007F97F07F057E00121295907F9AE054EF21
:10025000907F97F0907DC0E06460600302042C9072
:100260000013F0907DC1E0FF900013E0FEC39F50AB
:100270007074C82EF582E4347DF583E0FF121276A7
:10028000907DC1E014FF900013E0C39F504BE4FF4A
:10029000907DC5E0FEEFC39E50030F80F3E4FF9016
:1002A0007DC5E0FEEFC39E50030F80F3E4FF907D19
:1002B000C5E0FEEFC39E50030F80F3E4FF907DC5C1
:1002C000E0FEEFC39E50030F80F3E4FF907DC5E096
:1002D000FEEFC39E50030F80F3900013E004F08004
:1002E00082907DC6E0D394005003020427907DC322
:1002F000E0FFE4FCFDFEFBFA7901F8120D41C004B9
:10030000C005C006C007907DC2E0FFE4FCFDFEFB17
:10031000FAF97801120D41D003D002D001D000EFDC
:100320002BFFEE3AFEED39FDEC38FCA804A905AA36
:1003300006AB07907DC4E0FEE4FCFD2BFFEA3EFE29
:10034000ED39FDEC38FC900016120DA1E49000127E
:10035000F0C29890001404F0E47F01FEFDFC9000D0
:1003600016E0F8A3E0F9A3E0FAA3E0FBD3120D90A6
:10037000500302041C907DC6E0FF900014E0D39F60
:10038000400302041C907F97E06480F0209842E4D0
:100390007F01FEFDFC900016E0F8A3E0F9A3E0FA6F
:1003A000A3E0FBD3120D904028900016E0FCA3E0E0
:1003B000FDA3E0FEA3E0FF74FFEF24FFFFEE34FF98
:1003C000FEED34FFFDEC34FFFC900016120DA18011
:1003D000BBE47F01FEFDFC900016E0F8A3E0F9A36A
:1003E000E0FAA3E0FBD3120D905003020358C29829
:1003F000900014E02400F582E4347EF583E599F062
:10040000900014E004F0E0D39401500302035890EC
:100410000016120DAD00000064020358900014E0B5
:1004200014907E00F08005E4907E00F0907DC0E0A6
:10043000B4591B907F9AE04416907F97F07F057E19
:1004400000121295907F9AE054EF907F97F0907D84
:10045000C0E0B45A06A3E0907F97F0907DC0E0B46E
:10046000610CA3E0FF907F9AE04F907F97F0907D22
:10047000C0E0B4620CA3E0FF907F9AE05F907F97AA
:10048000F0907DC0E0B46306A3E0907F96F0907D8D
:10049000C0E0B46408907F9AE0907E00F0907DC048
:1004A000E0B4650CA3E0F5CDF5CBA3E0F5CCF5CA3F
:1004B000907DC0E0B4670CA3E0FF907F9BE05F906D
:1004C0007F98F0907DC0E0B4680CA3E0FF907F9B24
:1004D000E04F907F98F0907DC0E0B46908907F9BDA
:1004E000E0907E00F0907DC0E064F07039904000B4
:1004F000F004F0E4F0900013F0907DC1E0FF900074
:1005000013E0C39F500D904000E4F0900013E0040E
:10051000F080E6907F98E04404F0904000E4F09092
:100520007F98E054FBF0E4907FC9F0907DC0E064D8
:10053000606007907FB97440F022907DC7E060064C
:07054000907FB97440F02226
:0210FE00D322FB
:02132B00D322CB
:02132D00D322C9
:0A130D00907FEAE0900026F0D32262
:1012E100900026E0907F00F0907FB57401F0D3224A
:0A131700907FEAE0900021F0D3225D
:1012F100900021E0907F00F0907FB57401F0D3223F
:02132F00D322C7
:02133100D322C5
:02133300D322C3
:1012CB00907F97E06480F0907FB57401F0907FB4CD
:0612DB00E04402F0D32202
:1010D700C0E0C083C082C085C084C086758600D248
:1010E700015391EF907FAB7401F0D086D084D08507
:0710F700D082D083D0E0326B
:1011E600C0E0C083C082C085C084C08675860053B7
:1011F60091EF907FAB7404F0D086D084D085D082F6
:05120600D083D0E032AE
:10120B00C0E0C083C082C085C084C0867586005391
:10121B0091EF907FAB7402F0D086D084D085D082D2
:05122B00D083D0E03289
:10123000C0E0C083C082C085C084C086758600536C
:1012400091EF907FAB7410F0D086D084D085D0829F
:05125000D083D0E03264
:011335003285
:1011BF00C0E0C083C082C085C084C086758600D25F
:1011CF00035391EF907FAB7408F0D086D084D08515
:0711DF00D082D083D0E03282
:011336003284
:011337003283
:011338003282
:011339003281
:01133A003280
:01133B00327F
:01133C00327E
:01133D00327D
:01133E00327C
:01133F00327B
:01134000327A
:011341003279
:011342003278
:011343003277
:011344003276
:011345003275
:10125500907FD6E04480F043870100000000002223
:101265007400F58690FDA57C05A3E582458370F99C
:011275002256
:0A132100E490002EF0D2E9D2AF22D2
:10115800AD07907FA5E020E6F9C2E9907FA5E044BD
:1011680080F0ED25E0907FA6F0907FA5E030E0F9D3
:10117800907FA5E04440F0907FA5E020E6F9907FBD
:08118800A5E030E1D6D2E92216
:10109D00AC07907FA5E020E6F990002EE070299036
:1010AD007FA5E04480F0AF04EF25E0907FA6F0909F
:1010BD000029EDF0AF03A9077B01A3120DE7E49022
:0A10CD00002DF0A304F0D322C3228B
:10106000AC07907FA5E020E6F990002EE0702C9070
:101070007FA5E04480F0AF04EF25E04401907FA617
:10108000F0900029EDF0AF03A9077B01A3120DE753
:0D109000E490002DF0A37403F0D322C322DE
:03004B00020DF0B3
:100DF000C0E0C083C082C085C084C086758600C044
:100E0000D075D000C000C001C002C003C007907FF1
:100E1000A5E030E20990002E7406F0020F12907FD8
:100E2000A5E020E10E90002EE0640260067407F059
:100E3000020F1290002EE024FE607614604424FE1F
:100E40007003020EFF24FC7003020F0D24086003E0
:100E5000020F1290002A120DDE90002DE0FF04F028
:100E60008F82758300120CC6907FA6F0900029E057
:100E7000FF90002DE06F6003020F12A37405F002D3
:100E80000F12907FA6E0FF90002A120DDE90002D39
:100E9000E0F582758300EF120CF390002E7402F0DF
:100EA000900029E06401706A907FA5E04420F08002
:100EB00061900029E024FEFF90002DE0B507079027
:100EC0007FA5E04420F0900029E014FF90002DE081
:100ED000B5070C907FA5E04440F090002EE4F09020
:100EE0007FA6E0FF90002A120DDE90002DE0F58233
:100EF000758300EF120CF390002DE004F080139046
:100F00007FA5E04440F090002EE4F0800590002E94
:100F1000E4F05391DFD007D003D002D001D000D04D
:0E0F2000D0D086D084D085D082D083D0E0326D
:03000000021301E7
:0C130100787FE4F6D8FD758120020AE236
:100CAD00BB010689828A83E0225002E722BBFE0245
:090CBD00E32289828A83E4932278
:100CC600BB010CE58229F582E5833AF583E02250E3
:100CD60006E92582F8E622BBFE06E92582F8E2222D
:0D0CE600E58229F582E5833AF583E4932247
:100CF300F8BB010DE58229F582E5833AF583E8F037
:100D0300225006E92582C8F622BBFE05E92582C8E2
:020D1300F222CA
:100D1500C5F0F8A3E028F0C5F0F8E5821582700269
:060D25001583E038F02206
:100D2B00A3F8E0C5F025F0F0E5821582700215837B
:060D3B00E0C838F0E822D8
:100D4100E88FF0A4CC8BF0A42CFCE98EF0A42CFC51
:100D51008AF0EDA42CFCEA8EF0A4CDA8F08BF0A4CF
:100D61002DCC3825F0FDE98FF0A42CCD35F0FCEB2E
:100D71008EF0A4FEA9F0EB8FF0A4CFC5F02ECD39F3
:0F0D8100FEE43CFCEAA42DCE35F0FDE43CFC2260
:100D9000EB9FF5F0EA9E42F0E99D42F0E89C45F0B9
:010DA0002230
:0C0DA100ECF0A3EDF0A3EEF0A3EFF022C5
:100DAD00A8828583F0D083D082120DC4120DC41297
:100DBD000DC4120DC4E473E493A3C583C5F0C583BC
:100DCD00C8C582C8F0A3C583C5F0C583C8C582C890
:010DDD0022F3
:090DDE00E0FBA3E0FAA3E0F92216
:090DE700EBF0A3EAF0A3E9F0220D
:00000001FF
