:0A19CE0000010202030304040505F2
:100FE60090005412129A00000000C203C200C2020E
:100FF600C2011214A47E147F00900068EEF0A3EFE5
:10100600F09000707414F0A37412F09000667414DB
:10101600F0A3741CF090006E7414F0A3744AF09060
:1010260000727414F0A37478F0EE54E070030211A9
:10103600B4900058E4F0A37480F0A3EEF0A3EFF0B0
:10104600C374A29FFF74149ECF2402CF3400FEE423
:10105600FCFD90005012128E90004C12129A000065
:101066000000900050E0FCA3E0FDA3E0FEA3E0FF3B
:1010760090004CE0F8A3E0F9A3E0FAA3E0FBC3126A
:10108600127D504090004EE0FEA3E0FF900058E035
:10109600FCA3E02FF582EC3EF58374CDF090004C76
:1010A600E0FCA3E0FDA3E0FEA3E0FFE4FAF9F8EF1D
:1010B6002401FFEA3EFEE93DFDE83CFC90004C12AF
:1010C600128E809E90004C12129A00000000900032
:1010D60050E0FCA3E0FDA3E0FEA3E0FF90004CE09F
:1010E600F8A3E0F9A3E0FAA3E0FBC312127D505780
:1010F60090004EE0FEA3E0FF90005AE0FCA3E02F34
:10110600F582EC3EF583E0FF90004EE0FCA3E0FDA7
:10111600900058E0FAA3E02DF582EA3CF583EFF063
:1011260090004CE0FCA3E0FDA3E0FEA3E0FFE4FAA0
:10113600F9F8EF2401FFEA3EFEE93DFDE83CFC90AC
:10114600004C12128E8087900058E0FFA3E09000BA
:1011560068CFF0A3EFF074002480FF741434FFFE10
:10116600C3900071E09FF0900070E09EF0C3900085
:101176006BE09FF090006AE09EF0C390006DE09FE8
:10118600F090006CE09EF0C3900067E09FF0900046
:1011960066E09EF0C390006FE09FF090006EE09EC8
:1011A600F0C3900073E09FF0900072E09EF0D2E8EA
:1011B60043D82090E668E04409F090E65CE0443DC0
:1011C600F0D2AF90E680E054F7F0538EF890E60048
:1011D600E054E74410F0C203300105120D3CC20191
:1011E6003003291212FE5024C2031218B62000162C
:1011F60090E682E030E704E020E1EF90E682E0301E
:10120600E604E020E0E412180C1213F81201008044
:02121600C722ED
:100D3C0090E6B9E07003020E28147003020ED12461
:100D4C00FE7003020F6624FB7003020E2214700364
:100D5C00020E1C147003020E10147003020E1624E3
:100D6C00056003020FD21213FA4003020FDE90E665
:100D7C00BBE024FE603414605724FD601A14603DFF
:100D8C0024067076900068E090E6B3F0900069E07D
:100D9C0090E6B4F0020FDE900070E090E6B3F090B5
:100DAC000071E090E6B4F0020FDE90006AE090E68D
:100DBC00B3F090006BE090E6B4F0020FDE90006CA4
:100DCC00E090E6B3F090006DE090E6B4F0020FDE38
:100DDC0090E6BAE0FF1212CBAA06A9077B01EA49FA
:100DEC004B600DEE90E6B3F0EF90E6B4F0020FDE40
:100DFC0090E6A0E04401F0020FDE90E6A0E0440192
:100E0C00F0020FDE121997020FDE1219E2020FDE4A
:100E1C001219D8020FDE121983020FDE1213FC40D6
:100E2C0003020FDE90E6B8E0247F602B14603C24B4
:100E3C00026003020EC7A200E433FF25E0FFA2020A
:100E4C00E4334F90E740F0E4A3F090E68AF090E6AC
:100E5C008B7402F0020FDEE490E740F0A3F090E612
:100E6C008AF090E68B7402F0020FDE90E6BCE05440
:100E7C007EFF7E00E0D3948040067C007D018004E0
:100E8C007C007D00EC4EFEED4F24CEF58274193EB5
:100E9C00F583E493FF3395E0FEEF24A1FFEE34E6F7
:100EAC008F82F583E0540190E740F0E4A3F090E6E4
:100EBC008AF090E68B7402F0020FDE90E6A0E0441C
:100ECC0001F0020FDE1213FE4003020FDE90E6B8B3
:100EDC00E024FE601D24026003020FDE90E6BAE0FF
:100EEC00B40105C200020FDE90E6A0E04401F0025E
:100EFC000FDE90E6BAE0705990E6BCE0547EFF7EBF
:100F0C0000E0D3948040067C007D0180047C007D51
:100F1C0000EC4EFEED4F24CEF58274193EF583E4C1
:100F2C0093FF3395E0FEEF24A1FFEE34E68F82F5BC
:100F3C0083E054FEF090E6BCE05480FF131313548E
:100F4C001FFFE0540F2F90E683F0E04420F0020FD7
:100F5C00DE90E6A0E04401F080781219EC5073901A
:100F6C00E6B8E024FE60202402706790E6BAE0B494
:100F7C000104D200805C90E6BAE06402605490E612
:100F8C00A0E04401F0804B90E6BCE0547EFF7E0074
:100F9C00E0D3948040067C007D0180047C007D00C1
:100FAC00EC4EFEED4F24CEF58274193EF583E4939E
:100FBC00FF3395E0FEEF24A1FFEE34E68F82F5833C
:100FCC00E04401F0800C121838500790E6A0E04481
:0A0FDC0001F090E6A0E04480F0224E
:030033000212FABC
:0412FA0053D8EF32A4
:030023000217348D
:10173400C0E0C083C082C0D075D000C00730983BE1
:1017440043B04053B0BFC29890003BE0FFC3942025
:101754005023900049E06401601574032FF582E47E
:101764003400F583E599F090003BE004F0800690A6
:1017740000397401F043B04053B0BFD007D0D0D08B
:0617840082D083D0E032A8
:1019BD004100000041003B00410049014100390058
:10166100A907E4900074F090006AE0FEA3E0FBAAF1
:10167100068B828A83A3E064027058900074E0FFB5
:1016810004F0EFB50105AF03AE02228B828A83A37A
:10169100A3E0FFA3E0900075CFF0A3EFF0900075F9
:1016A100E0FFA3E0FEEF6E900075F0A3E0FF900075
:1016B10075E0FEEF6EA3F0900075E0FFA3E0FEEF92
:1016C1006E900075F0A3E02BFF900075E03AFAAB45
:0716D10007809EE4FEFF22EA
:1012CB00A907900072E0FEA3E0FF8F828E83A3E05C
:1012DB0064037017AD0119ED7001228F828E83E0CC
:0F12EB007C002FFDEC3EFEAF0580DFE4FEFF220E
:1018DB00900064EEF0A3EFF090006474FFF5F0124B
:0C18EB00121845F060051218CA80ED22AA
:10194000900062EEF0A3EFF01218DB900062E0FE70
:07195000A3E0FF1218DB22E7
:10188D00900062EEF0A3EFF0E4FFFDFCD390006357
:10189D00E09DEC6480F8900062E064809840090F50
:0918AD001F0DBD00010C80E422B6
:1013B800E4F9900025E0FDB40111900048E07005C3
:1013C800FE7F0A80187E007F0C8012ED700F90005F
:1013D80048E07005FE7F4E80047E007F5EE4FDFCE1
:1013E800C3ED9FEC9E5008090DBD00010C80F12251
:1018F700E4FFFE7D01900025E070027D2BE4FFEF01
:09190700C39D50040E0F80F7226D
:10186300AE07900000E070055398F7800343980893
:10187300E4FDEE30E003639808EEC313FE0DEDB410
:0A18830008F0C2998F993099FD22F8
:1017DF00AB0753B0FE1213B8E4FAEB30E00543B099
:1017EF0001800353B0FEEBC313FB1213B80AEAB424
:0D17FF0008E843B0017F237E0012188D2200
:1015420090003A74FAF0E4FBE5B030E13CE5B030EB
:10155200E137E5B030E132E5B030E12DE5B030E120
:1015620028E5B030E123E5B030E11EE5B030E11905
:10157200E5B030E114E5B030E10F0BEBB4FFC990F8
:10158200003AE014F0E0B401BD1218F7E4FA90005A
:101592003AE0D39402403BE4FB1213B8EAC313FAD5
:1015A20043B040E5B05402FFC3136006EA4480FA38
:1015B2008004EA547FFA53B0BF0BEBB408DB12137A
:1015C200B890E67CEAF0900047E004F090003A74AC
:0315D20064F022A0
:1019AB00E59020E306E490E67CF02290E67C74015F
:0219BB00F02218
:1014A400E490005CF090E600E054DFF090E601E0A8
:1014B4004440F090E61074A0F090E611F0000000B3
:1014C40090E61274A2F000000090E61374A0F000FD
:1014D400000090E61474E2F000000090E61574E059
:1014E400F000000090E6917480F0000000F000002D
:1014F4000090E695F0000000F043AF01D200E490C4
:10150400E670F075B2FE75807075B3F675908090D4
:10151400E671F075B43F75A00175B54175B00190E1
:10152400E672F0F5B6F5B17F0AFE121940759852CD
:0E15340090E608E04401F0C2ACC2BCC2042242
:10010000E5AA30E003020D3BE5AA30E503020D3B12
:100110007AF079007EF07F0074F0F59A7400F59B18
:100120007AF879007EF87F0074F8F59D7400F59EEA
:1001300090E690E0FF90E691E0240090005CF09063
:10014000E67BE0900029F0E0FF90E67CF090005D17
:1001500074FFF0EF6401703A7F06FE12194090E6DA
:100160007BE0900002F0E0FF30E005439020800348
:100170005390DFEF30E10543901080035390EFEF91
:1001800030E20543804080035380BF7F017E001230
:1001900019401219AB900029E06402707190003C84
:1001A00012129A0000000090E67BE090005EF09052
:1001B000E67BE0FFE4FCFDFE90003C12128E90E630
:1001C0007BE0900002F043900253907F90005EE04D
:1001D00070035380BF7F027E0012188D900002E0F2
:1001E000FF90003EE0FCA3E0FDE42DF58274403C6E
:1001F000F583EFF090E67CEFF07F0212188D90000F
:100200005EE070034380407F147E0012188D9000E2
:1002100029E06403706990003C12129A000000000B
:1002200090E67BE090005EF090E67BE0FFE4FCFD72
:10023000FE90003C12128E43900253907F90005E1D
:10024000E070035380BF7F027E0012188D90003E45
:10025000E0FEA3E0FFE42FF58274403EF583E090DA
:100260000002F0E090E67CF07F027E0012188D9094
:10027000005EE070034380407F147E0012188D9072
:100280000029E0640560030203F890E678E044800A
:10029000F090E67974D2F07F017E0012194090E66A
:1002A000797408F07F017E0012194090E679745A43
:1002B000F07F017E0012194090E6797404F07F010E
:1002C0007E00121940E490E679F07F01FE12194099
:1002D000E490E679F07F01FE12194090E6797464AB
:1002E000F07F017E0012194090E6797406F07F01DC
:1002F0007E0012194090E6797408F07F017E0012AA
:10030000194090E6797488F07F017E0012194090C0
:10031000E6797480F07F017E0012194090E67974CE
:10032000E9F07F017E0012194090E6797420F07F99
:10033000017E00121940E490E679F07F01FE121967
:1003400040E490E679F07F01FE121940E490E679EE
:10035000F07F01FE12194090E678E04440F07F0102
:100360007E0012194090E678E04480F090E67974BF
:10037000D2F07F017E0012194090E6797440F07F40
:10038000017E0012194090E67974CCF07F017E0066
:1003900012194090E67974B6F07F017E0012194080
:1003A00090E6797417F07F017E00121940E490E620
:1003B00079F07F01FE121940E490E679F07F01FEAA
:1003C00012194090E6797480F07F017E0012194086
:1003D00090E679746FF07F017E0012194090E67903
:1003E0007404F07F017E0012194090E678E04440EA
:1003F000F07F017E00121940900029E0FFB406034F
:1004000043B001EFB4081090E67BE0900025F09037
:10041000E67BE0900048F0900029E0FFB409047EFC
:100420000180027E00EFB40A047F0180027F00EFAA
:100430004E70030204C853B43F43B001E5A020E668
:10044000030204C190E67C7403F090E67BE0900028
:1004500002F0E06073900029E0640A702D20042A05
:10046000D2047F3B1217DF7F441217DF7F4C121735
:10047000DF7F441217DF7F301217DF7F301217DF64
:100480007F301217DF7F301217DF900029E06409F8
:100490007036900002E0900061F0E4900060F0900F
:1004A0000061E0FF900060E0C39F501C90E67BE09D
:1004B000900002F0E0FF1217DF900060E004F0808F
:1004C000DEE490E67CF0C204900029E0640B600357
:1004D00002059C90006004F0900060E0FFC394046B
:1004E000501990E67BE0FE74292FF582E43400F584
:1004F00083EEF0900060E004F080DD90002AE0FEE2
:10050000A3E07C002400FFEC3EFEE4FD90003C12E2
:10051000128E5390FD439080438E07E4900060F06C
:1005200090002CE0FF900060E0C39F505E5380BFBE
:100530007F027E0012188D90003EE0FEA3E0FFE4F3
:100540002FF58274403EF583E0900002F07F027E3A
:100550000012188D438040900002E090E67CF07F0E
:100560001412188D90003CE0FCA3E0FDA3E0FEA374
:10057000E02402FFE43EFEE43DFDE43CFC90003C50
:1005800012128E900060E004F0809590003C1212F0
:100590009A000000007F147E0012188D900029E060
:1005A000640C60030206257F02FE121940438E0789
:1005B0009000607401F0900060E0FFC39405501952
:1005C00090E67BE0FE74292FF582E43400F583EE9B
:1005D000F0900060E004F080DD90002AE0FEA3E0EF
:1005E0007C002400FFEC3EFEE4FD90003C12128EE5
:1005F0005390FD4390805380BF7F027E0012188D80
:1006000090002DE0FF90003EE0FCA3E0FDE42DF51E
:100610008274403CF583EFF07F0212188D438040D6
:100620007F1412188D900029E0640D60030206DC2F
:10063000900061F053B43F43B00190004312129A0E
:10064000000186A0E5A030E648900061E070479088
:10065000E67BE0900002F07F3B1217DF7F44121729
:10066000DF7F4C1217DF7F441217DF7F301217DF56
:100670007F301217DF7F301217DF7F301217DF90C5
:10068000004312129A000186A09000617401F0806C
:1006900005E4900061F0900043E0FCA3E0FDA3E0DE
:1006A000FEA3E0FF74FFEF24FFFFEE34FFFEED3406
:1006B000FFFDEC34FFFC90004312128EE4FFFEFDC0
:1006C000FC900043E0F8A3E0F9A3E0FAA3E0FBC349
:1006D00012127D600302064490E67CF0900029E04F
:1006E000B459175390EF7F057E00121940439010C4
:1006F0007F057E001219405390EF900029E064605E
:100700006003020AB790006104F0900061E0FFC34B
:100710009408501990E67BE0FE74292FF582E434AA
:1007200000F583EEF0900061E004F080DD90003091
:10073000E090005DF090002AE0D39400500302099D
:10074000589000617408F0900061E0FFC39410506D
:100750001990E67BE0FE74292FF582E43400F583DE
:10076000EEF0900061E004F080DDE4900061F09034
:10077000002AE0FF900061E0FEC39F40030209539E
:10078000EEC39408501174312EF582E43400F583E1
:10079000E0FF121863800D90E67BE0900002F0E02D
:1007A000FF1218633099FDC29990002AE014FF905F
:1007B0000061E0C39F400302094AE4900041F0A3B6
:1007C000F090002EE0FFC3900042E09F900041E0D7
:1007D0009400500EA3E004F07006900041E004F095
:1007E00080DFE4900041F0A3F090002EE0FFC39082
:1007F0000042E09F900041E09400500EA3E004F01E
:100800007006900041E004F080DFE4900041F0A326
:10081000F090002EE0FFC3900042E09F900041E086
:100820009400500EA3E004F07006900041E004F044
:1008300080DFE4900041F0A3F090002EE0FFC39031
:100840000042E09F900041E09400500EA3E004F0CD
:100850007006900041E004F080DFE4900041F0A3D6
:10086000F090002EE0FFC3900042E09F900041E036
:100870009400500EA3E004F07006900041E004F0F4
:1008800080DFE4900041F0A3F090002EE0FFC390E1
:100890000042E09F900041E09400500EA3E004F07D
:1008A0007006900041E004F080DFE4900041F0A386
:1008B000F090002EE0FFC3900042E09F900041E0E6
:1008C0009400500EA3E004F07006900041E004F0A4
:1008D00080DFE4900041F0A3F090002EE0FFC39091
:1008E0000042E09F900041E09400500EA3E004F02D
:1008F0007006900041E004F080DFE4900041F0A336
:10090000F090002EE0FFC3900042E09F900041E095
:100910009400500EA3E004F07006900041E004F053
:1009200080DFE4900041F0A3F090002EE0FFC39040
:100930000042E09F900041E09400500EA3E004F0DC
:100940007006900041E004F080DF900061E004F068
:1009500002076FE490003BF090002FE0D39400502A
:1009600003020AA290002CE0FFE4FCFDFEFBFA79F2
:1009700001F812122EC004C005C006C00790002B5B
:10098000E0FFE4FCFDFEFBFAF9780112122ED00321
:10099000D002D001D000EF2BFFEE3AFEED39FDEC96
:1009A00038FCA804A905AA06AB0790002DE0FEE4D8
:1009B000FCFD2BFFEA3EFEED39FDEC38FC900043D8
:1009C00012128E900043E0FCA3E0FDA3E0FEA3E042
:1009D000FFE47B02FAF9F812122E90004312128EF5
:1009E000E490005FF090004704F0900049F0E4F0DC
:1009F000E47F01FEFDFC900043E0F8A3E0F9A3E0F2
:100A0000FAA3E0FBD312127D403490002FE0FF9058
:100A1000003BE09F5028900043E0FCA3E0FDA3E0F2
:100A2000FEA3E0FF74FFEF24FFFFEE34FFFEED3482
:100A3000FFFDEC34FFFC90004312128E80B243B0F5
:100A400040E4FF90003BE0FEEFC39E501874032F7C
:100A5000F582E43400F583E090E67CF0900047E016
:100A600004F00F80DE900039E0B40113E599F0E066
:100A700090E67CF0900047E004F0E4900039F053F9
:100A8000B0BFE490003BF07AF879007EF87F007404
:100A9000F8F59D7400F59E900047E01490E67CF018
:100AA00080157AF879007EF87F0074F8F59D74005F
:100AB000F59EE490E67CF0900029E064706003020B
:100AC0000BD690006104F0900061E0FFC3940850E1
:100AD0001990E67BE0FE74292FF582E43400F5835B
:100AE000EEF0900061E004F080DD90002AE0D39405
:100AF00000406D9000617408F0900061E0FFC394C5
:100B000010501990E67BE0FE74292FF582E4340042
:100B1000F583EEF0900061E004F080DDE490006188
:100B2000F090002AE0FF900061E0FEC39F502CEEA1
:100B3000C39408501174312EF582E43400F583E03B
:100B4000FF1217DF800D90E67BE0900002F0E0FFDF
:100B50001217DF900061E004F080C6E490003BF0E3
:100B600090002FE0D39400405890003A74FAF0E4DB
:100B700090005FF043B04053B0BF90004704F09046
:100B8000003AE0D39402401290002FE0FF9000471B
:100B9000E0D39F500512154280E543B04053B0BFEB
:100BA00043B04053B0BF7AF879007EF87F0074F804
:100BB000F59D7400F59E900047E01490E67CF0806F
:100BC000157AF879007EF87F0074F8F59D7400F5C9
:100BD0009EE490E67CF0900029E0FFB45A0B90E68A
:100BE0007BE0900002F0E0F590EFB4610B90E67BC3
:100BF000E0900002F0E04290900029E064627033DF
:100C000090E670F075B2FE75807075B3F6759080E1
:100C100090E671F075B43F75A00175B54175B001EE
:100C200090E672F0F5B6F5B190E67BE0900002F048
:100C3000E05290900029E0FFB467047E0180027EBC
:100C400000EFB465047F0180027F00EF4E604EE448
:100C500090E608F075C83490E67BE0900002F0E082
:100C6000FFF5CD8FCB90E67BE0900002F09000295D
:100C7000E0B4650E900002E0F40425E0F404F5CC45
:100C8000F5CA900029E0B46709900002E0FFF5CCB6
:100C90008FCA90E67BE0900002F0E0F59890002982
:100CA000E0FF6466702E90E608F075C83690E67B2B
:100CB000E0900002F0E0FEF5CD8ECB90E67BE09078
:100CC0000002F0E0FEF5CC8ECA90E67BE0900002D8
:100CD000F0E0F598EFB4680D90E67BE0900002F04C
:100CE000E0900000F0900029E0B4900EC2AF90E6D2
:100CF0007BE024FF92ACC2BCD2AF900029E0FDB4EF
:100D0000B00990E600E054E74410F0EDB4B107906C
:100D1000E600E054E7F043808090005DE0601690CC
:100D2000E690E090E698F000000090E691E090E612
:0C0D300099F000000090E6917480F02221
:0212FE00D322F9
:0213F800D322FE
:0213FA00D322FC
:0A19D80090E6BAE0900040F0D32240
:10198300900040E090E740F0E490E68AF090E68B28
:0419930004F0D32267
:0A19E20090E6BAE0900001F0D32275
:10199700900001E090E740F0E490E68AF090E68B53
:0419A70004F0D32253
:0213FC00D322FA
:0213FE00D322F8
:0219EC00D32204
:1018380090E6B9E0242F601104701C90E604E0FFE4
:101848004480FF000000F0801090E604E0FF547F21
:0B185800FF000000F08002D322C3223A
:10191000C0E0C083C082D2015391EF90E65D7401B4
:08192000F0D082D083D0E03248
:10195700C0E0C083C0825391EF90E65D7404F0D07D
:0619670082D083D0E032C3
:10196D00C0E0C083C0825391EF90E65D7402F0D069
:06197D0082D083D0E032AD
:10178A00C0E0C083C082C0D075D000C006C0079038
:10179A00006EE0FEA3E0FF90006AEEF0A3EFF0F522
:1017AA00828E83A37402F0900066E0FEA3E0FF90AD
:1017BA00006CEEF0A3EFF0F5828E83A37407F0536A
:1017CA0091EF90E65D7410F0D007D006D0D0D082A9
:0517DA00D083D0E032D5
:10192800C0E0C083C082D2035391EF90E65D740893
:08193800F0D082D083D0E03230
:1016D800C0E0C083C082C0D075D000C006C00790EB
:1016E800E680E030E730900066E0FEA3E0FF90007F
:1016F8006AEEF0A3EFF0F5828E83A37402F09000F7
:101708006EE0FEA3E0FF90006CEEF0A3EFF0F58230
:101718008E83A37407F05391EF90E65D7420F0D0A8
:0C17280007D006D0D0D082D083D0E032B1
:0119EE0032C6
:0119EF0032C5
:0119F00032C4
:0119F10032C3
:0119F20032C2
:0119F30032C1
:0119F40032C0
:0119F50032BF
:0119F60032BE
:0119F70032BD
:0119F80032BC
:0119F90032BB
:0119FA0032BA
:0119FB0032B9
:0119FC0032B8
:0119FD0032B7
:0119FE0032B6
:0119FF0032B5
:011A000032B3
:011A010032B2
:011A020032B1
:011A030032B0
:011A040032AF
:011A050032AE
:011A060032AD
:011A070032AC
:011A080032AB
:011A090032AA
:011A0A0032A9
:011A0B0032A8
:011A0C0032A7
:011A0D0032A6
:011A0E0032A5
:011A0F0032A4
:011A100032A3
:011A110032A2
:101400001201000200000040B40425220000010285
:1014100000010A06000200000040010009022E003F
:1014200001010080320904000004FF0000000705EC
:1014300002020002000705040200020007058602FE
:101440000002000705880200020009022E000101C7
:101450000080320904000004FF00000007050202BA
:101460004000000705040240000007058602400016
:10147000000705880240000004030904100343002C
:101480007900700072006500730073001603450058
:101490005A002D005500530042002000460058001D
:0414A0003200000016
:10180C0090E682E030E004E020E60B90E682E030E7
:10181C00E119E030E71590E680E04401F07F147E9A
:0C182C000012194090E680E054FEF0220B
:1018B60090E682E044C0F090E681F04387010000A4
:0418C60000000022FC
:1018CA007400F58690FDA57C05A3E582458370F931
:0118DA0022EB
:03004300021300A5
:0300530002130095
:101300000219100002196D00021957000219280075
:1013100002178A000216D8000219EE000219EF0027
:101320000219F0000219F1000219F2000219F3008B
:101330000219F4000219F5000219F6000219F7006B
:101340000219F8000219EF000219F9000219FA0057
:101350000219FB000219FC000219FD000219FE002F
:101360000219FF000219EF000219EF000219EF0045
:10137000021A0000021A0100021A0200021A0300F7
:10138000021A0400021A0500021A0600021A0700D7
:10139000021A0800021A0900021A0A00021A0B00B7
:1013A000021A0C00021A0D00021A0E00021A0F0097
:0813B000021A1000021A1100DC
:030000000215D511
:0C15D500787FE4F6D8FD75812002161C1A
:10121800A3F8E0C5F025F0F0E58215827002158389
:06122800E0C838F0E822E6
:10122E00E88FF0A4CC8BF0A42CFCE98EF0A42CFC5F
:10123E008AF0EDA42CFCEA8EF0A4CDA8F08BF0A4DD
:10124E002DCC3825F0FDE98FF0A42CCD35F0FCEB3C
:10125E008EF0A4FEA9F0EB8FF0A4CFC5F02ECD3901
:0F126E00FEE43CFCEAA42DCE35F0FDE43CFC226E
:10127D00EB9FF5F0EA9E42F0E99D42F0E89C45F0C7
:01128D00223E
:0C128E00ECF0A3EDF0A3EEF0A3EFF022D3
:10129A00A8828583F0D083D0821212B11212B112C1
:1012AA0012B11212B1E473E493A3C583C5F0C583E6
:1012BA00C8C582C8F0A3C583C5F0C583C8C582C89E
:0112CA002201
:1015E100020FE6E493A3F8E493A34003F68001F22B
:1015F10008DFF48029E493A3F85407240CC8C3330B
:10160100C4540F4420C8834004F456800146F6DFD9
:10161100E4800B01020408102040809019BDE47E93
:10162100019360BCA3FF543F30E509541FFEE493CE
:10163100A360010ECF54C025E060A840B8E493A395
:10164100FAE493A3F8E493A3C8C582C8CAC583CAC0
:10165100F0A3C8C582C8CAC583CADFE9DEE780BE78
:0119CD000019
:00000001FF
