:0A193A000001020203030404050586
:100C990090E008120F9700000000C203C200C202D0
:100CA900C20112113E7E137F0090E045EEF0A3EFE2
:100CB900F090E04D7413F0A37412F090E0437413B4
:100CC900F0A3741CF090E04B7413F0A3744AF090F5
:100CD900E04F7413F0A37478F0EE54E07003020E41
:100CE9002790E00CE4F0A37480F0A3EEF0A3EFF0FA
:100CF900C374A29FFF74139ECF2402CF3400FEE475
:100D0900FCFD90E004120F8B90E000120F97000099
:100D1900000090E004120F7390E000120F7FC312DD
:100D29000F62503090E002E0FEA3E0FF90E00CE09B
:100D3900FCA3E02FF582EC3EF58374CDF090E00042
:100D4900120F73E47B01FAF9F8120F0690E0001212
:100D59000F8B80BE90E000120F970000000090E01A
:100D690004120F7390E000120F7FC3120F625047F5
:100D790090E002E0FEA3E0FF90E00EE0FCA3E02F8C
:100D8900F582EC3EF583E0FF90E002E0FCA3E0FD94
:100D990090E00CE0FAA3E02DF582EA3CF583EFF050
:100DA90090E000120F73E47B01FAF9F8120F069034
:100DB900E000120F8B80A790E00CE0FFA3E090E029
:100DC90045CFF0A3EFF074002480FF741334FFFEC5
:100DD900C390E04EE09FF090E04DE09EF0C390E0BC
:100DE90048E09FF090E047E09EF0C390E04AE09F22
:100DF900F090E049E09EF0C390E044E09FF090E07D
:100E090043E09EF0C390E04CE09FF090E04BE09E01
:100E1900F0C390E050E09FF090E04FE09EF0D2E800
:100E290043D82090E668E04409F090E65CE0443D50
:100E3900F0D2AF90E680E054F7F0538EF890E600D8
:100E4900E054E74410F0C203300105120A02C2015E
:100E59003003291211FD5024C2031211D8200016A3
:100E690090E682E030E704E020E1EF90E682E030AE
:100E7900E604E020E0E412176812197212010080FA
:020E8900C7227E
:100A020090E6B9E0120FDA0ADB000B84010C19033D
:100A12000A25060AD5080ACF090AC30A0AC90B0021
:100A2200000C851219744003020C9190E6BBE0247D
:100A3200FE603414605724FD601A14603D24067071
:100A42007690E045E090E6B3F090E046E090E6B4C0
:100A5200F0020C9190E04DE090E6B3F090E04EE0B1
:100A620090E6B4F0020C9190E047E090E6B3F0908B
:100A7200E048E090E6B4F0020C9190E049E090E6A4
:100A8200B3F090E04AE090E6B4F0020C9190E6BA3E
:100A9200E0FF121739AA06A9077B01EA494B600D4C
:100AA200EE90E6B3F0EF90E6B4F0020C9190E6A07F
:100AB200E04401F0020C9190E6A0E04401F0020C47
:100AC20091121907020C9112194E020C911219443B
:100AD200020C911218F3020C911219764003020CC7
:100AE2009190E6B8E0247F602B14603C24026003FE
:100AF200020B7AA200E433FF25E0FFA202E4334FA7
:100B020090E740F0E4A3F090E68AF090E68B74025E
:100B1200F0020C91E490E740F0A3F090E68AF090A6
:100B2200E68B7402F0020C9190E6BCE0547EFF7EEC
:100B320000E0D3948040067C007D0180047C007D2F
:100B420000EC4EFEED4F243AF58274193EF583E433
:100B520093FF3395E0FEEF24A1FFEE34E68F82F59A
:100B620083E0540190E740F0E4A3F090E68AF0902D
:100B7200E68B7402F0020C9190E6A0E04401F002D0
:100B82000C911219784003020C9190E6B8E024FE11
:100B9200601D24026003020C9190E6BAE0B40105E4
:100BA200C200020C9190E6A0E04401F0020C919088
:100BB200E6BAE0705990E6BCE0547EFF7E00E0D3D6
:100BC200948040067C007D0180047C007D00EC4E18
:100BD200FEED4F243AF58274193EF583E493FF3318
:100BE20095E0FEEF24A1FFEE34E68F82F583E05418
:100BF200FEF090E6BCE05480FF131313541FFFE095
:100C0200540F2F90E683F0E04420F0020C9190E61E
:100C1200A0E04401F0807812197A507390E6B8E0AF
:100C220024FE60202402706790E6BAE0B40104D288
:100C320000805C90E6BAE06402605490E6A0E04472
:100C420001F0804B90E6BCE0547EFF7E00E0D3943E
:100C52008040067C007D0180047C007D00EC4EFE1D
:100C6200ED4F243AF58274193EF583E493FF3395F0
:100C7200E0FEEF24A1FFEE34E68F82F583E044012B
:100C8200F0800C121794500790E6A0E04401F09017
:070C9200E6A0E04480F0221F
:0300330002196A45
:04196A0053D8EF322D
:1018060090E023EEF0A3EFF090E02374FFF5F012E2
:0C1816000EF045F060051211EC80ED2290
:1018860090E021EEF0A3EFF012180690E021E0FEC2
:07189600A3E0FF1218062277
:10170700E4FEFDEDC39F50050E1E0D80F6E4FDEDD2
:10171700C39F50050E1E0D80F6E4FDEDC39F5005D7
:101727000E1E0D80F6E4FDEDC39F50050E1E0D80C5
:02173700F62298
:1017BF00E490E026F07F017E00121886E58030E28B
:1017CF000690E02674C8F090E026E004F0E0C394A1
:0417DF006440E2225E
:08196200C2C18FC130C1FD229A
:1018C9005380F97F011217074380011217075380CC
:0518D900FE12170722BA
:10182200E58054F94404F5807F01121707438001D3
:0A1832001217075380FE1217072259
:10183C00E58054F94402F5807F01121707438001BB
:0A184C001217075380FE121707223F
:1018DE004380067F011217074380011217075380BA
:0518EE00FE12170722A5
:1016130090E01EEFF043B41043901053A0EF7F1EF1
:101623007E0012188690E01EE0FFB401065390EF8F
:1016330053A0EFEF700643901053A0EFEFB40206F0
:1016430043901043A0107F147E001218867F0A7EF9
:051653000012188622C0
:1014C600AC05A907E4FB1218C9E4FAEB25E0FBE535
:1014D6008030E306EB4401FB8004EB54FEFBE9306D
:1014E600E70EEC30E7051218DE8011121822800C88
:1014F600EC30E70512183C80031218C9E929F9EC0B
:101506002CFC0AEAB408C41218C91218C97F78124A
:051516001707AF0322DE
:10191B0053A0DCE4FF1216137F647E00121886437B
:03192B00A02022D7
:1015C50053A0DD43A002E4FF1216135380F97F05F3
:1015D5007E00121886E490E01DF07F017E0012184F
:1015E500864380017F017E001218865380FE90E0BD
:1015F5001DE004F0E0C394C840E07F057E001218AA
:0E160500867F021216137F147E0012188622B2
:04196E001215C52267
:10151B007D4C7F081214C67F017E00121886E49062
:10152B00E01DF090E01DE0FFC36480948350357D97
:10153B000C1214C67F017E001218867D68E4FF1220
:10154B0014C67F017E001218867D6CE4FF1214C650
:10155B0090E67CEFF07F017E0012188690E01DE094
:05156B0004F080BF2226
:1013A40090E01DEEF0A3EFF0A3EDF0A3EBF07D4C85
:1013B4007F101214C690E01DE0FF7D1C1214C6A31A
:1013C400E0FF7D0C1214C690E020E0FF7D3C121477
:1013D400C67D74E4FF1214C67D7CE4FF1214C67F3C
:1013E400057E0012188690E01FE0FF7D2C1214C6C3
:1013F4007D64E4FF1214C67D6CE4FF1214C67F05FD
:061404007E001218862292
:1012B80090E01DEEF0A3EFF07D4C7F021214C69073
:1012C800E01DE0FF7D1C1214C6A3E0FF7D0C121484
:1012D800C67D68E4FF1214C67D6CE4FF1214C69044
:1012E800E02DEFF07D78E4FF1214C67D7CE4FF1258
:0812F80014C690E02CEFF02277
:1017E30053A0FCE4FF1216137F327E001218867F8B
:1017F3000A7E001218867F011216137F057E0012DF
:0318030018862222
:10140A0090E01DEFF0E4F5B07F0AFE12188675B081
:10141A001075B2FCE490E01EF07F057E001218867B
:10142A004390407F057E0012188690E01EE0B401CA
:10143A000890E01DE0F5808003E4F5807F057E00DA
:10144A001218865390BF7F057E0012188690E01E00
:10145A00E004F0E0C3940240C0758008E4F5A022DD
:10113E0090E601E04440F090E61074A0F090E611C5
:10114E00F000000090E61274A2F000000090E6138A
:10115E0074A0F000000090E61474E2F0000000901D
:10116E00E61574E0F000000090E6917480F0000047
:10117E0000F000000090E695F0000000F043AF0193
:10118E00D200E490E670F075B2FC75B3F475901071
:10119E0090E671F075B4FFF5A075B510F5B090E658
:1011AE0072F0F5B6F5B17F0AFE12188675B010759D
:1011BE008B97758D9775C83475884075892075C065
:0A11CE0052E4FF12140A121958220D
:10010000E5AA30E003020A01E5AA30E503020A018C
:100110007AF079007EF07F0074F0F59A7400F59B18
:100120007AF879007EF87F0074F8F59D7400F59EEA
:1001300090E690E0FF90E691E0240090E012F090CD
:10014000E67BE090E041F0E06401600302024E6370
:10015000904090E678E04440F0E490E679F090E654
:1001600078E020E6F97F017E0012188690E678E0BC
:100170004480F090E67974A6F090E678E030E0F9FB
:1001800090E67BE090E02EF090E678E030E0F990A9
:10019000E67BE090E679F090E678E030E0F990E6F2
:1001A00078E04440F090E678E020E6F990E678E0E8
:1001B0004480F090E67974A7F090E678E030E0F9BA
:1001C00090E679E090E02EF090E678E030E0F9906B
:1001D000E679E090E67CF090E678E030E0F990E6B1
:1001E00079E090E67CF090E678E030E0F990E6790E
:1001F000E090E67CF090E678E030E0F990E679E097
:1002000090E67CF090E678E030E0F990E679E090D6
:10021000E67CF090E678E030E0F990E679E090E670
:100220007CF090E678E030E0F990E678E04420F069
:1002300090E679E090E67CF090E678E030E0F990A6
:10024000E679E090E67CF090E678E04440F090E0DB
:1002500041E06402707463908090E678E04480F03E
:1002600090E67974A6F07F017E0012188690E67BF6
:10027000E090E012F07F017E0012188690E67BE0AD
:1002800090E679F090E67BE090E012F0E490E015E3
:10029000F090E012E0FF90E015E0C39F50177F015F
:1002A0007E0012188690E67BE090E679F090E015EB
:1002B000E004F080DC7F017E0012188690E678E092
:1002C0004440F07F077E0012188690E041E0B43091
:1002D0000D43B52053B0DF7F017E0012188690E0F9
:1002E00041E0FFB4310643B02053B5DFEF645760FF
:1002F000030203C690E014F090E014E0FFC39408FA
:10030000501990E67BE0FE742F2FF582E434E0F57F
:1003100083EEF090E014E004F080DD90E678E044B5
:1003200080F090E67974D2F07F017E0012188690FA
:10033000E6797408F07F017E00121886E490E014DC
:10034000F090E67BE090E679F07F017E001218865F
:1003500090E014E004F0E0C3940E40E590E678E00D
:100360004440F07F017E0012188690E678E04480D9
:10037000F090E67974D2F07F017E0012188690E644
:10038000797440F07F017E00121886E490E014F04A
:1003900090E014E0FFC39408501E742F2FF582E400
:1003A00034E0F583E090E679F07F017E0012188654
:1003B00090E014E004F080D890E678E04440F07FCC
:1003C000017E0012188690E041E064596003020546
:1003D0002D90E67CF090E67BE090E012F090E67BDA
:1003E000E090E031F0E490E014F090E012E0FF9053
:1003F000E014E0C39F40030204BE3099FDC299900F
:10040000E67BE090E02EF0E0FF90E010E4F0A3EF58
:10041000F0E490E015F090E013F090E011E0FF9030
:10042000E015E06FF090E010E0C313F0A3E013F0EC
:1004300090E013E004F0E0B408E090E015E054012F
:10044000F0700543980880035398F790E02EE0F58C
:1004500099E490E013F0E490E010F0A3F090E01540
:10046000E004F090E010E475F001120EDA90E01074
:10047000E07004A3E0649670E490E013E004F0E020
:10048000B40AD3E490E013F0E490E010F0A3F0900D
:10049000E015E004F090E010E475F001120EDA903F
:1004A000E010E07004A3E0643270E490E013E00434
:1004B000F0E0B405D390E014E004F00203EAC2983F
:1004C00090E0137401F0E4A3F0E490E015F02098BC
:1004D0003790E031E0FF90E015E0C39F502AE490B0
:1004E000E010F0A3F0209818C390E011E094FA9087
:1004F000E010E094005009E475F001120EDA80E596
:1005000090E015E004F080C6309810C29890E67C28
:10051000E599F090E013E004F0800690E014743F59
:10052000F090E014E004F0E0C3943F409C90E04180
:10053000E0FFB403047E0180027E00EFB410047F6C
:100540000180027F00EF4EFF90E041E0FEB4110415
:100550007D0180027D00ED4FFFEEB450047E0180EE
:10056000027E00EE4FFF90E041E0B460047E018027
:10057000027E00EE4F604690E0147401F090E014AB
:10058000E0FFC39410501990E67BE0FE742F2FF526
:1005900082E434E0F583EEF090E014E004F080DDD6
:1005A00090E030E0FEA3E07C002400FFEC3E90E011
:1005B0001AF0A3EFF090E041E090E67CF090E0418B
:1005C000E0B4030E7F3012140A75B20712196E12CE
:1005D000151B90E041E0B4101B90E01AE0FEA3E090
:1005E000FF1212B890E02DE090E67CF090E02CE055
:1005F00090E67CF090E041E0B4111390E01AE0FE48
:10060000A3E0FF90E032E0FDA3E0FB1213A490E032
:1006100041E0B4191F7D4C7F801214C67D64E4FF55
:100620001214C67D6CE4FF1214C67D4CE4FF121454
:10063000C61217BF90E041E0641A70547D4C7F40B1
:100640001214C67D2CE4FF1214C67D64E4FF12145C
:10065000C67F0A7E001218867D6CE4FF1214C67FE6
:100660000A7E001218867D4C7F401214C67D2C7FB6
:10067000F01214C67D64E4FF1214C67F0A7E0012D5
:1006800018867D6CE4FF1214C67F0A7E001218865D
:1006900090E041E0B41B1A7D4C7F041214C67D68C3
:1006A000E4FF1214C67D6CE4FF1214C690E67CEFE2
:1006B000F090E041E0641770267D4C7F201214C654
:1006C0007D2CE4FF1214C67D64E4FF1214C67F0A79
:1006D0007E001218867D6CE4FF1214C61217BF90BC
:1006E000E041E0B4181A7D4C7F041214C67D68E422
:1006F000FF1214C67D6CE4FF1214C690E67CEFF086
:1007000090E041E0B41C031217E390E041E0B41D17
:100710000312191B90E041E0B42B057F0112161360
:1007200090E041E0B42C0312196E90E041E0B42D4A
:10073000031215C590E041E0B42E0E4380017F0501
:100740001217075380FE12170790E041E0645070C3
:100750003BF5B47F3412140AE490E01CF090E014EE
:10076000F090E01CE02404F0E0F5807F017E0012B0
:10077000188690E67CE5A0F090E014E004F0E0C379
:10078000940740DDE4FF12140AE4F5B490E041E080
:100790006458703A90E678E04480F090E67974D23C
:1007A000F07F017E0012188690E6797409F07F01CF
:1007B0007E00121886E490E679F07F01FE1218861A
:1007C00090E678E04440F07F017E0012188690E0C9
:1007D00041E06460600302096C90E014F090E03046
:1007E000E0FF90E014E0C39F5041E490E010F0A3DC
:1007F000F090E034E075F002A4FFC390E011E09FB8
:1008000090E010E095F05009E475F001120EDA80E6
:10081000E090E014E02436F582E434E0F583E0FF74
:1008200012196290E014E004F080B290E035E0D359
:100830009400500302093590E032E0FFE4FCFDFE35
:10084000FBFA7901F8120F13C004C005C006C007F7
:1008500090E031E0FFE4FCFDFEFBFAF97801120FB5
:1008600013D003D002D001D000120F06A804A905AE
:10087000AA06AB0790E033E07F00FEE4FCFD120F18
:1008800006E47B02FAF9F8120F1390E016120F8BB0
:10089000E490E013F0C2C090E01504F090E035E081
:1008A00090E02AF0E47F01FEFDFC90E016120F7F3D
:1008B000D3120F62407490E02AE0FF90E015E0D37D
:1008C0009F506720C029E47F01FEFDFC90E01612D6
:1008D0000F7FD3120F62401790E016120F7374FF50
:1008E000FBFAF9F8120F0690E016120F8B80D4E491
:1008F0007F01FEFDFC90E016120F7FD3120F6240C5
:10090000A3C2C090E015E0242FF582E434E0F58323
:10091000E5C1F090E015E004F0E0D394014085A338
:10092000120F9700009C400208A490E015E014907C
:10093000E014F08005E490E014F090E014E090E022
:100940002FF0E490E014F090E014E0FFC394105016
:100950001B742F2FF582E434E0F583E090E02EF055
:1009600090E67CF090E014E004F080DB90E041E061
:10097000FFB45A0690E67BE0F590EFB4610690E68E
:100980007BE0429090E041E0B4620690E67BE0526A
:100990009090E041E0FFB4630690E67BE0F580EFE5
:1009A000B4640690E67CE590F090E041E0B4650D1B
:1009B00090E67BE0F5CDF5CBE0F5CCF5CA90E041D3
:1009C000E0FFB4660990E67C746FF0746BF0EFB4EE
:1009D000670690E67BE052B190E041E0B468069093
:1009E000E67BE042B190E690E090E698F0000000EF
:1009F00090E691E090E699F000000090E691748016
:020A0000F022E2
:0211FD00D322FB
:02197200D3227E
:02197400D3227C
:0A19440090E6BAE090E03FF0D322F5
:1018F30090E03FE090E740F0E490E68AF090E68BDA
:0419030004F0D322F7
:0A194E0090E6BAE090E025F0D32205
:1019070090E025E090E740F0E490E68AF090E68BDF
:0419170004F0D322E3
:02197600D3227A
:02197800D32278
:02197A00D32276
:1017940090E6B9E0242F601104701C90E604E0FF89
:1017A4004480FF000000F0801090E604E0FF547FC6
:0B17B400FF000000F08002D322C322DF
:10185600C0E0C083C082D2015391EF90E65D74016F
:08186600F0D082D083D0E03203
:10189D00C0E0C083C0825391EF90E65D7404F0D038
:0618AD0082D083D0E0327E
:1018B300C0E0C083C0825391EF90E65D7402F0D024
:0618C30082D083D0E03268
:10157000C0E0C083C082C0D075D000C006C0079054
:10158000E04BE0FEA3E0FF90E047EEF0A3EFF0F5C4
:10159000828E83A37402F090E043E0FEA3E0FF900C
:1015A000E049EEF0A3EFF0F5828E83A37407F053C9
:1015B00091EF90E65D7410F0D007D006D0D0D082C5
:0515C000D083D0E032F1
:10186E00C0E0C083C082D2035391EF90E65D74084E
:08187E00F0D082D083D0E032EB
:10146A00C0E0C083C082C0D075D000C006C007905B
:10147A00E680E030E73090E043E0FEA3E0FF90E052
:10148A0047EEF0A3EFF0F5828E83A37402F090E0AA
:10149A004BE0FEA3E0FF90E049EEF0A3EFF0F58207
:1014AA008E83A37407F05391EF90E65D7420F0D019
:0C14BA0007D006D0D0D082D083D0E03222
:0111FF0032BD
:01197C003238
:01197D003237
:01197E003236
:01197F003235
:011980003234
:011981003233
:011982003232
:011983003231
:011984003230
:01198500322F
:01198600322E
:01198700322D
:01198800322C
:01198900322B
:01198A00322A
:01198B003229
:01198C003228
:01198D003227
:01198E003226
:01198F003225
:011990003224
:011991003223
:011992003222
:011993003221
:011994003220
:01199500321F
:01199600321E
:01199700321D
:01199800321C
:01199900321B
:01199A00321A
:01199B003219
:01199C003218
:01199D003217
:01199E003216
:101300001201000200000040B40425220000010286
:1013100000010A06000200000040010009022E0040
:1013200001010080320904000004FF0000000705ED
:1013300002020002000705040200020007058602FF
:101340000002000705880200020009022E000101C8
:101350000080320904000004FF00000007050202BB
:101360004000000705040240000007058602400017
:10137000000705880240000004030904100343002D
:101380007900700072006500730073001603450059
:101390005A002D005500530042002000460058001E
:0413A0003200000017
:03004300021200A6
:0300530002120096
:10120000021856000218B30002189D0002186E0062
:101210000215700002146A000211FF0002197C001E
:1012200002197D0002197E0002197F000219800058
:101230000219810002198200021983000219840038
:101240000219850002197C00021986000219870024
:10125000021988000219890002198A0002198B00FC
:1012600002198C0002197C0002197C0002197C0012
:1012700002198D0002198E0002198F0002199000C8
:1012800002199100021992000219930002199400A8
:101290000219950002199600021997000219980088
:1012A0000219990002199A0002199B0002199C0068
:0812B00002199D0002199E00C5
:1017680090E682E030E004E020E60B90E682E0308C
:10177800E119E030E71590E680E04401F07F147E3F
:0C1788000012188690E680E054FEF0226B
:1011D80090E682E044C0F090E681F0438701000089
:0411E80000000022E1
:1011EC007400F58690FDA57C05A3E582458370F916
:0111FC0022D0
:0A195800E490E056F0D2E9D2AF228D
:1016CF00AD0790E678E020E6F9C2E990E678E044CD
:1016DF0080F0ED25E090E679F090E678E030E0F9E3
:1016EF0090E678E04440F090E678E020E6F990E666
:0816FF0078E030E1D6D2E922C7
:10169500AC0790E678E020E6F990E056E0702990F6
:1016A500E678E04480F0AF04EF25E090E679F0902D
:1016B500E051EDF0AF03A9077B01A3120FD1E49030
:0A16C500E055F0A304F0D322C32285
:10165800AC0790E678E020E6F990E056E0702C9030
:10166800E678E04480F0AF04EF25E0440190E679A5
:10167800F090E051EDF0AF03A9077B01A3120FD161
:0D168800E490E055F0A37403F0D322C322D8
:03004B00021000A0
:10100000C0E0C083C082C085C084C086758600C031
:10101000D075D000C000C001C002C003C00790E678
:1010200078E030E20990E0567406F002112290E672
:1010300078E020E10E90E056E0640260067407F06C
:1010400002112290E056E024FE607614604424FEF3
:10105000700302110F24FC700302111D24086003A9
:1010600002112290E052120FC890E055E0FF04F008
:101070008F82758300120E8B90E679F090E051E03C
:10108000FF90E055E06F6003021122A37405F002A7
:10109000112290E679E0FF90E052120FC890E055DF
:1010A000E0F582758300EF120EB890E0567402F0FE
:1010B00090E051E06401706A90E678E04420F080AE
:1010C0006190E051E024FEFF90E055E0B507079005
:1010D000E678E04420F090E051E014FF90E055E025
:1010E000B5070C90E678E04440F090E056E4F090CC
:1010F000E679E0FF90E052120FC890E055E0F582EB
:10110000758300EF120EB890E055E004F080139064
:10111000E678E04440F090E056E4F0800590E05638
:10112000E4F05391DFD007D003D002D001D000D03B
:0E113000D0D086D084D085D082D083D0E0325B
:02173900A907FE
:10173B0090E04FE0FEA3E0FF8F828E83A3E0640373
:10174B007017AD0119ED7001228F828E83E07C0042
:0C175B002FFDEC3EFEAF0580DFE4FEFF3A
:01176700225F
:0300000002192EB4
:0C192E00787FE4F6D8FD758120020C994A
:100E8B00BB010CE58229F582E5833AF583E022501C
:100E9B0006E92582F8E622BBFE06E92582F8E22266
:0D0EAB00E58229F582E5833AF583E4932280
:100EB800F8BB010DE58229F582E5833AF583E8F070
:100EC800225006E92582C8F622BBFE05E92582C81C
:020ED800F22204
:100EDA00C5F0F8A3E028F0C5F0F8E58215827002A3
:060EEA001583E038F02240
:100EF000A3F8E0C5F025F0F0E582158270021583B5
:060F0000E0C838F0E82211
:0D0F0600EF2BFFEE3AFEED39FDEC38FC223A
:100F1300E88FF0A4CC8BF0A42CFCE98EF0A42CFC7D
:100F23008AF0EDA42CFCEA8EF0A4CDA8F08BF0A4FB
:100F33002DCC3825F0FDE98FF0A42CCD35F0FCEB5A
:100F43008EF0A4FEA9F0EB8FF0A4CFC5F02ECD391F
:0F0F5300FEE43CFCEAA42DCE35F0FDE43CFC228C
:100F6200EB9FF5F0EA9E42F0E99D42F0E89C45F0E5
:010F7200225C
:0C0F7300E0FCA3E0FDA3E0FEA3E0FF22F1
:0C0F7F00E0F8A3E0F9A3E0FAA3E0FB22F5
:0C0F8B00ECF0A3EDF0A3EEF0A3EFF022D9
:100F9700A8828583F0D083D082120FAE120FAE12D3
:100FA7000FAE120FAEE473E493A3C583C5F0C583F8
:100FB700C8C582C8F0A3C583C5F0C583C8C582C8A4
:010FC7002207
:090FC800E0FBA3E0FAA3E0F9222A
:090FD100EBF0A3EAF0A3E9F02221
:100FDA00D083D082F8E4937012740193700DA3A3A6
:100FEA0093F8740193F5828883E4737402936860BA
:060FFA00EFA3A3A380DFBA
:00000001FF
