:0A12EC0000010202030304040505DB
:1009680090E064120BC100000000C203C200C20282
:10097800C201120EA47E0E7F0090E07CEEF0A3EF81
:10098800F090E084740EF0A37412F090E07A740E84
:10099800F0A3741CF090E082740EF0A3744AF090F7
:1009A800E086740EF0A37478F0EE54E07003020A47
:1009B800EA90E068E4F0A37480F0A3EEF0A3EFF00F
:1009C800C374A29FFF740E9ECF2402CF3400FEE4AE
:1009D800FCFD90E060120BB590E05C120BC10000CA
:1009E800000090E060120B9D90E05C120BA9C3120E
:1009F8000B8C502E90E05C120B9D90E068E0FCA3FD
:100A0800E02FF582EC3EF58374CDF090E05C120B9C
:100A18009DE47B01FAF9F8120B7F90E05C120BB5AC
:100A280080C090E05C120BC10000000090E06012F2
:100A38000B9D90E05C120BA9C3120B8C503D90E00B
:100A48005C120B9D90E06AE0FCA3E02FF582EC3E7F
:100A5800F583E0FD90E068E0FAA3E02FF582EA3E36
:100A6800F583EDF090E05C120B9DE47B01FAF9F858
:100A7800120B7F90E05C120BB580B190E068E0FF4C
:100A8800A3E090E07CCFF0A3EFF074002480FF7423
:100A98000E34FFFEC390E085E09FF090E084E09E76
:100AA800F0C390E07FE09FF090E07EE09EF0C3907E
:100AB800E081E09FF090E080E09EF0C390E07BE072
:100AC8009FF090E07AE09EF0C390E083E09FF09082
:100AD800E082E09EF0C390E087E09FF090E086E03F
:100AE8009EF0D2E843D82090E668E04409F090E60A
:100AF8005CE0443DF0D2AFD2041210B290E680E040
:100B080054F7F0538EF890E600E054E74410F0C232
:100B1800033001051206C6C2013003291213115011
:100B280024C20312116720001690E682E030E70421
:100B3800E020E1EF90E682E030E604E020E0E41215
:0B0B4800111012131312010080C722CD
:1006C60090E6B9E0120BF207AA0008530108E80306
:1006D60006E90607A408079E0907920A07980B0071
:1006E600000954121315400302096090E6BBE0248A
:1006F600FE603B14606224FD601F146046240660A1
:100706000302078890E07CE0FCA3E0FDEC90E6B3F2
:10071600F0ED90E6B4F002096090E084E0FCA3E01E
:10072600FDEC90E6B3F0ED90E6B4F002096090E0DF
:100736007EE0FCA3E0FDEC90E6B3F0ED90E6B4F0CD
:1007460002096090E080E0FCA3E0FDEC90E6B3F0E7
:10075600ED90E6B4F002096090E6BAE0FF1210E10F
:10076600AA06A9077B01EA494B600DEE90E6B3F0B5
:10077600EF90E6B4F002096090E6A0E04401F002D2
:10078600096090E6A0E04401F002096012129602A8
:1007960009601213000209601212F60209601212B1
:1007A60082020960121317400302096090E6B8E05E
:1007B600247F602B14603C24026003020849A200D7
:1007C600E433FF25E0FFA202E4334F90E740F0E474
:1007D600A3F090E68AF090E68B7402F0020960E4DA
:1007E60090E740F0A3F090E68AF090E68B7402F072
:1007F60002096090E6BCE0547EFF7E00E0D3948060
:1008060040067C007D0180047C007D00EC4EFEED00
:100816004F24ECF58274123EF583E493FF3395E0A2
:10082600FEEF24A1FFEE34E68F82F583E0540190BB
:10083600E740F0E4A3F090E68AF090E68B7402F0CD
:1008460002096090E6A0E04401F002096012131963
:10085600400302096090E6B8E024FE601D240260B1
:100866000302096090E6BAE0B40105C2000209601D
:1008760090E6A0E04401F002096090E6BAE0705903
:1008860090E6BCE0547EFF7E00E0D3948040067C78
:10089600007D0180047C007D00EC4EFEED4F24ECD3
:1008A600F58274123EF583E493FF3395E0FEEF2460
:1008B600A1FFEE34E68F82F583E054FEF090E6BCAD
:1008C600E05480FF131313541FFFE0540F2F90E6DC
:1008D60083F0E04420F002096090E6A0E04401F0D5
:1008E600807812131B507390E6B8E024FE60202433
:1008F60002706790E6BAE0B40104D200805C90E62C
:10090600BAE06402605490E6A0E04401F0804B90A7
:10091600E6BCE0547EFF7E00E0D3948040067C0077
:100926007D0180047C007D00EC4EFEED4F24ECF54D
:100936008274123EF583E493FF3395E0FEEF24A123
:10094600FFEE34E68F82F583E04401F0800C12114D
:100956003C500790E6A0E04401F090E6A0E0448019
:02096600F0227D
:03003300020CFCC0
:040CFC0053D8EF32A8
:03000B00020DF9EA
:070DF9004380015380FE322C
:03001B0002130AC3
:07130A00758DFB758B32327B
:1011B00090E078EEF0A3EFF090E07874FFF5F01295
:0C11C0000B6945F0600512117B80ED22E8
:1012140090E076EEF0A3EFF01211B090E076E0FEED
:07122400A3E0FF1211B0224C
:1012BD00AE071FEE600890E05AE004F080F253B6DE
:0212CD00FB2202
:10122B00EF1FAC0670011E4C600890E05AE004F012
:06123B0080EE53B6FB2219
:100FD10090E043E4F0A37403F0A3E4F0A3742AF0D7
:100FE100A3E4F0A37428F090E04AE4F0A37406F0BF
:100FF10090E04DE4F0A37405F0A3E4F0A37424F0B1
:10100100E490E052F0A3F0A304F0A37406F0A3E48B
:0D101100F0A3742EF0A3E4F0A374DCF02231
:1012CF0030060453B6FB2253B1FB43B60453B1FBB4
:0112DF0022EC
:10101E0090E052E0A3E0FF1212BDC2061212CF9072
:10102E00E054E0FEA3E0FF12122BD2061212CF9074
:10103E00E056E0A3E0FF1212BDE5B15404FF131316
:10104E00543F24FF920543B04053B0BF90E058E0A8
:0A105E00FEA3E0FF12122BA20522F0
:100DB80030051FC2061212CF90E043E0A3E0FF12F5
:100DC80012BDD2061212CF90E045E0A3E0FF121246
:100DD800BD22C2061212CF90E047E0A3E0FF121234
:100DE800BDD2061212CF90E04AE0A3E0FF1212BD76
:010DF80022D8
:100CC800C2061212CF90E043E0A3E0FF1212BD5318
:100CD800B6FBE5B15404FF1313543F24FF920543B8
:100CE800B04053B0BF90E04FE0A3E024FEFF1212E3
:040CF800BDA2052272
:10126D00AD07E4FBED139205120DB8EDC313FD0BA5
:05127D00EBB408F022B3
:1011CC00E4FDFCEDC313FD120CC85004ED4480FD8E
:0811DC000CECB408EEAF052293
:1012AA00D205120FD112101E5002C322C205120F0C
:0312BA00D1D3226B
:100C1800AA07A2049205120FD112101E5002C32275
:100C28007FCC12126D7FA512126DAF02EFC4335440
:100C3800E0FF12126DE4FF12126DE490E075F012FD
:100C480011CC90E075E02423F582E434E0F583EFDD
:100C5800F090E075E004F0E0C3942040E27FFF12DA
:100C6800126D1211CC90E005E4F0A3EFF01211CC54
:100C7800EFFE90E005E04EF0A3E0F07F027E001268
:100C88001214E490E075F01211CC90E075E0240D98
:100C9800F582E434E0F583EFF090E075E004F0E0ED
:100CA800C3941440E21211CC90E021E4F0A3EFF0D9
:100CB8001211CCEFFE90E021E04EF0A3E0F0D32239
:10106800AA07C205120FD112101E5002C3227FCC4C
:1010780012126D7F0F12126DAF0212126DE4FF1281
:10108800126DE4FC74232CF582E434E0F583E0FF70
:1010980012126D0CECB408EC1211CC90E023EFF0B6
:0A10A8001211CC90E024EFF0D322E7
:10118C0012101E5002C3227F3312126DE4FB121197
:10119C00CC74232BF582E434E0F583EFF00BEBB445
:0411AC0008ECD32256
:100EA40090E601E04440F090E61074A0F090E61162
:100EB400F000000090E61274A2F000000090E61327
:100EC40074A0F000000090E61474E2F000000090BA
:100ED400E61574E0F000000090E6917480F00000E4
:100EE40000F000000090E695F0000000F043AF0130
:100EF400D20075B2F775807075B3F6F590E490E69C
:100F040071F075B43F75A00175B540F5B090E67207
:0C0F1400F0F5B6F5B17F05FE12121422B4
:10010000E5AA30E0030206C5E5AA30E5030206C50C
:100110007AF079007EF07F0074F0F59A7400F59B18
:100120007AF879007EF87F0074F8F59D7400F59EEA
:1001300090E690E0FF90E691E0240090E06EF09071
:10014000E67BE090E051F0E064016003020240636E
:10015000904090E678E04440F0E490E679F090E654
:1001600078E020E6F97F017E0012121490E678E034
:100170004480F090E67974A6F090E678E030E0F9FB
:1001800090E67BE090E00BF090E678E030E0F990CC
:10019000E67BE090E679F090E678E030E0F990E6F2
:1001A00078E04480F090E67974A7F090E678E0304B
:1001B000E0F990E679E090E00BF090E678E030E04E
:1001C000F990E679E090E67CF090E678E030E0F9AE
:1001D00090E679E090E67CF090E678E030E0F99007
:1001E000E679E090E67CF090E678E030E0F990E6A1
:1001F00079E090E67CF090E678E030E0F990E679FE
:10020000E090E67CF090E678E030E0F990E679E086
:1002100090E67CF090E678E030E0F990E678E04413
:1002200020F090E679E090E67CF090E678E030E02F
:10023000F990E679E090E67CF090E678E04440F0D2
:1002400090E051E0645960030203AE90E67CF090C8
:10025000E67BE090E06EF090E67BE090E025F0E455
:1002600090E070F090E06EE0FF90E070E0C39F409F
:100270000302033F3099FDC29990E67BE090E00BCA
:10028000F0E0FF90E06CE4F0A3EFF0E490E071F0B8
:1002900090E06FF090E06CE0FCA3E0FDFF90E07177
:1002A000E06FF0ECC313FFED1390E06CCFF0A3EF21
:1002B000F090E06FE004F0E0B408D990E071E05411
:1002C00001F0700543980880035398F790E00BE025
:1002D000F599E490E06FF0E490E06CF0A3F090E02A
:1002E00071E004F090E06CE475F001120B5390E0C3
:1002F0006CE07004A3E0649670E490E06FE004F0BA
:10030000E0B40AD3E490E06FF0E490E06CF0A3F086
:1003100090E071E004F090E06CE475F001120B5392
:1003200090E06CE07004A3E0643270E490E06FE071
:1003300004F0E0B405D390E070E004F0020264C27F
:100340009890E06F7401F0E4A3F0E490E071F02085
:10035000983790E025E0FF90E071E0C39F502AE4D9
:1003600090E06CF0A3F0209818C390E06DE094FA50
:1003700090E06CE094005009E475F001120B53809A
:10038000E590E071E004F080C6309810C29890E6E5
:100390007CE599F090E06FE004F0800690E07074E6
:1003A0003FF090E070E004F0E0C3943F409C90E0A8
:1003B00051E0FF6410702590E67CEFF043B60453E3
:1003C000B1FB7F647E0012121453B6FB7F647E0083
:1003D0001212141212AAE43390E67CF090E051E07D
:1003E000641160030204DC90E074F0E490E06EF0CD
:1003F00090E06EE0FFC39408501474232FF582E45C
:1004000034E0F583E4F090E06EE004F080E290E008
:1004100074E00475F008A4FF12106890E074E00422
:10042000F0E0C3940F40C47F027E0012121490E0EB
:1004300051E090E67CF0E490E06EF090E06EE0FF3A
:10044000C39408501990E67BE0FE74232FF582E4F4
:1004500034E0F583EEF090E06EE004F080DDE4FF40
:100460001210687F027E00121214C204E4FF120C04
:1004700018E490E67CF090E005E0FEA3E090E67CD6
:10048000F0EEF090E021E0FEA3E090E67CF0EEF0EC
:10049000E490E06EF090E06EE0FFC394205017749B
:1004A000232FF582E434E0F583E090E67CF090E0E1
:1004B0006EE004F080DFE490E06EF090E06EE0FF2C
:1004C000C394145017740D2FF582E434E0F583E0E3
:1004D00090E67CF090E06EE004F080DF90E051E088
:1004E000FFB4122D90E67CF012118CE490E06EF0D7
:1004F00090E06EE0FFC39408501774232FF582E458
:1005000034E0F583E090E67CF090E06EE004F0806B
:10051000DF90E051E0645760030205EE90E070F078
:1005200090E070E0FFC39408501990E67BE0FE7401
:10053000232FF582E434E0F583EEF090E070E004E0
:10054000F080DD90E678E04480F090E67974D2F0B7
:100550007F017E0012121490E6797408F07F017E0C
:1005600000121214E490E070F090E67BE090E679DF
:10057000F07F017E0012121490E070E004F0E0C3FE
:10058000940E40E590E678E04440F07F017E001252
:10059000121490E678E04480F090E67974D2F07F0F
:1005A000017E0012121490E6797440F07F017E0003
:1005B000121214E490E070F090E070E0FFC3940831
:1005C000501E74232FF582E434E0F583E090E67941
:1005D000F07F017E0012121490E070E004F080D8E9
:1005E00090E678E04440F07F017E0012121490E023
:1005F00051E06458703A90E678E04480F090E679F3
:1006000074D2F07F017E0012121490E6797409F022
:100610007F017E00121214E490E679F07F01FE1251
:10062000121490E678E04440F07F017E001212142C
:1006300090E051E0FFB45A0690E67BE0F590EFB40D
:10064000610690E67BE0429090E051E0B462069053
:10065000E67BE0529090E051E0FFB4630690E67BC9
:10066000E0F580EFB4640690E67CE590F090E05110
:10067000E0B4650D90E67BE0F5CDF5CBE0F5CCF58B
:10068000CA90E051E0FFB4660990E67C746FF074A4
:100690006BF0EFB4670690E67BE052B190E051E07A
:1006A000B4680690E67BE042B190E690E090E69870
:1006B000F000000090E691E090E699F000000090D4
:0606C000E6917480F022B7
:02131100D322E5
:02131300D322E3
:02131500D322E1
:0A12F60090E6BAE090E049F0D32240
:1012820090E049E090E740F0E490E68AF090E68B47
:0412920004F0D3226F
:0A13000090E6BAE090E000F0D3227E
:1012960090E000E090E740F0E490E68AF090E68B7C
:0412A60004F0D3225B
:02131700D322DF
:02131900D322DD
:02131B00D322DB
:10113C0090E6B9E0242F601104701C90E604E0FFE7
:10114C004480FF000000F0801090E604E0FF547F24
:0B115C00FF000000F08002D322C3223D
:1011E400C0E0C083C082D2015391EF90E65D7401E8
:0811F400F0D082D083D0E0327C
:10124100C0E0C083C0825391EF90E65D7404F0D09A
:0612510082D083D0E032E0
:10125700C0E0C083C0825391EF90E65D7402F0D086
:0612670082D083D0E032CA
:100F7C00C0E0C083C082C0D075D000C006C007904E
:100F8C00E082E0FEA3E0FF90E07EEEF0A3EFF0F550
:100F9C00828E83A37402F090E07AE0FEA3E0FF90CF
:100FAC00E080EEF0A3EFF0F5828E83A37407F0538C
:100FBC0091EF90E65D7410F0D007D006D0D0D082BF
:050FCC00D083D0E032EB
:1011FC00C0E0C083C082D2035391EF90E65D7408C7
:08120C00F0D082D083D0E03263
:100F2000C0E0C083C082C0D075D000C006C00790AA
:100F3000E680E030E73090E07AE0FEA3E0FF90E06A
:100F40007EEEF0A3EFF0F5828E83A37402F090E0C2
:100F500082E0FEA3E0FF90E080EEF0A3EFF0F582E8
:100F60008E83A37407F05391EF90E65D7420F0D068
:0C0F700007D006D0D0D082D083D0E03271
:01131D00329D
:01131E00329C
:01131F00329B
:01132000329A
:011321003299
:011322003298
:011323003297
:011324003296
:011325003295
:011326003294
:011327003293
:011328003292
:011329003291
:01132A003290
:01132B00328F
:01132C00328E
:01132D00328D
:01132E00328C
:01132F00328B
:01133000328A
:011331003289
:011332003288
:011333003287
:011334003286
:011335003285
:011336003284
:011337003283
:011338003282
:011339003281
:01133A003280
:01133B00327F
:01133C00327E
:01133D00327D
:01133E00327C
:01133F00327B
:01134000327A
:100E00001201000200000040B4042522000001028B
:100E100000010A06000200000040010009022E0045
:100E200001010080320904000004FF0000000705F2
:100E30000202000200070504020002000705860204
:100E40000002000705880200020009022E000101CD
:100E50000080320904000004FF00000007050202C0
:100E6000400000070504024000000705860240001C
:100E70000007058802400000040309041003430032
:100E8000790070007200650073007300160345005E
:100E90005A002D0055005300420020004600580023
:040EA000320000001C
:03004300020D00AB
:03005300020D009B
:100D00000211E40002125700021241000211FC001D
:100D1000020F7C00020F200002131D0002131E00B0
:100D200002131F00021320000213210002132200ED
:100D300002132300021324000213250002132600CD
:100D40000213270002131E000213280002132900B9
:100D500002132A0002132B0002132C0002132D0091
:100D600002132E0002131E0002131E0002131E00A7
:100D700002132F000213300002133100021332005D
:100D8000021333000213340002133500021336003D
:100D900002133700021338000213390002133A001D
:100DA00002133B0002133C0002133D0002133E00FD
:080DB00002133F000213400092
:1011100090E682E030E004E020E60B90E682E030EA
:10112000E119E030E71590E680E04401F07F147E9D
:0C1130000012121490E680E054FEF02241
:1011670090E682E044C0F090E681F04387010000FA
:041177000000002252
:1010B20030040990E680E0440AF0800790E680E080
:1010C2004408F07FDC7E0512121490E65D74FFF096
:0F10D20090E65FF05391EF90E680E054F7F02244
:10117B007400F58690FDA57C05A3E582458370F987
:01118B002241
:0210E100A9075D
:1010E30090E086E0FEA3E0FF8F828E83A3E064039B
:1010F3007017AD0119ED7001228F828E83E07C00A1
:0C1103002FFDEC3EFEAF0580DFE4FEFF98
:01110F0022BD
:030000000212E009
:0C12E000787FE4F6D8FD758120020968D3
:100B5300C5F0F8A3E028F0C5F0F8E582158270022D
:060B63001583E038F022CA
:100B6900A3F8E0C5F025F0F0E5821582700215833F
:060B7900E0C838F0E8229C
:0D0B7F00EF2BFFEE3AFEED39FDEC38FC22C5
:100B8C00EB9FF5F0EA9E42F0E99D42F0E89C45F0BF
:010B9C002236
:0C0B9D00E0FCA3E0FDA3E0FEA3E0FF22CB
:0C0BA900E0F8A3E0F9A3E0FAA3E0FB22CF
:0C0BB500ECF0A3EDF0A3EEF0A3EFF022B3
:100BC100A8828583F0D083D082120BD8120BD81261
:100BD1000BD8120BD8E473E493A3C583C5F0C58386
:100BE100C8C582C8F0A3C583C5F0C583C8C582C87E
:010BF10022E1
:100BF200D083D082F8E4937012740193700DA3A392
:100C020093F8740193F5828883E4737402936860A5
:060C1200EFA3A3A380DFA5
:00000001FF
