:0814490041E0210141E028000F
:1013720090E01AEEF0A3EFF090E01A74FFF5F0128D
:0C1382000C4745F0600512134280ED227C
:1010E90090E018EEF0A3EFF012137290E018E0FE12
:0710F900A3E0FF12137222B5
:10135300AE075398F7E4FDEE30E003639808EEC35D
:0F13630013FE0DEDB408F0C2998F993099FD2259
:10138E00E5B020E70990E020E090E67CF02290E0C6
:09139E0020E0640190E67CF022DD
:100FB800E490E010F090E601E04440F090E6107410
:100FC800A0F090E611F000000090E61274A2F00084
:100FD800000090E61374A0F000000090E61474E29C
:100FE800F000000090E61574E0F000000090E69133
:100FF8007480F0000000F000000090E695F000001A
:1010080000F043AF01D2007598D290E608E04401A1
:10101800F0E490E670F090E671F090E672F075B248
:101028000875800875B3FFF59075B4FF75A0047551
:10103800B53E75B00275B6FFF5B112143F75CDFF18
:1010480075CBFF75CCEC75CAEC75C8347598D2E4CD
:0510580090E020F022F1
:10010000E5AA30E00302076EE5AA30E50302076EB8
:100110007AF079007EF07F0074F0F59A7400F59B18
:100120007AF879007EF87F0074F8F59D7400F59EEA
:1001300090E690E0FF90E691E0240090E010F090CF
:10014000E67BE090E027F0E0B4300312138E90E0FD
:1001500027E0FFB4830890E67BE090E020F0EF64B6
:1001600057600302023D90E012F090E012E0FFC3FE
:100170009408501990E67BE0FE742B2FF582E4344E
:10018000E0F583EEF090E012E004F080DD90E67898
:10019000E04480F090E67974D2F07F027E00121085
:1001A000E990E6797408F07F027E001210E9E4908D
:1001B000E012F090E67BE090E01FF0E090E679F04E
:1001C0007F027E001210E990E012E004F0E0C39498
:1001D0000E40E090E678E04440F07F027E0012108E
:1001E000E990E678E04480F090E67974D2F07F02FE
:1001F0007E001210E990E6797440F07F027E0012D2
:1002000010E9E490E012F090E012E0FFC39408508F
:100210001E742B2FF582E434E0F583E090E679F04C
:100220007F027E001210E990E012E004F080D89086
:10023000E678E04440F07F057E001210E990E02768
:10024000E06458704890E678E04440F07F027E0019
:100250001210E990E678E04480F090E67974D2F0EC
:100260007F027E001210E990E6797409F07F027E29
:10027000001210E9E490E679F07F02FE1210E99096
:10028000E678E04440F07F027E001210E990E0271B
:10029000E0B459175390EF7F057E001210E94390A8
:1002A000167F057E001210E95390EF90E027E0647E
:1002B00060600302045B90E67C7460F090E012746E
:1002C00001F090E012E0FFC39407501990E67BE044
:1002D000FE742B2FF582E434E0F583EEF090E0120B
:1002E000E004F080DDE490E012F090E02CE0FF907C
:1002F000E012E0C39F503F90E67BE090E01FF0E00B
:10030000FF121353E4FD90E030E075F002A4FFED1E
:10031000C39FE5F06480F874809850030D80E7E493
:10032000FD90E030E0FFEDC39F50030D80F390E0BF
:1003300012E004F080B490E031E0D3940050030266
:10034000044690E02EE0FFE4FCFDFEFBFA7901F8A4
:10035000120C6AC004C005C006C00790E02DE0FF83
:10036000E4FCFDFEFBFAF97801120C6AD003D0021E
:10037000D001D000120C5DA804A905AA06AB079015
:10038000E02FE07F00FEE4FCFD120C5DE47B02FA4E
:10039000F9F8120C6A90E014120CE2E490E011F00B
:1003A000C29890E01304F0E47F01FEFDFC90E0149D
:1003B000120CD6D3120CB9407290E031E0FF90E0FD
:1003C00013E0D39F5065639080209829E47F01FE5D
:1003D000FDFC90E014120CD6D3120CB9401790E03B
:1003E00014120CCA74FFFBFAF9F8120C5D90E014B9
:1003F000120CE280D4E47F01FEFDFC90E014120CAC
:10040000D6D3120CB940A0C29890E01FE599F0E055
:1004100090E67CF090E013E004F0E0D39401408794
:10042000A3120CEE000007D00203A77AF879007E31
:10043000F87F0074F8F59D7400F59E90E013E014C9
:1004400090E67CF080157AF879007EF87F0074F8E9
:10045000F59D7400F59EE490E67CF090E027E06462
:10046000706003020517C2985390EF7F05FE1210CB
:10047000E94390167F647E001210E95390EF90E0FC
:1004800014120CEE0000000090E0137401F0E490F0
:10049000E67CF0E47F407E9CFDFC90E014120CD6DC
:1004A000C3120CB9505820982AE47F407E9CFDFC72
:1004B00090E014120CD6C3120CB9501790E014122D
:1004C0000CCAE47B01FAF9F8120C5D90E014120CEE
:1004D000E280D3E47F407E9CFDFC90E014120CD6B9
:1004E000C3120CB950ADC29890E67CE599F090E04B
:1004F00013E004F0A3120CEE0000000080957AF8DF
:1005000079007EF87F0074F8F59D7400F59E90E008
:1005100013E01490E67CF090E027E0B4590D43908E
:10052000167F057E001210E95390EF90E027E064FB
:10053000E060030206097F05FE1210E94390167F72
:10054000057E001210E95390EF5390EFE490E01213
:10055000F05390EF90E012E004F0E0B464F37F55C4
:100560001213537F8C7E001210E97F551213531221
:1005700013531213531213531213537F287E001276
:1005800010E97F801213537F82121353E4FF12137A
:1005900053E41213537F081213537F0A7E00121084
:1005A000E97F4B1213537F491213537F4C1213539D
:1005B0001213530F1213537F45121353E4FF1213F8
:1005C00053E41213537F647E001210E97F647E00AF
:1005D0001210E97F647E001210E97F801213537FAE
:1005E000E4121353E4FF121353E4121353E41213EF
:1005F00053E490E012F07F647E001210E990E01264
:10060000E004F0E0C3942840ED90E027E064E1705E
:100610005690E01204F090E012E0FFC394035019EA
:1006200090E67BE0FE742B2FF582E434E0F583EE58
:10063000F090E012E004F080DD4390167F647E00CD
:100640001210E95390EF5390EFE490E012F05390C2
:10065000EF90E012E004F0E0B464F37F551213531E
:100660007F8C7E001210E990E027E0FFB45A0B90D7
:10067000E67BE090E01FF0E0F590EFB4610B90E6D0
:100680007BE090E01FF0E0429090E027E0B4620B46
:1006900090E67BE090E01FF0E0529090E027E0FFD2
:1006A000B4630B90E67BE090E01FF0E0F580EFB4E0
:1006B000640690E67CE590F090E027E06465703396
:1006C00090E67BE090E01FF0E0FFF5CD8FCB90E669
:1006D0007BE090E01FF0E0F40425E0F404F5CCF5B5
:1006E000CA90E67BE090E01FF0E0F5987F017E0085
:1006F0001210E990E027E0FF6467703D90E67BE030
:1007000090E01FF0E0FE642060047D0180027D0027
:10071000EE64DF60047E0180027E00EE5D60069084
:10072000E01FE052A090E01FE0B4200343B010901F
:10073000E01FE0B4DF0353B0DFEFB4681590E67B51
:10074000E090E01FF0E0FFB4200543B0208003EF0D
:1007500042A090E690E090E698F000000090E691CC
:0F076000E090E699F000000090E6917480F0229E
:02145200D322A3
:02145400D322A1
:02145600D3229F
:0A0EF10090E6BAE090E025F0D3226D
:1014030090E025E090E740F0E490E68AF090E68BE8
:0414130004F0D322EC
:0A142B0090E6BAE090E01CF0D32236
:1014170090E01CE090E740F0E490E68AF090E68BDD
:0414270004F0D322D8
:02145800D3229D
:02145A00D3229B
:02145C00D32299
:1013030090E6B9E0242F601104701C90E604E0FF1E
:101313004480FF000000F0801090E604E0FF547F5B
:0B132300FF000000F08002D322C32274
:1013A700C0E0C083C082D2015391EF90E65D740123
:0813B700F0D082D083D0E032B7
:1013D700C0E0C083C0825391EF90E65D7404F0D003
:0613E70082D083D0E03249
:1013ED00C0E0C083C0825391EF90E65D7402F0D0EF
:0613FD0082D083D0E03233
:1011A400C0E0C083C082C0D075D000C006C0079024
:1011B400E03BE0FEA3E0FF90E037EEF0A3EFF0F5B4
:1011C400828E83A37402F090E033E0FEA3E0FF90EC
:1011D400E039EEF0A3EFF0F5828E83A37407F053A9
:1011E40091EF90E65D7410F0D007D006D0D0D08295
:0511F400D083D0E032C1
:1013BF00C0E0C083C082D2035391EF90E65D740802
:0813CF00F0D082D083D0E0329F
:100E9500C0E0C083C082C0D075D000C006C0079036
:100EA500E680E030E73090E033E0FEA3E0FF90E03D
:100EB50037EEF0A3EFF0F5828E83A37402F090E095
:100EC5003BE0FEA3E0FF90E039EEF0A3EFF0F58202
:100ED5008E83A37407F05391EF90E65D7420F0D0F4
:0C0EE50007D006D0D0D082D083D0E032FD
:010EFF0032C0
:01145E00325B
:01145F00325A
:011460003259
:011461003258
:011462003257
:011463003256
:011464003255
:011465003254
:011466003253
:011467003252
:011468003251
:011469003250
:01146A00324F
:01146B00324E
:01146C00324D
:01146D00324C
:01146E00324B
:01146F00324A
:011470003249
:011471003248
:011472003247
:011473003246
:011474003245
:011475003244
:011476003243
:011477003242
:011478003241
:011479003240
:01147A00323F
:01147B00323E
:01147C00323D
:01147D00323C
:01147E00323B
:01147F00323A
:011480003239
:0A1435000001020203030404050590
:100A060090E008120CEE00000000C203C200C20211
:100A1600C201120FB87E117F0090E035EEF0A3EF11
:100A2600F090E03D7411F0A37412F090E03374116D
:100A3600F0A3741CF090E03B7411F0A3744AF0909C
:100A4600E03F7411F0A37478F0EE54E07003020BEB
:100A56009490E00CE4F0A37480F0A3EEF0A3EFF022
:100A6600C374A29FFF74119ECF2402CF3400FEE40C
:100A7600FCFD90E004120CE290E000120CEE000087
:100A8600000090E004120CCA90E000120CD6C312CB
:100A96000CB9503090E002E0FEA3E0FF90E00CE0DD
:100AA600FCA3E02FF582EC3EF58374CDF090E000D8
:100AB600120CCAE47B01FAF9F8120C5D90E0001200
:100AC6000CE280BE90E000120CEE0000000090E008
:100AD60004120CCA90E000120CD6C3120CB950478F
:100AE60090E002E0FEA3E0FF90E00EE0FCA3E02F22
:100AF600F582EC3EF583E0FF90E002E0FCA3E0FD2A
:100B060090E00CE0FAA3E02DF582EA3CF583EFF0E5
:100B160090E000120CCAE47B01FAF9F8120C5D9021
:100B2600E000120CE280A790E00CE0FFA3E090E06A
:100B360035CFF0A3EFF074002480FF741134FFFE6C
:100B4600C390E03EE09FF090E03DE09EF0C390E071
:100B560038E09FF090E037E09EF0C390E03AE09FE7
:100B6600F090E039E09EF0C390E034E09FF090E032
:100B760033E09EF0C390E03CE09FF090E03BE09EC7
:100B8600F0C390E040E09FF090E03FE09EF0D2E8B6
:100B960043D82090E668E04409F090E65CE0443DE6
:100BA600F0D2AF90E680E054F7F0538EF890E6006E
:100BB600E054E74410F0C20330010512076FC2018A
:100BC6003003291214525024C20312132E20001689
:100BD60090E682E030E704E020E1EF90E682E03044
:100BE600E604E020E0E41212D71214541201008049
:020BF600C72214
:10076F0090E6B9E0120D3108480008F1010986033F
:10077F00079206084208083C0908300A08360B00A1
:10078F000009F212145640030209FE90E6BBE02462
:10079F00FE603414605724FD601A14603D24067007
:1007AF007690E035E090E6B3F090E036E090E6B476
:1007BF00F00209FE90E03DE090E6B3F090E03EE0FD
:1007CF0090E6B4F00209FE90E037E090E6B3F090C7
:1007DF00E038E090E6B4F00209FE90E039E090E6F0
:1007EF00B3F090E03AE090E6B4F00209FE90E6BA7A
:1007FF00E0FF1212A8AA06A9077B01EA494B600D78
:10080F00EE90E6B3F0EF90E6B4F00209FE90E6A0AA
:10081F00E04401F00209FE90E6A0E04401F0020975
:10082F00FE1214170209FE12142B0209FE120EF10A
:10083F000209FE1214030209FE12145840030209A2
:10084F00FE90E6B8E0247F602B14603C2402600326
:10085F000208E7A200E433FF25E0FFA202E4334FD2
:10086F0090E740F0E4A3F090E68AF090E68B7402F4
:10087F00F00209FEE490E740F0A3F090E68AF090D2
:10088F00E68B7402F00209FE90E6BCE0547EFF7E18
:10089F0000E0D3948040067C007D0180047C007DC5
:1008AF0000EC4EFEED4F2435F58274143EF583E4D3
:1008BF0093FF3395E0FEEF24A1FFEE34E68F82F530
:1008CF0083E0540190E740F0E4A3F090E68AF090C3
:1008DF00E68B7402F00209FE90E6A0E04401F002FC
:1008EF0009FE12145A40030209FE90E6B8E024FEF6
:1008FF00601D240260030209FE90E6BAE0B4010510
:10090F00C2000209FE90E6A0E04401F00209FE9049
:10091F00E6BAE0705990E6BCE0547EFF7E00E0D36B
:10092F00948040067C007D0180047C007D00EC4EAD
:10093F00FEED4F2435F58274143EF583E493FF33B7
:10094F0095E0FEEF24A1FFEE34E68F82F583E054AD
:10095F00FEF090E6BCE05480FF131313541FFFE02A
:10096F00540F2F90E683F0E04420F00209FE90E64A
:10097F00A0E04401F0807812145C507390E6B8E068
:10098F0024FE60202402706790E6BAE0B40104D21E
:10099F0000805C90E6BAE06402605490E6A0E04408
:1009AF0001F0804B90E6BCE0547EFF7E00E0D394D4
:1009BF008040067C007D0180047C007D00EC4EFEB3
:1009CF00ED4F2435F58274143EF583E493FF339590
:1009DF00E0FEEF24A1FFEE34E68F82F583E04401C1
:1009EF00F0800C121303500790E6A0E04401F09042
:0709FF00E6A0E04480F022B5
:03003300020EFBBF
:040EFB0053D8EF32A7
:101100001201000200000040B404111100000102AD
:1011100000010A06000200000040010009022E0042
:1011200001010080320904000004FF0000000705EF
:101130000202000200070504020002000705860201
:101140000002000705880200020009022E000101CA
:101150000080320904000004FF00000007050202BD
:101160004000000705040240000007058602400019
:10117000000705880240000004030904100343002F
:10118000790070007200650073007300160345005B
:101190005A002D0055005300420020004600580020
:0411A0003200000019
:1012D70090E682E030E004E020E60B90E682E03022
:1012E700E119E030E71590E680E04401F07F147ED5
:0C12F700001210E990E680E054FEF022A6
:10132E0090E682E044C0F090E681F0438701000031
:04133E000000002289
:101342007400F58690FDA57C05A3E582458370F9BE
:011352002278
:0A143F00E490E046F0D2E9D2AF22BB
:10127000AD0790E678E020E6F9C2E990E678E04430
:1012800080F0ED25E090E679F090E678E030E0F946
:1012900090E678E04440F090E678E020E6F990E6C9
:0812A00078E030E1D6D2E9222A
:10123600AC0790E678E020E6F990E046E070299069
:10124600E678E04480F0AF04EF25E090E679F09090
:10125600E041EDF0AF03A9077B01A3120D28E4904E
:0A126600E045F0A304F0D322C322F8
:1011F900AC0790E678E020E6F990E046E0702C90A4
:10120900E678E04480F0AF04EF25E0440190E67908
:10121900F090E041EDF0AF03A9077B01A3120D287F
:0D122900E490E045F0A37403F0D322C3224B
:03004B00020D574C
:100D5700C0E0C083C082C085C084C086758600C0DD
:100D6700D075D000C000C001C002C003C00790E624
:100D770078E030E20990E0467406F0020E7990E6DA
:100D870078E020E10E90E046E0640260067407F028
:100D9700020E7990E046E024FE607614604424FE5B
:100DA7007003020E6624FC7003020E7424086003AD
:100DB700020E7990E042120D1F90E045E0FF04F02B
:100DC7008F82758300120BF890E679F090E041E08E
:100DD700FF90E045E06F6003020E79A37405F0020F
:100DE7000E7990E679E0FF90E042120D1F90E04502
:100DF700E0F582758300EF120C2590E0467402F04F
:100E070090E041E06401706A90E678E04420F08069
:100E17006190E041E024FEFF90E045E0B5070790D0
:100E2700E678E04420F090E041E014FF90E045E0F0
:100E3700B5070C90E678E04440F090E046E4F09087
:100E4700E679E0FF90E042120D1F90E045E0F58261
:100E5700758300EF120C2590E045E004F0801390B5
:100E6700E678E04440F090E046E4F0800590E04604
:100E7700E4F05391DFD007D003D002D001D000D0E7
:0E0E8700D0D086D084D085D082D083D0E03207
:0212A800A90794
:1012AA0090E03FE0FEA3E0FF8F828E83A3E0640319
:1012BA007017AD0119ED7001228F828E83E07C00D8
:0C12CA002FFDEC3EFEAF0580DFE4FEFFD0
:0112D60022F5
:03004300020F00A9
:03005300020F0099
:100F00000213A7000213ED000213D7000213BF0063
:100F10000211A400020E9500020EFF0002145E00F2
:100F200002145F00021460000214610002146200E7
:100F300002146300021464000214650002146600C7
:100F40000214670002145E000214680002146900B3
:100F500002146A0002146B0002146C0002146D008B
:100F600002146E0002145E0002145E0002145E00A1
:100F700002146F0002147000021471000214720057
:100F80000214730002147400021475000214760037
:100F900002147700021478000214790002147A0017
:100FA00002147B0002147C0002147D0002147E00F7
:080FB00002147F00021480000E
:0300000002105D8E
:0C105D00787FE4F6D8FD7581200210A415
:100BF800BB010CE58229F582E5833AF583E02250B2
:100C080006E92582F8E622BBFE06E92582F8E222FB
:0D0C1800E58229F582E5833AF583E4932215
:100C2500F8BB010DE58229F582E5833AF583E8F005
:100C3500225006E92582C8F622BBFE05E92582C8B1
:020C4500F22299
:100C4700A3F8E0C5F025F0F0E58215827002158360
:060C5700E0C838F0E822BD
:0D0C5D00EF2BFFEE3AFEED39FDEC38FC22E6
:100C6A00E88FF0A4CC8BF0A42CFCE98EF0A42CFC29
:100C7A008AF0EDA42CFCEA8EF0A4CDA8F08BF0A4A7
:100C8A002DCC3825F0FDE98FF0A42CCD35F0FCEB06
:100C9A008EF0A4FEA9F0EB8FF0A4CFC5F02ECD39CB
:0F0CAA00FEE43CFCEAA42DCE35F0FDE43CFC2238
:100CB900EB9FF5F0EA9E42F0E99D42F0E89C45F091
:010CC9002208
:0C0CCA00E0FCA3E0FDA3E0FEA3E0FF229D
:0C0CD600E0F8A3E0F9A3E0FAA3E0FB22A1
:0C0CE200ECF0A3EDF0A3EEF0A3EFF02285
:100CEE00A8828583F0D083D082120D05120D0512D5
:100CFE000D05120D05E473E493A3C583C5F0C583FA
:100D0E00C8C582C8F0A3C583C5F0C583C8C582C84F
:010D1E0022B2
:090D1F00E0FBA3E0FAA3E0F922D5
:090D2800EBF0A3EAF0A3E9F022CC
:100D3100D083D082F8E4937012740193700DA3A351
:100D410093F8740193F5828883E473740293686065
:060D5100EFA3A3A380DF65
:10106900020A06E493A3F8E493A34003F68001F28D
:1010790008DFF48029E493A3F85407240CC8C33388
:10108900C4540F4420C8834004F456800146F6DF57
:10109900E4800B0102040810204080901449E47E8A
:1010A900019360BCA3FF543F30E509541FFEE4934C
:1010B900A360010ECF54C025E060A840B8E493A313
:1010C900FAE493A3F8E493A3C8C582C8CAC583CA3E
:1010D900F0A3C8C582C8CAC583CADFE9DEE780BEF6
:01145100009A
:00000001FF
