:0A0FF60000010202030304040505D4
:100BD60090E06212113A00000000C203C200C20295
:100BE600C201120E0D7E137F0090E07EEEF0A3EFA1
:100BF600F090E0867413F0A37412F090E07C741306
:100C0600F0A3741CF090E0847413F0A3744AF0907F
:100C1600E0887413F0A37478F0EE54E07003020DCC
:100C2600A490E066E4F0A37480F0A3EEF0A3EFF0E6
:100C3600C374A29FFF74139ECF2402CF3400FEE438
:100C4600FCFD90E05E12112E90E05A12113A00005F
:100C5600000090E05EE0FCA3E0FDA3E0FEA3E0FF61
:100C660090E05AE0F8A3E0F9A3E0FAA3E0FBC31290
:100C7600111D504490E05AE0A3E0A3E0FEA3E0FF7C
:100C860090E066E0FCA3E02FF582EC3EF58374CDA0
:100C9600F090E05AE0FCA3E0FDA3E0FEA3E0FFE451
:100CA600FAF9F8EF2401FFEA3EFEE93DFDE83CFCD7
:100CB60090E05A12112E809A90E05A12113A0000D2
:100CC600000090E05EE0FCA3E0FDA3E0FEA3E0FFF1
:100CD60090E05AE0F8A3E0F9A3E0FAA3E0FBC31220
:100CE600111D505390E05AE0A3E0A3E0FEA3E0FFFD
:100CF60090E068E0FCA3E02FF582EC3EF583E0FD92
:100D060090E066E0FAA3E02FF582EA3EF583EDF087
:100D160090E05AE0FCA3E0FDA3E0FEA3E0FFE4FAC6
:100D2600F9F8EF2401FFEA3EFEE93DFDE83CFC90C0
:100D3600E05A12112E808B90E066E0FFA3E090E06F
:100D46007ECFF0A3EFF074002480FF741334FFFE0F
:100D5600C390E087E09FF090E086E09EF0C390E0CD
:100D660081E09FF090E080E09EF0C390E083E09FFA
:100D7600F090E082E09EF0C390E07DE09FF090E08E
:100D86007CE09EF0C390E085E09FF090E084E09EDA
:100D9600F0C390E089E09FF090E088E09EF0D2E812
:100DA60043D82090E668E04409F090E65CE0443DD4
:100DB600F0D2AFD2041214B890E680E054F7F053A4
:100DC6008EF890E600E054E74410F0C203300105C7
:100DD600120921C20130032912174E5024C20312F0
:100DE600156D20001690E682E030E704E020E1EF82
:100DF60090E682E030E604E020E0E41215161217D1
:070E06005012010080C72219
:1009210090E6B9E07003020A18147003020AC124A8
:10093100FE7003020B5624FB7003020A12147003AB
:10094100020A0C147003020A00147003020A06243E
:10095100056003020BC21217524003020BCE90E650
:10096100BBE024FE603B14606224FD601F146046FE
:10097100240660030209F690E07EE0FCA3E0FDECB2
:1009810090E6B3F0ED90E6B4F0020BCE90E086E095
:10099100FCA3E0FDEC90E6B3F0ED90E6B4F0020BC1
:1009A100CE90E080E0FCA3E0FDEC90E6B3F0ED90AA
:1009B100E6B4F0020BCE90E082E0FCA3E0FDEC9007
:1009C100E6B3F0ED90E6B4F0020BCE90E6BAE0FFAC
:1009D1001214E7AA06A9077B01EA494B600DEE90C4
:1009E100E6B3F0EF90E6B4F0020BCE90E6A0E0445F
:1009F10001F0020BCE90E6A0E04401F0020BCE1212
:100A010016EC020BCE121736020BCE12172C020B6C
:100A1100CE1216D8020BCE1217544003020BCE9001
:100A2100E6B8E0247F602B14603C24026003020AD4
:100A3100B7A200E433FF25E0FFA202E4334F90E7C1
:100A410040F0E4A3F090E68AF090E68B7402F002A5
:100A51000BCEE490E740F0A3F090E68AF090E68BAD
:100A61007402F0020BCE90E6BCE0547EFF7E00E003
:100A7100D3948040067C007D0180047C007D00ECE5
:100A81004EFEED4F24F6F582740F3EF583E493FF9D
:100A91003395E0FEEF24A1FFEE34E68F82F583E08B
:100AA100540190E740F0E4A3F090E68AF090E68BE1
:100AB1007402F0020BCE90E6A0E04401F0020BCEEE
:100AC1001217564003020BCE90E6B8E024FE601DDB
:100AD10024026003020BCE90E6BAE0B40105C20025
:100AE100020BCE90E6A0E04401F0020BCE90E6BAF4
:100AF100E0705990E6BCE0547EFF7E00E0D3948024
:100B010040067C007D0180047C007D00EC4EFEED02
:100B11004F24F6F582740F3EF583E493FF3395E09D
:100B2100FEEF24A1FFEE34E68F82F583E054FEF060
:100B310090E6BCE05480FF131313541FFFE0540FE1
:100B41002F90E683F0E04420F0020BCE90E6A0E087
:100B51004401F08078121758507390E6B8E024FEF3
:100B610060202402706790E6BAE0B40104D20080EC
:100B71005C90E6BAE06402605490E6A0E04401F0C3
:100B8100804B90E6BCE0547EFF7E00E0D394804031
:100B9100067C007D0180047C007D00EC4EFEED4F63
:100BA10024F6F582740F3EF583E493FF3395E0FE5E
:100BB100EF24A1FFEE34E68F82F583E04401F0805B
:100BC1000C121542500790E6A0E04401F090E6A017
:050BD100E04480F02269
:030033000212FCBA
:0412FC0053D8EF32A2
:03000B0002174099
:071740004380015380FE32DB
:03001B0002174782
:07174700758DFB758B32323A
:1015D50090E07AEEF0A3EFF090E07A74FFF5F01268
:0C15E50010B845F0600512158180ED2261
:10166A0090E078EEF0A3EFF01215D590E078E0FE66
:07167A00A3E0FF1215D522C9
:1015B600AE075398F7E4FDEE30E003639808EEC3F8
:0F15C60013FE0DEDB408F0C2998F993099FD22F4
:10170000AE071FEE600890E058E004F080F253B698
:02171000FB22BA
:10168100EF1FAC0670011E4C600890E058E004F0BA
:0616910080EE53B6FB22BF
:10121B0030054D90E041E4F0A37403F0A3E4F0A398
:10122B00742AF0A3E4F0A37428F090E048E4F0A350
:10123B007406F090E04BE4F0A37405F0A3E4F0A384
:10124B007424F0E4A3F0A3F090E05204F0A374062E
:10125B00F0A3E4F0A3742EF0A3E4F0A374DCF0226B
:10126B00E490E041F0A3F0A3F0A37404F0A3E4F046
:10127B00A37404F090E048E4F0A304F0E490E04B96
:10128B00F0A3F0A3F0A37404F0A3E4F0A304F09094
:10129B00E052E4F0A37425F0A3E4F0A37404F0A3EC
:0712AB00E4F0A37414F0222B
:0E17120030060453B6FB2253B1FB43B604224B
:1012B20090E04FE0A3E0FF121700C206121712904F
:1012C200E052E0FEA3E0FF121681D206121712903E
:1012D200E054E0A3E0FF121700E5B15404FF13133A
:1012E200543F24FF920543B04053B0BF90E056E014
:0A12F200FEA3E0FF121681A2052200
:1014430030051FC20612171290E041E0A3E0FF121D
:101453001700D20612171290E043E0A3E0FF121721
:101463000022C20612171290E045E0A3E0FF121714
:1014730000D20612171290E048E0A3E0FF12170013
:011483002246
:10148400C20612171290E041E0A3E0FF12170053C6
:10149400B6FBE5B15404FF1313543F24FF920543F4
:1014A400B04053B0BF90E04DE0A3E024FEFF12171C
:0414B40000A205226B
:1016C300AD07E4FBED139205121443EDC313FD0BB9
:0516D300EBB408F02259
:10160A00E4FDFCEDC313FD1214845004ED4480FD87
:08161A000CECB408EEAF052250
:10162200D20512121B1212B25002C3227F3C1216B2
:08163200C3C20512121BD322F2
:10116B00AA07A204920512121B1212B25002C3223A
:10117B007FCC1216C37FA51216C3AF02EFC4335434
:10118B00E0FF1216C3E4FF1216C3E490E077F012EF
:10119B00160A90E077E02421F582E434E0F583EF42
:1011AB00F090E077E004F0E0C3942040E27FFF1280
:1011BB0016C312160A90E002E4F0A3EFF012160A1F
:1011CB00EFFE90E002E04EF0A3E0F07F027E001213
:1011DB00166AE490E077F012160A90E077E0240BA1
:1011EB00F582E434E0F583EFF090E077E004F0E093
:1011FB00C3941440E212160A90E01FE4F0A3EFF040
:10120B0012160AEFFE90E01FE04EF0A3E0F0D3229F
:1013F900AA07C20512121B1212B25002C3227FCCD5
:101409001216C37F0F1216C3AF021216C3E4FF12DE
:1014190016C3E4FC74212CF582E434E0F583E0FF83
:101429001216C30CECB408EC12160A90E021EFF086
:0A14390012160A90E022EFF0D32211
:101592001212B25002C3227F331216C3E4FB121698
:1015A2000A74212BF582E434E0F583EFF00BEBB4FF
:0415B20008ECD3224C
:1015F100E5B020E70990E009E090E67CF02290E078
:0916010009E0640190E67CF0228E
:100E0D0090E601E04440F090E61074A0F090E611F9
:100E1D00F000000090E61274A2F000000090E613BE
:100E2D0074A0F000000090E61474E2F00000009051
:100E3D00E61574E0F000000090E6917480F000007B
:100E4D0000F000000090E695F0000000F043AF01C7
:100E5D00D200E490E670F090E671F090E672F075D5
:100E6D00B20875800875B3FFF59075B4FF75A004D1
:100E7D0075B53E75B00275B6FFF5B190E021745AA7
:100E8D00F0A37404F0E4A3F0A3F0A37464F0A374CE
:100E9D0006F0A37408F0A37488F0A37480F0A37413
:100EAD00E9F0A37420F0E4A3F0A3F0A3F090E678AA
:100EBD00E04480F090E67974D2F07F027E00121645
:100ECD006A90E6797408F07F027E0012166AE4904B
:100EDD00E058F090E058E0FFC3940E501E74212F9F
:100EED00F582E434E0F583E090E679F07F027E0050
:100EFD0012166A90E058E004F080D890E678E0444D
:100F0D0040F07F027E0012166A90E02174D2F0A3A9
:100F1D007450F0A374A6F0E4A3F0A3F0A37480F0D2
:100F2D00A3743FF0A37404F090E678E04480F09051
:100F3D00E67974D2F07F027E0012166A90E679741B
:100F4D0040F07F027E0012166AE490E058F090E0C7
:100F5D0058E0FFC39408501E74212FF582E434E04D
:100F6D00F583E090E679F07F027E0012166A90E03C
:100F7D0058E004F080D890E678E04440F07F027E9F
:0D0F8D000012166A63B020E490E009F02223
:10010000E5AA30E003020920E5AA30E50302092050
:100110007AF079007EF07F0074F0F59A7400F59B18
:100120007AF879007EF87F0074F8F59D7400F59EEA
:1001300090E690E0FF90E691E0240090E06CF09073
:10014000E67BE090E051F0E0B430031215F190E06E
:1001500051E06401600302024A63904090E678E057
:100160004440F0E490E679F090E678E020E6F97F0C
:10017000017E0012166A90E678E04480F090E679FD
:1001800074A6F090E678E030E0F990E67BE090E04D
:1001900008F090E678E030E0F990E67BE090E679D0
:1001A000F090E678E030E0F990E678E04480F09076
:1001B000E67974A7F090E678E030E0F990E679E02F
:1001C00090E008F090E678E030E0F990E679E09091
:1001D000E67CF090E678E030E0F990E679E090E6B1
:1001E0007CF090E678E030E0F990E679E090E67C0B
:1001F000F090E678E030E0F990E679E090E67CF087
:1002000090E678E030E0F990E679E090E67CF090D6
:10021000E678E030E0F990E679E090E67CF090E670
:1002200078E030E0F990E678E04420F090E679E07C
:1002300090E67CF090E678E030E0F990E679E090A6
:10024000E67CF090E678E04440F090E051E06459BC
:1002500060030203C590E67CF090E67BE090E06CE2
:10026000F090E67BE090E023F0E490E06EF090E028
:100270006CE0FF90E06EE0C39F40030203513099B1
:10028000FDC29990E67BE090E008F0E0FF90E06A24
:10029000E4F0A3EFF0E490E06FF090E06DF090E018
:1002A0006AE0FCA3E0FDFF90E06FE06FF0ECC313A9
:1002B000FFED1390E06ACFF0A3EFF090E06DE00463
:1002C000F0E0B408D990E06FE05401F07005439875
:1002D0000880035398F790E008E0F599E490E06D0A
:1002E000F0E490E06AF0A3F090E06FE004F090E0BA
:1002F0006BE004F0700690E06AE004F090E06AE0E1
:100300007004A3E0649670E090E06DE004F0E0B467
:100310000ACFE490E06DF0E490E06AF0A3F090E0A2
:100320006FE004F090E06BE004F0700690E06AE0AB
:1003300004F090E06AE07004A3E0643270E090E0C2
:100340006DE004F0E0B405CF90E06EE004F002024E
:100350006EC29890E06D7401F0E4A3F0E490E06F59
:10036000F020983C90E023E0FF90E06FE0C39F50C6
:100370002FE490E06AF0A3F020981DC390E06BE0BA
:1003800094FA90E06AE09400500EA3E004F0700646
:1003900090E06AE004F080E090E06FE004F080C15B
:1003A000309810C29890E67CE599F090E06DE004FA
:1003B000F0800690E06E743FF090E06EE004F0E0B4
:1003C000C3943F409790E051E0FFB460047E018009
:1003D000027E00EFB450047F0180027F00EF4E6088
:1003E0004690E06E7401F090E06EE0FFC394105010
:1003F0001990E67BE0FE74212FF582E434E0F5836A
:10040000EEF090E06EE004F080DD90E022E0FEA3EC
:10041000E07C002400FFEC3E90E074F0A3EFF0904D
:10042000E051E090E67CF090E051E0FFB4102190C4
:10043000E67CF043B6047F647E0012166A53B6FB76
:100440007F647E0012166A121622E43390E67CF076
:1004500090E051E06411600302055090E076F0E412
:1004600090E06CF090E06CE0FFC3940850147421AD
:100470002FF582E434E0F583E4F090E06CE004F0E2
:1004800080E290E076E00475F008A4FF1213F99082
:10049000E076E004F0E0C3940F40C47F027E0012D7
:1004A000166A90E051E090E67CF0E490E06CF09009
:1004B000E06CE0FFC39408501990E67BE0FE7421E5
:1004C0002FF582E434E0F583EEF090E06CE004F088
:1004D00080DDE4FF1213F97F027E0012166AC20467
:1004E000E4FF12116BE490E67CF090E002E0FEA3E2
:1004F000E090E67CF0EEF090E01FE0FEA3E090E6F6
:100500007CF0EEF0E490E06CF090E06CE0FFC394DF
:1005100020501774212FF582E434E0F583E090E653
:100520007CF090E06CE004F080DFE490E06CF09010
:10053000E06CE0FFC394145017740B2FF582E43481
:10054000E0F583E090E67CF090E06CE004F080DF82
:1005500090E051E0FFB4122D90E67CF0121592E489
:1005600090E06CF090E06CE0FFC3940850177421A9
:100570002FF582E434E0F583E090E67CF090E06CC7
:10058000E004F080DF90E051E0645760030206620F
:1005900090E06EF090E06EE0FFC39408501990E692
:1005A0007BE0FE74212FF582E434E0F583EEF090D9
:1005B000E06EE004F080DD90E678E04480F090E6C4
:1005C0007974D2F07F027E0012166A90E679740880
:1005D000F07F027E0012166AE490E06EF090E67BF7
:1005E000E090E679F07F027E0012166A90E06EE0FD
:1005F00004F0E0C3940E40E590E678E04440F07FDC
:10060000027E0012166A90E678E04480F090E67967
:1006100074D2F07F027E0012166A90E6797440F080
:100620007F027E0012166AE490E06EF090E06EE0C9
:10063000FFC39408501E74212FF582E434E0F58343
:10064000E090E679F07F027E0012166A90E06EE09C
:1006500004F080D890E678E04440F07F027E0012FB
:10066000166A90E051E06458703A90E678E0448071
:10067000F090E67974D2F07F027E0012166A90E65E
:10068000797409F07F027E0012166AE490E679F030
:100690007F02FE12166A90E678E04440F07F027E08
:1006A0000012166A90E051E06460600302088B90CB
:1006B000E06EF090E022E0FF90E06EE0C39F5046D5
:1006C000E490E06AF0A3F090E026E075F002A4FF69
:1006D000C390E06BE09F90E06AE095F0500EA3E0DD
:1006E00004F0700690E06AE004F080DB90E06EE0D9
:1006F0002428F582E434E0F583E0FF1215B690E09B
:100700006EE004F080AD90E027E0D3940050030247
:10071000085490E024E0FFE4FCFDFEFBFA7901F8C8
:100720001210CEC004C005C006C00790E023E0FF51
:10073000E4FCFDFEFBFAF978011210CED003D002E2
:10074000D001D000EF2BFFEE3AFEED39FDEC38FC86
:10075000A804A905AA06AB0790E025E0FEE4FCFD8D
:100760002BFFEA3EFEED39FDEC38FCE47B02FAF9A2
:10077000F81210CE90E07012112EE490E06DF0C2ED
:10078000C090E06F04F090E027E090E004F0E47F98
:1007900001FEFDFC90E070E0F8A3E0F9A3E0FAA30D
:1007A000E0FBD312111D500302084990E004E0FF62
:1007B00090E06FE0D39F400302084920C042E47FED
:1007C00001FEFDFC90E070E0F8A3E0F9A3E0FAA3DD
:1007D000E0FBD312111D402890E070E0FCA3E0FD87
:1007E000A3E0FEA3E0FF74FFEF24FFFFEE34FFFE63
:1007F000ED34FFFDEC34FFFC90E07012112E80BB55
:10080000E47F01FEFDFC90E070E0F8A3E0F9A3E0D6
:10081000FAA3E0FBD312111D500302078EC2C09051
:10082000E06FE02421F582E434E0F583E5C1F09047
:10083000E06FE004F0E0D39401500302078EA312AE
:10084000113A00009C4002078E90E06FE01490E0A7
:100850006EF08005E490E06EF090E06EE090E021B4
:10086000F0E490E06EF090E06EE0FFC39410501B57
:1008700074212FF582E434E0F583E090E008F090F5
:10088000E67CF090E06EE004F080DB90E051E0FF69
:10089000B45A0690E67BE0F590EFB4610690E67BF3
:1008A000E0429090E051E0B4620690E67BE0529026
:1008B00090E051E0FFB4630690E67BE0F580EFB492
:1008C000640690E67CE590F090E051E0B4650D9010
:1008D000E67BE0F5CDF5CBE0F5CCF5CA90E051E054
:1008E000FFB4660990E67C746FF0746BF0EFB46748
:1008F0000690E67BE052B190E051E0B4680690E6E5
:100900007BE042B190E690E090E698F00000009025
:10091000E691E090E699F000000090E6917480F096
:0109200022B4
:02174E00D322A4
:02175000D322A2
:02175200D322A0
:0A172C0090E6BAE090E047F0D32207
:1016D80090E047E090E740F0E490E68AF090E68BEF
:0416E80004F0D32215
:0A17360090E6BAE090E000F0D32244
:1016EC0090E000E090E740F0E490E68AF090E68B22
:0416FC0004F0D32201
:02175400D3229E
:02175600D3229C
:02175800D3229A
:1015420090E6B9E0242F601104701C90E604E0FFDD
:101552004480FF000000F0801090E604E0FF547F1A
:0B156200FF000000F08002D322C32233
:10163A00C0E0C083C082D2015391EF90E65D74018D
:08164A00F0D082D083D0E03221
:10169700C0E0C083C0825391EF90E65D7404F0D040
:0616A70082D083D0E03286
:1016AD00C0E0C083C0825391EF90E65D7402F0D02C
:0616BD0082D083D0E03270
:1013A400C0E0C083C082C0D075D000C006C0079022
:1013B400E084E0FEA3E0FF90E080EEF0A3EFF0F520
:1013C400828E83A37402F090E07CE0FEA3E0FF90A1
:1013D400E082EEF0A3EFF0F5828E83A37407F0535E
:1013E40091EF90E65D7410F0D007D006D0D0D08293
:0513F400D083D0E032BF
:10165200C0E0C083C082D2035391EF90E65D74086C
:08166200F0D082D083D0E03209
:100F9A00C0E0C083C082C0D075D000C006C0079030
:100FAA00E680E030E73090E07CE0FEA3E0FF90E0EE
:100FBA0080EEF0A3EFF0F5828E83A37402F090E046
:100FCA0084E0FEA3E0FF90E082EEF0A3EFF0F5826A
:100FDA008E83A37407F05391EF90E65D7420F0D0EE
:0C0FEA0007D006D0D0D082D083D0E032F7
:01175A00325C
:01175B00325B
:01175C00325A
:01175D003259
:01175E003258
:01175F003257
:011760003256
:011761003255
:011762003254
:011763003253
:011764003252
:011765003251
:011766003250
:01176700324F
:01176800324E
:01176900324D
:01176A00324C
:01176B00324B
:01176C00324A
:01176D003249
:01176E003248
:01176F003247
:011770003246
:011771003245
:011772003244
:011773003243
:011774003242
:011775003241
:011776003240
:01177700323F
:01177800323E
:01177900323D
:01177A00323C
:01177B00323B
:01177C00323A
:01177D003239
:101300001201000200000040B404111100000102AB
:1013100000010A06000200000040010009022E0040
:1013200001010080320904000004FF0000000705ED
:1013300002020002000705040200020007058602FF
:101340000002000705880200020009022E000101C8
:101350000080320904000004FF00000007050202BB
:101360004000000705040240000007058602400017
:10137000000705880240000004030904100343002D
:101380007900700072006500730073001603450059
:101390005A002D005500530042002000460058001E
:0413A0003200000017
:03004300021000A8
:0300530002100098
:1010000002163A000216AD000216970002165200B0
:101010000213A400020F9A0002175A0002175B0085
:1010200002175C0002175D0002175E0002175F00E6
:1010300002176000021761000217620002176300C6
:101040000217640002175B000217650002176600B2
:1010500002176700021768000217690002176A008A
:1010600002176B0002175B0002175B0002175B00A0
:1010700002176C0002176D0002176E0002176F0056
:101080000217700002177100021772000217730036
:101090000217740002177500021776000217770016
:1010A000021778000217790002177A0002177B00F6
:0810B00002177C0002177D000D
:1015160090E682E030E004E020E60B90E682E030E0
:10152600E119E030E71590E680E04401F07F147E93
:0C1536000012166A90E680E054FEF022DD
:10156D0090E682E044C0F090E681F04387010000F0
:04157D000000002248
:1014B80030040990E680E0440AF0800790E680E076
:1014C8004408F07FDC7E0512166A90E65D74FFF032
:0F14D80090E65FF05391EF90E680E054F7F0223A
:101581007400F58690FDA57C05A3E582458370F97D
:011591002237
:0214E700A90753
:1014E90090E088E0FEA3E0FF8F828E83A3E064038F
:1014F9007017AD0119ED7001228F828E83E07C0097
:0C1509002FFDEC3EFEAF0580DFE4FEFF8E
:0115150022B3
:03000000021720C4
:0C172000787FE4F6D8FD758120020BD61E
:1010B800A3F8E0C5F025F0F0E582158270021583EB
:0610C800E0C838F0E82248
:1010CE00E88FF0A4CC8BF0A42CFCE98EF0A42CFCC1
:1010DE008AF0EDA42CFCEA8EF0A4CDA8F08BF0A43F
:1010EE002DCC3825F0FDE98FF0A42CCD35F0FCEB9E
:1010FE008EF0A4FEA9F0EB8FF0A4CFC5F02ECD3963
:0F110E00FEE43CFCEAA42DCE35F0FDE43CFC22CF
:10111D00EB9FF5F0EA9E42F0E99D42F0E89C45F028
:01112D00229F
:0C112E00ECF0A3EDF0A3EEF0A3EFF02234
:10113A00A8828583F0D083D08212115112115112E4
:10114A001151121151E473E493A3C583C5F0C58309
:10115A00C8C582C8F0A3C583C5F0C583C8C582C8FF
:01116A002262
:00000001FF
